:020000040800F2
:1000000000000520C1020008196300081B630008F6
:100010001D6300081F630008216300080000000042
:100020000000000000000000000000002363000842
:10003000256300080000000027630008296300080A
:100040001103000811030008110300081103000840
:100050001103000811030008110300081103000830
:100060001103000811030008110300081103000820
:100070001103000811030008110300081103000810
:100080001103000811030008110300081103000800
:100090001103000811030008110300083F63000862
:1000A0001103000811030008110300085D63000834
:1000B0001103000811030008696300081103000818
:1000C0001103000811030008110300085163000820
:1000D00011030008110300081103000811030008B0
:1000E000376300081103000811030008110300081A
:1000F0001103000811030008110300081103000890
:10010000110300081103000811030008110300087F
:10011000110300081103000811030008110300086F
:1001200045630008110300081103000811030008CB
:10013000110300081103000811030008110300084F
:10014000110300081103000811030008110300083F
:10015000110300081103000811030008110300082F
:10016000110300081103000811030008110300081F
:10017000110300081103000811030008000000002B
:1001800011030008110300081103000811030008FF
:1001900011030008110300081103000811030008EF
:1001A00011030008110300081103000811030008DF
:1001B00011030008110300081103000811030008CF
:0801C0001103000811030008FF
:1001D00010B5054C237833B9044B13B10448AFF381
:1001E00000800123237010BD80000020000000006B
:1001F0007C6C000808B5034B1BB103490348AFF3FF
:10020000008008BD00000000840000207C6C000815
:10021000034613F8012B002AFBD1181A0138704746
:1002200001F0FF01102A2BDB10F0070F08D010F8A7
:10023000013B013A8B422DD010F0070F42B3F6D1AB
:10024000F0B441EA012141EA014122F007047FF0C4
:1002500000070023F0E80256083C85EA010586EA1B
:10026000010685FA47F5A3FA87F586FA47F6A5FA57
:1002700087F68EB9EED1F0BC01F0FF0102F0070263
:1002800032B110F8013B013A83EA010313B1F8D10E
:100290000020704701387047002D06BF35460338EF
:1002A000073815F0010F07D1013015F4807F02BF28
:1002B000013015F4C03F0130F0BC0138704700BF79
:1002C000DFF834D0002103E00C4B5B58435004317D
:1002D0000B480C4B42189A42F6D30B4A02E000231B
:1002E00042F8043B094B9A42F9D306F043F806F072
:1002F00067F805F04FFB704700000520D871000833
:100300000000002080000020800000208C2A0020B7
:10031000FEE70000084B10B5044618684FF47A73E6
:10032000B0FBF3F000F0D0FA002221464FF0FF308E
:1003300000F078FA002010BD1800002008B5032056
:1003400000F05EFA0020FFF7E5FF05F03DFE00201B
:1003500008BD0000024A136801331360704700BFF4
:10036000C8130020014B1868704700BFC813002055
:1003700013B50190FFF7F6FF0446FFF7F3FF019B6B
:10038000001B9842F9D302B010BD000010B504461E
:10039000002800F09E80036C23B9436480F83C3051
:1003A00005F042FE236CDB0600F18E80236C23F403
:1003B000885323F0020343F002032364464B5A6838
:1003C00022F440325A60596862680A435A602368CE
:1003D00021695A68A06A22F480725A605A6842EA17
:1003E00001225A605A6822F040725A60A268596825
:1003F0000A435A609A6822F400629A60E268996837
:100400000A439A60354A90420ED0996821F0706193
:1004100099609A6802439A609A6822F040529A6002
:10042000E26A99680A4306E09A6822F070629A606C
:100430009A6822F040529A609A68A16922F00202FA
:100440009A609A6842EA41029A60226A9AB15A68AE
:1004500042F400625A605A6822F460425A604FF4D3
:10046000604292FAA2F2B2FA82F1626A5868013AE4
:100470008A40024302E05A6822F400625A60002077
:10048000DA6A22F47002DA62E269D96A013A41EA70
:100490000252216BDA629A6822F400729A609A68BA
:1004A00042EA412261699A609A6822F480629A6005
:1004B0009A6842EA81229A606064236C23F0030305
:1004C00043F00103236400E00120002384F83C3062
:1004D00010BD012010BD00BF002301400100000F2E
:1004E00037B5134600220446019290F83C20012AB9
:1004F00064D00122056880F83C20AA68D20703D5A1
:10050000AA68D00713D44EE0AA6842F00102AA609C
:100510002C4A10682C4AB0FBF2F000EB400001902E
:10052000019A002AECD0019A013A0192F8E7206C76
:1005300020F4E06020F0010040F4807020646A68DC
:10054000520505D5206C20F4405040F480502064C2
:10055000226C12F4805202D0626C22F006026264B5
:100560000022A06B84F83C20184AC263184A026437
:10057000184AC2646FF022022A606A6842F0806200
:100580006A60AA6842F48072AA600A4605F14C01CA
:1005900000F04EFA104B5B6813F01F0F236804D075
:1005A0000E4A934201D0002009E0986810F04050B4
:1005B000F9D19A6842F080429A6000E0022003B0CC
:1005C00030BD00BF1800002040420F003B0600086D
:1005D0009D060008A90600080023014000200140F4
:1005E00090F83C30012B10B5044624D0012380F84C
:1005F0003C3003689A6822F001029A609A68D20738
:1006000014D49A68806B22F480729A6000F04FFADA
:100610002268536823F080635360236C23F488536B
:1006200023F0010343F00103236400E000200023D2
:1006300084F83C3010BD022010BD836B1A6C12F0A0
:10064000500F10B524D11A6C42F400721A641A6863
:10065000916811F0405F17D19969A9B9D16A11F475
:10066000700F02D0916849050ED4516821F0200125
:1006700051601A6C22F480721A641A6CD20403D48A
:100680001A6C42F001021A64184604F023F810BDF7
:100690009B6BBDE81040DB6C1847704708B5806B5A
:1006A000FFF7FBFF08BD704708B5806B402303646C
:1006B000436C43F004034364FFF7F5FF08BD0000FB
:1006C0000023F7B5019390F83C30012B70D00D68F2
:1006D00001230468092D80F83C30AEB28F6817D929
:1006E00006EB4602D4F80CE0A2F11E0307229A4062
:1006F0002EEA0202E2603D4A954203D1E36843EAF2
:10070000076303E0E26807FA03F31343E3600EE0D4
:1007100005EB45034FF0070E22690EFA03FE07FAB8
:1007200003F322EA0E0222612269134323614B681C
:10073000062B4FEA83020DD81344676B591F1F2302
:100740008B4006FA01F127EA03036363626B1143EE
:1007500061631DE00C2B0ED81344216BA3F123021F
:100760001F23934006FA02F221EA03032363236B5B
:100770001A4322630CE013441F22E76A413B9A406C
:1007800027EA0202E26206FA03F2E16A0A43E2623F
:10079000174B9C4204D0002380F83C30184623E0DD
:1007A000122D07D1134A536843F480035360F2E7D4
:1007B000022019E00D4B9D4201D0112DEBD10D49C6
:1007C0009D424A6842F400024A60E4D10A4B0B4A57
:1007D0001B68B3FBF2F20A2353430193019B002BE6
:1007E000D9D0019B013BF8E703B0F0BD1200001027
:1007F00000200140002301401800002040420F006B
:10080000074A0002D36800F4E06023F4E0631B04AD
:100810001B0C43F0BF6343F400330343D3607047C2
:1008200000ED00E0194BDB68C3F3022330B5C3F1E0
:1008300007041D1D042C28BF0424062D4FF00105BC
:100840008CBF033B002305FA04F4002804F1FF34B5
:1008500004EA010404FA03F405FA03F303F1FF3395
:1008600002EA030242EA04024FEA021205DA00F049
:100870000F00D2B2064B1A5430BD00F16040D2B224
:1008800000F5614080F8002330BD00BF00ED00E0BE
:1008900014ED00E04209012300F01F0003FA00F00C
:1008A000014B43F82200704700E100E043090122B8
:1008B00000F01F00203302FA00F0024A42F8230041
:1008C000704700BF00E100E00138B0F1807F0AD23C
:1008D000064BF021064A5860002082F823100722B8
:1008E00098601A6070470120704700BF10E000E078
:1008F00000ED00E0044B04281A680CBF42F004022B
:1009000022F004021A60704710E000E0704708B55A
:10091000FFF7FCFF08BD000003681821DAB223F4DA
:100920007F73103A23F00303B2FBF1F20449032A68
:10093000895C88BF0433C1658365806D704700BFE3
:10094000B86C000870B50446FFF70CFD0546002C96
:1009500064D00023226884F83430022384F83530D0
:10096000136823F00103136021680B68D80708D5CA
:10097000FFF7F8FC401B0528F6D920230320636508
:1009800051E00B68294A65681A40A368A0691D43B5
:10099000E3681D4323691D4363692B43E5690343F2
:1009A0002B43256A2B431343626A042A01BF256B3C
:1009B000E66A35432B43042A0B604B6923F0070397
:1009C00043EA02031CD1A26A134320B9012A0BD0C7
:1009D00013D3022A10E0B0F5005F0AD1032A0FD822
:1009E000DFE802F01E0B1E02E26AB2F1C07F07D1FF
:1009F00016E0022A14D9032A02D1E26AD2010FD4E6
:100A00004B612046FFF788FFE26D3F2393408360F0
:100A100000200123606584F8353070BD012070BD71
:100A200040230120636584F8350070BD3F8010F0DD
:100A300070B590F83440012C37D00124866D002524
:100A400080F8344090F83540012C4FF0020428D152
:100A500080F8354004684565256825F480252560C3
:100A600063608368402B02D1A260E16001E0A16075
:100A7000E260C26D3F239340B360236843F01603E6
:100A80002360636943F080036361036C1BB12368D7
:100A900043F0080323602368002043F00103236030
:100AA00070BD80F83450204670BD022070BD70B516
:100AB0000446856DFFF756FC064694F83530022B48
:100AC00006D0802301206365002384F8343070BD94
:100AD00023681A6822F016021A605A6922F080020E
:100AE0005A61226C0AB9A26C1AB11A6822F0080283
:100AF0001A601A6822F001021A602368186810F060
:100B000001000DD0FFF72EFC801B0528F5D920230E
:100B100003206365002384F8350084F8343070BD09
:100B2000E26D3F239340AB60012384F8340084F8E6
:100B3000353070BD90F83530022B03D080234365EB
:100B4000012070470268052380F8353000201368C3
:100B500023F00103136070470023F7B501930446A7
:100B6000594B856D1F680823C26D2E6893401E4245
:100B70000CD001680868400708D5086820F0040018
:100B80000860AB60636D43F0010363654F4B9340B6
:100B90001E4208D021684969090604D5AB60636D1F
:100BA00043F0020363654A4B93401E4208D021681C
:100BB0000968880704D5AB60636D43F0040363657F
:100BC000102303FA02F2164217D0236819680907A6
:100BD00013D5AA601A68500304D51B68190308D5F9
:100BE000A36C07E01A68D20503D41A6822F0080241
:100BF0001A60236C0BB120469847E16D20228A4091
:100C000016423BD023681868C60637D5AA6094F808
:100C10003520052A1A6819D122F016021A605A697D
:100C200022F080025A61226C0AB9A26C1AB11A68C9
:100C300022F008021A603F238B40AB60002384F847
:100C40003430012384F83530236D37E0500304D568
:100C50001B6819030ED4636C0DE01A6812F48072DD
:100C600008D1196821F010011960012384F834209B
:100C700084F83530E36B0BB120469847636D03B3BE
:100C8000636DDA0719D50523226884F835301368B7
:100C900023F0010313604FF41653B7FBF3F7019BE6
:100CA00001339F42019302D31368DB07F7D400237B
:100CB00084F83430012384F83530E36C0BB12046DE
:100CC000984703B0F0BD00BF18000020010080006D
:100CD00004008000094910B50C6924F440740C61CB
:100CE0000C6944F440740C610C6944F001040C611B
:100CF000C0E90023BFF34F8F10BD00BF003C02408E
:100D0000084B1A6922F440721A611A6942F400729F
:100D10001A611A6942F001021A610160BFF34F8F34
:100D2000704700BF003C0240084B1A6922F4407231
:100D30001A611A6942F480721A611A6942F001025A
:100D40001A610180BFF34F8F704700BF003C024023
:100D5000074B1A6922F440721A611A691A611A69FA
:100D600042F001021A610170BFF34F8F704700BF5C
:100D7000003C0240164BDA68920704D515498A698F
:100D800042F020028A61DB68DB0604D5114A9369D0
:100D900043F0100393610E4BDA68900604D50D49B9
:100DA0008A6942F008028A61DB68590604D5094A5B
:100DB000936943F004039361054BDA68120604D586
:100DC00004498A6942F002028A61F222DA607047BD
:100DD000003C0240CC130020064B1A69002A06DAB8
:100DE000054A00205A6002F188325A60704701209B
:100DF000704700BF003C024023016745034A0020C2
:100E0000136943F000431361704700BF003C024088
:100E10000022144B70B504469A61134DFFF7A2FAF5
:100E20000646EB68104ADB030AD5621CF9D00CB900
:100E3000032070BDFFF796FA801B8442F1D2F7E7DA
:100E4000D06810F0F20003D0FFF794FF012070BDCE
:100E5000D36813F0010302D00123D36070BD18469C
:100E600070BD00BFCC130020003C02402DE9F041D2
:100E70001C4C984607460D46237D1646012B2DD067
:100E800001234CF250302375FFF7C2FF10BB032F34
:100E900017D8DFE807F002070C11F1B22846FFF778
:100EA00057FF0EE0B1B22846FFF73EFF09E031469A
:100EB0002846FFF725FF04E0324643462846FFF761
:100EC00009FF4CF25030FFF7A3FF074A136923F0E4
:100ED0000103136100232375BDE8F0810220BDE802
:100EE000F08100BFCC130020003C0240084B1A697F
:100EF00022F440721A611A6942F004021A611A69F6
:100F000042F4803242EA00201861BFF34F8F7047ED
:100F1000003C024051B1012906D002290CBF4FF418
:100F200000714FF4407101E04FF480710E4B1A696B
:100F300022F440721A611A691143196178211A6901
:100F400022F0F8021A6191FAA1F11A69B1FA81F15D
:100F500042F002028840104318611A6942F480325C
:100F60001A61BFF34F8F7047003C02402DE9F843F0
:100F7000234E05468846337D012B3ED001234CF29B
:100F800050303375FFF744FF044688BB4FF0FF3302
:100F9000C8F800302B68012B0DD1287BFFF7A6FF86
:100FA0004CF25030FFF734FF164A0446136923F021
:100FB000040313611CE06F68DFF84890AA686B684F
:100FC00013449F4214D2297B3846FFF7A3FF4CF20B
:100FD0005030FFF71DFFD9F8103023F07A03C9F81D
:100FE000103018B1C8F80070044601E00137E5E799
:100FF000002320463375BDE8F8830220BDE8F8835E
:10100000CC130020003C02402DE9F04F0B6885B066
:101010006F4E01930023DFF8C0C1B646DFF8BC81F4
:101020000122019C9A4032EA040440F0C9804C68D5
:1010300024F01009B9F1020F14D14FEAD30A03F0DA
:10104000070B0F2500EB8A0A4FEA8B0BDAF82070AA
:1010500005FA0BF527EA05050F6907FA0BF72F4389
:10106000CAF820704FEA430A0325076804F0030B0F
:1010700005FA0AF509F1FF390BFA0AFBED43B9F15C
:10108000010F07EA05074BEA0707076012D88768D0
:1010900005EA0709CF6807FA0AF747EA0907C4F320
:1010A0000019876009FA03F9476827EA020749EA45
:1010B00007074760C7683D408F6807FA0AF73D4356
:1010C000C560E5007CD5DCF8445023F0030703F04D
:1010D000030A4FF00F0945F4804507F180474FEAB6
:1010E0008A0ACCF8445007F59C37DCF8445005F4E4
:1010F00080450395039D09FA0AF5D7F808B02BEA55
:101100000509344DA84224D005F58065A84222D0B7
:1011100005F58065A84220D005F58065A8421ED05F
:1011200005F58065A8421CD040451CD005F500653A
:10113000A8421AD005F58065A84218D005F580654B
:10114000A84216D005F58065A84214BF0A250925D6
:1011500010E000250EE001250CE002250AE0032541
:1011600008E0042506E0052504E0062502E0072541
:1011700000E0082505FA0AF514F4803F45EA090560
:10118000BD606FEA020735680CBF3D40154314F49B
:10119000003FCEF80050DEF804500CBF3D40154330
:1011A00014F4801F7560B5680CBF3D401543A40260
:1011B000CEF80850DEF80C5054BF3D401543F560A2
:1011C0000133102B7FF42CAF05B0BDE8F08F00BFCA
:1011D000003C014000000240003802400014024080
:1011E00002B909048161704708B5044B596901428D
:1011F00002D0586102F0CEFD08BD00BF003C0140A6
:10120000194B1A6C42F0805273B51A641B6C174C60
:1012100003F0805325460193019B236843F48033F8
:101220002360FFF79FF806466B68104CDA0307D47B
:10123000FFF798F8801BB0F57A7FF5D9032011E00D
:10124000236843F400332360FFF78CF80546636896
:101250009B0306D4FFF786F8401BB0F57A7FF6D9DA
:10126000ECE7002002B070BD003802400070004082
:101270000368F7B50446D80703D42368990752D406
:10128000A5E0964B9A6802F00C02042A07D09A68EF
:1012900002F00C02082A0BD15B685A0208D58F4B6A
:1012A0001B689B03E9D56368002BE6D1012076E13A
:1012B00063688A4DB3F5803F13D05BB92B6823F484
:1012C00080332B602B6823F480232B60FFF74AF8D0
:1012D000064624E0B3F5A02F2B6806D143F4802303
:1012E0002B602B6843F4803305E023F480332B60BC
:1012F0002B6823F480232B60FFF734F8774D0646E4
:101300002B689F03B9D4FFF72DF8801B6428F7D909
:10131000032044E1FFF726F8801B6428F8D82B68E7
:101320009803F7D4A9E76D4B9A6812F00C0F07D019
:101330009A6802F00C02082A17D15B68590214D48B
:10134000664B1A68920702D5E268012AAED11A6884
:10135000F82191FAA1F12069B1FA81F122F0F802A5
:1013600000FA01F10A431A6031E0E3685B4DF3B122
:101370002B6843F001032B60FEF7F4FF06462B6851
:1013800056489B0705D4FEF7EDFF801B0228F6D9CF
:10139000BEE70368F82292FAA2F22169B2FA82F259
:1013A00023F0F80301FA02F2134303600FE02B6805
:1013B00023F001032B60FEF7D5FF06462B689F073D
:1013C00005D5FEF7CFFF801B0228F7D9A0E72368D9
:1013D0001E0703D423685D0749D522E063693F4DAA
:1013E0007BB16B6F43F001036B67FEF7BBFF0646F3
:1013F0006B6F9807EED4FEF7B5FF801B0228F7D974
:1014000086E76B6F23F001036B67FEF7ABFF0646C1
:101410006B6F9907DED5FEF7A5FF801B0228F7D971
:1014200076E72E4B2E4D1A6C42F080521A641B6CDC
:1014300003F080530193019B2B6843F480732B606E
:10144000FEF790FF06462B68DA0514D5A368234DF6
:10145000012B16D12B6F43F001032B6741F2883526
:10146000FEF780FF1D4E0746336F9B0726D5A26906
:10147000002A37D179E0FEF775FF801B6428E2D996
:1014800046E76BB92B6F41F2883723F001032B67D6
:101490002B6F23F004032B67FEF764FF064619E069
:1014A000052B2B6F03D143F004032B67D2E723F006
:1014B00001032B672B6F23F00403CEE7FEF752FFE7
:1014C000C01BA842D0D923E7FEF74CFF801BB842CF
:1014D0003FF61EAF2B6F9807F6D4C8E700380240DE
:1014E000007000402F4DAB6803F00C03082B3FF455
:1014F000DDAE2B68022A23F080732B6043D1FEF708
:1015000031FF07462B68274E990130D447F6C07249
:1015100092FAA2F24FF44033B2FA82F093FAA3F3B4
:101520004FF07062B3FA83F592FAA2F2E369B2FA6D
:1015300082F1276A626A1F43824047F0005343EA00
:101540000200A36A5A08013A02FA05F3E26A034369
:101550008A4013437360336843F080733360FEF74F
:1015600001FF044633689A0107D5002017E0FEF713
:10157000F9FEC01B0228C5D9CAE6FEF7F3FE001B20
:101580000228EFD9C4E6FEF7EDFE04462B689B0166
:10159000EBD5FEF7E7FE001B0228F7D9B8E603B04B
:1015A000F0BD00BF003802401B498B6803F00C03FC
:1015B000042B2CD0082B2CD1486847F6C0724B68FE
:1015C00000F03F0013F4800F4B6892FAA2F247F646
:1015D000C071B2FA82F201EA030121FA02F114BFEA
:1015E0000E4A0F4AB2FBF0F00B4A00FB01F34FF436
:1015F0004030526890FAA0F002F44032B0FA80F025
:1016000022FA00F001304000B3FBF0F070470348CD
:1016100070470348704700BF0038024040787D01A2
:101620000024F400504A136803F00F038B422DE9A5
:10163000F04104460D460AD32168880714D54B486B
:10164000836823F0F002A368134383600CE01368FF
:1016500023F00F030B431360136803F00F03994249
:10166000EAD00120BDE8F081C90706D43E4A1368DC
:1016700003F00F039D4242D34BE062683B4B012ACB
:10168000196802D111F4003F06E0022A02D111F0DC
:10169000007F01E011F0020FE3D0996841F2883831
:1016A000324F21F003010A439A60FEF75BFE636844
:1016B0000646012B0CD1BB6803F00C03042BD5D0DC
:1016C000FEF750FE801B4045F5D90320BDE8F081B0
:1016D000022B0FD1BB6803F00C03082BC6D0FEF71A
:1016E00041FE801B4045F5D9EFE7FEF73BFE801B2E
:1016F0004045EAD8BB6813F00C0FF6D1B6E7136883
:1017000023F00F032B431360136803F00F039D4274
:10171000A7D121684A0706D51448836823F4E0520C
:10172000E368134383600B0707D5104A2169936868
:1017300023F4604343EAC1039360FFF735FF0B4B8B
:10174000F0229B6892FAA2F2B2FA82F203F0F0035E
:10175000D340074AD35CD840064B18600020FEF700
:10176000D9FD0020BDE8F081003C02400038024075
:101770008271000818000020014B1868704700BFF4
:1017800018000020084B4FF4E0529B6892FAA2F236
:10179000B2FA82F203F4E053D340044AD35C044A21
:1017A0001068D840704700BF0038024092710008AE
:1017B00018000020084B4FF460429B6892FAA2F296
:1017C000B2FA82F203F46043D340044AD35C044A81
:1017D0001068D840704700BF00380240927100087E
:1017E0001800002003682DE9F74F13F001060446A6
:1017F0000BD0B64A916821F400019160466B916864
:101800003143B6FA86F67609916013F4002512D0BA
:10181000AE49E56BD1F88C20B5F5801F22F440125B
:1018200008BF012642EA050216BFB5FA85F5002574
:101830006D09C1F88C20D80211D5A448216CD0F8CC
:101840008C20B1F5800F22F4400242EA0102C0F878
:101850008C2003D0002908BF012500E0012613F0E9
:10186000807F18BF012699065DD5984B984F1A6C5A
:1018700042F080521A641B6C03F080530193019B69
:101880003B6843F480733B60FEF76CFD80463B6829
:10189000DA0507D4FEF766FDC8EB00006428F6D928
:1018A000032040E3894F3B6F13F440730FD1226B49
:1018B00002F44073B3F5407F844B2BD1996821F437
:1018C000F81022F0704121F44071014325E0226BB1
:1018D00002F440729342EAD03B6F3A6F23F44073B4
:1018E00042F480323A673A6F22F480323A673B67BB
:1018F0003B6FDB07DBD5FEF735FD41F288398046CB
:101900003B6F9807D3D4FEF72DFDC8EB0000484588
:10191000F6D9C5E7996821F4F8119960C2F30B0272
:10192000196F0A431A672368D9060CD5674AD2F89B
:101930008C1021F08071C2F88C10D2F88C00A16B51
:101940000143C2F88C105A0408D56048D0F89020A2
:1019500022F44031626E0A43C0F890201F0408D57B
:101960005A48D0F8902022F44021A26E0A43C0F8D1
:101970009020D80308D55548D0F8902022F4401183
:10198000E26E0A43C0F89020990308D54F48D0F87A
:10199000902022F44001226F0A43C0F890205A069A
:1019A00008D54A48D0F8902022F00301626C0A431F
:1019B000C0F890201F0608D54448D0F8902022F0A7
:1019C0000C01A26C0A43C0F89020D80508D53F4806
:1019D000D0F8902022F03001E26C0A43C0F8902049
:1019E000990508D53948D0F8902022F0C001226D21
:1019F0000A43C0F890205A0508D53448D0F8902002
:101A000022F44071626D0A43C0F890201F0508D58A
:101A10002E48D0F8902022F44061A26D0A43C0F80D
:101A20009020D80408D52948D0F8902022F44051BD
:101A3000E26D0A43C0F89020990408D52348D0F8F5
:101A4000902022F44041226E0A43C0F890205A02AE
:101A500008D51E48D0F8902022F08061A26F0A437A
:101A6000C0F890209F020CD51848E16FD0F8902064
:101A7000B1F1006F22F0006208BF01250A43C0F8EF
:101A8000902013F0080F18BF0125580308D50F4800
:101A9000D0F8902022F04071626F0A43C0F8902085
:101AA000190209D50948D0F8902022F08051D4F8C5
:101AB00080200A43C0F89020012E0BD0B3F1007FA4
:101AC00008D0012D40F08C8123E100BF0038024096
:101AD00000700040C84E336823F080633360FEF727
:101AE00041FC07463368DFF810E31A0105D5FEF71D
:101AF00039FCC01B6428F5D9D2E62768FB073CD522
:101B0000636BD3BBDEF884004FF4403898FAA8F931
:101B10004FF07066B9FA89F9DEF8842096FAA6FCCF
:101B200047F6C07ABCFA8CFC9AFAAAFABAFA8AFA90
:101B300098FAA8F8B8FA88F896FAA6F64FF0E043B3
:101B4000B6FA86F693FAA3F3B3FA83FB6168A36847
:101B500000F4403001FA0AF102F0706203FA0BF36C
:101B600020FA09F022FA0CF20B4300FA08F11943AB
:101B700002FA06F30B43CEF884303E0303D5E36B41
:101B8000B3F5801F05D0F80249D5236CB3F5800F5B
:101B900045D1DFF864E24FF44038DEF8840098FA6B
:101BA000A8F94FF0E046B9FA89F9DEF8842096FAF0
:101BB000A6FC47F6C07BBCFA8CFC9BFAABFBBBFADD
:101BC0008BFB98FAA8F84FF07063B8FA88F893FA8C
:101BD000A3F3B3FA83FA96FAA6F6636800F44030EA
:101BE00002F0E042B6FA86F603FA0BF1E36820FA57
:101BF00009F022FA0CF203FA0AF30B4300FA08F197
:101C0000194302FA06F30B43CEF88430DEF88C3029
:101C1000626A23F01F03013A1343CEF88C30F901B6
:101C20003CD5DFF8D4E14FF07068DEF8840098FA14
:101C3000A8F94FF0E046B9FA89F9DEF8842096FA5F
:101C4000A6FC47F6C07BBCFA8CFC9BFAABFB4FF4BE
:101C50004033BBFA8BFB93FAA3F3B3FA83FA98FAF7
:101C6000A8F8B8FA88F896FAA6F6636800F07060EB
:101C700002F0E042B6FA86F603FA0BF1236920FA85
:101C800009F022FA0CF203FA0AF30B4300FA08F106
:101C9000194302FA06F30B43CEF88430BA0126D575
:101CA00047F6C07E9EFAAEFE4FF44030BEFA8EFE7E
:101CB00090FAA0F04FF07062B0FA80F792FAA2F2B8
:101CC0004FF0E043B2FA82F693FAA3F3B3FA83F14A
:101CD00020696368E268B84003FA0EF3B240034338
:101CE0001A43A3688B401343434AC2F88430424EE0
:101CF000336843F080633360FEF734FB0746336894
:101D00001B013FF5DEAEFEF72DFBC01B6428F6D9A4
:101D1000C6E5394D2B6823F080532B60FEF722FB7C
:101D200006462B689F005DD425682E0360D4E80228
:101D300064D4A90200F1AD802A0745D52E4F4FF09B
:101D40007065D7F8882095FAA5FC4FF44036BCFAA8
:101D50008CFCD7F8880096FAA6F847F6C079B8FA4E
:101D600088F899FAA9F9B9FA89F996FAA6F6B6FAAD
:101D700086F695FAA5F54FF0E04EB5FA85F59EFA90
:101D8000AEFE6369BEFA8EFE00F4403002F070626F
:101D900003FA09F1E36920FA08F022FA0CF203FAD7
:101DA0000EFE02FA05F341EA0E0E00FA06F14EEAC3
:101DB00001010B43C7F88830D7F88C3023F4403248
:101DC000E36A1343C7F88C300B4C236843F080530D
:101DD0002360FEF7C7FA054623689B0040F19C800C
:101DE0000020A0E0FEF7BEFA801B642899D957E5D1
:101DF000E36B33B19BE700BF00380240236C002B3C
:101E000097D14A4F4FF4403CD7F888009CFAACF980
:101E10004FF0E046B9FA89F9D7F8882096FAA6FE7D
:101E200047F6C07ABEFA8EFE9AFAAAFABAFA8AFA87
:101E30009CFAACFC4FF07068BCFA8CFC98FAA8F8DD
:101E4000B8FA88F896FAA6F6A16900F440306369FA
:101E500002F0E04201FA08F820FA09F003FA0AF366
:101E600022FA0EF2B6FA86F600FA0CF143EA0803FB
:101E7000194302FA06F30B43C7F88830D7F88C30C1
:101E8000A26A23F4F853013A43EA0223C7F88C30DC
:101E90004FE7E36FB3F1006F7FF44EAF234F4FF086
:101EA000706CD7F888009CFAACF94FF0E046B9FAAC
:101EB00089F9D7F8882096FAA6FE47F6C07ABEFAC6
:101EC0008EFE9AFAAAFA4FF44038BAFA8AFA98FAC9
:101ED000A8F8B8FA88F89CFAACFCBCFA8CFC96FA24
:101EE000A6F6216A00F07060636902F0E04201FA30
:101EF00008F820FA09F003FA0AF3B6FA86F600FAAF
:101F00000CF122FA0EF243EA0803194302FA06F32F
:101F10000B43C7F888300FE7FEF724FA401B64280C
:101F20007FF65AAFBCE403B0BDE8F08F0038024042
:101F3000036859689A6830B502F0410585B00446D7
:101F4000012D03D14D0601D5C36C05E0950705D5DC
:101F5000080603D5236D2046984756E012F4B07F5B
:101F600053D08D0651D5500616D594F85D00002546
:101F700003280AD0206E40F0040020660095D8683F
:101F8000009098680090009806E00195DA68019248
:101F90009B680193019B38E095060CD5206E40F0BC
:101FA000010020660020029098680290186820F0D6
:101FB000400018600298D00508D5226E42F0080251
:101FC0002266002203929A680392039A226EE2B17B
:101FD0005A6822F0E0025A60012284F85D208A07E4
:101FE00010D05A68A06D22F003025A6018B1084B55
:101FF0000365FEF79FFD606D38B1054B0365FEF785
:1020000099FD02E0204601F0DDFF05B030BD00BFC4
:102010001520000808B5806B0023A0F84630C38760
:1020200001F0D0FF08BD036A10B5046A23F00A036B
:1020300024F0010419430462846924F0F00444EAA2
:1020400002128261016210BD036A23F0100310B511
:1020500003628469036A24F4704423F0A00344EA11
:10206000023243EA01118261016210BD026802235B
:1020700080F83930136843F001031360012380F8BE
:10208000393000207047022341F2111280F83930B4
:102090000368196A0A4042B9196A40F244420A4088
:1020A0001AB91A6822F001021A60012380F8393047
:1020B00000207047036851B1042914D11A6A22F034
:1020C00010021A621A6A42F010021A621FE01A6ABB
:1020D00022F001021A621A6A42F001021A62DA68F8
:1020E00042F0020216E01A6A22F001021A621A6A2B
:1020F00042F001021A621A6A22F010021A621A6A87
:1021000042F010021A62DA6842F00202DA60DA681B
:1021100042F00402DA6000201A6842F001021A60FC
:1021200070477047704770477047704703681A6977
:10213000910710B5044614D5DA68920711D56FF0EF
:1021400002021A6101229B690276990702D0FFF709
:10215000EAFF04E0FFF7E6FF2046FFF7E5FF002374
:10216000237623681A69520716D5DA68500713D503
:102170006FF0040220461A6102229B69227613F452
:10218000407F02D0FFF7CFFF04E0FFF7CBFF2046F0
:10219000FFF7CAFF0023237623681A69110715D5B4
:1021A000DA68120712D56FF0080220461A6104227D
:1021B000DB6922769B0702D0FFF7B5FF04E0FFF74B
:1021C000B1FF2046FFF7B0FF0023237623681A698A
:1021D000D00616D5DA68D10613D56FF01002204666
:1021E0001A610822DB69227613F4407F02D0FFF7E0
:1021F0009AFF04E0FFF796FF2046FFF795FF0023C4
:10220000237623681A69D20708D5DA68D00705D57E
:102210006FF0010220461A61FFF783FF23681A69F5
:10222000110608D5DA68120605D56FF0800220463F
:102230001A6100F086FB23681A69D00508D5DA68B0
:10224000110605D56FF0800220461A6100F079FB77
:1022500023681A69520608D5DA68500605D56FF06A
:10226000400220461A61FFF760FF23681A69910651
:102270000AD5DA68920607D56FF0200220461A6167
:10228000BDE8104000F05CBB10BD00002E4A0368A2
:10229000904212D0B0F1804F0FD0A2F57C42904214
:1022A0000BD002F58062904207D002F58062904226
:1022B00003D002F57842904218D14A6823F07003A7
:1022C0001343214A904237D0B0F1804F34D01F4A97
:1022D000904231D002F5806290422DD002F58062AA
:1022E000904229D002F57842904225D0184A904277
:1022F00022D002F5806290421ED002F580629042A8
:102300001AD0A2F59832904216D002F5806290421F
:1023100012D002F5806290420ED003608B68C362D7
:102320000B688362084B98420BD003F58063984298
:1023300007D001234361704723F44073CA681343F5
:10234000EBE70B690363F4E7000001400004004081
:102350000040014010B5044680B190F839300BB907
:1023600003F022FF02232068211D84F83930FFF793
:102370008DFF0123002084F8393010BD012010BDED
:1023800010B50446A0B190F8393003F0FF021BB934
:1023900080F8382003F01CFF02232068211D84F8F8
:1023A0003930FFF773FF0123002084F8393010BD66
:1023B000012010BDF8B50C460546002843D090F822
:1023C000393003F0FF021BB980F8382003F08CFE8F
:1023D0002946022351F8040B85F83930836823F429
:1023E000803323F007038360FFF750FF28682368DA
:1023F000876881691F43A26921F440732169066AD5
:1024000023F00303090143EA0222A3681343E269AC
:1024100041EA0221E26823F47C430A43216A23F063
:10242000FC0342EA01326169134326F0AA0242EA40
:102430000112616887600A43836101230262002000
:1024400085F83930F8BD0120F8BD0000036A23F09B
:10245000010370B50362036A426884690D6824F45D
:10246000803424F073042C4323F002058B682B4343
:102470000C4DA84209D005F58065A84205D0426000
:102480004A6884614263036270BDCD6823F008032B
:102490004E6922F440722B438D69354323F00403C7
:1024A0002A43ECE700000140036A23F0100330B533
:1024B0000362036A4268846923F020030D6824F0F4
:1024C000807424F4E64444EA05248D6843EA051345
:1024D0000E4DA84209D005F58065A84205D042609E
:1024E0004A6884618263036230BDCD6823F0800353
:1024F00022F4406243EA05134D6942EA85028D6980
:1025000023F0400342EA8502E9E700BF00000140F2
:10251000036A23F4807330B50362036A4268C469B6
:1025200023F400730D6824F4803424F073042C43E6
:102530008D6843EA05230E4DA84209D005F5806554
:10254000A84205D042604A68C461C263036230BDDC
:10255000CD6823F4006322F4405243EA05234D6919
:1025600042EA05128D6923F4806342EA0512E9E725
:1025700000000140036A23F4805330B50362046A0B
:102580004268C36924F400540D6823F0807323F477
:10259000E64343EA05238D6844EA0534094DA84221
:1025A00009D005F58065A84205D04260C3614B683B
:1025B0000364046230BD22F480424D6942EA851210
:1025C000F3E700BF0000014010B5846824F47F44A5
:1025D00021430A4342EA0323836010BD90F8383058
:1025E000012B10B504464FF0020000F0828084F801
:1025F00039000123206884F8383082683D4B13404D
:1026000083600B68402B57D014D8102B5FD007D8AD
:10261000002B68D1836823F0700343F0070361E067
:10262000202B5AD0302B5ED1836823F0700343F007
:10263000370357E0702B25D00ED8502B30D0602BAD
:1026400051D1CA684968FFF7FFFC2268936823F0FC
:10265000700343F067032DE0B3F5805F0CD0B3F552
:10266000005F40D1CB684A688968FFF7ADFF2268F8
:10267000936843F480431DE0836823F4803323F0A0
:1026800007032FE0CB684A688968FFF79DFF22683F
:10269000936823F4803323F0770343F0770309E052
:1026A000CA684968FFF7BFFC2268936823F070038B
:1026B00043F05703936016E0CA684968FFF7B3FC1C
:1026C0002268936823F0700343F04703F2E78368BE
:1026D00023F0700343F0170304E0836823F07003D2
:1026E00043F0270383600123002084F8393084F805
:1026F000380010BD8800FEFF01238A408B4010B5D2
:10270000046A24EA03030362036A42EA03010162E2
:1027100010BD000010B5044601220068FFF7ECFF71
:102720002368084A934203D002F58062934203D1A2
:102730005A6C42F400425A641A68002042F00102C6
:102740001A6010BD00000140036A23F4803330B5E5
:102750000362036A4268446D23F400330D6824F475
:10276000803424F070042C438D6843EA0543094DFE
:10277000A84203D005F58065A84204D122F4803236
:102780004D6942EA052242604A68446582650362F7
:1027900030BD00BF00000140036A23F4801330B550
:1027A0000362026A4468436D22F400120D6823F04C
:1027B000807323F4E04343EA05238D6842EA05521F
:1027C000084DA84203D005F58065A84204D124F441
:1027D00080244D6944EA8524446043654B68C365A1
:1027E000026230BD0000014038B590F83830044630
:1027F0000D460220012B7BD00123082A84F83900E2
:1028000084F838303CD013D84AB3042A6AD12068FF
:10281000FFF74AFE236829699A6942F400629A61C7
:102820009A6922F480629A619A6942EA012225E05B
:10283000102A36D0142A44D00C2A53D12068FFF72E
:1028400099FE23682969DA6942F40062DA61DA697B
:1028500022F48062DA61DA6942EA01221FE020682C
:10286000FFF7F4FD23689A6942F008029A619A69B9
:1028700022F004029A612A6999690A439A6131E057
:102880002068FFF745FE2368DA6942F00802DA6142
:10289000DA6922F00402DA612A69D9690A43DA6145
:1028A00020E02068FFF750FF23685A6D42F00802CD
:1028B0005A655A6D22F004025A652A69596D0A4315
:1028C0000FE02068FFF768FF236809695A6D42F43A
:1028D00000625A655A6D22F480625A655A6D42EA66
:1028E00001225A650123002084F8393084F8380029
:1028F00038BD000090F83830012B30B51CD002688C
:102900000E4C5368A242956803D004F58064A2423D
:1029100003D123F470034C6823430C6823F0700345
:102920008968234325F0800453602143002391608C
:1029300080F83830184630BD022030BD000001401C
:10294000704770472DE9F041069D04460F46164634
:1029500098462168CA6937EA02030CBF01220022A7
:10296000B2421DD16B1CF5D09DB9236803201A68B3
:1029700022F4D0721A609A6822F001029A60202331
:1029800084F8693084F86A30002384F86830BDE840
:10299000F081FDF7E7FCC8EB00008542D9D8E4E7F9
:1029A0000020BDE8F0812DE9F3411F4690F8693021
:1029B00004460D46202B90464BD1002947D0002AD3
:1029C00045D090F86830012B43D0012380F868305F
:1029D0000023C366212380F86930FDF7C3FC064657
:1029E000A4F85080A4F85280B4F8522092B202B3F6
:1029F000B4F85230002200978021013B20469BB260
:102A0000A4F852303346FFF79DFF08B1032021E0C0
:102A1000A3682268B3F5805F07D123692BB935F825
:102A2000023BC3F308039362DEE72B780135936220
:102A3000DAE70097334640212046FFF783FF00285E
:102A4000E4D1202384F8680084F8693002E0012092
:102A500000E0022002B0BDE8F081000038B5044675
:102A60000568C3692269A1682868114362690A433D
:102A700042EA0301884A0240A0690A432A606A6860
:102A800022F44051E2680A43216A6A600143AA685D
:102A900022F430620A43AA60804A954207D102F5C7
:102AA00094327F49D2F8902002F0030209E07D4A77
:102AB00095420BD102F5FA327B49D2F8902002F010
:102AC0000C02B3F5004F8A5C73D0B6E0774A9542AA
:102AD0000DD102F5F832D2F8902002F03002102A1F
:102AE00000F086805DD9202A78D0302A0EE0704A26
:102AF00095420DD102F5F632D2F8902002F0C002D4
:102B0000402A75D04DD9802A68D0C02A7CD087E071
:102B1000684A95420FD102F5F432D2F8902002F4BF
:102B20004072B2F5807F63D03BD9B2F5007F55D0BB
:102B3000B2F5407FEAE7604A954212D102F592323F
:102B4000D2F8902002F44062B2F5806F50D002D8E3
:102B5000002A3DD064E0B2F5006F3FD0B2F5406F7F
:102B6000D4E7564A95420FD102F5E032D2F89020D0
:102B700002F44052B2F5805F3AD012D9B2F5005F4C
:102B80002CD0B2F5405FC1E74D4A954248D102F5DD
:102B9000DE32D2F8902002F44042B2F5804F27D0C6
:102BA00001D87AB13CE0B2F5004F17D0B2F5404FF2
:102BB000ACE7082A37D8DFE802F0080E14361E36D4
:102BC00036362A00B3F5004F40D1FEF7DBFD14E0A6
:102BD000B3F5004F3DD1FEF7EDFD0EE0B3F5004F2C
:102BE0003AD16068420802F1F47303F5904312E0B1
:102BF000B3F5004F39D1FEF7D7FC63685A0802EBF2
:102C00004000B0FBF3F308E0B3F5004F37D1606844
:102C1000430803F58033B3FBF0F39BB2002004E0DC
:102C2000B3F5004F35D101200023C3F3420123F057
:102C30000F0322680B43D36038BD082A29D8DFE888
:102C400002F005080B28142828281E00FEF79AFD1C
:102C50000DE0FEF7AFFD0AE061684A0802F5740373
:102C600003F51053B3FBF1F30FE0FEF79DFC63682F
:102C700000EB5300B0FBF3F080B2E86007E062685D
:102C8000530803F50043B3FBF2F39BB2EB60002063
:102C900038BD012038BD00BFF369FFEF00100140CF
:102CA000C06C000800440040C46C000800480040AC
:102CB000004C0040005000400014014000780040EB
:102CC000007C0040436ADA0710B506D504686268E4
:102CD00022F40031826A0A4362609C0706D50468C8
:102CE000626822F48031C26A0A436260590706D5DD
:102CF0000468626822F48021026B0A4362601A074A
:102D000006D50468626822F40041426B0A4362609F
:102D1000DC0606D50468A26822F48051826B0A435F
:102D2000A260990606D50468A26822F40051C26B1D
:102D30000A43A2605A0610D50168046C4A68B4F5CB
:102D4000801F22F4801242EA04024A6005D14A68D8
:102D500022F4C004426C22434A601B0606D5016877
:102D60004B6823F40022836C13434B6010BD73B592
:102D700000260446C666FDF7F5FA236805461B687B
:102D80001A0704D423681B685B071AD50DE06FF09F
:102D90007E4332464FF40011009303462046FFF76E
:102DA000D1FD0028EED0032013E06FF07E43002217
:102DB0004FF48001204600932B46FFF7C3FD002807
:102DC000F1D12023002084F8693084F8680084F869
:102DD0006A3002B070BD10B5044660B390F8693037
:102DE00003F0FF021BB980F8682003F06FFA226835
:102DF0002423204684F86930136823F0010313600C
:102E0000FFF72CFE012816D0636A13B12046FFF7A6
:102E100059FF236820465A6822F490425A609A6803
:102E200022F02A029A601A6842F00102BDE81040BE
:102E30001A60FFF79CBF012010BD00000B4B1B6800
:102E4000013B0E2B11D8DFE803F0080A0C0C0C0C28
:102E50000C0C0C0C0C0C0C0C0C00CD2203E0D22240
:102E600001E04FF49672024B1A607047B8000020E0
:102E700038030020244B254A1B6812689B1A40F631
:102E8000C41283EAE371A1EBE3719142204A10B5C9
:102E900002DD1360322034E01E4B1F491B68B3F57E
:102EA000487F07DD0C68B4F5487F04DD1B4989685D
:102EB000214410E006D10C68B4F5487F02DC1749C4
:102EC000096808E00968B1F5487F06DBB3F5487F7B
:102ED00015DC124B5B685B1A10E080B9B3F5487FD4
:102EE0000DDC0F4B19680F4B1B680B440E4909682A
:102EF0005B1A0E4909685B1A0A214B431360136879
:102F00005A2093FBF0F010BDA8000020B000002074
:102F1000C401002004020020A400002000000020C2
:102F20000C02002054140020E8130020280B00207D
:102F3000124B1A6800235362114A12685362114AF5
:102F400012685362104A1360104A1360104A1360EB
:102F5000104A1360104A1360104A1360104A13603D
:102F6000104A1360104A1360104A1360104A13602D
:102F7000104A1360104A1360704700BF04290020F4
:102F800058140020A0140020480B0020500B0020F3
:102F90009414002054140020E8130020BC000020EA
:102FA000E0010020280B00200C020020240B002050
:102FB0005C0B0020CC01002010030020054B1A6898
:102FC00000235362044A1360044A1360044A1360E6
:102FD000704700BFA0140020480B0020500B0020B9
:102FE000941400200023094810B51946084C44F8F1
:102FF0002310002240F823100133B3F5FA7FF6D1F5
:10300000044B1A60044B1A6010BD00BF640B002013
:103010005003002048130020340B0020214BDFF820
:10302000BCC01B6820482149214A2DE9F043DFF844
:10303000B090DFF8B080DFF8B0E01E4F1E4E1F4D9D
:103040001F4CEBB913601F4A03600B601E481360EE
:103050000F221E4903600A601D481E49C9F800304E
:10306000C8F80030CCF80030CEF800303B60336058
:103070002B60236003600B60174B1A60BDE8F08380
:103080000023C9F80030C8F80030CCF80030CEF882
:1030900000303B6033602B60236003600B60136083
:1030A000BDE8F0833C0300201C0300203C0B002003
:1030B000600B00204C0B0020C0000020340B0020CF
:1030C00014000020FC010020580B002010000020FC
:1030D00044130020F4010020F80100202003002008
:1030E00000020020080300209C00002010B50446C8
:1030F000FDF78EF84FF47A7382B221460248BDE89C
:103100001040FFF750BC00BF641F0020104B114A55
:103110001B6813B50193104B104C1B6810492046D7
:103120000093104B12681B6803F070F92046FFF7FC
:10313000DDFF0D4B0D4A20461B6812680C4903F059
:1031400065F9204602B0BDE81040FFF7CFBF00BFD1
:10315000B0000020A8000020A4000020541E002081
:10316000F66C0008040200200C020020280B00204E
:10317000466D0008F8B5414900254148414E03F02D
:1031800069F93F48FFF7B2FF0024A3193E493C48C4
:1031900040345A5903F03AF93948FFF7A7FFB4F51C
:1031A000806FF2D139490435354803F053F934487A
:1031B000FFF79CFF402DE7D1354900243048354FBB
:1031C00003F048F92E48FFF791FF00253E19725D84
:1031D0000F352D492A4803F019F92948FFF786FFD2
:1031E000F02DF4D129490134254803F033F924485E
:1031F000FFF77CFF0F2CE8D1274900242048274FF8
:1032000003F028F91E48FFF771FF00253E19725D93
:1032100010351D491A4803F0F9F81948FFF766FF01
:10322000F02DF4D119490134154803F013F914486D
:10323000FFF75CFF102CE8D1194900251048194E02
:1032400003F008F90E48FFF751FF0024A3190E49B7
:103250000B4840345A5903F0D9F80948FFF746FFA4
:10326000B4F5806FF2D109490435054803F0F2F84E
:103270000348FFF73BFF402DE7D1F8BD7D6E000806
:10328000541E0020DC140020B86D0008926E000867
:10329000986E0008C4000020AD6E000818020020DF
:1032A000C06E000804250020F8B52648FFF71EFF71
:1032B000254A264B264D1A6000220021AC181868BA
:1032C00050F8046B6654013118600F29F7D10F32A2
:1032D000F02AF2D100221F4D0021AC18186850F8D6
:1032E000046B6654013118601029F7D11032F02AAE
:1032F000F2D10020184F0024C6191A68134D114648
:1033000051F804EB46F824E001341960102CF4D194
:103310004030B0F5806FEED10968104B196002F1B2
:1033200008032B600E4B9168196002F10C03D26800
:103330002B600C4B1A60FFF71DFF0B48BDE8F840EF
:10334000FFF7D4BED46E000800000408B8010020C6
:10335000C40000201802002004250020BC01002029
:10336000C001002008020020F66E0008F0B52D4FC5
:1033700087B005460C4601AE002C0FCF0FC63B6848
:1033800001A84FEA05123360274E0BDC531B334470
:103390001B5D012B13D0631C2449134451F82330C7
:1033A00003930CE0511B631E3144C95C01291FBF0C
:1033B0009B181E4951F8233002930E2CE6DD002D98
:1033C0001B490BDC0A44135D012B14D00135174B4C
:1033D00004EB051453F8243005930CE06B1E1B011D
:1033E000CE18365D012E1FBF1B19104E56F8233024
:1033F00004930E2DE6DD0122002306A950F8224099
:1034000001EB830151F8141C8C42B8BF1346013202
:10341000052AF2D106AA02EB830353F8140C07B075
:10342000F0BD00BF946C0008C4000020DC14002034
:10343000180200202DE9F04F0023ADF54B7D3E4EE4
:103440007F27019200229D1945F8227001323A4CE3
:10345000102AF9D14033B3F5806FF3D1012909D196
:10346000364B1A68364B1B6803EB0213002244F8F4
:1034700023200DE001284FF000030FBFE363C4F8E1
:10348000DC31C4F81C32C4F8E03118BFC4F8203273
:103490002C4B01270DF5CC7A1A682B4B1B6803EBDC
:1034A00002190025A84604EB851B00265BF82620A0
:1034B0007F2A0CD131462846FFF758FF7F281FBFCF
:1034C00002AB4AF8286043F8285008F10108013699
:1034D000102EEBD10135102DE5D1002188450AD001
:1034E00002AB53F821205AF82130013103EB0213CB
:1034F00044F82370F2E7019B13B954F8293000E037
:10350000E36B7F2B13D10137C92FCAD10F4B012297
:103510000F491A603A460F4802F078FFFFF72AFE7B
:103520000C480DF54B7DBDE8F04FFFF7DFBD0DF505
:103530004B7DBDE8F08F00BFDC1400209814002004
:103540009C140020FC01002010000020140000202A
:10355000FF6E0008541E00200023174830B51C469B
:103560000022C1188C5401320F2AFBD10F33F02BEB
:10357000F6D1002311481C460022C1188C54013298
:10358000102AFBD11033F02BF6D100230C4C1D4632
:103590000022181940F8225001320021102AF9D1D6
:1035A0004033B3F5806FF3D1064B1960064B1960B9
:1035B000064B196030BD00BFC40000201802002077
:1035C00004250020BC010020C001002008020020CA
:1035D000084B1A68032A0BD8DFE802F00204060839
:1035E000012204E0002202E0032200E002221A602D
:1035F000704700BF44130020F0B5544C0126544DD1
:1036000085B022682B68534903EB0210524F41F8F2
:1036100020603968514E03291FBF5148026051484C
:103620000360306803284CD8DFE800F00210233133
:10363000062946D8DFE801F0041533454545060064
:10364000013B0CE0484A12689B1A08E0062938D86A
:10365000DFE801F00425073737370B0001332B6013
:1036600041E0013A0223226020E03F4A12681344FD
:10367000F5E7062925D8DFE801F0041B16242424E9
:103680000600013A1BE0384B1B68D21A17E00629E6
:1036900017D8DFE801F004080D16161611000132E4
:1036A0000323226002E0013B2B60002333601AE019
:1036B00001332B600123F9E72B4B1B681A4422606E
:1036C00011E003290FD12949294802F09FFE28481B
:1036D000FFF70CFDFFF77CFF214B1B682360214B9C
:1036E0001B682B6030E022682B68224903EB021034
:1036F00051F8201031B9204B1B682BBB01221F4B06
:103700001A6021E00F2A01D80F2B09D901201C498A
:1037100008601C49164802F079FE1548FFF7E6FCE0
:10372000194B1A491A683B680132114802933368F1
:1037300001932B680093236802F068FE0C4805B0E3
:10374000BDE8F040FFF7D2BC05B0F0BDFC010020A1
:103750001000002004250020600B002044130020EE
:10376000F4010020F8010020B80000201F6F0008BD
:10377000541E0020DC140020580B00201C030020E5
:10378000140000204A6F0008AC000020806F000881
:10379000002101222DE9F04F084689B0FFF74AFECB
:1037A0006E4B04AC6E4E6F4F4FF07F0E03964FF092
:1037B0006C0C4FF0660802970FCB84E80F000023D3
:1037C0000F226949326018461D461C46674E3B6011
:1037D0004FEA001A0AEB020756F827700197002FEC
:1037E00000F0A080002ACDF810E0CDF814E0CDF86C
:1037F00018E0CDF81CE011DC4FEA001A5C4FC0EB7A
:103800000A09B94419F80290B9F1010F17D002F171
:103810000109D14456F82970059710E0544FC0EBC8
:103820000A0B02F1FF39BB441BF809B0BBF1010FD1
:103830001EBFD14456F8297004970E2ADCDD0028FB
:103840000FDC4C4F07EB001919F80290B9F1010F8A
:1038500019D000F1010902EB091956F829700797F0
:1038600011E000F1FF39434F4FEA091907EB090A4C
:103870001AF802A0BAF1010F1EBF914456F8297040
:1038800006970E28DDDD019F4FF0000907F1FF3A92
:1038900004AF57F82970574508BF4B4609F1010995
:1038A000B9F1040FF4D1022C20D0032C2CD0012C20
:1038B0000DD0022B05D0032B06D0DBBB81F8008096
:1038C00038E081F800C043E072240C7043E0022B22
:1038D00006D0032B07D0012B37D181F8008034E0CC
:1038E00072240C7034E081F800C034E0012B05D064
:1038F000022B06D063BB72240C701BE081F800C061
:1039000023E081F8008023E0012B05D0032B06D0B3
:103910000BBB81F800C00DE072240C7015E081F83B
:10392000008018E0144B104A1D607323535509B0F2
:10393000BDE8F08F013A00240135029F013147F8BC
:103940002500039F47F8252042E701320124F3E7D1
:1039500001380224F0E701300324EDE7A86C0008E9
:10396000DC180020D41F00207C290020DC1400205B
:10397000C4000020180200202C0300200649012268
:10398000064B08680649C3F8DC210860C3F81C220E
:10399000C3F82022704700BF4413002004250020F4
:1039A00008020020404B41491A68414B072A1A601F
:1039B000404B1B680B6002D0082A2FD07047072BA2
:1039C00002D0082B13D070473B4B3C4993F86F2033
:1039D000012A08D183F86F2083F87E2083F87120B4
:1039E00083F8802058E0012283F87E2031E0324BBA
:1039F000324993F87120012A0AD183F86F2083F8A5
:103A00007E2083F8712083F8802081F8672045E0CC
:103A1000012283F86F2083F87E201CE0072B02D060
:103A2000082B1BD07047244B244993F87E20012A91
:103A30000CD183F86F2083F87E2083F8712083F8FF
:103A4000802081F8672081F8682029E0012283F82E
:103A50006F2083F8712083F880201BE0164B1749F4
:103A600093F88020012A0ED183F86F2083F87E20FE
:103A700083F8712083F8802081F8672081F868201E
:103A800081F887207047012283F86F2083F87E2019
:103A900083F8712081F8672081F8682081F88720F9
:103AA00081F88820704700BFFC010020C001002081
:103AB000BC01002010000020C400002018020020DB
:103AC0000023104AF0B413600F4B104C1B68104DCC
:103AD000104E002B12DD54F8230055F8231001EB93
:103AE000001756F827703FB90B4B18600B4B196045
:103AF0000123F0BC13607047013BEAE70848F0BCC3
:103B0000FFF7F4BA541300202C030020D41F002028
:103B1000DC18002004250020981400209C140020AC
:103B2000D66F000810B51A4C01224FF48061204670
:103B3000FDF756FB204601224FF40061FDF750FBD4
:103B4000204601224FF48051FDF74AFB0122A4F5E3
:103B5000806410481146FDF743FB204601224FF4D4
:103B60008071FDF73DFB204601224FF40071FDF707
:103B700037FB04F54064012220461146FDF730FB77
:103B8000204601220221BDE81040FDF729BB00BFFD
:103B900000080240000C024010B51A4C00224FF4FD
:103BA00080612046FDF71CFB204600224FF4006197
:103BB000FDF716FB20460022A4F580644FF48051E7
:103BC000FDF70EFB002201210F48FDF709FB2046FF
:103BD00000224FF48071FDF703FB204604F540649A
:103BE00000224FF40071FDF7FBFA2046002201216C
:103BF000FDF7F6FA204600220221BDE81040FDF74D
:103C0000EFBA00BF00080240000C02402DE9F0436B
:103C1000DFF8709187B00027DFF86C81534DDFF833
:103C20006CE101ACC9F80070BEE80F000FC4DEF80B
:103C30000030D8F80020236001AC4D49DFF850E196
:103C400062B90B681801C31A73449B5C012B15D031
:103C5000531C034455F8233003930FE00B68501EA8
:103C60004FEA031CC3EB0C0373441B5C012B1EBF08
:103C7000604455F8200002900E2AE2D909683D48B8
:103C800059B900EB0110835C012B15D04B1C02EBE2
:103C9000031355F8233005930EE04B1E1B0100EB78
:103CA000030E1EF802E0BEF1010F1EBF9B1855F86F
:103CB000233004930E29E4D94FF0010E002306A807
:103CC00054F82E6000EB830C5CF8140C8642B8BFED
:103CD00073460EF1010EBEF1050FF0D102EB011299
:103CE00006A901EB830155F8222051F8141C9142DA
:103CF00007D3214B00221968204B1868FFF79AFB65
:103D00008DE71F4A106803282BD8DFE800F0020A6D
:103D10001E14032B21D0042B0BD0022B08BF032031
:103D200020E0032B05D0042B1CD0012B08BF03205F
:103D300010E0022016E0022B05D0032B12D0013B2D
:103D4000584258410EE018460CE0022B05D0042BD7
:103D500005D0012B18BF002004E0012002E0032061
:103D600000E0002007B0BDE8F08300BFDC140020B5
:103D7000FC01002018020020580B00203C0300200A
:103D800044130020B800002010000020946C0008AC
:103D9000C4000020B0F5004F70B540F0FE807F4DAC
:103DA0007F48FFF7A3F92B68042B00F2F680DFE8C9
:103DB00013F00500350064009400C5000126794B1E
:103DC000002402211E60784B224678481E60784B02
:103DD0001C60784B1C60784B1C60FDF701FA324682
:103DE00031467248FDF7FCF922464FF400717348E2
:103DF000FDF7F6F922464FF480717048FDF7F0F9AF
:103E000022464FF480516E48FDF7EAF922464FF4FE
:103E100000616B48FDF7E4F92E6070BD0024624B31
:103E2000022162481C6022465E4B1C60604B1C6095
:103E3000604B1C60604B1C60FDF7D2F922460121EB
:103E40005A48FDF7CDF901224FF400715B48FDF7A8
:103E5000C7F922464FF480715848FDF7C1F9224650
:103E60004FF480515648FDF7BBF922464FF40061EC
:103E70005348FDF7B5F902235EE00024494B0126C3
:103E800002211C602246484B48481E60484B1E6079
:103E9000484B1C60484B1C60FDF7A2F92246314696
:103EA0004248FDF79DF922464FF400714348FDF763
:103EB00097F932464FF480714048FDF791F9224658
:103EC0004FF480513E48FDF78BF922464FF40061D4
:103ED0003B48FDF785F903232EE00024314B0126F2
:103EE00002211C602246304B30481E60304B1C6063
:103EF000304B1E60304B1C60FDF772F92246314694
:103F00002A48FDF76DF922464FF400712B48FDF762
:103F100067F922464FF480712848FDF761F932466F
:103F20004FF480512648FDF75BF922464FF40061BB
:103F30002348FDF755F904232B6070BD0024194B6D
:103F4000012602211C602246174B18481E60184BA0
:103F50001C60184B1C60184B1E60FDF741F922468F
:103F600031461248FDF73CF922464FF400711348E0
:103F7000FDF736F922464FF480711048FDF730F90D
:103F800022464FF480510E48FDF72AF932464FF48D
:103F900000610B48FDF724F92C6070BDE40100209E
:103FA0004970000824030020140000200010024083
:103FB00044030020480300204C030020000402407A
:103FC0000008024070470000054C08B5226805490A
:103FD000054802F01BFA0448FFF788F8F6E700BF2F
:103FE000400B00205B700008541E00202DE9F047B4
:103FF00051480224FFF77AF8FCF7EEFE00214F4803
:104000000522012380E81E004D49FCF7AFFF78B17F
:104010004C48FFF76BF8FFF785FD4FF47A70FCF71B
:10402000A7F9FFF7B9FD4FF47A70FCF7A1F9EFE7B4
:10403000454C0546454B464EA0462360002706EBFF
:10404000050919F80720002321680020FCF70EFF5E
:10405000B8B9D8F80030013704330F2FC8F8003052
:10406000EFD113E02B6801370433102F2B6018D0E9
:1040700018F80720002321680020FCF7F7FE00282D
:10408000F0D04522334B1A60FFF79EFF0F35F02D1D
:10409000D4D10646DFF8D0902B4D002709EB060857
:1040A000E6E71036F02EF8D10546DFF8C0A0DFF8BD
:1040B0009880002605EB0A09002359F8262021687C
:1040C0000220FCF7D3FE204F03460028D9D1D8F8B0
:1040D000001001360431102EC8F80010ECD1403524
:1040E000B5F5806FE5D11C4A02201268FCF7BEFED0
:1040F00010B93B6804333B60184B022021681A68F2
:104100000023114DFCF7B2FE10B92B6804332B606D
:10411000134B022021681A680B4DD317FCF7A6FE3B
:1041200010B92B6804332B600E48FEF7DFFFBDE8A3
:10413000F047FCF763BE00BF657000083413002031
:10414000D001002087700008B8010020000004089A
:10415000C4000020400B0020BC010020C001002052
:1041600008020020F66E0008180200200425002036
:1041700008B50022054B06491A6020220548FCF7C5
:10418000AFF908B1FFF720FF08BD00BF14030020FE
:10419000842400201C1F00202DE9F8430D461F46F3
:1041A000164622BBFFF7E4FF634A1368DFF88891E5
:1041B000002BFAD0614C012210216148D4F8008014
:1041C000FDF70EF8FFF7D4FFD9F80030002BFBD035
:1041D0002468002210215A48FDF702F8C8EB0404B5
:1041E000584B1C602FB1FFF7C3FF534A3DE0002B33
:1041F00054D1FFF7BDFF504A13684F4F002BFBD03F
:10420000514C012204214E48D4F80080FCF7E8FF0D
:10421000FFF7AEFF3B68002BFCD02468002204218E
:104220004748FCF7DDFFC8EB0404484B1C60FFF770
:104230009FFF3B68002BFCD0454C012208214048E1
:10424000D4F80080FCF7CCFFFFF792FF3B68002B0F
:10425000FCD02468002208213948FCF7C1FFC8EBD4
:1042600004043C4B1C60CEB9BDE71368324F002BF1
:10427000FBD0394C0122022131482668FCF7B0FFFF
:10428000FFF776FF3B68002BFCD024680022022158
:104290002B48FCF7A5FFA41B304B1C60012D48D117
:1042A0002C4A4FF4FA762E4811682E4C274A0368A0
:1042B000DFF8C0E012682C4F24684EF8231047F84E
:1042C000232034B903F1640595FBF6F406FB14547E
:1042D00007E0062C23D103F5967494FBF6F506FB54
:1042E00015445EF8245057F824400A2D0ADD491B76
:1042F00040F2AA550029B8BF4942A942C2BF0125D0
:104300001A490D600A2C0ADD121B40F2AA51002A3C
:10431000B8BF52428A42C2BF0121154A116001331F
:104320004FF4FA7193FBF1F201FB12330360BDE825
:10433000F883BDE8F88300BF14030020A00000202C
:10434000000C0240A80000200C030020A400002064
:10435000DC0100200402002040030020B000002007
:10436000481300203C0B0020640B00204C0B002065
:10437000C00000205003002010B51B4C062819D89F
:10438000DFE800F004070B0F1818120000231A468C
:1043900001E000230122194609E0002301211A4609
:1043A00005E023685B6A05E00122002311461846F8
:1043B000FFF7F2FE23680D495A6A0D4B1A600D4B48
:1043C0001B685A6A0C4B1A600C4B1B685B6A0B60CB
:1043D0000B490968521A0B490A600B4A12689B1A6A
:1043E0000A4A136010BD00BFA01400200C02002078
:1043F0005014002004290020280B0020581400200D
:1044000054140020BC000020E8130020E00100202C
:104410002DE9F84F8B4A8C4C11689046236803EBCA
:1044200001138A4951F82330012B00F009814FF024
:104430000509DFF840A2DFF840B20023844E854D25
:104440001A4619461846844FFFF7A6FEDAF80020F0
:10445000DBF80030B9F1010931681A447F4B80481C
:104460001B6800680B442968D7F800E008447D49C0
:10447000CAF800200F683360774428600F60DCD1F1
:10448000052192FBF1F293FBF1F390FBF1F097FB26
:10449000F1F775490968032900F2CB80DFE801F0E4
:1044A000023162962168B1B1B2F5E17F02DAB3F56B
:1044B000E17F10DBD31A41F68E2203F64753934275
:1044C00009D8D8F80030694AC3EB0313134401221A
:1044D0000B4403F8012CD8F800300E2B05D9B0F5A9
:1044E000487FC0F2A680013B36E0B7F5487FA1BF08
:1044F0005F4A012402EB03125454002B00F0998010
:10450000EDE721680E2914D8B2F5E17F02DAB3F5A0
:10451000E17F0EDBD31A41F68E2203F64753934216
:1045200007D8D8F80030514AC3EB031313440122D3
:104530005A54D8F800301BB9B0F5487F0CDA78E04F
:10454000B7F5487F05DB4A4C5A1E04EB02120124E2
:1045500054540E2B6DD8EFE7454A02EB03130122AA
:104560005A5466E0D8F80010B1B1B2F5E17F02DA32
:10457000B3F5E17F10DBD31A41F68E2203F64753E1
:10458000934209D801F1FF3E394B226803EB0E1329
:104590004FF0010E03F802E022684AB9B0F5487FF7
:1045A00047DB324BC1EB0111194401238B5440E02E
:1045B000B7F5487F07DB2D4CC1EB011323440124E1
:1045C000134403F8014C0E2A33D8E7E7D8F800105B
:1045D0000E2914D8B2F5E17F02DAB3F5E17F0EDBE4
:1045E000D31A41F68E2203F64753934207D8204B45
:1045F0004FF0010E226803EB011303F802E0236879
:104600000E2B0BD9B0F5487F13DBC1EB0111174A14
:1046100011441944012301F8013C0AE0B7F5487F31
:1046200005DB124CC1EB011222440124D454002BAF
:10463000E8D100230F4A13600A4A33602B601360ED
:10464000BDE8F88FFC0100201000002004250020A8
:1046500034030020380B0020A4000020B00000200C
:10466000040200201402002044130020C400002093
:1046700018020020200B0020A80000200A4B1B6815
:10468000012B10B5094C02D10323236010BD084B48
:104690001B68062B01D0FFF7BBFEFFF7B7FA2060BF
:1046A000BDE81040FEF7A8BF1C030020600B0020EF
:1046B0003C0B002008B50122044B05481A60FBF7AB
:1046C0008FFF08B1FFF780FC08BD00BF1403002076
:1046D0001C1F002008B5FFF7EDFF074B074A196FB5
:1046E0001160596F064A1160996F064A1160DA6FBE
:1046F000054B1A6008BD00BF84240020A0000020E4
:10470000DC0100200C0300204003002000284FF0B3
:1047100000024FF06003B8BF404210B50C46B8BF6E
:10472000B1FA81F488B0B8BF640901A90193012CE2
:104730000392059204BFC0F526700130029008482C
:10474000FEF752F8014608B1FFF73EFC0448FDF7BA
:10475000E1FF0221E2B20348FCF742FD08B010BDC0
:104760004C2A00200000024000284FF060034FF068
:104770000802B8BF404210B50C46B8BFB1FA81F488
:1047800088B0B8BF640901930023012C01A90393E9
:1047900008BFC0F52670059308BF01300290084895
:1047A000FEF722F808B1FFF70FFC08210448FDF7D7
:1047B000B1FF0821E2B20348FCF712FD08B010BDBA
:1047C0004C2A00200000024038B5154B1A68154BE2
:1047D0001A60154B1A68154B1A60154B1C681D465C
:1047E000022C0AD0062C11D0012C14D12146002015
:1047F000FFF78CFF2146C82005E00121C820FFF704
:1048000085FF01210020FFF7AFFF04E0FEF7D6FB94
:104810000848FDF72BFC2A68074B1A6038BD00BF1B
:10482000280B0020541400200C020020E813002064
:10483000600B0020A01400203C0B002010B51D4C84
:10484000236822468BB91C4B1B68B3F5FC7F30D91B
:10485000FEF7C8FB01232360184B1A68184B1A6037
:10486000184B1A68184B1A6010BD012B0FD1124B50
:104870001B68B3F5977F04D8144B1B68B3F5977F7B
:1048800017D90223BDE810401360FFF7F7BE022BD3
:104890000FD1094B1B68B3F5CA7F04D80B4B1B68BB
:1048A000B3F5CA7F05D90023BDE810401360FFF7B8
:1048B0008BBF10BD00020020BC000020280B002090
:1048C000541400200C020020E8130020E001002016
:1048D00038B51B4C236825468BB91A4B1B68B3F5BA
:1048E000F77F2CD9FEF77EFB01232360164B1A6855
:1048F000164B1A60164B1A68164B1A6038BD012BFE
:104900000DD1154B1B68B3F5977F04D80D4B1B6871
:10491000B3F5977F13D9FFF7B1FE02230EE0022B08
:104920000DD10D4B1B68B3F5CA7F04D8054B1B682E
:10493000B3F5CA7F03D9FFF747FF00232B6038BDCB
:1049400008030020E0010020280B00205414002060
:104950000C020020E8130020BC00002070B51E4CA3
:104960002368B3F57A6F35DA1C4D2B68B3F57A6F8F
:1049700030DA0120FEF77EFA22682B6818499B1A6C
:1049800080EAE072174CA2EBE072174D082A174A32
:10499000C9BF142606260E600226DCBF0E60142650
:1049A00009681660124E126893FBF1F390FBF2F265
:1049B000306801212B60184422601044FFF7A6FEE6
:1049C0002868336801211B1A2068BDE87040181A56
:1049D000FFF7CABE70BD00BF581300202C0B00208B
:1049E000EC01002030030020540B00204C13002069
:1049F0003803002038B50A4D0020FEF73BFA094C79
:104A00002B68012120601844FFF780FE2B68206886
:104A100001210433181ABDE83840FFF7A5BE00BFD6
:104A20003803002030030020314BDFF8F8C018684D
:104A3000304BDCF800202DE9F047D3F800802E4CF5
:104A4000C2EB0802B2F57A7F226020DD2B4B2C4F9F
:104A5000D3F800E02B4B2C4D1E683B682968DFF82B
:104A6000C890C3EB0E03711ADFF8C0A009FB03F373
:104A700009FB01F1CCF80080C7F800E02E6093FB41
:104A8000F2F391FBF2F2CAF80030204B1A60B0F555
:104A9000AF6F24D91E4B1B68B3F52F7F21D31D4B5D
:104AA0001B68B3F52F7F1CD306231B4A43431268B0
:104AB000DB08934203D3194A126893420BD2FEF7E4
:104AC000BDF9FFF797FF2368B3F57A7F0DDDBDE8E9
:104AD000F047FFF743BFC822114B1A6001E0FEF711
:104AE000ADF9BDE8F047FFF785BFBDE8F08700BF2F
:104AF000B401002050140020F0010020280B0020F9
:104B0000480B00200C020020500B00202C0B002032
:104B1000BC000020E0010020C80100201803002094
:104B2000380300209414002076EC03005813002072
:104B3000F8B500234C4E1A4619461846FFF72CFBD1
:104B40004A4B1A681C46B2F5E17F03DC3368B3F5C3
:104B5000E17F29DD40F6B14500231A461946184683
:104B6000FFF71AFBFFF746FF3368AB4218DD012160
:104B70000020FFF7CBFD012100203D4DFFF7F4FDA4
:104B8000C820FBF7F5FB3B4FFEF7D2F9002182204E
:104B90002E46FFF7BBFD01218220FFF7E5FD17E060
:104BA0002368AB42D8DDE2E7324DFEF7C1F9304C65
:104BB0000020FFF7E1FBFFF71DFF2B68C72BD6D8BE
:104BC0002368C72BF4D9D2E73368B3F5D47F1AD85A
:104BD0000120FFF7D1FB3C682B6823440524A3F593
:104BE0008033B3FBF4F404F18603B3F5867FEBD88E
:104BF00004F182000021FFF789FD0121C4F1820048
:104C0000FFF7B2FDE0E701210020FFF77FFD012162
:104C10000020FFF7A9FDFEF78BF9FEF7ABFA164B64
:104C20001B68012B1BD16420FBF7A2FB0021C820CD
:104C3000FFF76CFD0021C820FFF796FD0F4B1968A8
:104C40004FF6BF734A6A9A42FCD1094A01210020FB
:104C50001360FFF75BFD01210020FFF785FD962023
:104C6000BDE8F840FBF784BBB0000020A80000209E
:104C70000C020020280B00201C03002058140020E8
:104C800038B5284C2368F3B9274B1A681D46012A0A
:104C900003D1FFF7BDFBFEF79BFCFFF749FF234B5A
:104CA00000221968224B1868FEF7C4FBFEF740F992
:104CB000FEF798F92B68012B02D104221D4B1BE053
:104CC0000123236038BD012B18D11B4B1B688B2B94
:104CD00003D81A4B1B688B2B22D902232360FEF7C3
:104CE00095FF174B1860FEF787FC164B1A68164B9A
:104CF0001A60164B1A68164B1A6038BD022B0FD17A
:104D00000D4B1B68B3F5BE7F04D80C4B1B68B3F585
:104D1000BE7F05D300232360BDE83840FFF754BDB4
:104D200038BD00BF200300201C030020580B0020CA
:104D30003C0300203C0B0020BC000020E0010020D0
:104D4000600B0020280B0020541400200C020020CF
:104D5000E813002070B515460446FEF743F900221B
:104D6000244B012D244D4FF001011A604FF42F7395
:104D7000286803FB04F4214E08BF04F29514FFF7E2
:104D8000C5FC286801211E4DFFF7EEFCFEF7D0F8A8
:104D90000620FFF7F1FAFFF72DFE33689C4202D997
:104DA0002B689C42F4D8174B0024174D1A68174BF8
:104DB000174E1B681748D11A296017490A60174A0D
:104DC00017491360326801F021FB1248FEF78EF993
:104DD0002A6814490F48346001F018FB0D48FEF7AB
:104DE00085F9114B1C60114B1C60BDE87040FEF74B
:104DF000D3BE00BF3C0B002038030020BC000020C5
:104E0000E0010020280B0020300B00200C020020C5
:104E1000D8010020541E002054140020E813002064
:104E2000C2700008FB700008E8010020340B00206D
:104E30002DE9F74F6239364C364F0646C9B2002588
:104E4000BB46CC40142904F0010488BF012384F040
:104E5000010498BF23460093B5424DDA012100209A
:104E6000FFF754FC0121C820FFF77EFC0520FFF767
:104E700083FA3B68B3F5F57FF8D3274C0121DFF8BF
:104E8000B0A0C8202268DFF8AC90CAF80020DFF894
:104E9000A880D9F80020C8F80020FFF737FC0121CE
:104EA000C820FFF761FC009B4BB9012E01DD002DEE
:104EB00005DD0122194B1A6003B0BDE8F08F1849D7
:104EC00001200191FFF758FAFFF794FD01990A6854
:104ED000B2F5CA7F04D8DBF80020B2F5CA7FEFD95B
:104EE000236800210F4A0135CAF80030D9F8003094
:104EF0001160C8F80030AFE70A4B0B491A680B483D
:104F000001F084FA094803B0BDE8F04FFEF7EEB8AF
:104F1000EFFB1000E0010020280B0020E80100203A
:104F2000BC000020300B0020FB700008541E002045
:104F3000541400200C020020E81300202DE9F74F44
:104F40006239364C364F0646C9B20025BB46CC40C6
:104F5000142904F0010488BF012384F0010498BFE0
:104F600023460093B5424DDA0121C820FFF7CEFB5E
:104F700001210020FFF7F8FB0520FFF7FDF93B6852
:104F8000B3F5F57FF8D3274C0121DFF8B0A0C82096
:104F90002268DFF8AC90CAF80020DFF8A880D9F8C2
:104FA0000020C8F80020FFF7B1FB0121C820FFF75F
:104FB000DBFB009B4BB9012E01DD002D05DD01223D
:104FC000194B1A6003B0BDE8F08F18490120019118
:104FD000FFF7D2F9FFF70EFDDBF80020B2F5CA7F2C
:104FE00004D801990A68B2F5CA7FEFD92368002175
:104FF0000F4A0135CAF80030D9F800301160C8F8FE
:105000000030AFE70A4B0B491A680B4801F0FEF974
:10501000094803B0BDE8F04FFEF768B8EFFB100099
:10502000BC000020280B0020E8010020E001002047
:10503000300B0020FB700008541E00205414002088
:105040000C020020E813002038B501210020FFF7F2
:105050005DFB012100200C4CFFF786FB0B4DFDF79B
:1050600067FFFDF7BFFF0A4B00220A4928461A6076
:10507000226801F0CBF92846FEF738F8FEF78CFDE0
:105080000123236038BD00BF14000020541E0020FF
:10509000D401002021710008F8B5314B1A68012AAB
:1050A0000ED1304B304A1B6812689B1A2F4A13608E
:1050B0002F4B304A1B6812689B1A2F4A1360F8BDA9
:1050C0002E4E2F4F3468012C02D03A68012A46D167
:1050D000244A3D681168244A012D1160244A116850
:1050E000244A11604FF001021A604FF000031F4A7A
:1050F0001360214A13600ED12A4602212148FCF791
:105100006FF82A4629461F48FCF76AF82A464FF4EA
:1051100000711D4811E0012C17D122464FF4806127
:105120001A48FCF75DF822464FF400611748FCF777
:1051300057F822464FF480511448FCF751F84FF4C9
:10514000B473134A1360134A1360002333603B6047
:10515000114B1B68012B02D1FFF776FFFEE7F8BD6C
:10516000340B0020280B0020240B0020CC01002051
:105170000C0200205C0B002010030020C000002067
:105180004C0B0020001002400004024000080240C6
:1051900010020020440B0020D40100202DE9F84F1C
:1051A000364FDFF80081D7F800E0D8F80000344D22
:1051B000344EC0EB0E03DFF8F0A029683268CAF85D
:1051C0000030DFF8E8908B1A2F4CC9F800302368C4
:1051D0005BB9B0EB9E0F02D2B2EB910F4BD3012320
:1051E0002360BDE8F84FFFF749BA012B43D1FFF721
:1051F00053FF264BDFF8A0B01B68012B1CD1244BBA
:105200001B68B3F5B47F04D2224B1B68B3F5B47F9F
:1052100012D3DAF80030B3F5AF7F04D3D9F80030F9
:10522000B3F5AF7F03D20123CBF800300DE0FDF7DB
:10523000D9FEFEF7B1FC08E0D8F800203B689A429E
:10524000F1D232682B689A42EDD2DBF80030012BA4
:1052500011D10023104A23601360FDF7C3FEFEF74F
:105260009BFC0E48FCF70FFF0D4BC8221A60BDE8EF
:10527000F84FFFF7A9BABDE8F88F00BFB4010020CE
:10528000B4000020E00100209C000020340B00202E
:10529000CC0100201003002028030020A0140020CF
:1052A00038030020BC000020C801002018030020A3
:1052B00008B5FFF7F1FE2A4B1B68012B294B1A6832
:1052C0002DD1BAB9284A29491268096802EB42026D
:1052D000B1EB920F08D2264A26491268096802EB00
:1052E0004202B1EB920F3AD301221A60BDE80840A6
:1052F000FFF7C4B9012A32D11C4A11681A4A126850
:10530000914205D21B4A1168194A1268914226D36C
:1053100000221A60FDF766FEFEF73EFC1BE052B964
:10532000154A1268B2F5FA7FDED2144A1268B2F555
:10533000FA7F14D3D8E7012A11D10F4A1268B2F5C7
:105340002F7F04D20D4A1268B2F52F7F07D30022B7
:105350001A60FDF747FEBDE80840FFF735BA08BD03
:10536000340B00209C00002010020020CC01002003
:10537000440B002010030020BC000020E0010020AE
:105380002DE9F047524B4FF000084FF00109DFF8CC
:1053900058A1504D0646C3F800804A46CAF800900E
:1053A0004946C5F8008007784B4816F8014FFBF7CF
:1053B00017FF424649464948FBF712FF42464FF461
:1053C00080714748FBF70CFF42464FF40071444898
:1053D000FBF706FF424602214048FBF701FFFDF7BD
:1053E00001FEFDF7A5FD3F48FCF740FE4FF47A7043
:1053F000FAF7BEFF732F64D0623F142F59D8DFE84D
:1054000007F01B1F2327582F33373B3F0B43474BD6
:105410004F530E5811162B002146012004E021465F
:10542000012006E021460220FFF702FD41E021466F
:105430000220FFF783FD3CE02A682146012036E088
:105440002A682146022032E02A68214603202EE005
:105450002A68214604202AE02A682146052026E001
:105460002A682146062022E02A68214607201EE0FD
:105470002A68214608201AE02A682146092016E0F9
:105480002A6821460A2012E02A6821460B200EE0F5
:105490002A6821460C200AE02A6821460D2006E0F1
:1054A0002A6821460E2002E02A6821460F20FFF7D5
:1054B00051FC16F8013F00222746CAF800201C467E
:1054C00098E70848FCF7DFFDBDE8F047FFF7BCBDF3
:1054D000300B0020E8010020000C024000100240C8
:1054E00000040240A01400200C00002070B5282009
:1054F000FBF7DCF901224E481146FBF771FE002252
:1055000001214C48FBF76CFE00224FF480714A48A1
:10551000FBF766FE00224FF400714748FBF760FE80
:10552000002202214348FBF75BFE4FF47A70FAF742
:105530001FFF424B1B681BB9FEF70EF8FEF768FF12
:105540003F48FCF793FD3F4CFDF74CFDFDF7F0FCA9
:105550002546FDF763FD3C4B002219683B4B18685C
:10556000FDF768FFFEF748F80121C820FFF7CEF8E5
:105570000121C820FFF7F8F8354E206820B9354BD7
:105580001B689BB9022012E0022802D1324B1B6833
:1055900002E0012803D1336843B9052007E006285B
:1055A00004D1FEF7E9FEFFF73FFA02E00120FEF723
:1055B000E3FE2B6853B1284A1268002A06DC3268E1
:1055C000002A03DC254A1268002A02DDFFF712FADE
:1055D00009E0042B03D0224B1B68012B03D1BDE84B
:1055E0007040FFF731BD2B68062BC6D801A252F8D8
:1055F00023F000BF17560008235600081D56000868
:10560000295600087B5500087B55000811560008F4
:10561000FFF7C4FDB0E7FFF74BFEADE7FFF70EF96C
:10562000AAE7FFF755F9A7E7FFF72AFBA4E700BFB2
:10563000000C024000100240000402405013002001
:10564000A01400203C0B0020580B00203C0300203D
:1056500008030020340B002000020020200300205B
:1056600014000020F8B52C4B1A681D460AB9FDF746
:1056700073FF2A4CFEF78CF8294EFEF721FA2746D5
:1056800033682BB300232360FFF730FF2548FCF776
:10569000FAFC2820FBF7FEF8FEF770F9FEF782F916
:1056A000FEF7A4FC204B1B68012B08BF2B600123D5
:1056B0003B60FFF71BFF1B48FCF7E5FC2820FBF7CE
:1056C000E9F8FEF793FCFEF763F8FEF7F9F9D7E780
:1056D000FEF728FA154B01221C461A606420FAF7DF
:1056E00047FE2368012BF9D000230C4D01242B60C9
:1056F000FFF7FCFE2C60FFF7F9FEFEF713FA4FF4FC
:10570000FA70FAF735FEFEF747FA224602210848FA
:10571000BDE8F840FBF764BD501300203C030020B7
:1057200054130020A01400201C03002014000020AB
:10573000001002402DE9F04FBDB06E24FDF7F8FBDC
:10574000404809AEFCF792FC0121C8203746FEF71D
:10575000DDFF0121C820FFF707F801212046FEF7F1
:10576000D5FF002501212046DFF8EC80FEF7FCFF85
:105770000520FAF7FDFD0A2D33D00320FEF7FCFDCE
:10578000314BD8F80010D3F800A044F62063C1EBE9
:105790000A019942EFD92D4BDFF8CCC0D3F8009025
:1057A000DFF8C8B02A4BDCF80020D3F800E0DBF8C3
:1057B0000000C2EB0902274BC0EB0E00CCF80090B2
:1057C0005A435843244BCBF800E0C3F800A0B2FB87
:1057D000F1F2B0FBF1F10A4452104DF825200135E9
:1057E000C9E757F8043F00225DF8221001320A2A67
:1057F0000B44F9D193FBF2F33B6000231A464DF8BA
:10580000232001330A2BFAD10A3440F262239C424E
:10581000A3D16E25FFF718FC1048FDF767FC2A4658
:1058200056F8043F0E490A350E4800F0EFFD0D48CA
:10583000FDF75CFCA542F2D102483DB0BDE8F04F57
:10584000FCF721BCA014002050140020280B0020DD
:105850000C02002076EC0300941400204171000833
:1058600068710008541E0020480B0020500B0020D7
:1058700070B5FDF75DFB1448FCF7F8FB022401212D
:10588000C820124DFEF742FF114E0121C820FEF73D
:105890006BFF0220FEF770FDFFF7ACF82B68B3F545
:1058A0002F6F03D83368B3F52F6FF2D9FFF740F9A4
:1058B000FDF73EFB013CECD1FFF7C6FB0248BDE81B
:1058C0007040FCF7E0BB00BFA0140020280B0020B4
:1058D0000C0200202D4B1A6C42F0805210B51A6455
:1058E000B4B01B6C022407A803F080530093009B04
:1058F000274B1A6842F440421A601B68079403F46D
:1059000040430D9411940193019B012312940A9337
:1059100010230B9300230E9308230F93D823109387
:10592000FBF7A6FC08B1FEF74FFBFBF769FC00286C
:10593000F9D10F230490072102A802934FF4A0533A
:10594000039405934FF480530693FBF76BFE0028F6
:10595000E9D14023249013A81393FBF743FF044697
:105960000028E0D1FBF708FF4FF47A73B0FBF3F0A7
:10597000FAF7AAFF0420FAF7BDFF224621464FF0AE
:10598000FF30FAF74FFF34B010BD00BF00380240BF
:105990000070004080B5ACB00024FAF7CFFC0126BF
:1059A000FFF798FF724B022172481A6B4FF0020802
:1059B000714D032742F001024FF004091A631A6B7C
:1059C00002F001020092009A1A6B42F004021A637C
:1059D0001A6B02F004020192019A1A6B42F0020261
:1059E0001A631A6B02F002020292029A1A6B42F0D8
:1059F00010021A631A6B02F010020392039A1A6BD8
:105A000042F008021A6300221B6B03F008030493A0
:105A1000049BFBF7E5FB002208215648FBF7E0FB5F
:105A2000012202215548FBF7DBFB012202215348EA
:105A3000FBF7D6FB002201215048FBF7D1FB0022E7
:105A40004FF400714E48FBF7CBFB00224FF48071FE
:105A50004B48FBF7C5FB002201214A48FBF7C0FB7E
:105A600000224FF480514848FBF7BAFB00224FF464
:105A700000614548FBF7B4FB00224FF480614248C7
:105A8000FBF7AEFB00224FF400513D48FBF7A8FBAB
:105A90000A2323A937482393249625942694FBF7B9
:105AA000B3FA4FF4004323A9364823932495259451
:105AB000FBF7AAFA402323A933482393249525947E
:105AC000FBF7A2FA224602212820304DFAF7AAFE5F
:105AD0002820FAF7DFFE224631461720FAF7A2FE09
