:020000040800F2
:1000000000000520C1020008914300089343000846
:10001000954300089743000899430008000000003A
:100020000000000000000000000000009B430008EA
:100030009D430008000000009F430008A143000802
:100040001103000811030008110300081103000840
:100050001103000811030008110300081103000830
:100060001103000811030008110300081103000820
:100070001103000811030008110300081103000810
:100080001103000811030008110300081103000800
:10009000110300081103000811030008B74300080A
:1000A000110300081103000811030008D5430008DC
:1000B0001103000811030008E143000811030008C0
:1000C000110300081103000811030008C9430008C8
:1000D00011030008110300081103000811030008B0
:1000E000AF430008110300081103000811030008C2
:1000F0001103000811030008110300081103000890
:10010000110300081103000811030008110300087F
:10011000110300081103000811030008110300086F
:10012000BD43000811030008110300081103000873
:10013000110300081103000811030008110300084F
:10014000110300081103000811030008110300083F
:10015000110300081103000811030008110300082F
:10016000110300081103000811030008110300081F
:10017000110300081103000811030008000000002B
:1001800011030008110300081103000811030008FF
:1001900011030008110300081103000811030008EF
:1001A00011030008110300081103000811030008DF
:1001B00011030008110300081103000811030008CF
:0801C0001103000811030008FF
:1001D00010B5054C237833B9044B13B10448AFF381
:1001E00000800123237010BD6C000020000000007F
:1001F000F44C000808B5034B1BB103490348AFF3A7
:10020000008008BD0000000070000020F44C0008D1
:10021000034613F8012B002AFBD1181A0138704746
:1002200001F0FF01102A2BDB10F0070F08D010F8A7
:10023000013B013A8B422DD010F0070F42B3F6D1AB
:10024000F0B441EA012141EA014122F007047FF0C4
:1002500000070023F0E80256083C85EA010586EA1B
:10026000010685FA47F5A3FA87F586FA47F6A5FA57
:1002700087F68EB9EED1F0BC01F0FF0102F0070263
:1002800032B110F8013B013A83EA010313B1F8D10E
:100290000020704701387047002D06BF35460338EF
:1002A000073815F0010F07D1013015F4807F02BF28
:1002B000013015F4C03F0130F0BC0138704700BF79
:1002C000DFF834D0002103E00C4B5B58435004317D
:1002D0000B480C4B42189A42F6D30B4A02E000231B
:1002E00042F8043B094B9A42F9D304F07FF804F03A
:1002F000A3F803F0C3FA7047000005206C50000813
:10030000000000206C0000206C000020900A0020FB
:10031000FEE70000084B10B5044618684FF47A73E6
:10032000B0FBF3F000F0C2FA002221464FF0FF309C
:1003300000F078FA002010BD0400002008B503206A
:1003400000F05EFA0020FFF7E5FF03F05FFE0020FB
:1003500008BD0000024A136801331360704700BFF4
:10036000DC040020014B1868704700BFDC0400204B
:1003700013B50190FFF7F6FF0446FFF7F3FF019B6B
:10038000001B9842F9D302B010BD000010B504461E
:10039000002800F09E80036C23B9436480F83C3051
:1003A00003F064FE236CDB0600F18E80236C23F4E3
:1003B000885323F0020343F002032364464B5A6838
:1003C00022F440325A60596862680A435A602368CE
:1003D00021695A68A06A22F480725A605A6842EA17
:1003E00001225A605A6822F040725A60A268596825
:1003F0000A435A609A6822F400629A60E268996837
:100400000A439A60354A90420ED0996821F0706193
:1004100099609A6802439A609A6822F040529A6002
:10042000E26A99680A4306E09A6822F070629A606C
:100430009A6822F040529A609A68A16922F00202FA
:100440009A609A6842EA41029A60226A9AB15A68AE
:1004500042F400625A605A6822F460425A604FF4D3
:10046000604292FAA2F2B2FA82F1626A5868013AE4
:100470008A40024302E05A6822F400625A60002077
:10048000DA6A22F47002DA62E269D96A013A41EA70
:100490000252216BDA629A6822F400729A609A68BA
:1004A00042EA412261699A609A6822F480629A6005
:1004B0009A6842EA81229A606064236C23F0030305
:1004C00043F00103236400E00120002384F83C3062
:1004D00010BD012010BD00BF002301400100000F2E
:1004E00037B5134600220446019290F83C20012AB9
:1004F00064D00122056880F83C20AA68D20703D5A1
:10050000AA68D00713D44EE0AA6842F00102AA609C
:100510002C4A10682C4AB0FBF2F000EB400001902E
:10052000019A002AECD0019A013A0192F8E7206C76
:1005300020F4E06020F0010040F4807020646A68DC
:10054000520505D5206C20F4405040F480502064C2
:10055000226C12F4805202D0626C22F006026264B5
:100560000022A06B84F83C20184AC263184A026437
:10057000184AC2646FF022022A606A6842F0806200
:100580006A60AA6842F48072AA600A4605F14C01CA
:1005900000F040FA104B5B6813F01F0F236804D083
:1005A0000E4A934201D0002009E0986810F04050B4
:1005B000F9D19A6842F080429A6000E0022003B0CC
:1005C00030BD00BF0400002040420F003B06000881
:1005D0009D060008A90600080023014000200140F4
:1005E00090F83C30012B10B5044624D0012380F84C
:1005F0003C3003689A6822F001029A609A68D20738
:1006000014D49A68806B22F480729A6000F041FAE8
:100610002268536823F080635360236C23F488536B
:1006200023F0010343F00103236400E000200023D2
:1006300084F83C3010BD022010BD836B1A6C12F0A0
:10064000500F10B524D11A6C42F400721A641A6863
:10065000916811F0405F17D19969A9B9D16A11F475
:10066000700F02D0916849050ED4516821F0200125
:1006700051601A6C22F480721A641A6CD20403D48A
:100680001A6C42F001021A64184602F04DFF10BDC8
:100690009B6BBDE81040DB6C1847704708B5806B5A
:1006A000FFF7FBFF08BD704708B5806B402303646C
:1006B000436C43F004034364FFF7F5FF08BD0000FB
:1006C0000023F7B5019390F83C30012B70D00D68F2
:1006D00001230468092D80F83C30AEB28F6817D929
:1006E00006EB4602D4F80CE0A2F11E0307229A4062
:1006F0002EEA0202E2603D4A954203D1E36843EAF2
:10070000076303E0E26807FA03F31343E3600EE0D4
:1007100005EB45034FF0070E22690EFA03FE07FAB8
:1007200003F322EA0E0222612269134323614B681C
:10073000062B4FEA83020DD81344676B591F1F2302
:100740008B4006FA01F127EA03036363626B1143EE
:1007500061631DE00C2B0ED81344216BA3F123021F
:100760001F23934006FA02F221EA03032363236B5B
:100770001A4322630CE013441F22E76A413B9A406C
:1007800027EA0202E26206FA03F2E16A0A43E2623F
:10079000174B9C4204D0002380F83C30184623E0DD
:1007A000122D07D1134A536843F480035360F2E7D4
:1007B000022019E00D4B9D4201D0112DEBD10D49C6
:1007C0009D424A6842F400024A60E4D10A4B0B4A57
:1007D0001B68B3FBF2F20A2353430193019B002BE6
:1007E000D9D0019B013BF8E703B0F0BD1200001027
:1007F00000200140002301400400002040420F007F
:10080000074A0002D36800F4E06023F4E0631B04AD
:100810001B0C43F0BF6343F400330343D3607047C2
:1008200000ED00E0194BDB68C3F3022330B5C3F1E0
:1008300007041D1D042C28BF0424062D4FF00105BC
:100840008CBF033B002305FA04F4002804F1FF34B5
:1008500004EA010404FA03F405FA03F303F1FF3395
:1008600002EA030242EA04024FEA021205DA00F049
:100870000F00D2B2064B1A5430BD00F16040D2B224
:1008800000F5614080F8002330BD00BF00ED00E0BE
:1008900014ED00E04209012300F01F0003FA00F00C
:1008A000014B43F82200704700E100E00138B0F14D
:1008B000807F0AD2064BF021064A5860002082F859
:1008C0002310072298601A6070470120704700BF0C
:1008D00010E000E000ED00E0044B04281A680CBFB3
:1008E00042F0040222F004021A60704710E000E0B7
:1008F000704708B5FFF7FCFF08BD0000036818212A
:10090000DAB223F47F73103A23F00303B2FBF1F25F
:100910000449032A895C88BF0433C1658365806DFF
:10092000704700BF304D000870B50446FFF71AFD50
:100930000546002C64D00023226884F8343002235A
:1009400084F83530136823F00103136021680B68C5
:10095000D80708D5FFF706FD401B0528F6D9202348
:100960000320636551E00B68294A65681A40A36853
:10097000A0691D43E3681D4323691D4363692B433D
:10098000E56903432B43256A2B431343626A042A18
:1009900001BF256BE66A35432B43042A0B604B6984
:1009A00023F0070343EA02031CD1A26A134320B9D0
:1009B000012A0BD013D3022A10E0B0F5005F0AD150
:1009C000032A0FD8DFE802F01E0B1E02E26AB2F122
:1009D000C07F07D116E0022A14D9032A02D1E26AA5
:1009E000D2010FD44B612046FFF788FFE26D3F2311
:1009F0009340836000200123606584F8353070BD2A
:100A0000012070BD40230120636584F8350070BD6E
:100A10003F8010F070B590F83440012C37D001249D
:100A2000866D002580F8344090F83540012C4FF059
:100A3000020428D180F8354004684565256825F40E
:100A40008025256063608368402B02D1A260E1604D
:100A500001E0A160E260C26D3F239340B360236870
:100A600043F016032360636943F080036361036C02
:100A70001BB1236843F0080323602368002043F080
:100A80000103236070BD80F83450204670BD022001
:100A900070BD70B50446856DFFF764FC064694F89A
:100AA0003530022B06D0802301206365002384F8B3
:100AB000343070BD23681A6822F016021A605A6931
:100AC00022F080025A61226C0AB9A26C1AB11A682B
:100AD00022F008021A601A6822F001021A602368E4
:100AE000186810F001000DD0FFF73CFC801B0528B2
:100AF000F5D9202303206365002384F8350084F8AA
:100B0000343070BDE26D3F239340AB60012384F825
:100B1000340084F8353070BD90F83530022B03D0A6
:100B200080234365012070470268052380F8353033
:100B30000020136823F00103136070470023F7B50A
:100B400001930446594B856D1F680823C26D2E68BA
:100B500093401E420CD001680868400708D5086819
:100B600020F004000860AB60636D43F0010363652F
:100B70004F4B93401E4208D021684969090604D5AD
:100B8000AB60636D43F0020363654A4B93401E42C2
:100B900008D021680968880704D5AB60636D43F00D
:100BA00004036365102303FA02F2164217D0236888
:100BB0001968090713D5AA601A68500304D51B6881
:100BC000190308D5A36C07E01A68D20503D41A6884
:100BD00022F008021A60236C0BB120469847E16DA1
:100BE00020228A4016423BD023681868C60637D5B3
:100BF000AA6094F83520052A1A6819D122F0160245
:100C00001A605A6922F080025A61226C0AB9A26CF9
:100C10001AB11A6822F008021A603F238B40AB60B9
:100C2000002384F83430012384F83530236D37E015
:100C3000500304D51B6819030ED4636C0DE01A68C9
:100C400012F4807208D1196821F010011960012393
:100C500084F8342084F83530E36B0BB12046984794
:100C6000636D03B3636DDA0719D50523226884F831
:100C70003530136823F0010313604FF41653B7FBAC
:100C8000F3F7019B01339F42019302D31368DB0703
:100C9000F7D4002384F83430012384F83530E36C32
:100CA0000BB12046984703B0F0BD00BF0400002000
:100CB00001008000040080002DE9F04F0B6885B032
:100CC0006F4E01930023DFF8C0C1B646DFF8BC8148
:100CD0000122019C9A4032EA040440F0C9804C6829
:100CE00024F01009B9F1020F14D14FEAD30A03F02E
:100CF000070B0F2500EB8A0A4FEA8B0BDAF82070FE
:100D000005FA0BF527EA05050F6907FA0BF72F43DC
:100D1000CAF820704FEA430A0325076804F0030B62
:100D200005FA0AF509F1FF390BFA0AFBED43B9F1AF
:100D3000010F07EA05074BEA0707076012D8876823
:100D400005EA0709CF6807FA0AF747EA0907C4F373
:100D50000019876009FA03F9476827EA020749EA98
:100D600007074760C7683D408F6807FA0AF73D43A9
:100D7000C560E5007CD5DCF8445023F0030703F0A0
:100D8000030A4FF00F0945F4804507F180474FEA09
:100D90008A0ACCF8445007F59C37DCF8445005F437
:100DA00080450395039D09FA0AF5D7F808B02BEAA8
:100DB0000509344DA84224D005F58065A84222D00B
:100DC00005F58065A84220D005F58065A8421ED0B3
:100DD00005F58065A8421CD040451CD005F500658E
:100DE000A8421AD005F58065A84218D005F580659F
:100DF000A84216D005F58065A84214BF0A2509252A
:100E000010E000250EE001250CE002250AE0032594
:100E100008E0042506E0052504E0062502E0072594
:100E200000E0082505FA0AF514F4803F45EA0905B3
:100E3000BD606FEA020735680CBF3D40154314F4EE
:100E4000003FCEF80050DEF804500CBF3D40154383
:100E500014F4801F7560B5680CBF3D401543A402B3
:100E6000CEF80850DEF80C5054BF3D401543F560F5
:100E70000133102B7FF42CAF05B0BDE8F08F00BF1D
:100E8000003C0140000002400038024000140240D3
:100E900002B9090481617047436959404161704753
:100EA00008B5044B5969014202D0586102F036FA84
:100EB00008BD00BF003C0140194B1A6C42F0805243
:100EC00073B51A641B6C174C03F0805325460193CD
:100ED000019B236843F480332360FFF743FA0646FF
:100EE0006B68104CDA0307D4FFF73CFA801BB0F5AF
:100EF0007A7FF5D9032011E0236843F4003323609F
:100F0000FFF730FA054663689B0306D4FFF72AFA19
:100F1000401BB0F57A7FF6D9ECE7002002B070BD37
:100F200000380240007000400368F7B50446D80757
:100F300003D42368990752D4A5E0964B9A6802F02F
:100F40000C02042A07D09A6802F00C02082A0BD17E
:100F50005B685A0208D58F4B1B689B03E9D5636811
:100F6000002BE6D1012076E163688A4DB3F5803F1E
:100F700013D05BB92B6823F480332B602B6823F4E8
:100F800080232B60FFF7EEF9064624E0B3F5A02F8F
:100F90002B6806D143F480232B602B6843F4803305
:100FA00005E023F480332B602B6823F480232B602F
:100FB000FFF7D8F9774D06462B689F03B9D4FFF7A2
:100FC000D1F9801B6428F7D9032044E1FFF7CAF95F
:100FD000801B6428F8D82B689803F7D4A9E76D4BD9
:100FE0009A6812F00C0F07D09A6802F00C02082AD7
:100FF00017D15B68590214D4664B1A68920702D560
:10100000E268012AAED11A68F82191FAA1F12069AB
:10101000B1FA81F122F0F80200FA01F10A431A60F4
:1010200031E0E3685B4DF3B12B6843F001032B60C3
:10103000FFF798F906462B6856489B0705D4FFF73B
:1010400091F9801B0228F6D9BEE70368F82292FACC
:10105000A2F22169B2FA82F223F0F80301FA02F255
:10106000134303600FE02B6823F001032B60FFF7AD
:1010700079F906462B689F0705D5FFF773F9801BA2
:101080000228F7D9A0E723681E0703D423685D0769
:1010900049D522E063693F4D7BB16B6F43F001039B
:1010A0006B67FFF75FF906466B6F9807EED4FFF7A3
:1010B00059F9801B0228F7D986E76B6F23F00103EB
:1010C0006B67FFF74FF906466B6F9907DED5FFF7A1
:1010D00049F9801B0228F7D976E72E4B2E4D1A6C62
:1010E00042F080521A641B6C03F080530193019B01
:1010F0002B6843F480732B60FFF734F906462B68A6
:10110000DA0514D5A368234D012B16D12B6F43F0BC
:1011100001032B6741F28835FFF724F91D4E07467E
:10112000336F9B0726D5A269002A37D179E0FFF7F4
:1011300019F9801B6428E2D946E76BB92B6F41F29D
:10114000883723F001032B672B6F23F004032B67F1
:10115000FFF708F9064619E0052B2B6F03D143F082
:1011600004032B67D2E723F001032B672B6F23F0D7
:101170000403CEE7FFF7F6F8C01BA842D0D923E757
:10118000FFF7F0F8801BB8423FF61EAF2B6F9807B1
:10119000F6D4C8E700380240007000402F4DAB681D
:1011A00003F00C03082B3FF4DDAE2B68022A23F07A
:1011B00080732B6043D1FFF7D5F807462B68274E85
:1011C000990130D447F6C07292FAA2F24FF440333C
:1011D000B2FA82F093FAA3F34FF07062B3FA83F598
:1011E00092FAA2F2E369B2FA82F1276A626A1F43B5
:1011F000824047F0005343EA0200A36A5A08013ACA
:1012000002FA05F3E26A03438A40134373603368CA
:1012100043F080733360FFF7A5F8044633689A0102
:1012200007D5002017E0FFF79DF8C01B0228C5D99D
:10123000CAE6FFF797F8001B0228EFD9C4E6FFF7CC
:1012400091F804462B689B01EBD5FFF78BF8001B48
:101250000228F7D9B8E603B0F0BD00BF003802405D
:101260001B498B6803F00C03042B2CD0082B2CD1CA
:10127000486847F6C0724B6800F03F0013F4800FD7
:101280004B6892FAA2F247F6C071B2FA82F201EA12
:10129000030121FA02F114BF0E4A0F4AB2FBF0F02B
:1012A0000B4A00FB01F34FF44030526890FAA0F073
:1012B00002F44032B0FA80F022FA00F0013040002F
:1012C000B3FBF0F07047034870470348704700BF16
:1012D0000038024040787D010024F400504A136831
:1012E00003F00F038B422DE9F04104460D460AD36B
:1012F0002168880714D54B48836823F0F002A3685F
:10130000134383600CE0136823F00F030B43136057
:10131000136803F00F039942EAD00120BDE8F08181
:10132000C90706D43E4A136803F00F039D4242D317
:101330004BE062683B4B012A196802D111F4003F6F
:1013400006E0022A02D111F0007F01E011F0020F45
:10135000E3D0996841F28838324F21F003010A4303
:101360009A60FEF7FFFF63680646012B0CD1BB684D
:1013700003F00C03042BD5D0FEF7F4FF801B40458F
:10138000F5D90320BDE8F081022B0FD1BB6803F033
:101390000C03082BC6D0FEF7E5FF801B4045F5D9AE
:1013A000EFE7FEF7DFFF801B4045EAD8BB6813F08C
:1013B0000C0FF6D1B6E7136823F00F032B4313602D
:1013C000136803F00F039D42A7D121684A0706D591
:1013D0001448836823F4E052E368134383600B07E7
:1013E00007D5104A2169936823F4604343EAC10397
:1013F0009360FFF735FF0B4BF0229B6892FAA2F245
:10140000B2FA82F203F0F003D340074AD35CD8402B
:10141000064B18600020FEF77DFF0020BDE8F0813C
:10142000003C024000380240155000080400002033
:10143000014B1868704700BF04000020084B4FF4B0
:10144000E0529B6892FAA2F2B2FA82F203F4E053FD
:10145000D340044AD35C044A1068D840704700BFA8
:10146000003802402550000804000020084B4FF4CB
:1014700060429B6892FAA2F2B2FA82F203F46043ED
:10148000D340044AD35C044A1068D840704700BF78
:1014900000380240255000080400002003682DE9B0
:1014A000F74F13F0010604460BD0B64A916821F4B9
:1014B00000019160466B91683143B6FA86F6760971
:1014C000916013F4002512D0AE49E56BD1F88C2061
:1014D000B5F5801F22F4401208BF012642EA05023A
:1014E00016BFB5FA85F500256D09C1F88C20D80224
:1014F00011D5A448216CD0F88C20B1F5800F22F4CE
:10150000400242EA0102C0F88C2003D0002908BF43
:10151000012500E0012613F0807F18BF01269906FF
:101520005DD5984B984F1A6C42F080521A641B6C30
:1015300003F080530193019B3B6843F480733B604D
:10154000FEF710FF80463B68DA0507D4FEF70AFF76
:10155000C8EB00006428F6D9032040E3894F3B6FB5
:1015600013F440730FD1226B02F44073B3F5407F44
:10157000844B2BD1996821F4F81022F0704121F4AA
:101580004071014325E0226B02F440729342EAD09D
:101590003B6F3A6F23F4407342F480323A673A6FFC
:1015A00022F480323A673B673B6FDB07DBD5FEF7FF
:1015B000D9FE41F2883980463B6F9807D3D4FEF7B5
:1015C000D1FEC8EB00004845F6D9C5E7996821F47B
:1015D000F8119960C2F30B02196F0A431A67236866
:1015E000D9060CD5674AD2F88C1021F08071C2F868
:1015F0008C10D2F88C00A16B0143C2F88C105A04F5
:1016000008D56048D0F8902022F44031626E0A4339
:10161000C0F890201F0408D55A48D0F8902022F432
:101620004021A26E0A43C0F89020D80308D555483F
:10163000D0F8902022F44011E26E0A43C0F89020C6
:10164000990308D54F48D0F8902022F44001226F2A
:101650000A43C0F890205A0608D54A48D0F890208E
:1016600022F00301626C0A43C0F890201F0608D5DF
:101670004448D0F8902022F00C01A26C0A43C0F834
:101680009020D80508D53F48D0F8902022F03001AE
:10169000E26C0A43C0F89020990508D53948D0F883
:1016A000902022F0C001226D0A43C0F890205A0514
:1016B00008D53448D0F8902022F44071626D0A4376
:1016C000C0F890201F0508D52E48D0F8902022F4AD
:1016D0004061A26D0A43C0F89020D80408D529487B
:1016E000D0F8902022F44051E26D0A43C0F89020D7
:1016F000990408D52348D0F8902022F44041226E66
:101700000A43C0F890205A0208D51E48D0F890200D
:1017100022F08061A26F0A43C0F890209F020CD58E
:101720001848E16FD0F89020B1F1006F22F000620C
:1017300008BF01250A43C0F8902013F0080F18BF16
:101740000125580308D50F48D0F8902022F04071A9
:10175000626F0A43C0F89020190209D50948D0F8F1
:10176000902022F08051D4F880200A43C0F89020C5
:10177000012E0BD0B3F1007F08D0012D40F08C81F9
:1017800023E100BF0038024000700040C84E3368BB
:1017900023F080633360FEF7E5FD07463368DFF82A
:1017A00010E31A0105D5FEF7DDFDC01B6428F5D94D
:1017B000D2E62768FB073CD5636BD3BBDEF8840019
:1017C0004FF4403898FAA8F94FF07066B9FA89F9E1
:1017D000DEF8842096FAA6FC47F6C07ABCFA8CFCA8
:1017E0009AFAAAFABAFA8AFA98FAA8F8B8FA88F825
:1017F00096FAA6F64FF0E043B6FA86F693FAA3F30C
:10180000B3FA83FB6168A36800F4403001FA0AF17F
:1018100002F0706203FA0BF320FA09F022FA0CF2DC
:101820000B4300FA08F1194302FA06F30B43CEF812
:1018300084303E0303D5E36BB3F5801F05D0F80277
:1018400049D5236CB3F5800F45D1DFF864E24FF43E
:101850004038DEF8840098FAA8F94FF0E046B9FA6B
:1018600089F9DEF8842096FAA6FC47F6C07BBCFA1C
:101870008CFC9BFAABFBBBFA8BFB98FAA8F84FF0F9
:101880007063B8FA88F893FAA3F3B3FA83FA96FA76
:10189000A6F6636800F4403002F0E042B6FA86F63D
:1018A00003FA0BF1E36820FA09F022FA0CF203FACA
:1018B0000AF30B4300FA08F1194302FA06F30B434B
:1018C000CEF88430DEF88C30626A23F01F03013AD0
:1018D0001343CEF88C30F9013CD5DFF8D4E14FF05A
:1018E0007068DEF8840098FAA8F94FF0E046B9FA7B
:1018F00089F9DEF8842096FAA6FC47F6C07BBCFA8C
:101900008CFC9BFAABFB4FF44033BBFA8BFB93FA96
:10191000A3F3B3FA83FA98FAA8F8B8FA88F896FA13
:10192000A6F6636800F0706002F0E042B6FA86F650
:1019300003FA0BF1236920FA09F022FA0CF203FAF8
:101940000AF30B4300FA08F1194302FA06F30B43BA
:10195000CEF88430BA0126D547F6C07E9EFAAEFE98
:101960004FF44030BEFA8EFE90FAA0F04FF0706255
:10197000B0FA80F792FAA2F24FF0E043B2FA82F6A0
:1019800093FAA3F3B3FA83F120696368E268B8407D
:1019900003FA0EF3B24003431A43A3688B40134388
:1019A000434AC2F88430424E336843F08063336068
:1019B000FEF7D8FC074633681B013FF5DEAEFEF7A5
:1019C000D1FCC01B6428F6D9C6E5394D2B6823F03D
:1019D00080532B60FEF7C6FC06462B689F005DD443
:1019E00025682E0360D4E80264D4A90200F1AD801A
:1019F0002A0745D52E4F4FF07065D7F8882095FA05
:101A0000A5FC4FF44036BCFA8CFCD7F8880096FA57
:101A1000A6F847F6C079B8FA88F899FAA9F9B9FA98
:101A200089F996FAA6F6B6FA86F695FAA5F54FF074
:101A3000E04EB5FA85F59EFAAEFE6369BEFA8EFEFB
:101A400000F4403002F0706203FA09F1E36920FA11
:101A500008F022FA0CF203FA0EFE02FA05F341EA4C
:101A60000E0E00FA06F14EEA01010B43C7F888306A
:101A7000D7F88C3023F44032E36A1343C7F88C3034
:101A80000B4C236843F080532360FEF76BFC054644
:101A900023689B0040F19C800020A0E0FEF762FCE0
:101AA000801B642899D957E5E36B33B19BE700BFEE
:101AB00000380240236C002B97D14A4F4FF4403C32
:101AC000D7F888009CFAACF94FF0E046B9FA89F9EA
:101AD000D7F8882096FAA6FE47F6C07ABEFA8EFEA0
:101AE0009AFAAAFABAFA8AFA9CFAACFC4FF0706831
:101AF000BCFA8CFC98FAA8F8B8FA88F896FAA6F618
:101B0000A16900F44030636902F0E04201FA08F88C
:101B100020FA09F003FA0AF322FA0EF2B6FA86F670
:101B200000FA0CF143EA0803194302FA06F30B43E7
:101B3000C7F88830D7F88C30A26A23F4F853013AFA
:101B400043EA0223C7F88C304FE7E36FB3F1006F2D
:101B50007FF44EAF234F4FF0706CD7F888009CFA9B
:101B6000ACF94FF0E046B9FA89F9D7F8882096FA2F
:101B7000A6FE47F6C07ABEFA8EFE9AFAAAFA4FF48B
:101B80004038BAFA8AFA98FAA8F8B8FA88F89CFAAB
:101B9000ACFCBCFA8CFC96FAA6F6216A00F07060E8
:101BA000636902F0E04201FA08F820FA09F003FA4A
:101BB0000AF3B6FA86F600FA0CF122FA0EF243EABC
:101BC0000803194302FA06F30B43C7F888300FE7FE
:101BD000FEF7C8FB401B64287FF65AAFBCE403B095
:101BE000BDE8F08F0038024070B5044600284FD0A1
:101BF0000023836290F85D3003F0FF021BB980F888
:101C00005C2002F093FA02232168E26884F85D30D8
:101C10000B68B2F5E06F23F040030B604FF0000358
:101C200003D91846B2F5706F01E04FF4805018BF29
:101C3000A362236B2BB9B2F5E06F8CBF02230123A3
:101C40002363A5686668A3692E4325692E436569E9
:101C50002E43E5692E43256A2E43A56A2E4303F4DD
:101C600000751B0C35430D60656A2A43656B15438F
:101C700003F0040245EA0203034300204B60CB69F2
:101C800023F40063CB610123206684F85D3070BDCE
:101C9000012070BD036859689A6830B502F04105AB
:101CA00085B00446012D03D14D0601D5C36C05E076
:101CB000950705D5080603D5236D2046984756E0BD
:101CC00012F4B07F53D08D0651D5500616D594F836
:101CD0005D00002503280AD0206E40F00400206635
:101CE0000095D868009098680090009806E00195EB
:101CF000DA6801929B680193019B38E095060CD548
:101D0000206E40F00100206600200290986802904A
:101D1000186820F0400018600298D00508D5226E9F
:101D200042F008022266002203929A680392039A04
:101D3000226EE2B15A6822F0E0025A60012284F871
:101D40005D208A0710D05A68A06D22F003025A6005
:101D500018B1084B0365FEF7DFFE606D38B1054B27
:101D60000365FEF7D9FE02E0204601F011FB05B045
:101D700030BD00BF791D000808B5806B0023A0F8B6
:101D80004630C38701F004FB08BD036851B1042944
:101D900014D11A6A22F010021A621A6A42F0100272
:101DA0001A621FE01A6A22F001021A621A6A42F0ED
:101DB00001021A62DA6842F0020216E01A6A22F0A0
:101DC00001021A621A6A42F001021A621A6A22F0C9
:101DD00010021A621A6A42F010021A62DA6842F0BD
:101DE0000202DA60DA6842F00402DA6000201A685F
:101DF00042F001021A6070477047704770477047A1
:101E0000704703681A69910710B5044614D5DA685B
:101E1000920711D56FF002021A6101229B690276C6
:101E2000990702D0FFF7EAFF04E0FFF7E6FF20463C
:101E3000FFF7E5FF0023237623681A69520716D5BA
:101E4000DA68500713D56FF0040220461A610222A7
:101E50009B69227613F4407F02D0FFF7CFFF04E0A6
:101E6000FFF7CBFF2046FFF7CAFF00232376236846
:101E70001A69110715D5DA68120712D56FF0080232
:101E800020461A610422DB6922769B0702D0FFF705
:101E9000B5FF04E0FFF7B1FF2046FFF7B0FF0023D6
:101EA000237623681A69D00616D5DA68D10613D5C9
:101EB0006FF0100220461A610822DB69227613F4C3
:101EC000407F02D0FFF79AFF04E0FFF796FF20461D
:101ED000FFF795FF0023237623681A69D20708D5F8
:101EE000DA68D00705D56FF0010220461A61FFF7C6
:101EF00083FF23681A69110608D5DA68120605D52A
:101F00006FF0800220461A6100F0D7FA23681A6940
:101F1000D00508D5DA68110605D56FF08002204695
:101F20001A6100F0CAFA23681A69520608D5DA68FD
:101F3000500605D56FF0400220461A61FFF760FF9A
:101F400023681A6991060AD5DA68920607D56FF0F8
:101F5000200220461A61BDE8104000F0ADBA10BD65
:101F60002E4A0368904212D0B0F1804F0FD0A2F5F4
:101F70007C4290420BD002F58062904207D002F57D
:101F80008062904203D002F57842904218D14A68AC
:101F900023F070031343214A904237D0B0F1804FB1
:101FA00034D01F4A904231D002F5806290422DD049
:101FB00002F58062904229D002F57842904225D005
:101FC000184A904222D002F5806290421ED002F55B
:101FD000806290421AD0A2F59832904216D002F553
:101FE0008062904212D002F5806290420ED003606F
:101FF0008B68C3620B688362084B98420BD003F571
:102000008063984207D001234361704723F44073F3
:10201000CA681343EBE70B690363F4E70000014070
:10202000000400400040014010B50446A0B190F803
:10203000393003F0FF021BB980F8382002F004F9B0
:1020400002232068211D84F83930FFF789FF01231E
:10205000002084F8393010BD012010BDF8B50C46C1
:102060000546002843D090F8393003F0FF021BB931
:1020700080F8382002F088F82946022351F8040B32
:1020800085F83930836823F4803323F007038360B5
:10209000FFF766FF28682368876881691F43A26984
:1020A00021F440732169066A23F00303090143EA1E
:1020B0000222A3681343E26941EA0221E26823F4A1
:1020C0007C430A43216A23F0FC0342EA013261693E
:1020D000134326F0AA0242EA0112616887600A43AC
:1020E000836101230262002085F83930F8BD0120A8
:1020F000F8BD0000036A23F0010370B50362036AB0
:10210000426884690D6824F4803424F073042C43FD
:1021100023F002058B682B430C4DA84209D005F52E
:102120008065A84205D042604A68846142630362C8
:1021300070BDCD6823F008034E6922F440722B4332
:102140008D69354323F004032A43ECE70000014086
:10215000036A23F0100330B50362036A426884699E
:1021600023F020030D6824F0807424F4E64444EA4C
:1021700005248D6843EA05130E4DA84209D005F5E4
:102180008065A84205D042604A6884618263036228
:1021900030BDCD6823F0800322F4406243EA05138A
:1021A0004D6942EA85028D6923F0400342EA8502C7
:1021B000E9E700BF00000140036A23F4807330B5F3
:1021C0000362036A4268C46923F400730D6824F44F
:1021D000803424F073042C438D6843EA05230E4DAC
:1021E000A84209D005F58065A84205D042604A683A
:1021F000C461C263036230BDCD6823F4006322F47E
:10220000405243EA05234D6942EA05128D6923F4E1
:10221000806342EA0512E9E700000140036A23F403
:10222000805330B50362046A4268C36924F40054E1
:102230000D6823F0807323F4E64343EA05238D6899
:1022400044EA0534094DA84209D005F58065A84245
:1022500005D04260C3614B680364046230BD22F460
:1022600080424D6942EA8512F3E700BF0000014059
:1022700001238A408B4010B5046A24EA03030362F9
:10228000036A42EA0301016210BD000010B5044672
:1022900001220068FFF7ECFF2368084A934203D04D
:1022A00002F58062934203D15A6C42F400425A64B0
:1022B0001A68002042F001021A6010BD00000140BF
:1022C000036A23F4803330B50362036A4268446DC5
:1022D00023F400330D6824F4803424F070042C437C
:1022E0008D6843EA0543094DA84203D005F5806592
:1022F000A84204D122F480324D6942EA05224260AC
:102300004A6844658265036230BD00BF0000014039
:10231000036A23F4801330B50362026A4468436D94
:1023200022F400120D6823F0807323F4E04343EAA3
:1023300005238D6842EA0552084DA84203D005F5F1
:102340008065A84204D124F480244D6944EA8524A0
:10235000446043654B68C365026230BD00000140C4
:1023600038B590F8383004460D460220012B7BD05A
:102370000123082A84F8390084F838303CD013D877
:102380004AB3042A6AD12068FFF7E2FE236829696C
:102390009A6942F400629A619A6922F480629A61B1
:1023A0009A6942EA012225E0102A36D0142A44D044
:1023B0000C2A53D12068FFF731FF23682969DA69B5
:1023C00042F40062DA61DA6922F48062DA61DA6981
:1023D00042EA01221FE02068FFF78CFE23689A6919
:1023E00042F008029A619A6922F004029A612A690D
:1023F00099690A439A6131E02068FFF7DDFE23689E
:10240000DA6942F00802DA61DA6922F00402DA617C
:102410002A69D9690A43DA6120E02068FFF750FF92
:1024200023685A6D42F008025A655A6D22F0040280
:102430005A652A69596D0A430FE02068FFF768FF63
:10244000236809695A6D42F400625A655A6D22F494
:1024500080625A655A6D42EA01225A6501230020C2
:1024600084F8393084F8380038BD000090F83830EE
:10247000012B30B51CD002680E4C5368A2429568FF
:1024800003D004F58064A24203D123F470034C68A6
:1024900023430C6823F070038968234325F08004EC
:1024A000536021430023916080F83830184630BDD6
:1024B000022030BD00000140704770472DE9F04117
:1024C000069D04460F46164698462168CA6937EAB3
:1024D00002030CBF01220022B2421DD16B1CF5D0B9
:1024E0009DB9236803201A6822F4D0721A609A6892
:1024F00022F001029A60202384F8693084F86A305F
:10250000002384F86830BDE8F081FDF72BFFC8EBAD
:1025100000008542D9D8E4E70020BDE8F0812DE92C
:10252000F3411F4690F8693004460D46202B904633
:102530004BD1002947D0002A45D090F86830012BB4
:1025400043D0012380F868300023C366212380F83C
:102550006930FDF707FF0646A4F85080A4F85280C2
:10256000B4F8522092B202B3B4F85230002200976D
:102570008021013B20469BB2A4F852303346FFF73E
:102580009DFF08B1032021E0A3682268B3F5805FB6
:1025900007D123692BB935F8023BC3F308039362D3
:1025A000DEE72B7801359362DAE700973346402166
:1025B0002046FFF783FF0028E4D1202384F8680039
:1025C00084F8693002E0012000E0022002B0BDE89A
:1025D000F081000038B504460568C3692269A16826
:1025E0002868114362690A4342EA0301884A0240AB
:1025F000A0690A432A606A6822F44051E2680A43EB
:10260000216A6A600143AA6822F430620A43AA6020
:10261000804A954207D102F594327F49D2F8902042
:1026200002F0030209E07D4A95420BD102F5FA322D
:102630007B49D2F8902002F00C02B3F5004F8A5C7F
:1026400073D0B6E0774A95420DD102F5F832D2F850
:10265000902002F03002102A00F086805DD9202AF6
:1026600078D0302A0EE0704A95420DD102F5F6324C
:10267000D2F8902002F0C002402A75D04DD9802AAD
:1026800068D0C02A7CD087E0684A95420FD102F515
:10269000F432D2F8902002F44072B2F5807F63D019
:1026A0003BD9B2F5007F55D0B2F5407FEAE7604AEA
:1026B000954212D102F59232D2F8902002F4406293
:1026C000B2F5806F50D002D8002A3DD064E0B2F558
:1026D000006F3FD0B2F5406FD4E7564A95420FD114
:1026E00002F5E032D2F8902002F44052B2F5805F59
:1026F0003AD012D9B2F5005F2CD0B2F5405FC1E7F5
:102700004D4A954248D102F5DE32D2F8902002F4CB
:102710004042B2F5804F27D001D87AB13CE0B2F503
:10272000004F17D0B2F5404FACE7082A37D8DFE8A2
:1027300002F0080E14361E3636362A00B3F5004F66
:1027400040D1FEF77BFE14E0B3F5004F3DD1FEF71C
:102750008DFE0EE0B3F5004F3AD16068420802F1F9
:10276000F47303F5904312E0B3F5004F39D1FEF74F
:1027700077FD63685A0802EB4000B0FBF3F308E012
:10278000B3F5004F37D16068430803F58033B3FBDE
:10279000F0F39BB2002004E0B3F5004F35D10120E7
:1027A0000023C3F3420123F00F0322680B43D360DD
:1027B00038BD082A29D8DFE802F005080B281428BC
:1027C00028281E00FEF73AFE0DE0FEF74FFE0AE055
:1027D00061684A0802F5740303F51053B3FBF1F383
:1027E0000FE0FEF73DFD636800EB5300B0FBF3F034
:1027F00080B2E86007E06268530803F50043B3FB6A
:10280000F2F39BB2EB60002038BD012038BD00BF61
:10281000F369FFEF00100140384D0008004400400C
:102820003C4D000800480040004C00400050004073
:102830000014014000780040007C0040436ADA0741
:1028400010B506D50468626822F40031826A0A4332
:1028500062609C0706D50468626822F48031C26A0F
:102860000A436260590706D50468626822F4802131
:10287000026B0A4362601A0706D50468626822F494
:102880000041426B0A436260DC0606D50468A26818
:1028900022F48051826B0A43A260990606D504682F
:1028A000A26822F40051C26B0A43A2605A0610D5F6
:1028B0000168046C4A68B4F5801F22F4801242EA71
:1028C00004024A6005D14A6822F4C004426C2243E3
:1028D0004A601B0606D501684B6823F40022836C0E
:1028E00013434B6010BD73B500260446C666FDF762
:1028F00039FD236805461B681A0704D423681B6842
:102900005B071AD50DE06FF07E4332464FF400119D
:10291000009303462046FFF7D1FD0028EED00320A8
:1029200013E06FF07E4300224FF4800120460093B5
:102930002B46FFF7C3FD0028F1D12023002084F8A7
:10294000693084F8680084F86A3002B070BD10B550
:10295000044660B390F8693003F0FF021BB980F8B9
:10296000682001F0EFFC22682423204684F86930B7
:10297000136823F001031360FFF72CFE012816D023
:10298000636A13B12046FFF759FF236820465A684F
:1029900022F490425A609A6822F02A029A601A68D9
:1029A00042F00102BDE810401A60FFF79CBF012011
:1029B00010BD0000104B40F67461104A1B688B423A
:1029C00006DC0F480068884202DC116804290FD138
:1029D000126832F004020DD0094A1068181A002853
:1029E000B8BF4042B0F5486FD4BF00200120704707
:1029F000002070470120704724010020AC02002015
:102A000050030020B0F5167F07DDB1F5167F08DD15
:102A1000164B1968401A643008E009D1B1F5167FE9
:102A200002DCA0F5C86001E0C1F5C860034610E013
:102A3000B1F5167FF8DA0E4B18680E4B1B68184478
:102A40000D4B19680D4B401A19680023401A00EB12
:102A50008000642293FBF2F390FBF2F0184400F143
:102A60003103622B88BF0020704700BF6C04002038
:102A7000B8030020E0040020E404002060030020EC
:102A8000074B1A6800235362064A12685362064ACB
:102A90001360064A1360064A1360064A13607047C3
:102AA00098080020E8040020E4040020E00400204E
:102AB0005C0300201004002010B50446FDF7A8FBBD
:102AC0004FF47A7382B221460248BDE81040FFF706
:102AD00026BD00BF44070020F0B500248BB01B4D7D
:102AE0001B4E1C4F55F824305BB356F824201A496E
:102AF000089257F8242019480792194A52F82420BE
:102B00000692184A52F824200592174A52F82420B7
:102B10000492164A52F824200392154A52F82420AF
:102B20000292144A52F824200192134A52F82420A7
:102B30000092224601F0A6FC0848FFF7BDFF0134D1
:102B4000D0E70E4A13600BB0F0BD00BFB401002007
:102B50005C020020C4000020494D0008340600201B
:102B600028010020B0020020640300201804002087
:102B70000003002008020020C0030020780100208C
:102B80001F4B204A1B6813B501931F4B1F4C1B683A
:102B90001F49204600931F4B12681B6801F072FC0E
:102BA0002046FFF789FF1C4B1C4A20461B68126811
:102BB0001B4901F067FC2046FFF77EFF194B1A4ABC
:102BC00020461B681268194901F05CFC2046FFF79B
:102BD00073FF174B174A20461B681268164901F00D
:102BE00051FC2046FFF768FF144B154A20461B682E
:102BF0001268144902B0BDE8104001F043BC00BFA8
:102C000050030020240100206C0400203406002022
:102C1000F94D00087C01002060030020B80300206B
:102C2000494E0008E0040020E40400208B4E000818
:102C300018010020AC020020B84E0008BC030020A0
:102C4000B4030020EA4E00081C4A1D4913680868B6
:102C50001C4941F823001C4908681C4941F823001D
:102C60001B4908681B4941F823001B4908681B4998
:102C700041F823001A4908681A4941F823001A4903
:102C800008681A4941F8230019490868194941F8A8
:102C9000230019490868194941F8230018490868B0
:102CA000184941F8230018490868184941F82300D9
:102CB0000133132BC8BF0023136070477801002035
:102CC00024010020B401002050030020C003002094
:102CD0006C040020080200207C010020000300207A
:102CE000AC0200201804002018010020640300201A
:102CF000B8030020B002002060030020280100205B
:102D0000E4040020C4000020E00400205C02002055
:102D1000F8B5314900253148314E01F0D7FB2F4835
:102D2000FFF7CAFE0024A3192E492C480C345A5927
:102D300001F0A8FB2948FFF7BFFE482CF3D12A4930
:102D40000435264801F0C2FB2448FFF7B5FE0C2DE0
:102D5000E8D1264900242148254F01F0B7FB1F4840
:102D6000FFF7AAFE00253E1956F8352001351D490A
:102D70001A4801F087FB1948FFF79EFE062DF3D194
:102D800019490434154801F0A1FB1448FFF794FEDB
:102D9000082CE7D1174900251048174E01F096FB83
:102DA0000E48FFF789FE002433190E490B480C34F6
:102DB0005A5901F067FB0948FFF77EFE3C2CF3D11E
:102DC00009490435054801F081FB0448FFF774FE0A
:102DD0000C2DE8D1F8BD00BF324F000834060020AA
:102DE00024050020474F00084B4F0008514F0008B2
:102DF00080010020664F000888000020F0B5304FA9
:102E000087B004460D4601AE002D0FCF0FC63B68BC
:102E100001A92C4833604FEA44030CDC5A1950F8DE
:102E20002220012A15D0681C1A190244264850F89D
:102E3000222003920DE06A1E9E1850F82660012E93
:102E400005D01E193244204E56F822200292012D40
:102E5000E4D0002C1D480EDC23442B4450F82330D2
:102E6000012B16D00134184B04EB44042C4453F8C6
:102E7000243005930DE0621E02EB42022A4450F812
:102E80002260012E1EBF104E56F822200492042C00
:102E9000E2DD0122002306A851F8224000EB830066
:102EA00050F8140C8442B8BF13460132052AF2D1FF
:102EB00006AA02EB830353F8140C07B0F0BD00BF61
:102EC0000C4D00088001002024050020880000200F
:102ED0002DE9F04F0023ADF5497D22487F221918D6
:102EE0001A500C331F4F4A60482B8A60F7D10023D9
:102EF0004FF001084FF00C0A0DF5C879FB63002470
:102F000026460AFB047B00255BF825307F2B0AD17F
:102F100029462046FFF772FF7F281EBF4DF8264046
:102F200049F8265001360135032DEDD10134062C28
:102F3000E7D100239E420AD05DF8232059F82310E0
:102F4000013302EB42020A4447F82280F2E7BB68F1
:102F50007F2B02D108F10108D1E70DF5497DBDE8CD
:102F6000F08F00BF240500202DE9F04FDFF8C0915D
:102F700089B000256B4FD9F808300DF1100A0226F0
:102F80002C460393A846684BDFF8B4B10FCB8AE810
:102F90000F00644BF91A630003EB040E0EEB0602FC
:102FA00059F82220002A00F089807F20002E039209
:102FB00004900590069007900DDC63005B4899191A
:102FC00050F82110012914D02344711C0B4459F8E6
:102FD000233005930DE0711E54480B4450F8233004
:102FE000012B1FBF524B714453F821300493012E23
:102FF000E3D0002C0EDC04EB440333445BF82330B5
:10300000012B14D0631C03EB4303334459F82330E2
:1030100007930CE0631E03EB430333445BF8231078
:1030200001291CBF59F823300693042CE3DD00234B
:10303000511E5AF82300884208BF1D460133042B55
:10304000F7D1B8F1020F1DD0B8F1030F27D0B8F1B6
:10305000010F0BD0022D05D0032D05D0002D43D13B
:10306000662323E06C2318E0722325E0022D05D0AF
:10307000032D05D0012D48D166231AE072230CE000
:103080006C2319E0012D05D0022D05D0002D40D173
:1030900072230BE06C230CE066233B7039E0012DBA
:1030A00006D0032D07D0002D37D16C233B701BE0D9
:1030B00072233B7029E066233B702EE07323194A8C
:1030C0001C4853542246039B1B4901933346CDF8B9
:1030D000008001F0D7F91748FFF7EEFC114809B05E
:1030E000BDE8F04FFFF7E8BC013E4FF00008019249
:1030F000334622461149CDF8008001370D4801F0D2
:10310000C1F90C48FFF7D8FC43E701364FF001083E
:10311000EDE7013C4FF00208E9E701344FF0030806
:10312000E5E700BF10090020204D000880010020C5
:103130002405002034060020794F0008824F000843
:10314000880000202DE9F04100232A4F6624DFF893
:10315000B08017F8016B1D46732E3FD0662E01D14B
:10316000013338E09BB3013B0E2B26D8DFE803F098
:10317000080A0C0E10121416181A1C1E2022240005
:1031800062241AE0632418E0642416E0652414E045
:10319000662412E0672410E068240EE069240CE045
:1031A0006A240AE06B2408E06D2406E06E2404E043
:1031B0006F2402E0702400E071240F490F4808F8E2
:1031C000054001F083F90D480135FFF775FC08F85B
:1031D00005600023013517F8016BBDE70848FFF7CC
:1031E0006BFC0549054801F071F90448BDE8F04160
:1031F000FFF762BC10090020BD4F00083406002014
:10320000B4070020404B1868012810B555D002289B
:1032100031D0002870D13D4B1B68B3F5967F04DA9E
:103220003B4A1268B2F5967F07DB3A4A1268B2F55C
:10323000167F63DDB3F5967F04DA354A1268B2F57E
:10324000967F07DB344A1268B2F5167F52DDB3F57C
:10325000967F04DA2E4B1B68B3F5967F4CDB2E4B22
:103260001B68B3F5167F47DD2A4B1B68B3F5167F45
:10327000D8BF00203BE0254B1968FA293CDD244BE0
:103280001A68FA2A38DD234B1B68B3F5167F04DD74
:1032900021480068B0F5967F2CDBB1F5967F02DA05
:1032A000B2F5967F2ADB1C4A1268B2F5167F25DD3F
:1032B000B3F5167FD8BF022019E0144B1968FA291C
:1032C0001ADD134B1A68FA2A16DD134B1B68B3F587
:1032D000167F18DD0F4B1C68B4F5967F0EDBB1F539
:1032E000967F0DDB1B68B3F5167FD8BF0120C8BFE2
:1032F000032010BD012010BD002010BD022010BD14
:10330000B2F5967FEEDA10BDAC0200202401002059
:10331000500300206C0400207C010020402808B5E8
:1033200007D1154A04211368B3FA83F35B091360CC
:103330001BE0B0F5004F1DD10122104BDA62FFF700
:10334000C7FDFFF7E5FCFFF70FFEFFF7FBFE0C4B99
:1033500008211A68002353620A4A126853620A4A13
:103360001368B3FA83F35B0913600848BDE80840AB
:10337000FDF792BD08BD00BF0000002080010020C5
:1033800098080020E804002068040020000C024097
:1033900070470000054C08B522680549054801F052
:1033A00071F80448FFF788FBF6E700BF58030020D8
:1033B000C74F00083406002008B50022054B064917
:1033C0001A6020220548FDF78BF808B1FFF7E2FFED
:1033D00008BD00BF1404002018080020FC060020CF
:1033E0002DE9F74FFFF7E8FF3C4A13683B4C002BF1
:1033F000FBD03B4D012220213A48D5F800B0FDF723
:1034000047FDFFF7D9FF2368002BFCD000222021C5
:1034100034482F68FDF73CFDFFF7CEFF2368002BF3
:10342000FCD0314D01224FF400713048D5F800A096
:10343000FDF72EFDFFF7C0FF2368002BFCD0002214
:103440004FF4007129482E68FDF722FDFFF7B4FF05
:103450002368002BFCD0264D012210212148D5F8ED
:103460000080FDF715FDFFF7A7FF2368002BFCD0B8
:10347000002210211B482D68FDF70AFDFFF79CFF75
:103480002368002BFCD01B4B01224FF4807117489E
:10349000D3F800900193FDF7FBFCFFF78DFF019B34
:1034A0002268002AFCD000224FF480710F48CBEB39
:1034B00007071C68FDF7ECFC0F4BCAEB0606C9EBCF
:1034C0000404C8EB05051F600C4B1E600C4B1C6010
:1034D0000C4B1D6003B0BDE8F08F00BF140400204A
:1034E00004020020000402405403002000080240AF
:1034F0002001002058020020240100205003002059
:103500006C0400207C01002008B50122044B054812
:103510001A60FDF765F808B1FFF73CFF08BD00BF72
:1035200014040020FC06002008B5FFF7EDFF074B50
:10353000074A196F1160D96F064A1160996F064AE0
:1035400011605A6F054B1A6008BD00BF18080020B3
:103550000402002054030020580200202001002013
:1035600001294FF000024FF0600308BFC0F526703C
:1035700010B508BF013088B00C46029001A90A4876
:10358000019303920592FEF7EBFE014608B1FFF7A7
:1035900001FF0548FEF77AFE0221E2B20348FDF77B
:1035A00077FC08B010BD00BF500A002000000240A8
:1035B00001294FF060034FF0080208BFC0F52670E4
:1035C00010B588B008BF01300C460193002302906B
:1035D00001A9094803930593FEF7C2FE08B1FFF75E
:1035E000D9FE08210448FEF751FE0821E2B2034843
:1035F000FDF74EFC08B010BD500A0020000002404C
:10360000F8B5514FFFF73CFA504E3A6840F6AB53CD
:103610004D4C9A424D4D17DC32689A4214DCFFF74C
:10362000DFFE386833680121494C1B1A4B2093FB9D
:10363000F0F02060C0F18700FFF792FF20680121C1
:103640007830FFF7B5FFE0E7424A434B1068174672
:1036500019681E46884205DD00218C20FFF780FF97
:10366000012104E001218C20FFF77AFF0021642072
:10367000FFF79EFF2B6822689B1A4A33942B02D8CF
:10368000FFF7AEFEF6E701210020FFF769FF0121F9
:103690000020FFF78DFFFFF7A3FEFFF7F1F93A686F
:1036A00033689A420CDD00218C20FFF759FF01217D
:1036B0006420FFF77DFF294B1968294B186808E043
:1036C00001218C20FFF74CFF0021F1E7B2F5C87F04
:1036D00004D24A6A436AB3F5C87FF7D321490A6026
:1036E000214A13602B6822689B1A4A33942B02D814
:1036F000FFF776FEF6E70121872040F6AB56FFF78D
:103700002FFF01217820FFF753FF2268B2420BDC24
:103710002B68B34208DC9B1A002BB8BF5B424B2BD3
:1037200002DDFFF75DFEF0E7002210210F48FDF7F4
:10373000AFFB01210020FFF713FF01210020BDE8AE
:10374000F840FFF735BF00BF5003002024010020E0
:103750001C0100206C0400207C010020980800203F
:10376000E8040020B803002060030020000C0240A1
:1037700008B501210020FFF7F3FE01210020FFF72B
:1037800017FF0B4B1B68012B01D1FFF7F9F9FFF76E
:10379000A3F9002202210748FDF77AFB0022042149
:1037A0000448FDF775FB0122034B1A6008BD00BFFA
:1037B00068040020000C0240000000202D4B1A6C11
:1037C00042F0805210B51A64B4B01B6C022407A8F2
:1037D00003F080530093009B274B1A6842F4404249
:1037E0001A601B68079403F440430D9411940193ED
:1037F000019B012312940A9310230B9300230E9331
:1038000008230F93D8231093FDF78EFB08B1FFF721
:10381000C1FDFDF751FB0028F9D10F2304900721CA
:1038200002A802934FF4A053039405934FF48053DE
:103830000693FDF753FD0028E9D14023249013A8F7
:103840001393FDF72BFE04460028E0D1FDF7F0FDB1
:103850004FF47A73B0FBF3F0FDF728F80420FDF77E
:103860003BF8224621464FF0FF30FCF7DBFF34B037
:1038700010BD00BF00380240007000402DE98048B4
:10388000B5B00024FCF75AFD0126FFF797FF524B15
:103890000A2152481A6B4FF44079514D4FF480374A
:1038A00042F001024FF0040A1A631A6B02F001029F
:1038B0000892089A1A6B42F004021A631A6B02F01B
:1038C00004020992099A1A6B42F002021A631A6BF7
:1038D00002F002020A920A9A1A6B42F010021A636C
:1038E0001A6B02F010020B920B9A1A6B42F008024C
:1038F0001A6300221B6B03F008030C930C9BFDF76B
:10390000C7FA012210213548FDF7C2FA00221E2114
:103910003448FDF7BDFA012220213248FDF7B8FAFC
:103920001A232BA92D482B932C962D942E94FDF71A
:10393000C3F94FF400432BA92A482B932C952D94BF
:10394000FDF7BAF940232BA927482B932C952D94EA
:10395000FDF7B2F9224602212820244DFCF762FF30
:103960002820FCF797FF224631461720FCF75AFF24
:103970001720FCF78FFF3E232BA91A482B932C9678
:103980002D942E94FDF798F92BA91748CDF8AC90FB
:103990002C962D942E94FDF78FF9302314482BA9E3
:1039A0002C962B932D942E94FDF786F9114B2846D7
:1039B000AC602E61AE612C626C62EC62AC62EC6059
:1039C000C5F81CA02E636C6185E88800FCF7DEFC5E
:1039D00090B1FFF7DFFC00BF00380240000002405A
:1039E00000002110000C024000080240FC060020EC
:1039F00000040240002001400E23139010A9284625
:103A0000109311961296FCF75BFE0028E1D10F236C
:103A1000139010A928461093022312961193FCF7D5
:103A20004FFE0028D5D108274FF00308139010A9A6
:103A300028461097CDF844801296FCF741FE0028E6
:103A4000C7D10923139010A928461093CDF844A09C
:103A50001296FCF735FE0028BBD1A34B4FF48274BD
:103A6000A24A986018615861D861186258629862D9
:103A700018631846C3F80C905F6383E814004FF492
:103A800000729A610722DA62FEF7AEF80028A0D130
:103A9000974C2BA9974B606023604FF6FF73A06093
:103AA000206160612C902F90309033902046E3602D
:103AB000CDF8AC802D962E9731963297FEF7CEFA40
:103AC0000494002885D13C212046FEF75EF90028A9
:103AD0007FF47FAF884C05234FF08041A0602061C8
:103AE000204684E80A0040F29923E360FEF79CFA3E
:103AF00000287FF46EAF0D900DA90F902046FEF7C1
:103B0000B5FC00287FF465AF00224FF060081BA9C8
:103B10002046CDF86C801C921D921F92FEF720FC6F
:103B200000287FF456AF20463A461BA9FEF718FC42
:103B3000044600287FF44DAF6F48012600F0B8FB23
:103B40006E4D6F4B22A92846AC602C616C612394AA
:103B50002496259726942794289629972A9485E8D1
:103B600018004FF6FF73EB6003232293FEF776FAFB
:103B7000059500287FF42DAF3C212846FEF705F976
:103B800000287FF426AF5F4D5F4BA8602861284670
:103B900085E8880040F62F53EB60FEF745FA0246B1
:103BA00000287FF416AF40F2FE631690189014A917
:103BB0002846CDF850801593FEF7D2FB0446002826
:103BC0007FF407AF284600F073FB5048504A4FF48B
:103BD000E1338460C46004618461C461046244624E
:103BE00080E80C000C234361FEF7B1FE0446002878
:103BF0007FF4EFAE39464048FEF748FB21463E4889
:103C0000FEF744FB31462046FFF7AAFC314620462A
:103C1000FFF7CEFC3F4B1B681BB13F4B1B68012BD2
:103C20000BD1FFF7DDFB049B1B685A6A3B4B1A6004
:103C3000059B1B685A6A3A4B1A60364B1C68002C6D
:103C400040F0A981374B1B68B3F5FA6F40F3A381AD
:103C5000012202213448DFF8E8A0FDF719F9DFF866
:103C6000E4904FF47A70DFF8E080FCF781FB2F4E90
:103C7000FEF706FF2E4F01212E4D8720CAF8004087
:103C80003460C9F800403C602C60C8F800404446ED
:103C9000DFF888B0FFF764FC01217820FFF788FC8B
:103CA000CDF80CA0CDF81890FFF79AFB2A68A2B9BE
:103CB000214BDFF898801968204B1868FEF7A2FEA8
:103CC0000121C8F800008730FFF74AFCD8F800004F
:103CD0000121C0F17800FFF76BFCFEF76BFEB8B373
:103CE000FFF746FD57E100BFEC090020003001401E
:103CF0009808002000000140500A0020E80400203D
:103D000000080040D4080020004001404407002083
:103D1000001001400000002068040020B8030020CB
:103D20006003002024010020000C0240BC0300209E
:103D3000B0010020AC0200206C0400207C010020B7
:103D4000B403002014010020180100201C010020F1
:103D5000049BDFF8AC921B68D9F800005A6A9E4BAE
:103D6000101ADFF8A0821A60059B9C4A1B68116834
:103D70005B6ADFF894A2C8F800305B1A9849CAF869
:103D800000000B60296803298ED8DFE811F00400D9
:103D90008B004A00EA00396881B9B0F5C87F02D2C9
:103DA000B3F5C87F0AD3012307923B60FFF718FBE6
:103DB000FFF728FA2060FEF747FF079A3B68012BC0
:103DC0007FF472AFDAF80030B3F52B7F05D8844B5F
:103DD0001B68B3F52B7F7FF667AF082181480792F8
:103DE000FDF75AF8DBF80030079AC9F800304FF0B9
:103DF0000009D8F80030D4F800801360B8F1010F42
:103E0000C7F800900AD0B8F1020F40F0A880012155
:103E10008720FFF7A5FB012148469EE04146484622
:103E200097E0039A12681ABBB0F5E67F01D2272B00
:103E30001ED901218720FFF793FB01217820FFF78E
:103E4000B7FB039A01231360DBF80030D8F8002099
:103E5000C9F80030614B1A600023614ACAF800308B
:103E60001360FFF7BDFAFFF7CDF92060FEF7ECFE17
:103E7000039B1B68012B7FF417AFDAF80030B3F512
:103E8000B47F05D2564B1B68B3F5B47FFFF40CAF7B
:103E90004FF0000A039B08215248C3F800A0FCF72A
:103EA000FBFF3DE0326812BB272802D8B3F5E67F5E
:103EB0001DD301218720FFF753FB01217820FFF755
:103EC00077FB0123D8F800203360DBF80030C9F815
:103ED0000030424B1A600023414ACAF80030136098
:103EE000FFF77EFAFFF78EF92060FEF7ADFE33682C
:103EF000012B7FF4D9AEDAF80030B3F5B47F05D2E8
:103F0000374B1B68B3F5B47FFFF4CEAE4FF0000A19
:103F100008213448C6F800A0FCF7BEFFFEF794FE67
:103F2000DBF80030D8F80020D4F80080C9F8003061
:103F3000B8F1010F294B1A6009D0B8F1020F0ED168
:103F400001218720FFF70CFB0121504605E0414687
:103F50005046FFF705FB41469120FFF729FB2368F8
:103F600017E0069A1268002A7FF49EAE8B2802D8CA
:103F70008B2B7FF699AE01210020FFF7F1FA01218A
:103F80000020FFF715FBFFF73BFBFFF73BF904238E
:103F900020602B6088E64FF4FA70FCF7E9F9124BC9
:103FA0001A68012A7FF436AE104B1968104B186856
:103FB000FEF728FD0F4B00F187020F491860C0F192
:103FC000780300900D4800F05DFA0C48FEF774FD90
:103FD000FEF7D6FD1EE600BFB8030020E004002077
:103FE00010040020000C0240680400206C04002033
:103FF0007C0100201C010020D14F00083406002065
:10400000E4040020600300205C03002008B50320C6
:10401000FCF7F6FB00226FF00B001146FCF702FCE8
:1040200000226FF00A001146FCF7FCFB00226FF043
:1040300009001146FCF7F6FB00226FF00400114660
:10404000FCF7F0FB00226FF003001146FCF7EAFBDF
:1040500000226FF001001146FCF7E4FB00224FF054
:10406000FF301146BDE80840FCF7DCBB02682A4B74
:104070009A4270B5064688B04BD103F58C330025C3
:10408000032403A95A6C254842F480725A645A6C7E
:1040900002F480720192019A1A6B42F480021A6350
:1040A0001B6B049403F4800305950293029B302359
:1040B0000393FCF701FE03A91948039404940595A2
:1040C000FCF7FAFD174C184B2046A560E5606562C9
:1040D000E562256384E828004FF4806323614FF490
:1040E000805363614FF48043A3614FF48073E361B5
:1040F0004FF4003323620123A362FCF715FCB46381
:1041000038202A462946A663FCF78CFB3820FCF7AA
:10411000C1FB08B070BD00BF002001400008024094
:104120000004024070040020106402400268144B36
:104130009A4210B586B020D103F58433002401A93A
:1041400010485A6C42F480525A645B6C039403F436
:1041500080530093009BE0230193022302930323E7
:10416000049305230593FCF7A7FD23202246012194
:10417000FCF758FB2320FCF78DFB06B010BD00BFF9
:1041800000300140000002400368294A934270B5A4
:1041900088B01ED1274B012403A927485A6C42F04E
:1041A00001025A645B6C059403F0010307940193C8
:1041B000019B4FF42063039302230493032306938C
:1041C000FCF77AFD1B2022460021FCF72BFB1B206D
:1041D0002AE01A4A934229D1164B022401260325CC
:1041E0001A6C03A9164842F004021A641B6C04946A
:1041F00003F00403059606950293029B4FF40053C7
:1042000007940393FCF758FD402303A90D4803933B
:104210000494059606950794FCF74EFD1E20224651
:104220000021FCF7FFFA1E20FCF734FB08B070BD3C
:104230000000014000380240001002400008004029
:10424000000C024000040240036884B0B3F1804FC8
:104250000BD103F50E331A6C42F001021A641B6C89
:1042600003F001030193019B1AE00E4A93420AD125
:104270000D4B1A6C42F002021A641B6C03F002032D
:104280000293029B0CE0094A934209D1064B5A6CF7
:1042900042F480325A645B6C03F480330393039BD3
:1042A00004B0704700040040003802400040014064
:1042B0000368B3F1804F30B587B00BD1052301A956
:1042C0001A480193022302930023039301230493CA
:1042D000059326E0164A934215D1022400254FF497
:1042E000407301A913480193029403950495059422
:1042F000FCF7E2FC30230294039501A90193049595
:1043000005940D480DE00D4A93420CD1202301A9DC
:104310000B48019302230293002303930493032386
:104320000593FCF7C9FC07B030BD00BF0000024098
:104330000004004000080240000402400040014028
:10434000001002407FB502680F4B9A4219D103F565
:10435000943301A90D485A6C42F010025A645B6C08
:1043600003F010030093009B4FF4C06301930223FA
:104370000293012303930323049307230593FCF77C
:104380009BFC07B05DF804FB0010014000000240F8
:104390007047FEE7FEE7FEE7FEE7704770477047AD
:1043A00008B5FBF7D7FFBDE80840FCF7A2BA4FF409
:1043B0000040FCF775BD4020FCF772BD014B986BC7
:1043C000FCF7BCBBFC0600200148FDF763BC00BF46
:1043D000EC0900200148FDF714BD00BF980800203B
:1043E0000148FDF70EBD00BFE80400200F49002082
:1043F000D1F8883043F47003C1F888300C4B1A6848
:1044000042F001021A6098601A6822F0847222F465
:1044100080321A60074A5A601A6822F480221A60B1
:10442000D8604FF000638B60704700BF00ED00E084
:10443000003802401030002470B50E4B0E4CE41AC8
:10444000A41000251E46A54204D056F825309847F2
:104450000135F8E700F04EFC084C094BE41AA410B3
:1044600000251E46A54204D056F825309847013550
:10447000F8E770BD645000086450000868500008F8
:10448000645000080EB400B59CB04FF402711DAB2F
:10449000ADF81410029006906FF000410A480491A4
:1044A00007914FF6FF7153F8042BADF81610006812
:1044B000019302A900F06CF8029B00221A701CB054
:1044C0005DF804EB03B0704768000020034611F864
:1044D000012B03F8012B002AF9D170472DE9F04791
:1044E0008E689E4282460C46914698463ED88A89FE
:1044F00012F4906F3AD0256809696F1A6569022332
:1045000005EB450595FBF3F57B1C43449D4238BF05
:104510001D4653050FD5294600F03EFB064698B1CF
:104520003A46216900F0C4FAA38923F4906343F06A
:104530008003A38113E02A4600F08CFB064670B985
:104540002169504600F0DAFA0C23CAF80030A3893A
:1045500043F04003A3814FF0FF30BDE8F0872661B0
:1045600065613E44ED1B2660A5604646464528BF72
:10457000464632464946206800F0A5FAA3689B1BD0
:10458000A36023681E4426600020BDE8F087000079
:104590002DE9F04F9DB0804603938B891C060D4694
:1045A00016460DD50B695BB9402100F0F5FA28607D
:1045B000286118B90C23C8F80030CDE040236B61A6
:1045C0000023099320238DF82930DFF89CB1302394
:1045D0008DF82A3037463C4614F8013B1BB9B7EB3F
:1045E000060910D003E0252BF9D02746F3E74B4608
:1045F000324629464046FFF771FF013000F0A780A0
:10460000099B4B4409933B78002B00F0A0800023CA
:104610004FF0FF3204930793059206938DF85330C1
:104620001A930126052221784E48FBF7F9FD671CF5
:10463000049B38B14B4A801A06FA00F018430490E4
:104640003C46EFE7D90644BF20228DF853201A07D5
:1046500044BF2B228DF8532022782A2A03D0079AB0
:1046600000210A200BE0039A111D12680391002A11
:1046700010DA524243F00200079204900BE0274602
:1046800001343B78303B092B03D800FB0232012177
:10469000F5E701B107923B782E2B1ED17B782A2BB0
:1046A0000AD1039B1A1D1B680392002BB8BF4FF061
:1046B000FF330237059310E000230593781C194659
:1046C0000A24074601303A78303A092A03D804FB15
:1046D00001210123F5E703B105910322397822482E
:1046E000FBF79EFD40B14023CBEB000003FA00F046
:1046F000049B18430490013739781C488DF8281022
:1047000006227E1CFBF78CFD88B1194B33B9039B45
:10471000073323F007030833039314E003AB00933C
:104720002A46144B04A94046AFF3008007E003ABD0
:1047300000932A460F4B04A9404600F093F8B0F1CD
:10474000FF3F824603D0099B5344099342E7AB895C
:104750005B0601D4099801E04FF0FF301DB0BDE8C1
:10476000F08F00BF2F500008355000083950000866
:1047700000000000DD4400082DE9F04791461F4687
:104780000A698B68DDF820809342B8BF1346C9F8E8
:10479000003091F8432006460C4612B10133C9F8A7
:1047A00000302368990642BFD9F800300233C9F8B7
:1047B0000030256815F0060510D104F1190A07E04C
:1047C0000123524639463046C04701301AD00135E0
:1047D000E368D9F800209B1A9D42F1DB94F843303E
:1047E0002268003318BF012392060FD5E1185A1C26
:1047F000302081F84300224494F8451082F8431099
:10480000023303E04FF0FF30BDE8F08704F14302CC
:1048100039463046C0470130F4D02268D9F80050FC
:10482000E36802F00602042A08BF5D1B2269A36840
:104830000CBF25EAE57500259342C4BF9B1AED180D
:104840004FF000091A344D4509D00123224639465C
:104850003046C0470130D5D009F10109F3E7002007
:10486000BDE8F0872DE9F04317460A7E85B06E2A31
:10487000984606460C460C9B01F1430E00F0AE80B4
:1048800011D8632A22D009D8002A00F0BB80582A08
:1048900040F0CA8081F84520834955E0642A1ED043
:1048A000692A1CD0C0E0732A00F0B08009D86F2AB2
:1048B0002ED0702A40F0B8800A6842F020020A60C8
:1048C0003EE0752A24D0782A3AD0ADE01A6801F18A
:1048D0004205111D1960136884F84230A8E0216870
:1048E0001A6811F0800F02D0111D196008E011F054
:1048F000400F02F10401196002D0B2F9003000E06B
:104900001368002B3CDA2D225B4284F8432037E009
:1049100021681A6811F0800F02D0111D196007E09C
:1049200011F0400F02F10401196001D0138800E07A
:104930001368227E5C496F2A14BF0A2208221BE0FA
:1049400078225A4984F845202268186812F0800FAE
:1049500000F104051D6003D1550601D5038800E070
:104960000368D00744BF42F0200222601BB92268CE
:1049700022F0200222601022002084F8430001E08F
:1049800049490A226568A560002D08DB206820F0EF
:10499000040020602BB9002D7DD175460CE0002B62
:1049A00079D07546B3FBF2F002FB1033CB5C05F80F
:1049B000013D03460028F5D1082A0BD12368DA0708
:1049C00008D5236962689A42DEBF302305F8013CAE
:1049D00005F1FF35C5EB0E0323612EE008681A6868
:1049E000496910F0800F03D0101D1860136808E0AB
:1049F00010F0400F02F104001860136801D0198014
:104A000000E0196000232361754616E01A68111D45
:104A100019601568626800212846FBF701FC08B19F
:104A2000401B6060636804E004F1420584F84220A2
:104A300001232361002384F84330CDF800803B46F6
:104A400003AA21463046FFF797FE013002D14FF00E
:104A5000FF3026E023692A4639463046C0470130F8
:104A6000F5D023689B0710D5002504F1190907E04C
:104A700001234A4639463046C0470130E7D0013568
:104A8000E368039A9B1A9D42F2DBE068039B98421D
:104A9000B8BF184605E00B7884F8423004F14205AF
:104AA0008AE705B0BDE8F083405000085150000887
:104AB00010B5431E0A44914204D011F8014B03F88B
:104AC000014FF8E710BD884210B501EB020301D891
:104AD000421E0BE09842FBD28118D21AD34204D076
:104AE00013F8014D01F8014DF8E710BD994204D0CB
:104AF00011F8014B02F8014FF8E710BD38B5054633
:104B0000002946D051F8043C0C1F002BB8BFE41814
:104B100000F0D6F81F4A1368114613B96360146099
:104B200032E0A3420ED92268A018834204BF18685D
:104B30005B68636004BF121822600C6024E0A2422C
:104B400003D813465A68002AF9D118681918A142E7
:104B50000BD12168014458188242196014D11068A1
:104B600052685A60014419600EE002D90C232B6090
:104B70000AE021686018824204BF106852686260CF
:104B800004BF091821605C602846BDE8384000F089
:104B900098B838BDD404002070B5CD1C25F00305AD
:104BA00008350C2D38BF0C25002D064601DBA94227
:104BB00002D90C23336046E000F082F8234B1C68D6
:104BC0001A462146A1B10B685B1B0ED40B2B03D9EF
:104BD0000B60CC18CD501EE08C420DBF63684B6853
:104BE0006360136018BF0C4615E00C464968E9E79E
:104BF000174C23681BB9304600F052F82060294654
:104C0000304600F04DF8431C18D0C41C24F00304B7
:104C1000A0420DD12560304600F053F804F10B009E
:104C2000231D20F00700C31A0ED05A42E25070BD77
:104C3000211A304600F034F80130EBD10C233360F8
:104C4000304600F03EF8002070BD00BFD4040020C4
:104C5000D0040020F8B5074615460E4621B9114686
:104C6000BDE8F840FFF798BF1AB9FFF747FF28469D
:104C7000F8BD00F027F885420ED929463846FFF7DF
:104C80008BFF044650B131462A46FFF711FF3146EB
:104C90003846FFF733FF01E03046F8BD2046F8BD47
:104CA00038B5064C002305460846236000F014F88A
:104CB000431C02D1236803B12B6038BD8C0A00204D
:104CC0007047704751F8040C0028BEBF091851F80E
:104CD000043CC01804387047044B1968024609B9EF
:104CE00003491960186802441A607047D80400200C
:104CF000900A0020F8B500BFF8BC08BC9E4670477B
:0C4D0000F8B500BFF8BC08BC9E46704728
:104D0C007F0000007F0000007F0000007F0000009B
:104D1C007F000000FFFFFFFFFFFFFFFFFFFFFFFF14
:104D2C00FFFFFFFF00061016000610160104020814
:104D3C0000101010041010100210101008446563BD
:104D4C006973696F6E2025643A200D0A4C3A202550
:104D5C00642020200D0A523A2025642020200D0AC0
:104D6C0052463A202564202020200D0A4C463A2039
:104D7C0025642020200D0A437572204469726563F6
:104D8C003A202564200D0A4E6578742044697265BA
:104D9C006374696F6E3A20256420200D0A4C204301
:104DAC006F756E743A2025642020205220436F7555
:104DBC006E743A202564200D0A50726576204C3AA8
:104DCC00202564202020205072657620523A202520
:104DDC006420200D0A2D2D2D2D2D2D2D2D2D2D2D1D
:104DEC002D2D2D2D2D2D2D2D2D2D0D0A004C20561C
:104DFC00616C75653A20256420204C462056616C08
:104E0C0075653A202564200D0A52462056616C7552
:104E1C00653A20256420522056616C75653A202530
:104E2C0064200D0A2D2D2D2D2D2D2D2D2D2D2D2DBF
:104E3C002D2D2D2D2D2D2D2D2D200D0A004C656683
:104E4C007420436F756E742056616C75653A20251D
:104E5C0064200D0A526967687420436F756E742064
:104E6C0056616C7565202564200D0A2D2D2D2D2D78
:104E7C002D2D2D2D2D2D2D2D2D2D2D2D0D0A0050A3
:104E8C007265765F4C3A202564200D0A5072657667
:104E9C002052202564200D0A2D2D2D2D2D2D2D2D4C
:104EAC002D2D2D2D2D2D2D2D2D0D0A006375725FA1
:104EBC006D6F76653A202564200D0A6E6578745FF7
:104ECC006D6F76653A2025640D0A2D2D2D2D2D2D17
:104EDC002D2D2D2D2D2D2D2D2D2D2D0D0A00524925
:104EEC00474854205475726E20466C61673A2025F1
:104EFC0064200D0A4C454654205475726E20466C45
:104F0C0061673A202564200D0A2D2D2D2D2D2D2D78
:104F1C002D2D2D2D2D2D2D2D2D2D2D2D2D2D2D2DB5
:104F2C00004841484100466C6F6F6466696C6C20A8
:104F3C0056616C7565733A200D0A00256420000DCE
:104F4C000A200D0A00486F72697A6F6E74616C20CA
:104F5C0057616C6C733A200D0A0056657274696364
:104F6C00616C2057616C6C733A200D0A0046494EF7
:104F7C00414C3A202020582056414C55453A20258A
:104F8C006420202020592056414C55453A20256458
:104F9C0020202020444952454354494F4E3A202565
:104FAC006420202056414C55453A202564200D0A9A
:104FBC0000737475706964200D0A00537461746514
:104FCC003A202564004C2053706565643A202564B2
:104FDC002020200D0A522053706565643A20256408
:104FEC002020200D0A436F7272656374696F6E2006
:104FFC002564200D0A2D2D2D2D2D2D2D2D2D2D2DF6
:10500C002D2D2D2D2D2D0D0A00000000000000006F
:10501C000001020304060708090000000001020356
:10502C00044300232D302B2000686C4C0065666710
:10503C004546470030313233343536373839414202
:10504C0043444546003031323334353637383961D4
:08505C00626364656600000058
:04506400F50100084A
:04506800D10100086A
:10506C00010000000024F40000000000000000001B
:10507C000000000000000000000000000000000024
:10508C0000000000000000002D500008000000008F
:10509C000000000000000000000000000000000004
:1050AC0000000000000000000000000000000000F4
:1050BC0000000000000000000000000000000000E4
:0C50CC00000000000000000008000020B0
:04000005080002C12C
:00000001FF
