:020000040800F2
:1000000000000520C10200082157000823570008FE
:10001000255700082757000829570008000000004E
:100020000000000000000000000000002B57000846
:100030002D570008000000002F5700083157000816
:100040001103000811030008110300081103000840
:100050001103000811030008110300081103000830
:100060001103000811030008110300081103000820
:100070001103000811030008110300081103000810
:100080001103000811030008110300081103000800
:100090001103000811030008110300084757000866
:1000A0001103000811030008110300086557000838
:1000B000110300081103000871570008110300081C
:1000C0001103000811030008110300085957000824
:1000D00011030008110300081103000811030008B0
:1000E0003F5700081103000811030008110300081E
:1000F0001103000811030008110300081103000890
:10010000110300081103000811030008110300087F
:10011000110300081103000811030008110300086F
:100120004D570008110300081103000811030008CF
:10013000110300081103000811030008110300084F
:10014000110300081103000811030008110300083F
:10015000110300081103000811030008110300082F
:10016000110300081103000811030008110300081F
:10017000110300081103000811030008000000002B
:1001800011030008110300081103000811030008FF
:1001900011030008110300081103000811030008EF
:1001A00011030008110300081103000811030008DF
:1001B00011030008110300081103000811030008CF
:0801C0001103000811030008FF
:1001D00010B5054C237833B9044B13B10448AFF381
:1001E00000800123237010BD740000200000000077
:1001F0008460000808B5034B1BB103490348AFF303
:10020000008008BD00000000780000208460000825
:10021000034613F8012B002AFBD1181A0138704746
:1002200001F0FF01102A2BDB10F0070F08D010F8A7
:10023000013B013A8B422DD010F0070F42B3F6D1AB
:10024000F0B441EA012141EA014122F007047FF0C4
:1002500000070023F0E80256083C85EA010586EA1B
:10026000010685FA47F5A3FA87F586FA47F6A5FA57
:1002700087F68EB9EED1F0BC01F0FF0102F0070263
:1002800032B110F8013B013A83EA010313B1F8D10E
:100290000020704701387047002D06BF35460338EF
:1002A000073815F0010F07D1013015F4807F02BF28
:1002B000013015F4C03F0130F0BC0138704700BF79
:1002C000DFF834D0002103E00C4B5B58435004317D
:1002D0000B480C4B42189A42F6D30B4A02E000231B
:1002E00042F8043B094B9A42F9D305F047FA05F06E
:1002F0006BFA04F003FE7047000005203865000823
:10030000000000207400002074000020F052002043
:10031000FEE70000084B10B5044618684FF47A73E6
:10032000B0FBF3F000F0C2FA002221464FF0FF309C
:1003300000F078FA002010BD0C00002008B5032062
:1003400000F05EFA0020FFF7E5FF05F027F8002037
:1003500008BD0000024A136801331360704700BFF4
:1003600078430020014B1868704700BF7843002095
:1003700013B50190FFF7F6FF0446FFF7F3FF019B6B
:10038000001B9842F9D302B010BD000010B504461E
:10039000002800F09E80036C23B9436480F83C3051
:1003A00005F02CF8236CDB0600F18E80236C23F41F
:1003B000885323F0020343F002032364464B5A6838
:1003C00022F440325A60596862680A435A602368CE
:1003D00021695A68A06A22F480725A605A6842EA17
:1003E00001225A605A6822F040725A60A268596825
:1003F0000A435A609A6822F400629A60E268996837
:100400000A439A60354A90420ED0996821F0706193
:1004100099609A6802439A609A6822F040529A6002
:10042000E26A99680A4306E09A6822F070629A606C
:100430009A6822F040529A609A68A16922F00202FA
:100440009A609A6842EA41029A60226A9AB15A68AE
:1004500042F400625A605A6822F460425A604FF4D3
:10046000604292FAA2F2B2FA82F1626A5868013AE4
:100470008A40024302E05A6822F400625A60002077
:10048000DA6A22F47002DA62E269D96A013A41EA70
:100490000252216BDA629A6822F400729A609A68BA
:1004A00042EA412261699A609A6822F480629A6005
:1004B0009A6842EA81229A606064236C23F0030305
:1004C00043F00103236400E00120002384F83C3062
:1004D00010BD012010BD00BF002301400100000F2E
:1004E00037B5134600220446019290F83C20012AB9
:1004F00064D00122056880F83C20AA68D20703D5A1
:10050000AA68D00713D44EE0AA6842F00102AA609C
:100510002C4A10682C4AB0FBF2F000EB400001902E
:10052000019A002AECD0019A013A0192F8E7206C76
:1005300020F4E06020F0010040F4807020646A68DC
:10054000520505D5206C20F4405040F480502064C2
:10055000226C12F4805202D0626C22F006026264B5
:100560000022A06B84F83C20184AC263184A026437
:10057000184AC2646FF022022A606A6842F0806200
:100580006A60AA6842F48072AA600A4605F14C01CA
:1005900000F040FA104B5B6813F01F0F236804D083
:1005A0000E4A934201D0002009E0986810F04050B4
:1005B000F9D19A6842F080429A6000E0022003B0CC
:1005C00030BD00BF0C00002040420F003B06000879
:1005D0009D060008A90600080023014000200140F4
:1005E00090F83C30012B10B5044624D0012380F84C
:1005F0003C3003689A6822F001029A609A68D20738
:1006000014D49A68806B22F480729A6000F041FAE8
:100610002268536823F080635360236C23F488536B
:1006200023F0010343F00103236400E000200023D2
:1006300084F83C3010BD022010BD836B1A6C12F0A0
:10064000500F10B524D11A6C42F400721A641A6863
:10065000916811F0405F17D19969A9B9D16A11F475
:10066000700F02D0916849050ED4516821F0200125
:1006700051601A6C22F480721A641A6CD20403D48A
:100680001A6C42F001021A64184603F06FFC10BDA8
:100690009B6BBDE81040DB6C1847704708B5806B5A
:1006A000FFF7FBFF08BD704708B5806B402303646C
:1006B000436C43F004034364FFF7F5FF08BD0000FB
:1006C0000023F7B5019390F83C30012B70D00D68F2
:1006D00001230468092D80F83C30AEB28F6817D929
:1006E00006EB4602D4F80CE0A2F11E0307229A4062
:1006F0002EEA0202E2603D4A954203D1E36843EAF2
:10070000076303E0E26807FA03F31343E3600EE0D4
:1007100005EB45034FF0070E22690EFA03FE07FAB8
:1007200003F322EA0E0222612269134323614B681C
:10073000062B4FEA83020DD81344676B591F1F2302
:100740008B4006FA01F127EA03036363626B1143EE
:1007500061631DE00C2B0ED81344216BA3F123021F
:100760001F23934006FA02F221EA03032363236B5B
:100770001A4322630CE013441F22E76A413B9A406C
:1007800027EA0202E26206FA03F2E16A0A43E2623F
:10079000174B9C4204D0002380F83C30184623E0DD
:1007A000122D07D1134A536843F480035360F2E7D4
:1007B000022019E00D4B9D4201D0112DEBD10D49C6
:1007C0009D424A6842F400024A60E4D10A4B0B4A57
:1007D0001B68B3FBF2F20A2353430193019B002BE6
:1007E000D9D0019B013BF8E703B0F0BD1200001027
:1007F00000200140002301400C00002040420F0077
:10080000074A0002D36800F4E06023F4E0631B04AD
:100810001B0C43F0BF6343F400330343D3607047C2
:1008200000ED00E0194BDB68C3F3022330B5C3F1E0
:1008300007041D1D042C28BF0424062D4FF00105BC
:100840008CBF033B002305FA04F4002804F1FF34B5
:1008500004EA010404FA03F405FA03F303F1FF3395
:1008600002EA030242EA04024FEA021205DA00F049
:100870000F00D2B2064B1A5430BD00F16040D2B224
:1008800000F5614080F8002330BD00BF00ED00E0BE
:1008900014ED00E04209012300F01F0003FA00F00C
:1008A000014B43F82200704700E100E00138B0F14D
:1008B000807F0AD2064BF021064A5860002082F859
:1008C0002310072298601A6070470120704700BF0C
:1008D00010E000E000ED00E0044B04281A680CBFB3
:1008E00042F0040222F004021A60704710E000E0B7
:1008F000704708B5FFF7FCFF08BD0000036818212A
:10090000DAB223F47F73103A23F00303B2FBF1F25F
:100910000449032A895C88BF0433C1658365806DFF
:10092000704700BFC060000870B50446FFF71AFDAD
:100930000546002C64D00023226884F8343002235A
:1009400084F83530136823F00103136021680B68C5
:10095000D80708D5FFF706FD401B0528F6D9202348
:100960000320636551E00B68294A65681A40A36853
:10097000A0691D43E3681D4323691D4363692B433D
:10098000E56903432B43256A2B431343626A042A18
:1009900001BF256BE66A35432B43042A0B604B6984
:1009A00023F0070343EA02031CD1A26A134320B9D0
:1009B000012A0BD013D3022A10E0B0F5005F0AD150
:1009C000032A0FD8DFE802F01E0B1E02E26AB2F122
:1009D000C07F07D116E0022A14D9032A02D1E26AA5
:1009E000D2010FD44B612046FFF788FFE26D3F2311
:1009F0009340836000200123606584F8353070BD2A
:100A0000012070BD40230120636584F8350070BD6E
:100A10003F8010F070B590F83440012C37D001249D
:100A2000866D002580F8344090F83540012C4FF059
:100A3000020428D180F8354004684565256825F40E
:100A40008025256063608368402B02D1A260E1604D
:100A500001E0A160E260C26D3F239340B360236870
:100A600043F016032360636943F080036361036C02
:100A70001BB1236843F0080323602368002043F080
:100A80000103236070BD80F83450204670BD022001
:100A900070BD70B50446856DFFF764FC064694F89A
:100AA0003530022B06D0802301206365002384F8B3
:100AB000343070BD23681A6822F016021A605A6931
:100AC00022F080025A61226C0AB9A26C1AB11A682B
:100AD00022F008021A601A6822F001021A602368E4
:100AE000186810F001000DD0FFF73CFC801B0528B2
:100AF000F5D9202303206365002384F8350084F8AA
:100B0000343070BDE26D3F239340AB60012384F825
:100B1000340084F8353070BD90F83530022B03D0A6
:100B200080234365012070470268052380F8353033
:100B30000020136823F00103136070470023F7B50A
:100B400001930446594B856D1F680823C26D2E68BA
:100B500093401E420CD001680868400708D5086819
:100B600020F004000860AB60636D43F0010363652F
:100B70004F4B93401E4208D021684969090604D5AD
:100B8000AB60636D43F0020363654A4B93401E42C2
:100B900008D021680968880704D5AB60636D43F00D
:100BA00004036365102303FA02F2164217D0236888
:100BB0001968090713D5AA601A68500304D51B6881
:100BC000190308D5A36C07E01A68D20503D41A6884
:100BD00022F008021A60236C0BB120469847E16DA1
:100BE00020228A4016423BD023681868C60637D5B3
:100BF000AA6094F83520052A1A6819D122F0160245
:100C00001A605A6922F080025A61226C0AB9A26CF9
:100C10001AB11A6822F008021A603F238B40AB60B9
:100C2000002384F83430012384F83530236D37E015
:100C3000500304D51B6819030ED4636C0DE01A68C9
:100C400012F4807208D1196821F010011960012393
:100C500084F8342084F83530E36B0BB12046984794
:100C6000636D03B3636DDA0719D50523226884F831
:100C70003530136823F0010313604FF41653B7FBAC
:100C8000F3F7019B01339F42019302D31368DB0703
:100C9000F7D4002384F83430012384F83530E36C32
:100CA0000BB12046984703B0F0BD00BF0C000020F8
:100CB0000100800004008000094910B50C6924F48B
:100CC00040740C610C6944F440740C610C6944F08C
:100CD00001040C61C0E90023BFF34F8F10BD00BFBA
:100CE000003C0240084B1A6922F440721A611A69EA
:100CF00042F400721A611A6942F001021A6101603D
:100D0000BFF34F8F704700BF003C0240084B1A6989
:100D100022F440721A611A6942F480721A611A69E7
:100D200042F001021A610180BFF34F8F704700BF8C
:100D3000003C0240074B1A6922F440721A611A699A
:100D40001A611A6942F001021A610170BFF34F8FF4
:100D5000704700BF003C0240164BDA68920704D58A
:100D600015498A6942F020028A61DB68DB0604D5F6
:100D7000114A936943F0100393610E4BDA689006B1
:100D800004D50D498A6942F008028A61DB68590678
:100D900004D5094A936943F004039361054BDA686B
:100DA000120604D504498A6942F002028A61F222DD
:100DB000DA607047003C02407C430020064B1A6911
:100DC000002A06DA054A00205A6002F188325A6089
:100DD00070470120704700BF003C02402301674577
:100DE000034A0020136943F000431361704700BFBA
:100DF000003C02400022144B70B504469A61134D2A
:100E0000FFF7B0FA0646EB68104ADB030AD5621C0E
:100E1000F9D00CB9032070BDFFF7A4FA801B8442FF
:100E2000F1D2F7E7D06810F0F20003D0FFF794FF9B
:100E3000012070BDD36813F0010302D00123D360F9
:100E400070BD184670BD00BF7C430020003C0240CE
:100E50002DE9F0411C4C984607460D46237D164669
:100E6000012B2DD001234CF250302375FFF7C2FF28
:100E700010BB032F17D8DFE807F002070C11F1B2FF
:100E80002846FFF757FF0EE0B1B22846FFF73EFFB6
:100E900009E031462846FFF725FF04E03246434685
:100EA0002846FFF709FF4CF25030FFF7A3FF074A2F
:100EB000136923F00103136100232375BDE8F0815A
:100EC0000220BDE8F08100BF7C430020003C0240CE
:100ED000084B1A6922F440721A611A6942F004023E
:100EE0001A611A6942F4803242EA00201861BFF3A5
:100EF0004F8F7047003C024051B1012906D00229B2
:100F00000CBF4FF400714FF4407101E04FF4807159
:100F10000E4B1A6922F440721A611A691143196161
:100F200078211A6922F0F8021A6191FAA1F11A697E
:100F3000B1FA81F142F002028840104318611A6947
:100F400042F480321A61BFF34F8F7047003C024079
:100F50002DE9F843234E05468846337D012B3ED0CC
:100F600001234CF250303375FFF744FF044688BB31
:100F70004FF0FF33C8F800302B68012B0DD1287BD0
:100F8000FFF7A6FF4CF25030FFF734FF164A044635
:100F9000136923F0040313611CE06F68DFF84890C5
:100FA000AA686B6813449F4214D2297B3846FFF726
:100FB000A3FF4CF25030FFF71DFFD9F8103023F09B
:100FC0007A03C9F8103018B1C8F80070044601E07F
:100FD0000137E5E7002320463375BDE8F88302209A
:100FE000BDE8F8837C430020003C02402DE9F04F2F
:100FF0000B6885B06F4E01930023DFF8C0C1B64681
:10100000DFF8BC810122019C9A4032EA040440F0DE
:10101000C9804C6824F01009B9F1020F14D14FEACD
:10102000D30A03F0070B0F2500EB8A0A4FEA8B0B5C
:10103000DAF8207005FA0BF527EA05050F6907FABB
:101040000BF72F43CAF820704FEA430A03250768BD
:1010500004F0030B05FA0AF509F1FF390BFA0AFB54
:10106000ED43B9F1010F07EA05074BEA07070760EF
:1010700012D8876805EA0709CF6807FA0AF747EA2E
:101080000907C4F30019876009FA03F9476827EADA
:10109000020749EA07074760C7683D408F6807FABB
:1010A0000AF73D43C560E5007CD5DCF8445023F0E9
:1010B000030703F0030A4FF00F0945F4804507F1D9
:1010C00080474FEA8A0ACCF8445007F59C37DCF891
:1010D000445005F480450395039D09FA0AF5D7F8B5
:1010E00008B02BEA0509344DA84224D005F58065E7
:1010F000A84222D005F58065A84220D005F580657C
:10110000A8421ED005F58065A8421CD040451CD0E1
:1011100005F50065A8421AD005F58065A84218D0EB
:1011200005F58065A84216D005F58065A84214BF74
:101130000A25092510E000250EE001250CE0022516
:101140000AE0032508E0042506E0052504E006255D
:1011500002E0072500E0082505FA0AF514F4803FAF
:1011600045EA0905BD606FEA020735680CBF3D40DE
:10117000154314F4003FCEF80050DEF804500CBFC5
:101180003D40154314F4801F7560B5680CBF3D40A9
:101190001543A402CEF80850DEF80C5054BF3D4071
:1011A0001543F5600133102B7FF42CAF05B0BDE87B
:1011B000F08F00BF003C01400000024000380240B8
:1011C0000014024002B90904816170474369594023
:1011D0004161704708B5044B5969014202D058611A
:1011E00002F044FD08BD00BF003C0140194B1A6CE1
:1011F00042F0805273B51A641B6C174C03F0805395
:1012000025460193019B236843F480332360FFF755
:10121000A9F806466B68104CDA0307D4FFF7A2F86A
:10122000801BB0F57A7FF5D9032011E0236843F4E1
:1012300000332360FFF796F8054663689B0306D4E6
:10124000FFF790F8401BB0F57A7FF6D9ECE7002065
:1012500002B070BD00380240007000400368F7B56E
:101260000446D80703D42368990752D4A5E0964BC7
:101270009A6802F00C02042A07D09A6802F00C0265
:10128000082A0BD15B685A0208D58F4B1B689B0359
:10129000E9D56368002BE6D1012076E163688A4DC9
:1012A000B3F5803F13D05BB92B6823F480332B60F8
:1012B0002B6823F480232B60FFF754F8064624E0C4
:1012C000B3F5A02F2B6806D143F480232B602B6845
:1012D00043F4803305E023F480332B602B6823F440
:1012E00080232B60FFF73EF8774D06462B689F035F
:1012F000B9D4FFF737F8801B6428F7D9032044E1FD
:10130000FFF730F8801B6428F8D82B689803F7D4CF
:10131000A9E76D4B9A6812F00C0F07D09A6802F09B
:101320000C02082A17D15B68590214D4664B1A685C
:10133000920702D5E268012AAED11A68F82191FA23
:10134000A1F12069B1FA81F122F0F80200FA01F16D
:101350000A431A6031E0E3685B4DF3B12B6843F058
:1013600001032B60FEF7FEFF06462B6856489B07DD
:1013700005D4FEF7F7FF801B0228F6D9BEE7036805
:10138000F82292FAA2F22169B2FA82F223F0F8036B
:1013900001FA02F2134303600FE02B6823F001030C
:1013A0002B60FEF7DFFF06462B689F0705D5FEF78B
:1013B000D9FF801B0228F7D9A0E723681E0703D4B2
:1013C00023685D0749D522E063693F4D7BB16B6FB0
:1013D00043F001036B67FEF7C5FF06466B6F980786
:1013E000EED4FEF7BFFF801B0228F7D986E76B6FAC
:1013F00023F001036B67FEF7B5FF06466B6F990795
:10140000DED5FEF7AFFF801B0228F7D976E72E4B1B
:101410002E4D1A6C42F080521A641B6C03F08053FC
:101420000193019B2B6843F480732B60FEF79AFFB6
:1014300006462B68DA0514D5A368234D012B16D177
:101440002B6F43F001032B6741F28835FEF78AFFCB
:101450001D4E0746336F9B0726D5A269002A37D158
:1014600079E0FEF77FFF801B6428E2D946E76BB97D
:101470002B6F41F2883723F001032B672B6F23F08A
:1014800004032B67FEF76EFF064619E0052B2B6F52
:1014900003D143F004032B67D2E723F001032B674A
:1014A0002B6F23F00403CEE7FEF75CFFC01BA842BE
:1014B000D0D923E7FEF756FF801BB8423FF61EAF98
:1014C0002B6F9807F6D4C8E7003802400070004040
:1014D0002F4DAB6803F00C03082B3FF4DDAE2B68F7
:1014E000022A23F080732B6043D1FEF73BFF0746AF
:1014F0002B68274E990130D447F6C07292FAA2F2B7
:101500004FF44033B2FA82F093FAA3F34FF07062D3
:10151000B3FA83F592FAA2F2E369B2FA82F1276A8A
:10152000626A1F43824047F0005343EA0200A36A05
:101530005A08013A02FA05F3E26A03438A40134368
:101540007360336843F080733360FEF70BFF04462B
:1015500033689A0107D5002017E0FEF703FFC01B90
:101560000228C5D9CAE6FEF7FDFE001B0228EFD906
:10157000C4E6FEF7F7FE04462B689B01EBD5FEF7A9
:10158000F1FE001B0228F7D9B8E603B0F0BD00BF9A
:10159000003802401B498B6803F00C03042B2CD04D
:1015A000082B2CD1486847F6C0724B6800F03F000A
:1015B00013F4800F4B6892FAA2F247F6C071B2FAA8
:1015C00082F201EA030121FA02F114BF0E4A0F4A26
:1015D000B2FBF0F00B4A00FB01F34FF440305268CD
:1015E00090FAA0F002F44032B0FA80F022FA00F053
:1015F00001304000B3FBF0F07047034870470348E8
:10160000704700BF0038024040787D010024F4009C
:10161000504A136803F00F038B422DE9F041044652
:101620000D460AD32168880714D54B48836823F0F8
:10163000F002A368134383600CE0136823F00F03E8
:101640000B431360136803F00F039942EAD00120A3
:10165000BDE8F081C90706D43E4A136803F00F03C2
:101660009D4242D34BE062683B4B012A196802D18C
:1016700011F4003F06E0022A02D111F0007F01E0E0
:1016800011F0020FE3D0996841F28838324F21F00F
:1016900003010A439A60FEF765FE63680646012B64
:1016A0000CD1BB6803F00C03042BD5D0FEF75AFE17
:1016B000801B4045F5D90320BDE8F081022B0FD1F6
:1016C000BB6803F00C03082BC6D0FEF74BFE801B53
:1016D0004045F5D9EFE7FEF745FE801B4045EAD8C7
:1016E000BB6813F00C0FF6D1B6E7136823F00F03B5
:1016F0002B431360136803F00F039D42A7D12168A9
:101700004A0706D51448836823F4E052E36813437C
:1017100083600B0707D5104A2169936823F460435F
:1017200043EAC1039360FFF735FF0B4BF0229B6840
:1017300092FAA2F2B2FA82F203F0F003D340074A1F
:10174000D35CD840064B18600020FEF7E3FD002074
:10175000BDE8F081003C024000380240E26400082D
:101760000C000020014B1868704700BF0C000020DF
:10177000084B4FF4E0529B6892FAA2F2B2FA82F25E
:1017800003F4E053D340044AD35C044A1068D840C1
:10179000704700BF00380240F26400080C000020CF
:1017A000084B4FF460429B6892FAA2F2B2FA82F2BE
:1017B00003F46043D340044AD35C044A1068D84021
:1017C000704700BF00380240F26400080C0000209F
:1017D00003682DE9F74F13F0010604460BD0B64A13
:1017E000916821F400019160466B91683143B6FA2B
:1017F00086F67609916013F4002512D0AE49E56BA8
:10180000D1F88C20B5F5801F22F4401208BF0126C4
:1018100042EA050216BFB5FA85F500256D09C1F843
:101820008C20D80211D5A448216CD0F88C20B1F5B9
:10183000800F22F4400242EA0102C0F88C2003D05B
:10184000002908BF012500E0012613F0807F18BFA2
:10185000012699065DD5984B984F1A6C42F080523C
:101860001A641B6C03F080530193019B3B6843F4A3
:1018700080733B60FEF776FD80463B68DA0507D44F
:10188000FEF770FDC8EB00006428F6D9032040E3A2
:10189000894F3B6F13F440730FD1226B02F44073F6
:1018A000B3F5407F844B2BD1996821F4F81022F0D6
:1018B000704121F44071014325E0226B02F4407233
:1018C0009342EAD03B6F3A6F23F4407342F4803284
:1018D0003A673A6F22F480323A673B673B6FDB0727
:1018E000DBD5FEF73FFD41F2883980463B6F980714
:1018F000D3D4FEF737FDC8EB00004845F6D9C5E75D
:10190000996821F4F8119960C2F30B02196F0A4328
:101910001A672368D9060CD5674AD2F88C1021F0D3
:101920008071C2F88C10D2F88C00A16B0143C2F810
:101930008C105A0408D56048D0F8902022F4403129
:10194000626E0A43C0F890201F0408D55A48D0F8A8
:10195000902022F44021A26E0A43C0F89020D803C0
:1019600008D55548D0F8902022F44011E26E0A4381
:10197000C0F89020990308D54F48D0F8902022F461
:101980004001226F0A43C0F890205A0608D54A4801
:10199000D0F8902022F00301626C0A43C0F8902036
:1019A0001F0608D54448D0F8902022F00C01A26C04
:1019B0000A43C0F89020D80508D53F48D0F89020B9
:1019C00022F03001E26C0A43C0F89020990508D556
:1019D0003948D0F8902022F0C001226D0A43C0F8A7
:1019E00090205A0508D53448D0F8902022F4407150
:1019F000626D0A43C0F890201F0508D52E48D0F824
:101A0000902022F44061A26D0A43C0F89020D804CF
:101A100008D52948D0F8902022F44051E26D0A43BD
:101A2000C0F89020990408D52348D0F8902022F4DB
:101A30004041226E0A43C0F890205A0208D51E4841
:101A4000D0F8902022F08061A26F0A43C0F8902065
:101A50009F020CD51848E16FD0F89020B1F1006FCB
:101A600022F0006208BF01250A43C0F8902013F05D
:101A7000080F18BF0125580308D50F48D0F890204B
:101A800022F04071626F0A43C0F89020190209D514
:101A90000948D0F8902022F08051D4F880200A43E1
:101AA000C0F89020012E0BD0B3F1007F08D0012D9B
:101AB00040F08C8123E100BF0038024000700040FC
:101AC000C84E336823F080633360FEF74BFC074653
:101AD0003368DFF810E31A0105D5FEF743FCC01B9D
:101AE0006428F5D9D2E62768FB073CD5636BD3BBE6
:101AF000DEF884004FF4403898FAA8F94FF0706689
:101B0000B9FA89F9DEF8842096FAA6FC47F6C07A7D
:101B1000BCFA8CFC9AFAAAFABAFA8AFA98FAA8F8E5
:101B2000B8FA88F896FAA6F64FF0E043B6FA86F6C9
:101B300093FAA3F3B3FA83FB6168A36800F440301F
:101B400001FA0AF102F0706203FA0BF320FA09F0CD
:101B500022FA0CF20B4300FA08F1194302FA06F3D9
:101B60000B43CEF884303E0303D5E36BB3F5801FFF
:101B700005D0F80249D5236CB3F5800F45D1DFF8C5
:101B800064E24FF44038DEF8840098FAA8F94FF088
:101B9000E046B9FA89F9DEF8842096FAA6FC47F601
:101BA000C07BBCFA8CFC9BFAABFBBBFA8BFB98FAB4
:101BB000A8F84FF07063B8FA88F893FAA3F3B3FA71
:101BC00083FA96FAA6F6636800F4403002F0E04229
:101BD000B6FA86F603FA0BF1E36820FA09F022FA66
:101BE0000CF203FA0AF30B4300FA08F1194302FA64
:101BF00006F30B43CEF88430DEF88C30626A23F0B3
:101C00001F03013A1343CEF88C30F9013CD5DFF8BD
:101C1000D4E14FF07068DEF8840098FAA8F94FF02C
:101C2000E046B9FA89F9DEF8842096FAA6FC47F670
:101C3000C07BBCFA8CFC9BFAABFB4FF44033BBFA85
:101C40008BFB93FAA3F3B3FA83FA98FAA8F8B8FADD
:101C500088F896FAA6F6636800F0706002F0E04239
:101C6000B6FA86F603FA0BF1236920FA09F022FA94
:101C70000CF203FA0AF30B4300FA08F1194302FAD3
:101C800006F30B43CEF88430BA0126D547F6C07E62
:101C90009EFAAEFE4FF44030BEFA8EFE90FAA0F0EF
:101CA0004FF07062B0FA80F792FAA2F24FF0E04380
:101CB000B2FA82F693FAA3F3B3FA83F12069636868
:101CC000E268B84003FA0EF3B24003431A43A36834
:101CD0008B401343434AC2F88430424E336843F08A
:101CE00080633360FEF73EFB074633681B013FF518
:101CF000DEAEFEF737FBC01B6428F6D9C6E5394DCA
:101D00002B6823F080532B60FEF72CFB06462B68D4
:101D10009F005DD425682E0360D4E80264D4A90234
:101D200000F1AD802A0745D52E4F4FF07065D7F8EA
:101D3000882095FAA5FC4FF44036BCFA8CFCD7F805
:101D4000880096FAA6F847F6C079B8FA88F899FAA2
:101D5000A9F9B9FA89F996FAA6F6B6FA86F695FAC5
:101D6000A5F54FF0E04EB5FA85F59EFAAEFE636933
:101D7000BEFA8EFE00F4403002F0706203FA09F100
:101D8000E36920FA08F022FA0CF203FA0EFE02FAD6
:101D900005F341EA0E0E00FA06F14EEA01010B438B
:101DA000C7F88830D7F88C3023F44032E36A134305
:101DB000C7F88C300B4C236843F080532360FEF748
:101DC000D1FA054623689B0040F19C800020A0E0EA
:101DD000FEF7C8FA801B642899D957E5E36B33B145
:101DE0009BE700BF00380240236C002B97D14A4F7D
:101DF0004FF4403CD7F888009CFAACF94FF0E0462D
:101E0000B9FA89F9D7F8882096FAA6FE47F6C07A7B
:101E1000BEFA8EFE9AFAAAFABAFA8AFA9CFAACFCD0
:101E20004FF07068BCFA8CFC98FAA8F8B8FA88F8F9
:101E300096FAA6F6A16900F44030636902F0E04228
:101E400001FA08F820FA09F003FA0AF322FA0EF26E
:101E5000B6FA86F600FA0CF143EA0803194302FACF
:101E600006F30B43C7F88830D7F88C30A26A23F406
:101E7000F853013A43EA0223C7F88C304FE7E36F87
:101E8000B3F1006F7FF44EAF234F4FF0706CD7F873
:101E900088009CFAACF94FF0E046B9FA89F9D7F816
:101EA000882096FAA6FE47F6C07ABEFA8EFE9AFA07
:101EB000AAFA4FF44038BAFA8AFA98FAA8F8B8FAA7
:101EC00088F89CFAACFCBCFA8CFC96FAA6F6216A5F
:101ED00000F07060636902F0E04201FA08F820FA4D
:101EE00009F003FA0AF3B6FA86F600FA0CF122FAC0
:101EF0000EF243EA0803194302FA06F30B43C7F84C
:101F000088300FE7FEF72EFA401B64287FF65AAFA1
:101F1000BCE403B0BDE8F08F0038024070B5044661
:101F200000284FD00023836290F85D3003F0FF0259
:101F30001BB980F85C2003F0C1FA02232168E26833
:101F400084F85D300B68B2F5E06F23F040030B605E
:101F50004FF0000303D91846B2F5706F01E04FF45B
:101F6000805018BFA362236B2BB9B2F5E06F8CBF12
:101F7000022301232363A5686668A3692E432569AC
:101F80002E4365692E43E5692E43256A2E43A56AD3
:101F90002E4303F400751B0C35430D60656A2A431C
:101FA000656B154303F0040245EA02030343002076
:101FB0004B60CB6923F40063CB610123206684F876
:101FC0005D3070BD012070BD036859689A6830B5F6
:101FD00002F0410585B00446012D03D14D0601D51F
:101FE000C36C05E0950705D5080603D5236D20468B
:101FF000984756E012F4B07F53D08D0651D5500665
:1020000016D594F85D00002503280AD0206E40F014
:10201000040020660095D8680090986800900098A9
:1020200006E00195DA6801929B680193019B38E014
:1020300095060CD5206E40F001002066002002902D
:1020400098680290186820F0400018600298D00547
:1020500008D5226E42F008022266002203929A6896
:102060000392039A226EE2B15A6822F0E0025A60AB
:10207000012284F85D208A0710D05A68A06D22F0F2
:1020800003025A6018B1084B0365FEF745FD606D09
:1020900038B1054B0365FEF73FFD02E0204601F035
:1020A00017FC05B030BD00BFAD20000808B5806B3F
:1020B0000023A0F84630C38701F00AFC08BD03687E
:1020C00051B1042914D11A6A22F010021A621A6A54
:1020D00042F010021A621FE01A6A22F001021A622C
:1020E0001A6A42F001021A62DA6842F0020216E04D
:1020F0001A6A22F001021A621A6A42F001021A6296
:102100001A6A22F010021A621A6A42F010021A6267
:10211000DA6842F00202DA60DA6842F00402DA6059
:1021200000201A6842F001021A6070477047704739
:1021300070477047704703681A69910710B50446E5
:1021400014D5DA68920711D56FF002021A610122E4
:102150009B690276990702D0FFF7EAFF04E0FFF7D8
:10216000E6FF2046FFF7E5FF0023237623681A6980
:10217000520716D5DA68500713D56FF004022046CF
:102180001A6102229B69227613F4407F02D0FFF786
:10219000CFFF04E0FFF7CBFF2046FFF7CAFF002385
:1021A000237623681A69110715D5DA68120712D544
:1021B0006FF0080220461A610422DB6922769B0731
:1021C00002D0FFF7B5FF04E0FFF7B1FF2046FFF7AD
:1021D000B0FF0023237623681A69D00616D5DA6883
:1021E000D10613D56FF0100220461A610822DB6970
:1021F000227613F4407F02D0FFF79AFF04E0FFF746
:1022000096FF2046FFF795FF0023237623681A697F
:10221000D20708D5DA68D00705D56FF0010220464D
:102220001A61FFF783FF23681A69110608D5DA6877
:10223000120605D56FF0800220461A6100F0D7FA29
:1022400023681A69D00508D5DA68110605D56FF03C
:10225000800220461A6100F0CAFA23681A69520601
:1022600008D5DA68500605D56FF0400220461A619D
:10227000FFF760FF23681A6991060AD5DA689206AB
:1022800007D56FF0200220461A61BDE8104000F02B
:10229000ADBA10BD2E4A0368904212D0B0F1804F03
:1022A0000FD0A2F57C4290420BD002F580629042A2
:1022B00007D002F58062904203D002F57842904246
:1022C00018D14A6823F070031343214A904237D053
:1022D000B0F1804F34D01F4A904231D002F5806275
:1022E00090422DD002F58062904229D002F57842CA
:1022F000904225D0184A904222D002F58062904246
:102300001ED002F5806290421AD0A2F59832904217
:1023100016D002F58062904212D002F5806290429F
:102320000ED003608B68C3620B688362084B9842CF
:102330000BD003F58063984207D0012343617047B7
:1023400023F44073CA681343EBE70B690363F4E7B4
:1023500000000140000400400040014010B5044668
:10236000A0B190F8393003F0FF021BB980F8382093
:1023700003F032F902232068211D84F83930FFF779
:1023800089FF0123002084F8393010BD012010BDE1
:10239000F8B50C460546002843D090F8393003F0D4
:1023A000FF021BB980F8382003F0B6F82946022353
:1023B00051F8040B85F83930836823F4803323F017
:1023C00007038360FFF766FF2868236887688169D1
:1023D0001F43A26921F440732169066A23F00303B5
:1023E000090143EA0222A3681343E26941EA022198
:1023F000E26823F47C430A43216A23F0FC0342EAA7
:1024000001326169134326F0AA0242EA01126168AF
:1024100087600A43836101230262002085F8393016
:10242000F8BD0120F8BD0000036A23F0010370B578
:102430000362036A426884690D6824F4803424F0DE
:1024400073042C4323F002058B682B430C4DA842E8
:1024500009D005F58065A84205D042604A688461CC
:102460004263036270BDCD6823F008034E6922F415
:1024700040722B438D69354323F004032A43ECE774
:1024800000000140036A23F0100330B50362036AC1
:102490004268846923F020030D6824F0807424F4DA
:1024A000E64444EA05248D6843EA05130E4DA8422C
:1024B00009D005F58065A84205D042604A6884616C
:1024C0008263036230BDCD6823F0800322F4406252
:1024D00043EA05134D6942EA85028D6923F0400302
:1024E00042EA8502E9E700BF00000140036A23F4E5
:1024F000807330B50362036A4268C46923F40073D1
:102500000D6824F4803424F073042C438D6843EA6E
:1025100005230E4DA84209D005F58065A84205D0D7
:1025200042604A68C461C263036230BDCD6823F46F
:10253000006322F4405243EA05234D6942EA051242
:102540008D6923F4806342EA0512E9E70000014047
:10255000036A23F4805330B50362046A4268C36996
:1025600024F400540D6823F0807323F4E64343EA17
:1025700005238D6844EA0534094DA84209D005F5C4
:102580008065A84205D04260C3614B680364046261
:1025900030BD22F480424D6942EA8512F3E700BF64
:1025A0000000014001238A408B4010B5046A24EAF0
:1025B00003030362036A42EA0301016210BD0000E3
:1025C00010B5044601220068FFF7ECFF2368084AB3
:1025D000934203D002F58062934203D15A6C42F4D5
:1025E00000425A641A68002042F001021A6010BDCD
:1025F00000000140036A23F4803330B50362036AAC
:102600004268446D23F400330D6824F4803424F0D0
:1026100070042C438D6843EA0543094DA84203D05A
:1026200005F58065A84204D122F480324D6942EA62
:10263000052242604A6844658265036230BD00BF7E
:1026400000000140036A23F4801330B50362026A7C
:102650004468436D22F400120D6823F0807323F464
:10266000E04343EA05238D6842EA0552084DA8423B
:1026700003D005F58065A84204D124F480244D6977
:1026800044EA8524446043654B68C365026230BDFB
:102690000000014038B590F8383004460D4602205D
:1026A000012B7BD00123082A84F8390084F83830C4
:1026B0003CD013D84AB3042A6AD12068FFF7E2FE5F
:1026C000236829699A6942F400629A619A6922F43E
:1026D00080629A619A6942EA012225E0102A36D086
:1026E000142A44D00C2A53D12068FFF731FF236805
:1026F0002969DA6942F40062DA61DA6922F48062F7
:10270000DA61DA6942EA01221FE02068FFF78CFEF5
:1027100023689A6942F008029A619A6922F00402D9
:102720009A612A6999690A439A6131E02068FFF742
:10273000DDFE2368DA6942F00802DA61DA6922F024
:102740000402DA612A69D9690A43DA6120E0206863
:10275000FFF750FF23685A6D42F008025A655A6D20
:1027600022F004025A652A69596D0A430FE0206875
:10277000FFF768FF236809695A6D42F400625A65E1
:102780005A6D22F480625A655A6D42EA01225A65F6
:102790000123002084F8393084F8380038BD000067
:1027A00090F83830012B30B51CD002680E4C5368BD
:1027B000A242956803D004F58064A24203D123F4B9
:1027C00070034C6823430C6823F07003896823432B
:1027D00025F08004536021430023916080F8383055
:1027E000184630BD022030BD0000014070477047E0
:1027F0002DE9F041069D04460F461646984621688D
:10280000CA6937EA02030CBF01220022B2421DD17D
:102810006B1CF5D09DB9236803201A6822F4D0728E
:102820001A609A6822F001029A60202384F86930C5
:1028300084F86A30002384F86830BDE8F081FDF741
:1028400091FDC8EB00008542D9D8E4E70020BDE83F
:10285000F0812DE9F3411F4690F8693004460D469A
:10286000202B90464BD1002947D0002A45D090F824
:102870006830012B43D0012380F868300023C36601
:10288000212380F86930FDF76DFD0646A4F85080DD
:10289000A4F85280B4F8522092B202B3B4F8523085
:1028A000002200978021013B20469BB2A4F85230C1
:1028B0003346FFF79DFF08B1032021E0A36822689B
:1028C000B3F5805F07D123692BB935F8023BC3F319
:1028D00008039362DEE72B7801359362DAE700970D
:1028E000334640212046FFF783FF0028E4D1202310
:1028F00084F8680084F8693002E0012000E00220DA
:1029000002B0BDE8F081000038B504460568C3692F
:102910002269A1682868114362690A4342EA0301F7
:10292000884A0240A0690A432A606A6822F440513A
:10293000E2680A43216A6A600143AA6822F43062AD
:102940000A43AA60804A954207D102F594327F4932
:10295000D2F8902002F0030209E07D4A95420BD1A3
:1029600002F5FA327B49D2F8902002F00C02B3F55E
:10297000004F8A5C73D0B6E0774A95420DD102F5DC
:10298000F832D2F8902002F03002102A00F086804F
:102990005DD9202A78D0302A0EE0704A95420DD1B8
:1029A00002F5F632D2F8902002F0C002402A75D02B
:1029B0004DD9802A68D0C02A7CD087E0684A9542E9
:1029C0000FD102F5F432D2F8902002F44072B2F541
:1029D000807F63D03BD9B2F5007F55D0B2F5407F00
:1029E000EAE7604A954212D102F59232D2F890207D
:1029F00002F44062B2F5806F50D002D8002A3DD078
:102A000064E0B2F5006F3FD0B2F5406FD4E7564AAC
:102A100095420FD102F5E032D2F8902002F44052F4
:102A2000B2F5805F3AD012D9B2F5005F2CD0B2F582
:102A3000405FC1E74D4A954248D102F5DE32D2F8F7
:102A4000902002F44042B2F5804F27D001D87AB1ED
:102A50003CE0B2F5004F17D0B2F5404FACE7082A82
:102A600037D8DFE802F0080E14361E3636362A0054
:102A7000B3F5004F40D1FEF77BFE14E0B3F5004FF5
:102A80003DD1FEF78DFE0EE0B3F5004F3AD1606800
:102A9000420802F1F47303F5904312E0B3F5004FDE
:102AA00039D1FEF777FD63685A0802EB4000B0FBAE
:102AB000F3F308E0B3F5004F37D16068430803F53E
:102AC0008033B3FBF0F39BB2002004E0B3F5004F7A
:102AD00035D101200023C3F3420123F00F03226804
:102AE0000B43D36038BD082A29D8DFE802F0050877
:102AF0000B28142828281E00FEF73AFE0DE0FEF7EA
:102B00004FFE0AE061684A0802F5740303F51053AA
:102B1000B3FBF1F30FE0FEF73DFD636800EB5300FC
:102B2000B0FBF3F080B2E86007E06268530803F599
:102B30000043B3FBF2F39BB2EB60002038BD0120F1
:102B400038BD00BFF369FFEF00100140C860000806
:102B500000440040CC60000800480040004C0040A9
:102B6000005000400014014000780040007C00400C
:102B7000436ADA0710B506D50468626822F40031AA
:102B8000826A0A4362609C0706D50468626822F480
:102B90008031C26A0A436260590706D504686268D8
:102BA00022F48021026B0A4362601A0706D504688A
:102BB000626822F40041426B0A436260DC0606D57B
:102BC0000468A26822F48051826B0A43A2609906CD
:102BD00006D50468A26822F40051C26B0A43A260C1
:102BE0005A0610D50168046C4A68B4F5801F22F4B7
:102BF000801242EA04024A6005D14A6822F4C00405
:102C0000426C22434A601B0606D501684B6823F4D8
:102C10000022836C13434B6010BD73B5002604463D
:102C2000C666FDF79FFB236805461B681A0704D498
:102C300023681B685B071AD50DE06FF07E433246B0
:102C40004FF40011009303462046FFF7D1FD002802
:102C5000EED0032013E06FF07E4300224FF480019A
:102C6000204600932B46FFF7C3FD0028F1D1202317
:102C7000002084F8693084F8680084F86A3002B073
:102C800070BD10B5044660B390F8693003F0FF02E0
:102C90001BB980F8682002F01DFD2268242320461D
:102CA00084F86930136823F001031360FFF72CFEEA
:102CB000012816D0636A13B12046FFF759FF236835
:102CC00020465A6822F490425A609A6822F02A02FA
:102CD0009A601A6842F00102BDE810401A60FFF7DE
:102CE0009CBF012010BD00000B4B40F6A6621B6884
:102CF00093420A4B06DC0A490968914202DC1A68D1
:102D0000042A06D11B6833F004030CBF0120002005
:102D100070470020704700BF88200020E800002096
:102D2000E4200020B0F5967F04DDB1F5967F05DD47
:102D3000411A19E008D1B1F5967F02DCA0F5AF6128
:102D400012E0C1F5AF610FE0B1F5967FF9DA0B4BF8
:102D500019680B4B1B6819440A4B18680A4B091A6F
:102D60001868091A01EB81013C2091FBF0F101F197
:102D70007703EE2B94BF0846002070476031002097
:102D80009C43002098430020E40000200D4B1A686B
:102D9000002353620C4A126853620C4A13600C4AB7
:102DA00013600C4A13600C4A13600C4A13600C4AFF
:102DB00013600C4A13600C4A13600C4A13600C4AEF
:102DC00013607047F8500020A04300209C4300206F
:102DD00098430020B43000208C100020E400002034
:102DE00060310020D0310020A0300020643100206C
:102DF000D03200200023094809491A4630B5094D50
:102E0000094C45F8232044F8232040F8232041F8BA
:102E100023200133B3F57A7FF3D130BDE8100020D1
:102E2000F8200020E4320020EC0000202DE9F043DF
:102E3000DFF8A890DFF8A880D9F800301B4ADFF847
:102E4000A4C0DFF8A4E01A4F1A4E1B4D1B4C1C48BF
:102E50001C49CBB90B601C49136002220B601B4953
:102E600023600A601A4C1B49C8F80030CEF80030C5
:102E70003B6033602B60236003600B60164BCCF823
:102E800000201A60BDE8F083002313600222C8F816
:102E90000030CCF80020CEF800303B6033602B606F
:102EA000236003600B60BDE8F08300BFE0100020EA
:102EB000F0200020DC200020E0200020E84200205C
:102EC000E8000020C8320020004300200800002055
:102ED000E0420020DC320020E0320020D842002016
:102EE0009C30002000000020D432002010B50446A1
:102EF000FDF78EF94FF47A7382B221460248BDE89D
:102F00001040FFF7A6BC00BFAC4A0020254B264A64
:102F10001B6813B50193254B254C1B68254920469A
:102F20000093254B12681B6802F074FC2046FFF7E3
:102F3000DDFF224B224A20461B681268214902F01D
:102F400069FC2046FFF7D2FF1F4B204A20461B6832
:102F500012681F4902F05EFC2046FFF7C7FF1D4BB9
:102F60001D4A20461B6812681C4902F053FC20468B
:102F7000FFF7BCFF1A4B1B4920461A6802F04AFCB7
:102F80002046FFF7B3FF184B184A20461B6812680B
:102F9000174902F03FFC204602B0BDE81040FFF7A1
:102FA000A5BF00BFE420002088200020D4420020DC
:102FB0009C490020D9600008FC42002060310020BC
:102FC000E400002029610008984300209C43002071
:102FD0006B610008C8320020E800002098610008FA
:102FE000E0420020CA6100080800002000430020E1
:102FF000FB6100081D491E4A0B6810681D4A42F813
:1030000023001D4A10681D4A42F823001C4A10681C
:103010001C4A42F823001C4A10681C4A42F823004C
:103020001B4A10681B4A42F823001B4A10681B4ABF
:1030300042F823001A4A10681A4A42F823001A4A32
:1030400010681A4A42F82300194A1068194A42F8CF
:103050002300194A1068194A42F82300013314204A
:1030600093FBF0F200FB12330B6070476C310020D1
:10307000983000208C200020F8420020D43100201D
:10308000E000002010310020D8320020243200203F
:10309000E800002084420020C8320020783200205E
:1030A000E4000020901000206031002080310020DA
:1030B0009C4300209000002098430020C030002056
:1030C000F0B52E4F87B004460D4601AE002D0FCF50
:1030D0000FC63B6801A92A4A33604FEA44030BDC60
:1030E0001A44525D012A14D0681C1A19024425485A
:1030F00050F8222003920CE0681ED618365C012E90
:1031000005D01E1930441F4E56F820000290012DA4
:10311000E6D0002C1C480DDC234403445B5D012BEE
:1031200016D00134174B04EB44042C4453F82430DC
:1031300005930DE0621E02EB42028618765D012EB9
:103140001FBF52190F4E56F822200492042CE3DDC3
:103150000122002306A851F8224000EB830050F81A
:10316000140C8442B8BF13460132052AF2D106AAD4
:1031700002EB830353F8140C07B0F0BD9C60000809
:10318000EC420020DC430020A43000207FB54C4CF2
:1031900001264C482368026803EB43014A4D114461
:1031A00045F8216049490E68032E1FBF48490B604E
:1031B00048490A6048490D68032D3DD8DFE805F00D
:1031C000020C1B26032E37D8DFE806F0020F260478
:1031D000013A08E001232DE0032E2DD8DFE806F0A8
:1031E000021C05090132026038E0013B2360022322
:1031F00019E000231EE0032E1ED8DFE806F00216B9
:103200001105013B236029E0032313E0032E13D8AB
:10321000DFE806F002060B0F01332360032302E010
:10322000013A002302600B6018E0013201230260C2
:10323000F9E702230B6001E0032E0FD1244B27494D
:103240001A68244B22601B680360254802F0E2FAEA
:10325000234804B0BDE87040FFF748BE2268036809
:1032600002EB42001F4C184454F82000A0B91E483D
:103270000068C0B91D4C012020600C68032C09D8DF
:10328000DFE804F007020406002002E0032000E06B
:10329000022008601649D8E7052A01D8022B02D976
:1032A00001241448046014480068029609680093D9
:1032B00013460191421C1149094802F0ABFAC7E7D5
:1032C0000043002008000020B0500020C832002039
:1032D000DC320020E0320020E0420020966300084B
:1032E0009C490020DC430020D8420020E842002016
:1032F00026630008040000206C3100204E630008A3
:103300002DE9F04F714B89B0002402250DF1100A10
:103310006F4F704E3C6035600FCB8AE80F0020463F
:1033200000F082F92B466C492046224625464FF094
:103330007F0E4FF06C0C029703965600B71807EB00
:1033400003080197654F57F82880B8F1000F00F087
:103350009C80002BCDF810E0CDF814E0CDF818E0FB
:10336000CDF81CE010DC5E4F07EB060919F803905E
:10337000B9F1010F1BD0164403F10109574F4E4418
:1033800057F82660059612E0554F03F1FF3907EB19
:10339000060B1BF809B0BBF1010F06D0019F4F448B
:1033A000B9464E4F57F829700497012BDBD0002AFD
:1033B0000FDC02EB42064B4F3E44F65C012E1AD066
:1033C000561C464F06EB46061E4457F826600796E5
:1033D00011E0561E434F06EB460607EB060919F8A7
:1033E0000390B9F1010F1FBFF6183C4F57F8266044
:1033F0000696042ADDDD4FF0000908F1FF385AF87F
:103400002960464508BF484609F10109B9F1040F92
:10341000F5D1022C1DD0032C29D0012C0CD0022870
:1034200005D0032806D000283CD1662417E081F897
:1034300000C045E0722426E0022805D0032805D00C
:1034400001283AD166241BE072240EE081F800C006
:1034500039E0012805D0022806D088BB72240C7000
:1034600020E081F800C028E066240C7028E00128E4
:1034700005D0032806D030BB81F800C012E07224CA
:103480000C701AE066240C701DE0174B12481D608A
:1034900073234355FFF72AFD144809B0BDE8F04FE8
:1034A000FFF724BD013B00240135029E013146F89F
:1034B0002520039E46F825303FE701330124F3E73A
:1034C000013A0224F0E701320324EDE7B06000087E
:1034D000804B00202444002070510020DC43002059
:1034E000EC420020A4300020F4200020DB63000820
:1034F000F8B50020002500F097F83D4E3D493E48C4
:1035000002F0ACF93C48FFF7F1FC0024A3193B4959
:1035100039480C345A5902F07DF93748FFF7E6FC78
:10352000482CF3D136490435334802F097F9324834
:10353000FFF7DCFC0C2DE8D1324900242E48324F35
:1035400002F08CF92C48FFF7D1FC00253E1916F843
:10355000152001352949284802F05CF92648FFF773
:10356000C5FC062DF3D126490134234802F076F933
:103570002148FFF7BBFC022CE7D1244900241E4858
:10358000234F02F06BF91C48FFF7B0FC00253E19F1
:10359000725D03351949184802F03CF91648FFF7E7
:1035A000A5FC0F2DF4D116490134134802F056F949
:1035B0001148FFF79BFC032CE8D10024154D164E53
:1035C000FFF79EFE154F1648FFF790FC2B689C42B4
:1035D0000CD856F8243057F82420013411490648F5
:1035E00002F018F90448FFF781FCEFE7F8BD00BFCF
:1035F000DC430020C36300089C49002011630008DD
:10360000D8630008DE630008EC420020F363000882
:10361000A4300020F420002024440020804B00200F
:1036200006640008176400082DE9F04F0023ADF58B
:103630004B7D334C7F2219191A510C33304F4A609D
:10364000482B8A60F7D1002301282E4A4FF001064B
:1036500008BFBB604FF00C0B18BFFB630DF5CC7AB5
:10366000294B12681B6803EB430303EB0209002498
:10367000A0460BFB0473002553F825207F2A0ED1AA
:10368000294620460193FFF71BFD7F28019B1FBFA2
:1036900002AA4AF8285042F8284008F101080135EA
:1036A000032DE9D10134062CE3D1002398450BD03A
:1036B00002AA5AF8231052F82320013302EB4202E7
:1036C0000A4447F82260F1E757F829307F2B13D1DD
:1036D0000136C92ECBD10D4B01220D491A6032465D
:1036E0000C4802F097F8FFF703FF0A480DF54B7DF1
:1036F000BDE8F04FFFF7FABB0DF54B7DBDE8F08F4D
:10370000DC430020080000200043002004000020CB
:10371000236400089C49002000230F491A465A548C
:10372000C818023342700C2BF9D100230B481A46FB
:103730001A54C11803334A700F2B8A70F8D1002332
:1037400007481A4619181A500C334A60482B8A60E9
:10375000F8D10020FFF768BFEC420020A430002021
:10376000B0500020F0B5524D87B00FCD01AC0FC462
:103770002B685049236001AC4F4B504D1A686AB911
:103780002B6858000144895C012916D0511C034460
:103790000B444B4951F8233003930EE02868531E25
:1037A00046008F19FF5C012F05D030440344444884
:1037B00050F823300293012AE2D92968414871B9AF
:1037C00001EB410303449B5C012B16D04B1C3C488E
:1037D00003EB4303134450F8233005930DE04B1ED5
:1037E00003EB4303C518AD5C012D1FBF9B18344D7F
:1037F00055F8233004930429E2D90120002306ADB3
:1038000054F8206005EB830555F8145CAE42B8BF50
:10381000034601300528F2D101EB410128480A4452
:1038200006A901EB830150F8222051F8141C9142A3
:103830000AD3254B1868FFF7F7FEFFF793FF0446FE
:10384000FFF756FE204630E0204A106803282BD8A8
:10385000DFE800F0020A1E14032B21D0042B0BD04A
:10386000022B08BF032020E0032B05D0042B1CD023
:10387000012B08BF032010E0022016E0022B05D028
:10388000032B12D0013B584258410EE018460CE081
:10389000022B05D0042B05D0012B18BF002004E01B
:1038A000012002E0032000E0002007B0F0BD00BFCF
:1038B0009C600008EC42002008000020004300202B
:1038C000DC430020A4300020D8420020E042002049
:1038D00070470000054C08B522680549054801F00D
:1038E00099FF0448FFF702FBF6E700BF04430020FE
:1038F000436400089C4900202DE9F843FDF75EFA77
:10390000022400212D480522012380E81E002C49B5
:10391000FDF71EFB88B1012202212A48FDF752FC67
:103920006420FCF725FD002202212648FDF74AFC11
:103930004FF4FA60FCF71CFDEDE7234D0446234BE2
:10394000DFF89090A8462B60661E00274E4416F8BC
:10395000012F002329680020FDF77AFAB8B9D8F8BA
:10396000003001370433022FC8F80030EFD113E0E4
:103970003B6801360433032E3B6018D018F806204C
:10398000002329680020FDF763FA0028F0D04522C3
:103990000F4B1A60FFF79EFF02340C2CD4D1044663
:1039A000DFF83490084F002609EB0408E6E70334FB
:1039B0000F2CF8D1BDE8F843FDF712BA70310020A2
:1039C000B8300020000C0240E4420020000004084F
:1039D00004430020EC420020A430002008B500225F
:1039E000054B06491A6020220548FCF779FD08B10D
:1039F000FFF770FF08BD00BF0843002030500020D3
:103A0000644A00202DE9F04F85B080460F46FFF74D
:103A1000E5FF6B4A13686A4C002BFBD0694D01220D
:103A200020216948D5F800B0FDF7CCFBFFF7D6FFA1
:103A30002368002BFCD00022202163482E68FDF76C
:103A4000C1FBFFF7CBFF2368002BFCD05F4D0122A9
:103A50004FF400715E48D5F800A0FDF7B3FBFFF707
:103A6000BDFF2368002BFCD000224FF400715848A2
:103A70002D68FDF7A7FBFFF7B1FF2368002BFCD0F3
:103A8000DFF87491012210214F48D9F800300193DA
:103A9000FDF798FBFFF7A2FF2368002BFCD0D9F8B5
:103AA00000300022102148480293FDF78BFBFFF7FE
:103AB00095FF2368002BFCD0464B01224FF4807108
:103AC0004348D3F800900393FDF77CFBFFF786FF94
:103AD000039B2268002AFCD000224FF480713C48EE
:103AE000CBEB06061C68FDF76DFB3B4BCAEB0505EF
:103AF000C9EB040201991E60012F384B1D60384B41
:103B00001A60029BA3EB0101364B196041D1364884
:103B10004FF47A74DFF8E4C00368DFF8E49003F54B
:103B2000487A4CF8231049F823209AFBF4FE04FB52
:103B30001EA4DFF8D0E05CF824C059F82440BCF1A2
:103B40000A0F0ADDCCEB01010029B8BF4942B1F5EB
:103B5000C87F02DDCEF8007002E00021CEF8001030
:103B60000A2C22490BDDC4EB0209B9F1000FB8BFE2
:103B7000C9F10009B9F5C87F01DD012200E000228A
:103B80000A6001334FF47A7193FBF1F201FB1233B7
:103B90000360B8F1010F0FD113494FF47A70144A42
:103BA0000B6842F82360134A42F82350013393FB19
:103BB000F0F200FB12330B6005B0BDE8F08F00BFE0
:103BC00008430020E410002000040240EC20002004
:103BD000000802407432002088200020E4200020E9
:103BE000D4420020FC420020CC320020DC20002007
:103BF000F8200020E8100020BC300020E432002033
:103C0000EC000020F020002037B54FF47A74FFF765
:103C1000F1F801210020FFF7F5FE013CF9D1234620
:103C2000214622460D4D0E4C55F82300024454F80F
:103C3000230001330144B3F57A7FF5D192FBF3F20F
:103C400091FBF3F3D11A07480091074901F0E2FD17
:103C5000044803B0BDE83040FFF748B9E432002023
:103C6000EC0000209C4900204D640008402808B565
:103C700016D1254B1B687BB9244A042124481368BC
:103C8000B3FA83F35B091360FDF7A0FA2021204803
:103C9000BDE80840FDF79ABABDE80840FFF728BC28
:103CA000B0F5004F2FD11B4B1B68B3F5616F06DDDC
:103CB000194A1368B3FA83F35B0913600EE0174BDC
:103CC0001B68B3F5616F02DDFFF79EFF06E0144B42
:103CD0001B68B3F5616F01DDFFF70AFC08210C4892
:103CE000FDF774FA20210A48FDF770FA0D4B1A68A7
:103CF000002353620C4A12685362034A1368B3FAF2
:103D000083F35B09136008BDDC420020040000203F
:103D1000000C0240E420002068310020D442002042
:103D2000FC420020F8500020A04300207A4A2DE9F0
:103D3000F8430023794F7A4E4FF03209794D90467F
:103D4000794C13603B6033602B6000210846FFF71D
:103D500059FED8F800202368B9F10109734902EB34
:103D6000030E734A3B68126809681344714832684D
:103D700000680A442968C8F800E008443B603260E3
:103D80002860E2D13221644D9EFBF1F493FBF1F304
:103D900092FBF1F290FBF1F162482C6001605F4D03
:103DA00065482B6000685E4D2A60032800F2B280EF
:103DB000DFE800F0022B58856048614D006868B16B
:103DC000B4F5C87F02DAB3F5C87F07DB2C685D4B1A
:103DD00003EB44030124034403F8014C2B68042B38
:103DE00004D9B2F5967F0EDABDE8F883B1F5967F77
:103DF00005DB554C03EB4301214401240C54002BFB
:103E000000F08880EDE7013B24E04C484C4D006811
:103E100001280BD8B4F5C87F02DAB3F5C87F05DBFB
:103E20002C68484B03EB440301241C542B6823B932
:103E3000B2F5967F0EDABDE8F883B1F5967F06DB22
:103E4000591E414C01EB4101214401240C54042B27
:103E500060D8EDE73C4A03EB4303134401221A54B4
:103E6000BDE8F8833648354E05686DB1B4F5C87FB6
:103E700002DAB3F5C87F07DB6B1E334C306803EB07
:103E80004303234401241C54306820B9B2F5967FC3
:103E90000EDABDE8F883B1F5967F06DB294B0121E8
:103EA00003EB4503034403F8011C012832D8EDE776
:103EB000244B03EB450501232B54BDE8F883204830
:103EC0001E4D006804280CD8B4F5C87F02DAB3F59B
:103ED000C87F06DB1C4E00EB40032C6833440126F0
:103EE0001E552B68012B04D9B2F5967F0BDABDE87D
:103EF000F883B1F5967FA1BF1249012401EB40017F
:103F0000CC543BB1F0E70F4A02EB400001220344DE
:103F100003F8012CBDE8F88398300020F842002017
:103F2000D8320020E000002088200020FC42002041
:103F3000E4200020D4420020E042002008000020BD
:103F400000430020EC420020A430002008B50122EC
:103F5000044B05481A60FCF743FB08B1FFF7BAFCB5
:103F600008BD00BF08430020644A002008B5FFF7E1
:103F7000EDFF074B074A196F1160D96F064A1160B0
:103F8000996F064A11605A6F054B1A6008BD00BF51
:103F900030500020E4100020EC200020743200207B
:103FA000BC30002001294FF000024FF0600308BF31
:103FB000C0F5267010B508BF013088B00C460290DD
:103FC00001A90A48019303920592FEF763FB01469B
:103FD00008B1FFF77FFC0548FEF7F2FA0221E2B2D2
:103FE0000348FDF7EFF808B010BD00BFB052002045
:103FF0000000024001294FF060034FF0080208BFA3
:10400000C0F5267010B588B008BF01300C4601938A
:104010000023029001A9094803930593FEF73AFB98
:1040200008B1FFF757FC08210448FEF7C9FA082138
:10403000E2B20348FDF7C6F808B010BDB052002048
:1040400000000240F8B5554E554C3368012B2368EB
:1040500054D1E3B9534B1B68B3F5967F04D2524B4E
:104060001B68B3F5967F12D30123504D2360FFF7F1
:104070005DFE4F4B1B68012B02D103232B6004E034
:10408000FFF770FB2860FFF781F8FEF7B3FF2368A6
:10409000012B40F08280434B1B68B3F5117F04D2A3
:1040A000414B1B68B3F5117F77D3002510214148A0
:1040B0002A4625603560FDF785F82A4608213D48E7
:1040C000FDF780F83C4B1A683C4B1A603C4B1A6871
:1040D0003C4B1A60354B1E681C46012E08D0022E40
:1040E00058D101219120FFF75DFF012128464FE0C3
:1040F00031462846FFF756FF314648E0E3B9324BD8
:104100001B68B3F5C87F04D2304B1B68B3F5C87F7A
:1041100012D30123254D2360FFF708FE244B1B68B3
:10412000012B02D103232B6004E0FFF71BFB286067
:10413000FFF72CF8FEF75EFF2368012B2DD1224BF1
:104140001A6840F2B6239A4203D8204A12689A426B
:1041500023D9194B00271A68184B27601A60184B8F
:1041600037601A68174B1A60104B1D681C46012DEA
:1041700008D0022D0ED101219120FFF713FF01215C
:10418000384605E029463846FFF70CFF29468720C8
:10419000FFF730FF22680E4B1A60F8BDE0200020C8
:1041A000D432002064310020D0320020C8320020F8
:1041B000E8420020000C0240E40000209C43002064
:1041C0006031002098430020B43000208C10002083
:1041D000E8000020F8B5334C2368002B2FD1324B78
:1041E000324D1A681F46272A03D82B68B3F5E67F9D
:1041F00025D301217820FFF7D5FE012187202C4E01
:10420000FFF7F8FEFFF792FD2A4B1B68012B02D146
:104210000323336004E0FFF7A5FA3060FEF7B6FF32
:1042200001232360244B1A68244B1A60244B1A681C
:10423000244B1A6000233B602B60FEF7DBFE2368F3
:10424000012B2ED1184B1B68B3F5CF7F04D8174B29
:104250001B68B3F5CF7F24D900262660FEF7CAFE7F
:10426000154B1A68154B1A60154B1A68154B1A60D6
:104270000F4B1D681C46012D08D0022D0ED10121C7
:104280009120FFF78FFE0121304605E02946304698
:10429000FFF788FE29468720FFF7ACFE22680A4B0D
:1042A0001A60F8BDE0100020B43000208C1000200F
:1042B000C8320020E8420020E40000209C43002097
:1042C0006031002098430020E8000020F8B5324C0F
:1042D0002368002B2FD1314B314D1A681F46B2F5A0
:1042E000E67F02D22B68272B25D9FFF71FFD2D4B28
:1042F0002D4E1B68012B02D10323336004E0FFF72E
:1043000031FA3060FEF742FF01217820FFF74AFEC4
:1043100001218720FFF76EFE01232360234B1A68DB
:10432000234B1A60234B1A68234B1A6000233B600F
:104330002B60FEF75FFE2368012B2CD1174B1B6807
:10434000B3F5CA7F04D8164B1B68B3F5CA7F22D9D0
:10435000164B00261A68164B26601A60154B1A6811
:10436000154B1A60104B1D681C46012D08D0022DFC
:104370000ED101219120FFF715FE0121304605E005
:1043800029463046FFF70EFE29468720FFF732FE0A
:1043900022680A4B1A60F8BD9C300020B43000201F
:1043A0008C100020E8420020C8320020E4000020E9
:1043B0009C4300206031002098430020E80000204A
:1043C00000212DE9F0419D4C0846FFF71BFB9C4E58
:1043D000FEF7DCFC2268B2F5C87F04DC3368B3F575
:1043E000C87F40F3A280974D2B68B3F5967F04DA1F
:1043F0002B68B3F5967F27DC46E0934F3B68B3F517
:10440000967FF5DBDFF8448200210846FFF7FAFAD1
:1044100038682B6801211B1A1E2093FBF0F0C8F8A6
:1044200000007830FFF7BEFDD8F800000121C0F190
:104430008700FFF7DFFD326840F6A5639A42D7DCBC
:1044400022689A42E0DDD3E77F4B1B68B3F5967F85
:104450001ADC7E4F00210846FFF7D4FA28681E2395
:104460000121A0F2145090FBF3F038607830FFF790
:1044700099FD38680121C0F18700FFF7BBFD326864
:1044800040F6A5639A4204DD2B68B3F5967F04DD00
:1044900025E022689A42DDDDF6E76B4B1A681D467F
:1044A000B2F5967F1BDD694F00210846FFF7AAFA97
:1044B0002B681E200121C3F5A263043393FBF0F0A7
:1044C00038607830FFF76EFD38680121C0F1870051
:1044D000FFF790FD326840F6A5639A4221DD012185
:1044E0000020FFF75FFD01210020FFF783FDFA2088
:1044F000FBF73EFF00210846FFF784FA336803F11B
:10450000320223689B1A002BB8BF5B42642B54DD38
:1045100001216E20FFF746FD00216420FFF76AFDB0
:1045200032E022689A42BFDDD9E7B2F5C87F02D1F6
:10453000B3F5C87FD3D0434FDFF80C81434D002142
:104540000846FFF75FFAD8F800003B6801211B1A04
:104550001E2093FBF0F028607830FFF723FD2868D9
:104560000121C0F18700FFF745FD394B39491B6830
:104570005A6A394B312A1A60384B1B685B6A0B60E8
:10458000ADD8312BDBD9AAE700210846FFF73AFA6C
:10459000336803F1320223689B1A002BB8BF5B42D9
:1045A000642BF1DC01210020FFF7FCFC002001213D
:1045B000FFF720FDFA20FBF7DBFEFEF7E7FB00210B
:1045C0006E20FFF7EFFC01216420FFF713FD234B62
:1045D0001A681D46536AB3F5C87FFBD31D4C0121F1
:1045E00000202360FFF7DEFC01210020FFF702FD21
:1045F0001B4B1868FFF718F8FEF7C8FBFA20FBF70B
:10460000B7FE00217820FFF7CDFC00218720FFF7BF
:10461000F1FC29684FF6E7734A6A9A42FCD10121FE
:1046200000202360FFF7BEFC00200121FFF7E2FC21
:104630004FF49670BDE8F041FBF79ABE8820002049
:10464000E4200020FC420020D4420020E82000208A
:10465000F850002060310020E4000020A04300203A
:10466000D842002070B5364C2368022B19D1FFF7D1
:10467000A7FEFEF73DFFFEF789FBFEF7BBFB314BC4
:104680001B68012B03D104222F4B1A6009E0012182
:104690007820FFF787FC01218720FFF7ABFC002380
:1046A00023602368DBB9294B294D1A681E468B2AE3
:1046B00002D82B688B2B12D901232360FFF752F805
:1046C000244B1860FEF762FD234B1A68234B1A60D7
:1046D000234B1A68234B1A60002333602B60236836
:1046E000012B2CD1194B1B68B3F5B77F04D2184BA3
:1046F0001B68B3F5B67F22D902232360164B1A68D4
:10470000164B1A60164B1A68164B1A60114B1D682F
:104710001C46012D08D0022D0ED101219120FFF75A
:1047200041FC0121002005E029460020FFF73AFC6A
:1047300029468720FFF75EFC2268034B1A6070BD94
:1047400000000020E8420020E8000020B4300020F3
:104750008C100020C8320020E40000209C43002080
:10476000603100209843002038B501210020FFF778
:1047700019FC01210020FFF73DFC0F4B1A681C4675
:10478000012A01D1FEF7B4FE0025FEF7FFFA02214F
:104790000A482A462560FCF715FD2A4604210748E9
:1047A000FCF710FD012220210448FCF70BFD01223B
:1047B000034B1A6038BD00BFDC420020000C0240F1
:1047C00004000020F7B5012202216A48FCF7FAFC38
:1047D000002210216748FCF7F5FC002204216548FF
:1047E000FCF7F0FC002208216248FCF7EBFC624C6D
:1047F000002220215F48FCF7E5FC4FF47A70FBF7BC
:10480000B7FD23681BB9FEF787FFFFF78FFAFEF7A6
:10481000F1FAFEF7BBFA2068FEF708FB2068574C58
:10482000FEF702FFFEF764FEFEF770FB2546FEF77B
:10483000ADFC6420FBF79CFD01217820FFF7B2FB63
:1048400001218720FFF7D6FB4D4E01210020FFF705
:10485000D9F823685BB14B4B1B68012B07D04A4B3F
:104860001B68012B03D0494B1B68012B16D8002372
:10487000474A48494848494F0093336809681268D5
:104880000068FEF74FFA012138607830FFF78AFBA5
:1048900038680121C0F18700FFF7ACFBFEF724FA6E
:1048A00018B93F4B1B68012B04D103B0BDE8F040A1
:1048B000FFF75ABF3B4B3C4A1B683C48596A3C4B8C
:1048C000DFF81CE119603B4B1B685B6A13603A4AD6
:1048D00012688A1A0260394A394812689A1A0260C4
:1048E000DEF80020012A0AD1364A1268891A364AAF
:1048F0001160364A12689B1A354A136025E022BBC4
:104900002A6812BB334A12683ABB334A33481268EA
:10491000012A02D00768012F1FD12A4F39602B4985
:104920000B6001232849CEF8003000230B60284992
:104930000B600368012B02D11A46102102E0012A04
:104940000BD108210B48FCF73DFC2B68032B3FF6ED
:104950007CAFDFE803F00208050BFFF773FB73E79A
:10496000FFF7B4FC70E7FFF735FC6DE7FFF77AFE61
:104970006AE700BF000C0240D8420020E800002097
:10498000E42000209C300020E010002000000020E7
:1049900088200020D4420020FC420020E820002093
:1049A00004000020F850002060310020B4300020C6
:1049B000E4000020A04300209C43002098430020F6
:1049C0008C100020D031002064310020A030002065
:1049D000D0320020D4320020DC200020F020002043
:1049E000E02000202DE9F04F054640F2B72685B0C3
:1049F000012178206E430827FFF7D4FA0121872090
:104A0000FFF7F8FADFF8D89196FBF7F701216B4C26
:104A1000DFF8D0B10846DFF8D0A1FEF7F3FF01239D
:104A2000DFF8C8810093DBF80020D9F80030DAF80D
:104A300000102068FEF776F90121C8F800007830F0
:104A4000FFF7B0FAD8F800000121C0F18700FFF7A6
:104A5000D1FA5B4B5B481B6803944446596A5A4B36
:104A600019605A4B1B685B6A036059480068091A51
:104A700058480160B94258480068A3EB0003574802
:104A8000036010D301214FF49670FFF78BFA0121D8
:104A90004FF49670FFF7AEFA41F201335D430823FD
:104AA00095FBF3F504E0BB42B0D3EBE7AB423ED25B
:104AB0000121DFF81481454F0846DFF80891FEF721
:104AC000A1FF3F4B03981B68DBF800205B6ADAF814
:104AD0000010C8F800303B685B6AC9F80030012359
:104AE00000933F4B00681B68FEF71CF90121206012
:104AF00000F59670FFF756FA20680121C0F5967010
:104B0000FFF778FAFEF702FA314BD8F800201B685D
:104B10003149D21A2F4B09681A60AA42D9F80030DD
:104B2000DFF89C90A3EB01032C490B60BED301215D
:104B30007820274DFFF736FA01218720FFF75AFA30
:104B400001210846FEF75EFF012303980093244BE2
:104B5000DBF800201B68DAF800100068FEF7E2F8C6
:104B6000012120607830FFF71DFA20680121C0F193
:104B70008700FFF73FFAD9F800302968586A3B6888
:104B8000411ADFF858C0D3F824E00E4BB142C8F800
:104B90000000C3F800E00F4B19600F4B1A68C2EB1E
:104BA0000E02CCF8002006D3094AC3F800E01060DA
:104BB00005B0BDE8F08FB242C2D3F5E7FC42002059
:104BC000F850002060310020E4000020A0430020C5
:104BD0009C430020B4300020984300208C1000201B
:104BE000E420002088200020D4420020E82000207B
:104BF0002DE9F843012104466420C826FFF7D2F9C5
:104C0000C82001216643FFF7F5F9144B144A4FF40D
:104C1000C8701F68134B6043D2F800C09146D3F8A8
:104C200000E0114BD3F800801D467A6ADEF824308C
:104C3000CCEB0204C8EB0301B4420CD30B48C9F817
:104C4000002002600A482B6003600A4804600A489A
:104C50000160BDE8F8838842E7D8EFE7F85000200C
:104C60009C430020A043002098430020E400002043
:104C700060310020B43000208C1000202DE9F04776
:104C8000012106464FF4A570234DFFF78BF9012152
:104C90005020224CFFF7AEF9214B4FF42F714FF407
:104CA000967ED3F800C01F4B7143D5F800900EFBE1
:104CB00006FED3F80080D4F800A0DCF82470D8F801
:104CC0002400C9EB0702CAEB00038A420ED3DFF8C7
:104CD00068E08A42CEF80070134F386013480260D3
:104CE0001348036005D90122102109E09E45E4D84C
:104CF000EDE74FF496707043834204D901220821F6
:104D00000C48FCF75FFA0C4B1B682B60064B1B68CA
:104D10002360BDE8F08700BF9C430020984300203B
:104D2000F8500020A043002060310020B430002063
:104D30008C100020000C0240E400002070B50546F5
:104D40000678012202213C4815F8014FFCF73AFA97
:104D5000002210213848FCF735FA00220421364899
:104D6000FCF730FA002208213348FCF72BFA3248CE
:104D700000222021FCF726FAFEF73CF8FEF706F8A1
:104D80004FF47A70FBF7F4FA732E51D0623E142E72
:104D90004AD8DFE806F01B1E2124492A2D3033367D
:104DA0000B393C3F42450E49111627002146012090
:104DB00004E02146012006E021460220FFF718FF0B
:104DC00032E021460220FFF759FF2DE02146012065
:104DD00028E02146022025E02146032022E021464A
:104DE00004201FE0214605201CE02146062019E092
:104DF0002146072016E02146082013E0214609201D
:104E000010E021460A200DE021460B200AE0214651
:104E10000C2007E021460D2004E021460E2001E091
:104E200021460F20FFF7DEFD264615F8014FABE7C0
:104E3000BDE87040FFF798BC000C02402D4B1A6C87
:104E400042F0805210B51A64B4B01B6C02242A4A96
:104E500007A803F080530093009B136823F440439A
:104E600043F4804313601368079403F440430D94A4
:104E700011940193019B012312940A9310230B9325
:104E800000230E9308230F936C231093FCF7E6F98D
:104E900008B1FEF71FFDFCF7A9F90028F9D10F238F
:104EA0000490072102A802934FF4805303940593C2
:104EB0000693FCF7ADFB0028EBD14023249013A808
:104EC0001393FCF785FC04460028E2D1FCF74AFC6A
:104ED0004FF47A73B0FBF3F0FBF7E8FC0420FBF728
:104EE000FBFC224621464FF0FF30FBF79BFC34B021
:104EF00010BD00BF003802400070004080B5ACB06B
:104F00000024FBF71BFA0126FFF798FF514B0A21FB
:104F100051481A6B4FF44079504D4FF4803742F0AE
:104F200001024FF0040A1A631A6B02F001020092A8
:104F3000009A1A6B42F004021A631A6B02F0040220
:104F40000192019A1A6B42F002021A631A6B02F084
:104F500002020292029A1A6B42F010021A631A6B52
:104F600002F010020392039A1A6B42F008021A63CD
:104F700000221B6B03F008030493049BFCF722F947
:104F8000012210213448FCF71DF900221E2134486B
:104F9000FCF718F9012220213148FCF713F91A23F4
:104FA00023A92D482393249625942694FCF71EF8D4
:104FB0004FF4004323A92A48239324952594FCF712
:104FC00015F8402323A92748239324952594FCF71B
:104FD0000DF8224602212820234DFBF723FC282030
:104FE000FBF758FC224631461720FBF71BFC172025
:104FF000FBF750FC3E2323A91948239324962594BC
:105000002694FBF7F3FF23A91648CDF88C9024963D
:1050100025942694FBF7EAFF3023144823A924960D
:10502000239325942694FBF7E1FF114B2846AC60AF
:105030002E61AE612C626C62EC62AC62EC60C5F811
:105040001CA02E636C6185E88800FBF79FF988B18E
:10505000FEF740FC00380240000002400000211032
:10506000000C024000080240644A00200004024094
:10507000002001400E230B9008A9284608930996AA
:105080000A96FBF71DFB0028E2D10F230B9008A91D
:105090002846089302230A960993FBF711FB002880
:1050A000D6D108274FF003080B9008A92846089787
:1050B000CDF824800A96FBF703FB0028C8D109230A
:1050C0000B9008A928460893CDF824A00A96FBF770
:1050D000F7FA0028BCD19B4B4FF482749A4A98602F
:1050E00018615861D861186258629862186318464E
:1050F000C3F80C905F6383E814004FF400729A6168
:105100000722DA62FCF70AFF0028A1D18F4C23A9FD
:105110008F4B606023604FF6FF73A0602061606179
:105120002490279028902B902046E360CDF88C8027
:105130002596269729962A97FDF72AF9002887D1E0
:105140003C212046FCF7BBFF002881D1814D05237F
:105150004FF08041A8602861284685E80A0040F2A7
:105160009923EB60FDF7FAF800287FF471AF059002
:1051700005A907902846FDF713FB00287FF468AFC8
:1051800000224FF0600A13A92846CDF84CA01492D3
:1051900015921792FDF77EFA00287FF459AF284642
:1051A0003A4613A9FDF776FA054600287FF450AF7A
:1051B0006848012700F044FA674E684B1AA9CDF8F9
:1051C00068804FF008083046B5603561B1467561BA
:1051D0001B951C97CDF874801E951F952097CDF8D0
:1051E0008480229586E828004FF6FF73F360FDF770
:1051F000CFF800287FF42CAF3C213046FCF75FFF4E
:1052000000287FF425AF564E564BB06030613046D3
:1052100086E8080140F62F53F360FDF79FF8024639
:1052200000287FF415AF40F2FE630E9010900CA999
:105230003046CDF830A00D93FDF72CFA0546002836
:105240007FF406AF304600F0FBF94748474A4FF479
:10525000E1338560C56005618561C56105624562B0
:1052600080E80C000C234361FDF70BFD0546002888
:105270007FF4EEAE41463748FDF7A2F9294635489E
:10528000FDF79EF939462846FEF78CFE2846384D34
:105290003946384FFEF7AEFE2E462B681BB1364B13
:1052A0001B68012B34D100210846FEF7ABFB2368B5
:1052B0005B6A3B60D9F800305A6A304B1A60304B59
:1052C0001B68B3F5616F07DD012210212D48FBF744
:1052D00079FF0022022112E02B4B1B68B3F5616FAE
:1052E00006DD2A4B1B68B3F5616F01DD012200E08A
:1052F000002202212348FBF765FF002210212148EC
:10530000FBF760FF224B1B68012B01D1FDF7FEFD6F
:1053100033683BB91A4B1B68B3F5FA6F02DD1D48C1
:10532000FFF70CFD336843B91B4B1B68B3F5FA6FED
:1053300003DDFFF747FAFEF7DFFA4FF4FA70FBF7E9
:1053400017F8AAE74C52002000300140F850002026
:1053500000000140B0520020A0430020000800409F
:105360003451002000400140AC4A002000100140B0
:1053700004000020E4000020DC4200206031002016
:10538000E4200020000C0240D4420020FC42002017
:1053900068310020DF6400088820002008B5032061
:1053A000FBF72EFA00226FF00B001146FBF73AFADA
:1053B00000226FF00A001146FBF734FA00226FF06A
:1053C00009001146FBF72EFA00226FF00400114687
:1053D000FBF728FA00226FF003001146FBF722FAD0
:1053E00000226FF001001146FBF71CFA00224FF07B
:1053F000FF301146BDE80840FBF714BA02682A4B9B
:105400009A4270B5064688B04BD103F58C3300251F
:10541000032403A95A6C254842F480725A645A6CDA
:1054200002F480720192019A1A6B42F480021A63AC
:105430001B6B049403F4800305950293029B3023B5
:105440000393FBF7D3FD03A919480394049405952E
:10545000FBF7CCFD174C184B2046A560E560656254
:10546000E562256384E828004FF4806323614FF4EC
:10547000805363614FF48043A3614FF48073E36111
:105480004FF4003323620123A362FBF74DFAB463A8
:1054900038202A462946A663FBF7C4F93820FBF7D3
:1054A000F9F908B070BD00BF0020014000080240BB
:1054B000000402400C430020106402400268144BB8
:1054C0009A4210B586B020D103F58433002401A997
:1054D00010485A6C42F480525A645B6C039403F493
:1054E00080530093009BE023019302230293032344
:1054F000049305230593FBF779FD23202246012120
:10550000FBF790F92320FBF7C5F906B010BD00BFEB
:1055100000300140000002400368294A934270B500
:1055200088B01ED1274B012403A927485A6C42F0AA
:1055300001025A645B6C059403F001030794019324
:10554000019B4FF4206303930223049303230693E8
:10555000FBF74CFD1B2022460021FBF763F91B20C3
:105560002AE01A4A934229D1164B02240126032528
:105570001A6C03A9164842F004021A641B6C0494C6
:1055800003F00403059606950293029B4FF4005323
:1055900007940393FBF72AFD402303A90D480393C7
:1055A0000494059606950794FBF720FD1E202246DD
:1055B0000021FBF737F91E20FBF76CF908B070BD2E
:1055C0000000014000380240001002400008004086
:1055D000000C024000040240036884B0B3F1804F25
:1055E0000BD103F50E331A6C42F001021A641B6CE6
:1055F00003F001030193019B1AE00E4A93420AD182
:105600000D4B1A6C42F002021A641B6C03F0020389
:105610000293029B0CE0094A934209D1064B5A6C53
:1056200042F480325A645B6C03F480330393039B2F
:1056300004B07047000400400038024000400140C0
:105640000368B3F1804F30B587B00BD1052301A9B2
:105650001A48019302230293002303930123049326
:10566000059326E0164A934215D1022400254FF4F3
:10567000407301A91348019302940395049505947E
:10568000FBF7B4FC30230294039501A90193049520
:1056900005940D480DE00D4A93420CD1202301A939
:1056A0000B480193022302930023039304930323E3
:1056B0000593FBF79BFC07B030BD00BF0000024024
:1056C0000004004000080240000402400040014085
:1056D000001002407FB502680F4B9A4219D103F5C2
:1056E000943301A90D485A6C42F010025A645B6C65
:1056F00003F010030093009B4FF4C0630193022357
:105700000293012303930323049307230593FBF7D9
:105710006DFC07B05DF804FB001001400000024082
:105720007047FEE7FEE7FEE7FEE770477047704709
:1057300008B5FAF70FFEBDE80840FBF7DAB84FF4FA
:105740000040FBF747BD4020FBF744BD014B986B81
:10575000FBF7F4B9644A00200148FCF735BC00BFF0
:105760004C5200200148FCF7E6BC00BFF850002076
:105770000148FCF7E0BC00BFA04300200F49002017
:10578000D1F8883043F47003C1F888300C4B1A68A4
:1057900042F001021A6098601A6822F0847222F4C2
:1057A00080321A60074A5A601A6822F480221A600E
:1057B000D8604FF000638B60704700BF00ED00E0E1
:1057C000003802401030002470B50E4B0E4CE41A25
:1057D000A41000251E46A54204D056F8253098474F
:1057E0000135F8E700F04EFC084C094BE41AA41010
:1057F00000251E46A54204D056F8253098470135AD
:10580000F8E770BD306500083065000834650008B1
:10581000306500080EB400B59CB04FF402711DABAA
:10582000ADF81410029006906FF000410A48049100
:1058300007914FF6FF7153F8042BADF8161000686E
:10584000019302A900F06CF8029B00221A701CB0B0
:105850005DF804EB03B0704770000020034611F8B8
:10586000012B03F8012B002AF9D170472DE9F047ED
:105870008E689E4282460C46914698463ED88A895A
:1058800012F4906F3AD0256809696F1A656902238E
:1058900005EB450595FBF3F57B1C43449D4238BF62
:1058A0001D4653050FD5294600F03EFB064698B12C
:1058B0003A46216900F0C4FAA38923F4906343F0C7
:1058C0008003A38113E02A4600F08CFB064670B9E2
:1058D0002169504600F0DAFA0C23CAF80030A38997
:1058E00043F04003A3814FF0FF30BDE8F08726610D
:1058F00065613E44ED1B2660A5604646464528BFCF
:10590000464632464946206800F0A5FAA3689B1B2C
:10591000A36023681E4426600020BDE8F0870000D5
:105920002DE9F04F9DB0804603938B891C060D46F0
:1059300016460DD50B695BB9402100F0F5FA2860D9
:10594000286118B90C23C8F80030CDE040236B6102
:105950000023099320238DF82930DFF89CB13023F0
:105960008DF82A3037463C4614F8013B1BB9B7EB9B
:10597000060910D003E0252BF9D02746F3E74B4664
:10598000324629464046FFF771FF013000F0A780FC
:10599000099B4B4409933B78002B00F0A080002327
:1059A0004FF0FF3204930793059206938DF853301E
:1059B0001A930126052221784E48FAF731FC671C1C
:1059C000049B38B14B4A801A06FA00F01843049041
:1059D0003C46EFE7D90644BF20228DF853201A0732
:1059E00044BF2B228DF8532022782A2A03D0079A0D
:1059F00000210A200BE0039A111D12680391002A6E
:105A000010DA524243F00200079204900BE027465E
:105A100001343B78303B092B03D800FB02320121D3
:105A2000F5E701B107923B782E2B1ED17B782A2B0C
:105A30000AD1039B1A1D1B680392002BB8BF4FF0BD
:105A4000FF330237059310E000230593781C1946B5
:105A50000A24074601303A78303A092A03D804FB71
:105A600001210123F5E703B105910322397822488A
:105A7000FAF7D6FB40B14023CBEB000003FA00F06D
:105A8000049B18430490013739781C488DF828107E
:105A900006227E1CFAF7C4FB88B1194B33B9039B6D
:105AA000073323F007030833039314E003AB009399
:105AB0002A46144B04A94046AFF3008007E003AB2D
:105AC00000932A460F4B04A9404600F093F8B0F12A
:105AD000FF3F824603D0099B5344099342E7AB89B9
