:020000040800F2
:100000000000052009020008212600082326000818
:1000100025260008272600082926000800000000E1
:100020000000000000000000000000002B26000877
:100030002D260008000000002F26000831260008A9
:100040005902000859020008590200085902000824
:100050005902000859020008590200085902000814
:100060005902000859020008590200085902000804
:1000700059020008590200085902000859020008F4
:1000800059020008590200085902000859020008E4
:1000900059020008590200085902000859020008D4
:1000A00059020008590200085902000859020008C4
:1000B00059020008590200085902000859020008B4
:1000C00059020008590200085902000859020008A4
:1000D0005902000859020008590200085902000894
:1000E0005902000859020008590200085902000884
:1000F0005902000859020008590200085902000874
:100100005902000859020008590200085902000863
:100110005902000859020008590200085902000853
:100120005902000859020008590200085902000843
:100130005902000859020008590200085902000833
:100140005902000859020008590200085902000823
:100150005902000859020008590200085902000813
:100160005902000859020008590200085902000803
:100170005902000859020008590200080000000056
:1001800059020008590200085902000859020008E3
:1001900059020008590200085902000859020008D3
:1001A00059020008590200085902000859020008C3
:1001B00059020008590200085902000859020008B3
:0801C000590200085902000871
:1001C80010B5054C237833B9044B13B10448AFF389
:1001D80000800123237010BD0400002000000000EF
:1001E800D826000808B5034B1BB103490348AFF3F1
:1001F800008008BD0000000008000020D826000884
:10020800DFF834D0002103E00C4B5B584350043135
:100218000B480C4B42189A42F6D30B4A02E00023D3
:1002280042F8043B094B9A42F9D302F005FA02F06E
:1002380029FA01F04FFF7047000005202427000825
:10024800000000200400002004000020F801002025
:10025800FEE70000084B10B5044618684FF47A739F
:10026800B0FBF3F000F0B8F9002221464FF0FF3060
:1002780000F07AF9002010BD0000002008B5032026
:1002880000F060F90020FFF7E5FF02F0ABF800206E
:1002980008BD0000024A136801331360704700BFAD
:1002A80024000020014B1868704700BF240000207C
:1002B80010B50446002800F09E80036C23B94364FF
:1002C80080F83C3002F0BEF8236CDB0600F18E802B
:1002D800236C23F4885323F0020343F002032364BE
:1002E800464B5A6822F440325A60596862680A4399
:1002F8005A60236821695A68A06A22F480725A6099
:100308005A6842EA01225A605A6822F040725A60DA
:10031800A26859680A435A609A6822F400629A608F
:10032800E26899680A439A60354A90420ED0996803
:1003380021F0706199609A6802439A609A6822F085
:1003480040529A60E26A99680A4306E09A6822F085
:1003580070629A609A6822F040529A609A68A1691D
:1003680022F002029A609A6842EA41029A60226A7E
:100378009AB15A6842F400625A605A6822F460429C
:100388005A604FF4604292FAA2F2B2FA82F1626ABB
:100398005868013A8A40024302E05A6822F400622F
:1003A8005A600020DA6A22F47002DA62E269D96AD5
:1003B800013A41EA0252216BDA629A6822F4007229
:1003C8009A609A6842EA412261699A609A6822F4BE
:1003D80080629A609A6842EA81229A606064236C1B
:1003E80023F0030343F00103236400E0012000230A
:1003F80084F83C3010BD012010BD00BF002301402F
:100408000100000F0023F7B5019390F83C30012B51
:1004180070D00D6801230468092D80F83C30AEB215
:100428008F6817D906EB4602D4F80CE0A2F11E0338
:1004380007229A402EEA0202E2603D4A954203D121
:10044800E36843EA076303E0E26807FA03F3134348
:10045800E3600EE005EB45034FF0070E22690EFA44
:1004680003FE07FA03F322EA0E022261226913430C
:1004780023614B68062B4FEA83020DD81344676B40
:10048800591F1F238B4006FA01F127EA0303636310
:10049800626B114361631DE00C2B0ED81344216B72
:1004A800A3F123021F23934006FA02F221EA030371
:1004B8002363236B1A4322630CE013441F22E76A69
:1004C800413B9A4027EA0202E26206FA03F2E16A35
:1004D8000A43E262174B9C4204D0002380F83C3068
:1004E800184623E0122D07D1134A536843F48003BA
:1004F8005360F2E7022019E00D4B9D4201D0112D07
:10050800EBD10D499D424A6842F400024A60E4D1A9
:100518000A4B0B4A1B68B3FBF2F20A2353430193BD
:10052800019B002BD9D0019B013BF8E703B0F0BD3C
:1005380012000010002001400023014000000020AC
:1005480040420F00074A0002D36800F4E06023F439
:10055800E0631B041B0C43F0BF6343F40033034305
:10056800D360704700ED00E0194BDB68C3F302234A
:1005780030B5C3F107041D1D042C28BF0424062D23
:100588004FF001058CBF033B002305FA04F4002853
:1005980004F1FF3404EA010404FA03F405FA03F34E
:1005A80003F1FF3302EA030242EA04024FEA0212AD
:1005B80005DA00F00F00D2B2064B1A5430BD00F134
:1005C8006040D2B200F5614080F8002330BD00BF22
:1005D80000ED00E014ED00E00138B0F1807F0AD2B0
:1005E800064BF021064A5860002082F823100722A3
:1005F80098601A6070470120704700BF10E000E063
:1006080000ED00E0044B04281A680CBF42F0040215
:1006180022F004021A60704710E000E0704708B545
:10062800FFF7FCFF08BD00002DE9F04F0B6885B00F
:100638006F4E01930023DFF8C0C1B646DFF8BC81D6
:100648000122019C9A4032EA040440F0C9804C68B7
:1006580024F01009B9F1020F14D14FEAD30A03F0BC
:10066800070B0F2500EB8A0A4FEA8B0BDAF820708C
:1006780005FA0BF527EA05050F6907FA0BF72F436B
:10068800CAF820704FEA430A0325076804F0030BF1
:1006980005FA0AF509F1FF390BFA0AFBED43B9F13E
:1006A800010F07EA05074BEA0707076012D88768B2
:1006B80005EA0709CF6807FA0AF747EA0907C4F302
:1006C8000019876009FA03F9476827EA020749EA27
:1006D80007074760C7683D408F6807FA0AF73D4338
:1006E800C560E5007CD5DCF8445023F0030703F02F
:1006F800030A4FF00F0945F4804507F180474FEA98
:100708008A0ACCF8445007F59C37DCF8445005F4C5
:1007180080450395039D09FA0AF5D7F808B02BEA36
:100728000509344DA84224D005F58065A84222D099
:1007380005F58065A84220D005F58065A8421ED041
:1007480005F58065A8421CD040451CD005F500651C
:10075800A8421AD005F58065A84218D005F580652D
:10076800A84216D005F58065A84214BF0A250925B8
:1007780010E000250EE001250CE002250AE0032523
:1007880008E0042506E0052504E0062502E0072523
:1007980000E0082505FA0AF514F4803F45EA090542
:1007A800BD606FEA020735680CBF3D40154314F47D
:1007B800003FCEF80050DEF804500CBF3D40154312
:1007C80014F4801F7560B5680CBF3D401543A40242
:1007D800CEF80850DEF80C5054BF3D401543F56084
:1007E8000133102B7FF42CAF05B0BDE8F08F00BFAC
:1007F800003C014000000240003802400014024062
:1008080002B90904816170470368F7B50446D8073F
:1008180003D42368990752D4A5E0964B9A6802F04E
:100828000C02042A07D09A6802F00C02082A0BD19D
:100838005B685A0208D58F4B1B689B03E9D5636830
:10084800002BE6D1012076E163688A4DB3F5803F3D
:1008580013D05BB92B6823F480332B602B6823F407
:1008680080232B60FFF71EFD064624E0B3F5A02F7A
:100878002B6806D143F480232B602B6843F4803324
:1008880005E023F480332B602B6823F480232B604E
:10089800FFF708FD774D06462B689F03B9D4FFF78D
:1008A80001FD801B6428F7D9032044E1FFF7FAFC17
:1008B800801B6428F8D82B689803F7D4A9E76D4BF8
:1008C8009A6812F00C0F07D09A6802F00C02082AF6
:1008D80017D15B68590214D4664B1A68920702D57F
:1008E800E268012AAED11A68F82191FAA1F12069CB
:1008F800B1FA81F122F0F80200FA01F10A431A6014
:1009080031E0E3685B4DF3B12B6843F001032B60E2
:10091800FFF7C8FC06462B6856489B0705D4FFF727
:10092800C1FC801B0228F6D9BEE70368F82292FAB8
:10093800A2F22169B2FA82F223F0F80301FA02F274
:10094800134303600FE02B6823F001032B60FFF7CC
:10095800A9FC06462B689F0705D5FFF7A3FC801B5B
:100968000228F7D9A0E723681E0703D423685D0788
:1009780049D522E063693F4D7BB16B6F43F00103BA
:100988006B67FFF78FFC06466B6F9807EED4FFF78F
:1009980089FC801B0228F7D986E76B6F23F00103D7
:1009A8006B67FFF77FFC06466B6F9907DED5FFF78D
:1009B80079FC801B0228F7D976E72E4B2E4D1A6C4E
:1009C80042F080521A641B6C03F080530193019B20
:1009D8002B6843F480732B60FFF764FC06462B6892
:1009E800DA0514D5A368234D012B16D12B6F43F0DC
:1009F80001032B6741F28835FFF754FC1D4E07466B
:100A0800336F9B0726D5A269002A37D179E0FFF713
:100A180049FC801B6428E2D946E76BB92B6F41F289
:100A2800883723F001032B672B6F23F004032B6710
:100A3800FFF738FC064619E0052B2B6F03D143F06E
:100A480004032B67D2E723F001032B672B6F23F0F6
:100A58000403CEE7FFF726FCC01BA842D0D923E742
:100A6800FFF720FC801BB8423FF61EAF2B6F98079C
:100A7800F6D4C8E700380240007000402F4DAB683C
:100A880003F00C03082B3FF4DDAE2B68022A23F099
:100A980080732B6043D1FFF705FC07462B68274E70
:100AA800990130D447F6C07292FAA2F24FF440335B
:100AB800B2FA82F093FAA3F34FF07062B3FA83F5B7
:100AC80092FAA2F2E369B2FA82F1276A626A1F43D4
:100AD800824047F0005343EA0200A36A5A08013AE9
:100AE80002FA05F3E26A03438A40134373603368EA
:100AF80043F080733360FFF7D5FB044633689A01EF
:100B080007D5002017E0FFF7CDFBC01B0228C5D989
:100B1800CAE6FFF7C7FB001B0228EFD9C4E6FFF7B8
:100B2800C1FB04462B689B01EBD5FFF7BBFB001B01
:100B38000228F7D9B8E603B0F0BD00BF003802407C
:100B48001B498B6803F00C03042B2CD0082B2CD1E9
:100B5800486847F6C0724B6800F03F0013F4800FF6
:100B68004B6892FAA2F247F6C071B2FA82F201EA31
:100B7800030121FA02F114BF0E4A0F4AB2FBF0F04A
:100B88000B4A00FB01F34FF44030526890FAA0F092
:100B980002F44032B0FA80F022FA00F0013040004E
:100BA800B3FBF0F07047034870470348704700BF35
:100BB8000038024040787D010024F400504A136850
:100BC80003F00F038B422DE9F04104460D460AD38A
:100BD8002168880714D54B48836823F0F002A3687E
:100BE800134383600CE0136823F00F030B43136077
:100BF800136803F00F039942EAD00120BDE8F081A1
:100C0800C90706D43E4A136803F00F039D4242D336
:100C18004BE062683B4B012A196802D111F4003F8E
:100C280006E0022A02D111F0007F01E011F0020F64
:100C3800E3D0996841F28838324F21F003010A4322
:100C48009A60FFF72FFB63680646012B0CD1BB683F
:100C580003F00C03042BD5D0FFF724FB801B404581
:100C6800F5D90320BDE8F081022B0FD1BB6803F052
:100C78000C03082BC6D0FFF715FB801B4045F5D9A0
:100C8800EFE7FFF70FFB801B4045EAD8BB6813F07E
:100C98000C0FF6D1B6E7136823F00F032B4313604C
:100CA800136803F00F039D42A7D121684A0706D5B0
:100CB8001448836823F4E052E368134383600B0706
:100CC80007D5104A2169936823F4604343EAC103B6
:100CD8009360FFF735FF0B4BF0229B6892FAA2F264
:100CE800B2FA82F203F0F003D340074AD35CD8404B
:100CF800064B18600020FFF7ADFA0020BDE8F08130
:100D0800003C024000380240012700080000002093
:100D1800014B1868704700BF00000020084B4FF4D3
:100D2800E0529B6892FAA2F2B2FA82F203F4E0531C
:100D3800D340044AD35C044A1068D840704700BFC7
:100D4800003802401127000800000020084B4FF42B
:100D580060429B6892FAA2F2B2FA82F203F460430C
:100D6800D340044AD35C044A1068D840704700BF97
:100D780000380240112700080000002003682DE910
:100D8800F74F13F0010604460BD0B64A916821F4D8
:100D980000019160466B91683143B6FA86F6760990
:100DA800916013F4002512D0AE49E56BD1F88C2080
:100DB800B5F5801F22F4401208BF012642EA050259
:100DC80016BFB5FA85F500256D09C1F88C20D80243
:100DD80011D5A448216CD0F88C20B1F5800F22F4ED
:100DE800400242EA0102C0F88C2003D0002908BF63
:100DF800012500E0012613F0807F18BF012699061F
:100E08005DD5984B984F1A6C42F080521A641B6C4F
:100E180003F080530193019B3B6843F480733B606C
:100E2800FFF740FA80463B68DA0507D4FFF73AFA3D
:100E3800C8EB00006428F6D9032040E3894F3B6FD4
:100E480013F440730FD1226B02F44073B3F5407F63
:100E5800844B2BD1996821F4F81022F0704121F4C9
:100E68004071014325E0226B02F440729342EAD0BC
:100E78003B6F3A6F23F4407342F480323A673A6F1B
:100E880022F480323A673B673B6FDB07DBD5FFF71D
:100E980009FA41F2883980463B6F9807D3D4FFF7A7
:100EA80001FAC8EB00004845F6D9C5E7996821F46E
:100EB800F8119960C2F30B02196F0A431A67236885
:100EC800D9060CD5674AD2F88C1021F08071C2F887
:100ED8008C10D2F88C00A16B0143C2F88C105A0414
:100EE80008D56048D0F8902022F44031626E0A4359
:100EF800C0F890201F0408D55A48D0F8902022F452
:100F08004021A26E0A43C0F89020D80308D555485E
:100F1800D0F8902022F44011E26E0A43C0F89020E5
:100F2800990308D54F48D0F8902022F44001226F49
:100F38000A43C0F890205A0608D54A48D0F89020AD
:100F480022F00301626C0A43C0F890201F0608D5FE
:100F58004448D0F8902022F00C01A26C0A43C0F853
:100F68009020D80508D53F48D0F8902022F03001CD
:100F7800E26C0A43C0F89020990508D53948D0F8A2
:100F8800902022F0C001226D0A43C0F890205A0533
:100F980008D53448D0F8902022F44071626D0A4395
:100FA800C0F890201F0508D52E48D0F8902022F4CC
:100FB8004061A26D0A43C0F89020D80408D529489A
:100FC800D0F8902022F44051E26D0A43C0F89020F6
:100FD800990408D52348D0F8902022F44041226E85
:100FE8000A43C0F890205A0208D51E48D0F890202D
:100FF80022F08061A26F0A43C0F890209F020CD5AE
:101008001848E16FD0F89020B1F1006F22F000622B
:1010180008BF01250A43C0F8902013F0080F18BF35
:101028000125580308D50F48D0F8902022F04071C8
:10103800626F0A43C0F89020190209D50948D0F810
:10104800902022F08051D4F880200A43C0F89020E4
:10105800012E0BD0B3F1007F08D0012D40F08C8118
:1010680023E100BF0038024000700040C84E3368DA
:1010780023F080633360FFF715F907463368DFF81C
:1010880010E31A0105D5FFF70DF9C01B6428F5D93F
:10109800D2E62768FB073CD5636BD3BBDEF8840038
:1010A8004FF4403898FAA8F94FF07066B9FA89F900
:1010B800DEF8842096FAA6FC47F6C07ABCFA8CFCC7
:1010C8009AFAAAFABAFA8AFA98FAA8F8B8FA88F844
:1010D80096FAA6F64FF0E043B6FA86F693FAA3F32B
:1010E800B3FA83FB6168A36800F4403001FA0AF19F
:1010F80002F0706203FA0BF320FA09F022FA0CF2FC
:101108000B4300FA08F1194302FA06F30B43CEF831
:1011180084303E0303D5E36BB3F5801F05D0F80296
:1011280049D5236CB3F5800F45D1DFF864E24FF45D
:101138004038DEF8840098FAA8F94FF0E046B9FA8A
:1011480089F9DEF8842096FAA6FC47F6C07BBCFA3B
:101158008CFC9BFAABFBBBFA8BFB98FAA8F84FF018
:101168007063B8FA88F893FAA3F3B3FA83FA96FA95
:10117800A6F6636800F4403002F0E042B6FA86F65C
:1011880003FA0BF1E36820FA09F022FA0CF203FAE9
:101198000AF30B4300FA08F1194302FA06F30B436A
:1011A800CEF88430DEF88C30626A23F01F03013AEF
:1011B8001343CEF88C30F9013CD5DFF8D4E14FF079
:1011C8007068DEF8840098FAA8F94FF0E046B9FA9A
:1011D80089F9DEF8842096FAA6FC47F6C07BBCFAAB
:1011E8008CFC9BFAABFB4FF44033BBFA8BFB93FAB6
:1011F800A3F3B3FA83FA98FAA8F8B8FA88F896FA33
:10120800A6F6636800F0706002F0E042B6FA86F66F
:1012180003FA0BF1236920FA09F022FA0CF203FA17
:101228000AF30B4300FA08F1194302FA06F30B43D9
:10123800CEF88430BA0126D547F6C07E9EFAAEFEB7
:101248004FF44030BEFA8EFE90FAA0F04FF0706274
:10125800B0FA80F792FAA2F24FF0E043B2FA82F6BF
:1012680093FAA3F3B3FA83F120696368E268B8409C
:1012780003FA0EF3B24003431A43A3688B401343A7
:10128800434AC2F88430424E336843F08063336087
:10129800FFF708F8074633681B013FF5DEAEFFF796
:1012A80001F8C01B6428F6D9C6E5394D2B6823F030
:1012B80080532B60FEF7F6FF06462B689F005DD42F
:1012C80025682E0360D4E80264D4A90200F1AD8039
:1012D8002A0745D52E4F4FF07065D7F8882095FA24
:1012E800A5FC4FF44036BCFA8CFCD7F8880096FA77
:1012F800A6F847F6C079B8FA88F899FAA9F9B9FAB8
:1013080089F996FAA6F6B6FA86F695FAA5F54FF093
:10131800E04EB5FA85F59EFAAEFE6369BEFA8EFE1A
:1013280000F4403002F0706203FA09F1E36920FA30
:1013380008F022FA0CF203FA0EFE02FA05F341EA6B
:101348000E0E00FA06F14EEA01010B43C7F8883089
:10135800D7F88C3023F44032E36A1343C7F88C3053
:101368000B4C236843F080532360FEF79BFF054630
:1013780023689B0040F19C800020A0E0FEF792FFCC
:10138800801B642899D957E5E36B33B19BE700BF0D
:1013980000380240236C002B97D14A4F4FF4403C51
:1013A800D7F888009CFAACF94FF0E046B9FA89F909
:1013B800D7F8882096FAA6FE47F6C07ABEFA8EFEBF
:1013C8009AFAAAFABAFA8AFA9CFAACFC4FF0706850
:1013D800BCFA8CFC98FAA8F8B8FA88F896FAA6F637
:1013E800A16900F44030636902F0E04201FA08F8AC
:1013F80020FA09F003FA0AF322FA0EF2B6FA86F690
:1014080000FA0CF143EA0803194302FA06F30B4306
:10141800C7F88830D7F88C30A26A23F4F853013A19
:1014280043EA0223C7F88C304FE7E36FB3F1006F4C
:101438007FF44EAF234F4FF0706CD7F888009CFABA
:10144800ACF94FF0E046B9FA89F9D7F8882096FA4E
:10145800A6FE47F6C07ABEFA8EFE9AFAAAFA4FF4AA
:101468004038BAFA8AFA98FAA8F8B8FA88F89CFACA
:10147800ACFCBCFA8CFC96FAA6F6216A00F0706007
:10148800636902F0E04201FA08F820FA09F003FA69
:101498000AF3B6FA86F600FA0CF122FA0EF243EADB
:1014A8000803194302FA06F30B43C7F888300FE71D
:1014B800FEF7F8FE401B64287FF65AAFBCE403B081
:1014C800BDE8F08F0038024070B5044600284FD0C0
:1014D8000023836290F85D3003F0FF021BB980F8A7
:1014E8005C2000F0D9FF02232168E26884F85D30AF
:1014F8000B68B2F5E06F23F040030B604FF0000378
:1015080003D91846B2F5706F01E04FF4805018BF48
:10151800A362236B2BB9B2F5E06F8CBF02230123C2
:101528002363A5686668A3692E4325692E43656908
:101538002E43E5692E43256A2E43A56A2E4303F4FC
:1015480000751B0C35430D60656A2A43656B1543AE
:1015580003F0040245EA0203034300204B60CB6911
:1015680023F40063CB610123206684F85D3070BDED
:10157800012070BD2E4A0368904212D0B0F1804F0E
:101588000FD0A2F57C4290420BD002F580629042C7
:1015980007D002F58062904203D002F5784290426B
:1015A80018D14A6823F070031343214A904237D078
:1015B800B0F1804F34D01F4A904231D002F580629A
:1015C80090422DD002F58062904229D002F57842EF
:1015D800904225D0184A904222D002F5806290426B
:1015E8001ED002F5806290421AD0A2F5983290423D
:1015F80016D002F58062904212D002F580629042C5
:101608000ED003608B68C3620B688362084B9842F4
:101618000BD003F58063984207D0012343617047DC
:1016280023F44073CA681343EBE70B690363F4E7D9
:1016380000000140000400400040014010B504468D
:10164800A0B190F8393003F0FF021BB980F83820B8
:1016580000F06EFF02232068211D84F83930FFF75F
:1016680089FF0123002084F8393010BD012010BD06
:1016780010B50446A0B190F8393003F0FF021BB949
:1016880080F8382000F02EFF02232068211D84F8FE
:101698003930FFF76FFF0123002084F8393010BD7F
:1016A800012010BD036A23F0010370B50362036AC9
:1016B800426884690D6824F4803424F073042C4350
:1016C80023F002058B682B430C4DA84209D005F581
:1016D8008065A84205D042604A688461426303621B
:1016E80070BDCD6823F008034E6922F440722B4385
:1016F8008D69354323F004032A43ECE700000140D9
:10170800036A23F0100330B50362036A42688469F0
:1017180023F020030D6824F0807424F4E64444EA9E
:1017280005248D6843EA05130E4DA84209D005F536
:101738008065A84205D042604A688461826303627A
:1017480030BDCD6823F0800322F4406243EA0513DC
:101758004D6942EA85028D6923F0400342EA850219
:10176800E9E700BF00000140036A23F4807330B545
:101778000362036A4268C46923F400730D6824F4A1
:10178800803424F073042C438D6843EA05230E4DFE
:10179800A84209D005F58065A84205D042604A688C
:1017A800C461C263036230BDCD6823F4006322F4D0
:1017B800405243EA05234D6942EA05128D6923F434
:1017C800806342EA0512E9E700000140036A23F456
:1017D800805330B50362046A4268C36924F4005434
:1017E8000D6823F0807323F4E64343EA05238D68EC
:1017F80044EA0534094DA84209D005F58065A84298
:1018080005D04260C3614B680364046230BD22F4B2
:1018180080424D6942EA8512F3E700BF00000140AB
:1018280070B5046A1A4E24F00104B0420462846957
:10183800056A1AD0B0F1804F17D0A6F57C46B042A1
:1018480013D006F58066B0420FD006F58066B04228
:101858000BD006F57846B04207D006F57056B04270
:1018680003D0A6F59436B0420FD124F003042243E6
:101878001B0122F0F00225F00A0501F00A01DBB293
:101888000D431A438261056270BD44F00102EFE71F
:1018980000000140F8B590F8383005460C460220A3
:1018A800012B7FD0012385F8390085F8383072B9CB
:1018B800CB68286806C9FFF7B3FF2B689A6922F03E
:1018C8000C029A61A26899690A439A6164E0042A41
:1018D8008E682B68E06891E802401FD11A6A0003FD
:1018E800090122F0100280B201F0A0011A629C697D
:1018F8001F6A24F4407444EA0E2222F47042104312
:1019080027F0A0021143986119629A6922F4406293
:101918009A619A6942EA06269E613DE0082A1A6A97
:101928001CD122F48072000109021A62C0B2DC697B
:1019380001F420611F6A24F003044EEA040222F035
:10194800F002104327F420621143D8611962DA6962
:1019580022F00C02DA61DA6916431CE022F48052A4
:10196800000309031A6280B2DC6901F420411F6A8E
:1019780024F4407444EA0E2222F47042104327F4FF
:1019880020421143D8611962DA6922F44062DA61AF
:10199800DA6942EA0626DE610123002085F839303B
:1019A80085F83800F8BD01238A408B4010B5046AD9
:1019B80024EA03030362036A42EA0301016210BDD9
:1019C80010B5044601220068FFF7EDFF2368084AB6
:1019D800934203D002F58062934203D15A6C42F4D9
:1019E80000425A641A68002042F001021A6010BDD1
:1019F80000000140036A23F4803330B50362036AB0
:101A08004268446D23F400330D6824F4803424F0D4
:101A180070042C438D6843EA0543094DA84203D05E
:101A280005F58065A84204D122F480324D6942EA66
:101A3800052242604A6844658265036230BD00BF82
:101A480000000140036A23F4801330B50362026A80
:101A58004468436D22F400120D6823F0807323F468
:101A6800E04343EA05238D6842EA0552084DA8423F
:101A780003D005F58065A84204D124F480244D697B
:101A880044EA8524446043654B68C365026230BDFF
:101A98000000014038B590F8383004460D46022061
:101AA800012B7BD00123082A84F8390084F83830C8
:101AB8003CD013D84AB3042A6AD12068FFF720FE25
:101AC800236829699A6942F400629A619A6922F442
:101AD80080629A619A6942EA012225E0102A36D08A
:101AE800142A44D00C2A53D12068FFF76FFE2368CC
:101AF8002969DA6942F40062DA61DA6922F48062FB
:101B0800DA61DA6942EA01221FE02068FFF7CAFDBC
:101B180023689A6942F008029A619A6922F00402DD
:101B28009A612A6999690A439A6131E02068FFF746
:101B38001BFE2368DA6942F00802DA61DA6922F0EA
:101B48000402DA612A69D9690A43DA6120E0206867
:101B5800FFF750FF23685A6D42F008025A655A6D24
:101B680022F004025A652A69596D0A430FE0206879
:101B7800FFF768FF236809695A6D42F400625A65E5
:101B88005A6D22F480625A655A6D42EA01225A65FA
:101B98000123002084F8393084F8380038BD00006B
:101BA80090F83830012B30B51CD002680E4C5368C1
:101BB800A242956803D004F58064A24203D123F4BD
:101BC80070034C6823430C6823F07003896823432F
:101BD80025F08004536021430023916080F8383059
:101BE800184630BD022030BD000001402DE9F0410B
:101BF800069D04460F46164698462168CA6937EA84
:101C080002030CBF01220022B2421DD16B1CF5D089
:101C18009DB9236803201A6822F4D0721A609A6862
:101C280022F001029A60202384F8693084F86A302F
:101C3800002384F86830BDE8F081FEF733FBC8EB79
:101C480000008542D9D8E4E70020BDE8F081000013
:101C580038B504460568C3692269A1682868114334
:101C680062690A4342EA0301884A0240A0690A43BA
:101C78002A606A6822F44051E2680A43216A6A606D
:101C88000143AA6822F430620A43AA60804A954256
:101C980007D102F594327F49D2F8902002F003026E
:101CA80009E07D4A95420BD102F5FA327B49D2F818
:101CB800902002F00C02B3F5004F8A5C73D0B6E0B6
:101CC800774A95420DD102F5F832D2F8902002F009
:101CD8003002102A00F086805DD9202A78D0302A78
:101CE8000EE0704A95420DD102F5F632D2F89020F6
:101CF80002F0C002402A75D04DD9802A68D0C02A87
:101D08007CD087E0684A95420FD102F5F432D2F8C8
:101D1800902002F44072B2F5807F63D03BD9B2F5CF
:101D2800007F55D0B2F5407FEAE7604A954212D16C
:101D380002F59232D2F8902002F44062B2F5806F38
:101D480050D002D8002A3DD064E0B2F5006F3FD0F1
:101D5800B2F5406FD4E7564A95420FD102F5E0320A
:101D6800D2F8902002F44052B2F5805F3AD012D9EE
:101D7800B2F5005F2CD0B2F5405FC1E74D4A9542FD
:101D880048D102F5DE32D2F8902002F44042B2F592
:101D9800804F27D001D87AB13CE0B2F5004F17D078
:101DA800B2F5404FACE7082A37D8DFE802F0080E52
:101DB80014361E3636362A00B3F5004F40D1FEF7EA
:101DC800ADFF14E0B3F5004F3DD1FEF7BFFF0EE0C5
:101DD800B3F5004F3AD16068420802F1F47303F595
:101DE800904312E0B3F5004F39D1FEF7A9FE6368BE
:101DF8005A0802EB4000B0FBF3F308E0B3F5004FDC
:101E080037D16068430803F58033B3FBF0F39BB226
:101E1800002004E0B3F5004F35D101200023C3F3BF
:101E2800420123F00F0322680B43D36038BD082A10
:101E380029D8DFE802F005080B28142828281E00F6
:101E4800FEF76CFF0DE0FEF781FF0AE061684A08C3
:101E580002F5740303F51053B3FBF1F30FE0FEF73B
:101E68006FFE636800EB5300B0FBF3F080B2E860EC
:101E780007E06268530803F50043B3FBF2F39BB233
:101E8800EB60002038BD012038BD00BFF369FFEFCB
:101E980000100140F026000800440040F426000825
:101EA80000480040004C0040005000400014014031
:101EB80000780040007C0040436ADA0710B506D578
:101EC8000468626822F40031826A0A4362609C07EF
:101ED80006D50468626822F48031C26A0A436260E7
:101EE800590706D50468626822F48021026B0A4308
:101EF80062601A0706D50468626822F40041426BE2
:101F08000A436260DC0606D50468A26822F48051A0
:101F1800826B0A43A260990606D50468A26822F477
:101F28000051C26B0A43A2605A0610D50168046CBE
:101F38004A68B4F5801F22F4801242EA04024A601B
:101F480005D14A6822F4C004426C22434A601B0649
:101F580006D501684B6823F40022836C13434B6059
:101F680010BD73B500260446C666FEF79BF92368C4
:101F780005461B681A0704D423681B685B071AD533
:101F88000DE06FF07E4332464FF400110093034694
:101F98002046FFF72BFE0028EED0032013E06FF059
:101FA8007E4300224FF48001204600932B46FFF722
:101FB8001DFE0028F1D12023002084F8693084F820
:101FC800680084F86A3002B070BD10B5044660B38A
:101FD80090F8693003F0FF021BB980F8682000F020
:101FE800F5FA22682423204684F86930136823F020
:101FF80001031360FFF72CFE012816D0636A13B1A2
:102008002046FFF759FF236820465A6822F4904279
:102018005A609A6822F02A029A601A6842F001020D
:10202800BDE810401A60FFF79CBF012010BD0000FA
:10203800264B1A6C42F0805210B51A64B4B01B6C6F
:10204800234A07A803F080530093009B136823F4E6
:10205800404343F480431360136803F440430193FF
:10206800019B0223079301230A9310230B93002358
:102078000D93FEF7C9FB014600B1FEE70F2303905D
:1020880004900590069002A80293FEF797FD00B110
:10209800FEE74023249013A81393FEF76FFE04462F
:1020A80000B1FEE7FEF734FE4FF47A73B0FBF3F0AD
:1020B800FEF792FA0420FEF7A5FA224621464FF0D1
:1020C800FF30FEF751FA34B010BD00BF00380240AF
:1020D8000070004080B590B00024FEF7CFF80126CC
:1020E800FFF7A6FF934B162193481A6B4FF44077DE
:1020F800924D42F001021A631A6B02F0010201923A
:10210800019A1A6B42F004021A631A6B02F0040275
:102118000292029A1A6B42F002021A631A6B02F0D8
:1021280002020392039A1A6B42F010021A631A6BA6
:1021380002F010020492049A1A6B42F008021A6321
:1021480000221B6B03F008030593059BFEF758FB61
:1021580000224FF440717A48FEF752FB01223E21DB
:102168007848FEF74DFB002230217748FEF748FB00
:10217800162309A9704809930A960B940C94FEF744
:1021880053FA4FF4004309A96E4809930A950B9432
:10219800FEF74AFA402309A9694809930A950B945E
:1021A800FEF742FA09A9664809970A960B940C9417
:1021B800FEF73AFA3E2309A9624809930A960B9456
:1021C8000C94FEF731FA30235F4809A95F4D099353
:1021D8000A960B940C94FEF727FA5D4B2846AC60E0
:1021E8002C61AC612C62EC62EC60EE612C636E6178
:1021F80085E81800574BAB62FEF75AF800B1FEE7C6
:102208000E230B9009A9284609930A96FEF7FAF8B7
:1022180000B1FEE7504B4FF4827250499860186144
:102228005861D86118625862986218631846DF606E
:1022380083E806004FF400729A610722DA620822E6
:102248005A63FFF741F900B1FEE7454C454B606022
:10225800A060E0602061606120462360FFF708FA13
:1022680000B1FEE7069006A9079008902046FFF700
:1022780097FC024600B1FEE7099009A90B900C9063
:1022880020460A96FFF706FB00B1FEE7042209A9DB
:102298002046FFF7FFFA00B1FEE7334B334A1B68CD
:1022A800334CB3FBF2F3334A013BA06013604FF0A9
:1022B80080422061204684E80C0040F29923E360C4
:1022C800FFF7BCF900B1FEE7069006A90890204682
:1022D800FFF766FC024600B1FEE760230B900D9005
:1022E80009A909934FF4FA7320460A93FFF7D2FB22
:1022F80000B1FEE70C2209A91D48FFF7CBFB0546F4
:1023080000B1FEE71C4C1A4800F036F91B4B20467A
:10231800A560E560256184E82800FFF78FF900B122
:10232800FEE7069006A908902046FFF739FC02460A
:1023380030B3FEE7003802400000024000001110F0
:1023480000080240000C0240000402406400002023
:10235800002001400100000F58010020003001401A
:102368001C0100200000014000000020005125024F
:10237800BC010020200000202800002000080040A8
:1023880060230A900B9009A90D9020460993FFF746
:1023980081FB054600B1FEE720460C2400F0ECF86E
:1023A8000D480E4A4FF4E1338560C560056144610C
:1023B8008561C5610562456280E80C00FFF705FE8E
:1023C800014600B1FEE70648FFF7FAFA214604483D
:1023D800FFF7F6FAFEE700BFAC000020001001404E
:1023E800BC01002008B50320FEF7ACF800226FF00E
:1023F8000B001146FEF7B8F800226FF00A001146EC
:10240800FEF7B2F800226FF009001146FEF7ACF8AB
:1024180000226FF004001146FEF7A6F800226FF0C4
:1024280003001146FEF7A0F800226FF001001146E4
:10243800FEF79AF800224FF0FF301146BDE8084039
:10244800FEF792B80268114B9A4230B587B01BD19B
:1024580003F58C330324002501A95A6C0C4842F477
:1024680080725A645B6C029403F480730395009342
:10247800009B30230193FEF7D7F801A90548019482
:1024880002940395FEF7D0F807B030BD0020014054
:1024980000080240000402407FB502680F4B9A42D0
:1024A80018D103F5843301A90D485A6C42F48052BF
:1024B8005A645B6C03F480530093009BE023019300
:1024C8000223029300230393032304930523059314
:1024D800FEF7AAF807B05DF804FB00BF0030014022
:1024E800000002407FB502680F4B9A4218D103F5ED
:1024F8009C3301A90D485A6C42F001025A645B6C86
:1025080003F001030093009B4FF42063019302231F
:10251800029300230393049301230593FEF784F8A1
:1025280007B05DF804FB00BF000001400010024046
:10253800036882B0B3F1804F0BD103F50E331A6CE8
:1025480042F001021A641B6C03F001030093009B24
:102558000CE0074A934209D1064B1A6C42F0040278
:102568001A641B6C03F004030193019B02B07047CB
:1025780000080040003802407FB50368B3F1804F7F
:102588000BD1092301A90E480193022302930023CA
:1025980003930493012305930DE00A4A93420CD157
:1025A8004FF48053002201A90748019302230392A4
:1025B800029304920593FEF737F807B05DF804FB21
:1025C8000000024000080040000C02407FB502688D
:1025D8000F4B9A4219D103F5943301A90D485A6C4F
:1025E80042F010025A645B6C03F010030093009BE6
:1025F8004FF4C0630193022302930123039303233F
:10260800049307230593FEF70FF807B05DF804FB62
:1026180000100140000002407047FEE7FEE7FEE7B9
:10262800FEE770477047704708B5FDF733FEBDE811
:102638000840FDF7F4BF00000F490020D1F88830AA
:1026480043F47003C1F888300C4B1A6842F0010259
:102658001A6098601A6822F0847222F480321A6034
:10266800074A5A601A6822F480221A60D8604FF02C
:1026780000638B60704700BF00ED00E00038024047
:102688001030002470B50E4B0E4CE41AA41000252F
:102698001E46A54204D056F8253098470135F8E77C
:1026A80000F016F8084C094BE41AA41000251E4641
:1026B800A54204D056F8253098470135F8E770BD93
:1026C8001C2700081C270008202700081C270008D2
:1026D800F8B500BFF8BC08BC9E467047F8B500BF07
:0826E800F8BC08BC9E467047D7
:1026F0000104020800101010041010100210101035
:1027000008000000000000000001020304060708A2
:0C271000090000000001020304000000AA
:04271C00ED010008C3
:04272000C9010008E3
:042724000024F40099
:0400000508000209E4
:00000001FF
