:020000040800F2
:1000000000000520C102000865630008676300085E
:10001000696300086B6300086D630008000000005E
:100020000000000000000000000000006F630008F6
:100030007163000800000000736300087563000826
:100040001103000811030008110300081103000840
:100050001103000811030008110300081103000830
:100060001103000811030008110300081103000820
:100070001103000811030008110300081103000810
:100080001103000811030008110300081103000800
:100090001103000811030008110300088B63000816
:1000A000110300081103000811030008A9630008E8
:1000B0001103000811030008B563000811030008CC
:1000C0001103000811030008110300089D630008D4
:1000D00011030008110300081103000811030008B0
:1000E00083630008110300081103000811030008CE
:1000F0001103000811030008110300081103000890
:10010000110300081103000811030008110300087F
:10011000110300081103000811030008110300086F
:10012000916300081103000811030008110300087F
:10013000110300081103000811030008110300084F
:10014000110300081103000811030008110300083F
:10015000110300081103000811030008110300082F
:10016000110300081103000811030008110300081F
:10017000110300081103000811030008000000002B
:1001800011030008110300081103000811030008FF
:1001900011030008110300081103000811030008EF
:1001A00011030008110300081103000811030008DF
:1001B00011030008110300081103000811030008CF
:0801C0001103000811030008FF
:1001D00010B5054C237833B9044B13B10448AFF381
:1001E00000800123237010BD840000200000000067
:1001F000C86C000808B5034B1BB103490348AFF3B3
:10020000008008BD0000000088000020C86C0008C5
:10021000034613F8012B002AFBD1181A0138704746
:1002200001F0FF01102A2BDB10F0070F08D010F8A7
:10023000013B013A8B422DD010F0070F42B3F6D1AB
:10024000F0B441EA012141EA014122F007047FF0C4
:1002500000070023F0E80256083C85EA010586EA1B
:10026000010685FA47F5A3FA87F586FA47F6A5FA57
:1002700087F68EB9EED1F0BC01F0FF0102F0070263
:1002800032B110F8013B013A83EA010313B1F8D10E
:100290000020704701387047002D06BF35460338EF
:1002A000073815F0010F07D1013015F4807F02BF28
:1002B000013015F4C03F0130F0BC0138704700BF79
:1002C000DFF834D0002103E00C4B5B58435004317D
:1002D0000B480C4B42189A42F6D30B4A02E000231B
:1002E00042F8043B094B9A42F9D306F069F806F04C
:1002F0008DF805F08DFB704700000520E4720008C2
:1003000000000020840000208400002070210020D4
:10031000FEE70000084B10B5044618684FF47A73E6
:10032000B0FBF3F000F0C2FA002221464FF0FF309C
:1003300000F078FA002010BD1C00002008B5032052
:1003400000F05EFA0020FFF7E5FF05F063FE0020F5
:1003500008BD0000024A136801331360704700BFF4
:1003600024120020014B1868704700BF241200209F
:1003700013B50190FFF7F6FF0446FFF7F3FF019B6B
:10038000001B9842F9D302B010BD000010B504461E
:10039000002800F09E80036C23B9436480F83C3051
:1003A00005F068FE236CDB0600F18E80236C23F4DD
:1003B000885323F0020343F002032364464B5A6838
:1003C00022F440325A60596862680A435A602368CE
:1003D00021695A68A06A22F480725A605A6842EA17
:1003E00001225A605A6822F040725A60A268596825
:1003F0000A435A609A6822F400629A60E268996837
:100400000A439A60354A90420ED0996821F0706193
:1004100099609A6802439A609A6822F040529A6002
:10042000E26A99680A4306E09A6822F070629A606C
:100430009A6822F040529A609A68A16922F00202FA
:100440009A609A6842EA41029A60226A9AB15A68AE
:1004500042F400625A605A6822F460425A604FF4D3
:10046000604292FAA2F2B2FA82F1626A5868013AE4
:100470008A40024302E05A6822F400625A60002077
:10048000DA6A22F47002DA62E269D96A013A41EA70
:100490000252216BDA629A6822F400729A609A68BA
:1004A00042EA412261699A609A6822F480629A6005
:1004B0009A6842EA81229A606064236C23F0030305
:1004C00043F00103236400E00120002384F83C3062
:1004D00010BD012010BD00BF002301400100000F2E
:1004E00037B5134600220446019290F83C20012AB9
:1004F00064D00122056880F83C20AA68D20703D5A1
:10050000AA68D00713D44EE0AA6842F00102AA609C
:100510002C4A10682C4AB0FBF2F000EB400001902E
:10052000019A002AECD0019A013A0192F8E7206C76
:1005300020F4E06020F0010040F4807020646A68DC
:10054000520505D5206C20F4405040F480502064C2
:10055000226C12F4805202D0626C22F006026264B5
:100560000022A06B84F83C20184AC263184A026437
:10057000184AC2646FF022022A606A6842F0806200
:100580006A60AA6842F48072AA600A4605F14C01CA
:1005900000F040FA104B5B6813F01F0F236804D083
:1005A0000E4A934201D0002009E0986810F04050B4
:1005B000F9D19A6842F080429A6000E0022003B0CC
:1005C00030BD00BF1C00002040420F003B06000869
:1005D0009D060008A90600080023014000200140F4
:1005E00090F83C30012B10B5044624D0012380F84C
:1005F0003C3003689A6822F001029A609A68D20738
:1006000014D49A68806B22F480729A6000F041FAE8
:100610002268536823F080635360236C23F488536B
:1006200023F0010343F00103236400E000200023D2
:1006300084F83C3010BD022010BD836B1A6C12F0A0
:10064000500F10B524D11A6C42F400721A641A6863
:10065000916811F0405F17D19969A9B9D16A11F475
:10066000700F02D0916849050ED4516821F0200125
:1006700051601A6C22F480721A641A6CD20403D48A
:100680001A6C42F001021A64184603F0D1FF10BD43
:100690009B6BBDE81040DB6C1847704708B5806B5A
:1006A000FFF7FBFF08BD704708B5806B402303646C
:1006B000436C43F004034364FFF7F5FF08BD0000FB
:1006C0000023F7B5019390F83C30012B70D00D68F2
:1006D00001230468092D80F83C30AEB28F6817D929
:1006E00006EB4602D4F80CE0A2F11E0307229A4062
:1006F0002EEA0202E2603D4A954203D1E36843EAF2
:10070000076303E0E26807FA03F31343E3600EE0D4
:1007100005EB45034FF0070E22690EFA03FE07FAB8
:1007200003F322EA0E0222612269134323614B681C
:10073000062B4FEA83020DD81344676B591F1F2302
:100740008B4006FA01F127EA03036363626B1143EE
:1007500061631DE00C2B0ED81344216BA3F123021F
:100760001F23934006FA02F221EA03032363236B5B
:100770001A4322630CE013441F22E76A413B9A406C
:1007800027EA0202E26206FA03F2E16A0A43E2623F
:10079000174B9C4204D0002380F83C30184623E0DD
:1007A000122D07D1134A536843F480035360F2E7D4
:1007B000022019E00D4B9D4201D0112DEBD10D49C6
:1007C0009D424A6842F400024A60E4D10A4B0B4A57
:1007D0001B68B3FBF2F20A2353430193019B002BE6
:1007E000D9D0019B013BF8E703B0F0BD1200001027
:1007F00000200140002301401C00002040420F0067
:10080000074A0002D36800F4E06023F4E0631B04AD
:100810001B0C43F0BF6343F400330343D3607047C2
:1008200000ED00E0194BDB68C3F3022330B5C3F1E0
:1008300007041D1D042C28BF0424062D4FF00105BC
:100840008CBF033B002305FA04F4002804F1FF34B5
:1008500004EA010404FA03F405FA03F303F1FF3395
:1008600002EA030242EA04024FEA021205DA00F049
:100870000F00D2B2064B1A5430BD00F16040D2B224
:1008800000F5614080F8002330BD00BF00ED00E0BE
:1008900014ED00E04209012300F01F0003FA00F00C
:1008A000014B43F82200704700E100E00138B0F14D
:1008B000807F0AD2064BF021064A5860002082F859
:1008C0002310072298601A6070470120704700BF0C
:1008D00010E000E000ED00E0044B04281A680CBFB3
:1008E00042F0040222F004021A60704710E000E0B7
:1008F000704708B5FFF7FCFF08BD0000036818212A
:10090000DAB223F47F73103A23F00303B2FBF1F25F
:100910000449032A895C88BF0433C1658365806DFF
:10092000704700BF046D000870B50446FFF71AFD5C
:100930000546002C64D00023226884F8343002235A
:1009400084F83530136823F00103136021680B68C5
:10095000D80708D5FFF706FD401B0528F6D9202348
:100960000320636551E00B68294A65681A40A36853
:10097000A0691D43E3681D4323691D4363692B433D
:10098000E56903432B43256A2B431343626A042A18
:1009900001BF256BE66A35432B43042A0B604B6984
:1009A00023F0070343EA02031CD1A26A134320B9D0
:1009B000012A0BD013D3022A10E0B0F5005F0AD150
:1009C000032A0FD8DFE802F01E0B1E02E26AB2F122
:1009D000C07F07D116E0022A14D9032A02D1E26AA5
:1009E000D2010FD44B612046FFF788FFE26D3F2311
:1009F0009340836000200123606584F8353070BD2A
:100A0000012070BD40230120636584F8350070BD6E
:100A10003F8010F070B590F83440012C37D001249D
:100A2000866D002580F8344090F83540012C4FF059
:100A3000020428D180F8354004684565256825F40E
:100A40008025256063608368402B02D1A260E1604D
:100A500001E0A160E260C26D3F239340B360236870
:100A600043F016032360636943F080036361036C02
:100A70001BB1236843F0080323602368002043F080
:100A80000103236070BD80F83450204670BD022001
:100A900070BD70B50446856DFFF764FC064694F89A
:100AA0003530022B06D0802301206365002384F8B3
:100AB000343070BD23681A6822F016021A605A6931
:100AC00022F080025A61226C0AB9A26C1AB11A682B
:100AD00022F008021A601A6822F001021A602368E4
:100AE000186810F001000DD0FFF73CFC801B0528B2
:100AF000F5D9202303206365002384F8350084F8AA
:100B0000343070BDE26D3F239340AB60012384F825
:100B1000340084F8353070BD90F83530022B03D0A6
:100B200080234365012070470268052380F8353033
:100B30000020136823F00103136070470023F7B50A
:100B400001930446594B856D1F680823C26D2E68BA
:100B500093401E420CD001680868400708D5086819
:100B600020F004000860AB60636D43F0010363652F
:100B70004F4B93401E4208D021684969090604D5AD
:100B8000AB60636D43F0020363654A4B93401E42C2
:100B900008D021680968880704D5AB60636D43F00D
:100BA00004036365102303FA02F2164217D0236888
:100BB0001968090713D5AA601A68500304D51B6881
:100BC000190308D5A36C07E01A68D20503D41A6884
:100BD00022F008021A60236C0BB120469847E16DA1
:100BE00020228A4016423BD023681868C60637D5B3
:100BF000AA6094F83520052A1A6819D122F0160245
:100C00001A605A6922F080025A61226C0AB9A26CF9
:100C10001AB11A6822F008021A603F238B40AB60B9
:100C2000002384F83430012384F83530236D37E015
:100C3000500304D51B6819030ED4636C0DE01A68C9
:100C400012F4807208D1196821F010011960012393
:100C500084F8342084F83530E36B0BB12046984794
:100C6000636D03B3636DDA0719D50523226884F831
:100C70003530136823F0010313604FF41653B7FBAC
:100C8000F3F7019B01339F42019302D31368DB0703
:100C9000F7D4002384F83430012384F83530E36C32
:100CA0000BB12046984703B0F0BD00BF1C000020E8
:100CB0000100800004008000094910B50C6924F48B
:100CC00040740C610C6944F440740C610C6944F08C
:100CD00001040C61C0E90023BFF34F8F10BD00BFBA
:100CE000003C0240084B1A6922F440721A611A69EA
:100CF00042F400721A611A6942F001021A6101603D
:100D0000BFF34F8F704700BF003C0240084B1A6989
:100D100022F440721A611A6942F480721A611A69E7
:100D200042F001021A610180BFF34F8F704700BF8C
:100D3000003C0240074B1A6922F440721A611A699A
:100D40001A611A6942F001021A610170BFF34F8FF4
:100D5000704700BF003C0240164BDA68920704D58A
:100D600015498A6942F020028A61DB68DB0604D5F6
:100D7000114A936943F0100393610E4BDA689006B1
:100D800004D50D498A6942F008028A61DB68590678
:100D900004D5094A936943F004039361054BDA686B
:100DA000120604D504498A6942F002028A61F222DD
:100DB000DA607047003C024028120020064B1A6996
:100DC000002A06DA054A00205A6002F188325A6089
:100DD00070470120704700BF003C02402301674577
:100DE000034A0020136943F000431361704700BFBA
:100DF000003C02400022144B70B504469A61134D2A
:100E0000FFF7B0FA0646EB68104ADB030AD5621C0E
:100E1000F9D00CB9032070BDFFF7A4FA801B8442FF
:100E2000F1D2F7E7D06810F0F20003D0FFF794FF9B
:100E3000012070BDD36813F0010302D00123D360F9
:100E400070BD184670BD00BF28120020003C024053
:100E50002DE9F0411C4C984607460D46237D164669
:100E6000012B2DD001234CF250302375FFF7C2FF28
:100E700010BB032F17D8DFE807F002070C11F1B2FF
:100E80002846FFF757FF0EE0B1B22846FFF73EFFB6
:100E900009E031462846FFF725FF04E03246434685
:100EA0002846FFF709FF4CF25030FFF7A3FF074A2F
:100EB000136923F00103136100232375BDE8F0815A
:100EC0000220BDE8F08100BF28120020003C024053
:100ED000084B1A6922F440721A611A6942F004023E
:100EE0001A611A6942F4803242EA00201861BFF3A5
:100EF0004F8F7047003C024051B1012906D00229B2
:100F00000CBF4FF400714FF4407101E04FF4807159
:100F10000E4B1A6922F440721A611A691143196161
:100F200078211A6922F0F8021A6191FAA1F11A697E
:100F3000B1FA81F142F002028840104318611A6947
:100F400042F480321A61BFF34F8F7047003C024079
:100F50002DE9F843234E05468846337D012B3ED0CC
:100F600001234CF250303375FFF744FF044688BB31
:100F70004FF0FF33C8F800302B68012B0DD1287BD0
:100F8000FFF7A6FF4CF25030FFF734FF164A044635
:100F9000136923F0040313611CE06F68DFF84890C5
:100FA000AA686B6813449F4214D2297B3846FFF726
:100FB000A3FF4CF25030FFF71DFFD9F8103023F09B
:100FC0007A03C9F8103018B1C8F80070044601E07F
:100FD0000137E5E7002320463375BDE8F88302209A
:100FE000BDE8F88328120020003C02402DE9F04FB4
:100FF0000B6885B06F4E01930023DFF8C0C1B64681
:10100000DFF8BC810122019C9A4032EA040440F0DE
:10101000C9804C6824F01009B9F1020F14D14FEACD
:10102000D30A03F0070B0F2500EB8A0A4FEA8B0B5C
:10103000DAF8207005FA0BF527EA05050F6907FABB
:101040000BF72F43CAF820704FEA430A03250768BD
:1010500004F0030B05FA0AF509F1FF390BFA0AFB54
:10106000ED43B9F1010F07EA05074BEA07070760EF
:1010700012D8876805EA0709CF6807FA0AF747EA2E
:101080000907C4F30019876009FA03F9476827EADA
:10109000020749EA07074760C7683D408F6807FABB
:1010A0000AF73D43C560E5007CD5DCF8445023F0E9
:1010B000030703F0030A4FF00F0945F4804507F1D9
:1010C00080474FEA8A0ACCF8445007F59C37DCF891
:1010D000445005F480450395039D09FA0AF5D7F8B5
:1010E00008B02BEA0509344DA84224D005F58065E7
:1010F000A84222D005F58065A84220D005F580657C
:10110000A8421ED005F58065A8421CD040451CD0E1
:1011100005F50065A8421AD005F58065A84218D0EB
:1011200005F58065A84216D005F58065A84214BF74
:101130000A25092510E000250EE001250CE0022516
:101140000AE0032508E0042506E0052504E006255D
:1011500002E0072500E0082505FA0AF514F4803FAF
:1011600045EA0905BD606FEA020735680CBF3D40DE
:10117000154314F4003FCEF80050DEF804500CBFC5
:101180003D40154314F4801F7560B5680CBF3D40A9
:101190001543A402CEF80850DEF80C5054BF3D4071
:1011A0001543F5600133102B7FF42CAF05B0BDE87B
:1011B000F08F00BF003C01400000024000380240B8
:1011C0000014024002B909048161704708B5044B5C
:1011D0005969014202D0586102F0A6FD08BD00BF66
:1011E000003C0140194B1A6C42F0805273B51A64EE
:1011F0001B6C174C03F0805325460193019B236819
:1012000043F480332360FFF7ADF806466B68104C5B
:10121000DA0307D4FFF7A6F8801BB0F57A7FF5D97B
:10122000032011E0236843F400332360FFF79AF8AA
:10123000054663689B0306D4FFF794F8401BB0F59E
:101240007A7FF6D9ECE7002002B070BD003802408A
:10125000007000400368F7B50446D80703D423683C
:10126000990752D4A5E0964B9A6802F00C02042A22
:1012700007D09A6802F00C02082A0BD15B685A0268
:1012800008D58F4B1B689B03E9D56368002BE6D11B
:10129000012076E163688A4DB3F5803F13D05BB9D6
:1012A0002B6823F480332B602B6823F480232B607E
:1012B000FFF758F8064624E0B3F5A02F2B6806D1B7
:1012C00043F480232B602B6843F4803305E023F440
:1012D00080332B602B6823F480232B60FFF742F8C8
:1012E000774D06462B689F03B9D4FFF73BF8801B68
:1012F0006428F7D9032044E1FFF734F8801B642801
:10130000F8D82B689803F7D4A9E76D4B9A6812F0C8
:101310000C0F07D09A6802F00C02082A17D15B68FC
:10132000590214D4664B1A68920702D5E268012A62
:10133000AED11A68F82191FAA1F12069B1FA81F1D0
:1013400022F0F80200FA01F10A431A6031E0E36882
:101350005B4DF3B12B6843F001032B60FFF702F8FC
:1013600006462B6856489B0705D4FEF7FBFF801BFB
:101370000228F6D9BEE70368F82292FAA2F22169A0
:10138000B2FA82F223F0F80301FA02F21343036087
:101390000FE02B6823F001032B60FEF7E3FF064606
:1013A0002B689F0705D5FEF7DDFF801B0228F7D9C4
:1013B000A0E723681E0703D423685D0749D522E010
:1013C00063693F4D7BB16B6F43F001036B67FEF7C1
:1013D000C9FF06466B6F9807EED4FEF7C3FF801B6C
:1013E0000228F7D986E76B6F23F001036B67FEF7DE
:1013F000B9FF06466B6F9907DED5FEF7B3FF801B7A
:101400000228F7D976E72E4B2E4D1A6C42F0805207
:101410001A641B6C03F080530193019B2B6843F407
:1014200080732B60FEF79EFF06462B68DA0514D505
:10143000A368234D012B16D12B6F43F001032B67BB
:1014400041F28835FEF78EFF1D4E0746336F9B072E
:1014500026D5A269002A37D179E0FEF783FF801BE9
:101460006428E2D946E76BB92B6F41F2883723F045
:1014700001032B672B6F23F004032B67FEF772FF2A
:10148000064619E0052B2B6F03D143F004032B67AD
:10149000D2E723F001032B672B6F23F00403CEE781
:1014A000FEF760FFC01BA842D0D923E7FEF75AFF22
:1014B000801BB8423FF61EAF2B6F9807F6D4C8E7E3
:1014C00000380240007000402F4DAB6803F00C0361
:1014D000082B3FF4DDAE2B68022A23F080732B60CB
:1014E00043D1FEF73FFF07462B68274E990130D4C2
:1014F00047F6C07292FAA2F24FF44033B2FA82F089
:1015000093FAA3F34FF07062B3FA83F592FAA2F262
:10151000E369B2FA82F1276A626A1F43824047F0A8
:10152000005343EA0200A36A5A08013A02FA05F39B
:10153000E26A03438A4013437360336843F0807365
:101540003360FEF70FFF044633689A0107D5002089
:1015500017E0FEF707FFC01B0228C5D9CAE6FEF751
:1015600001FF001B0228EFD9C4E6FEF7FBFE04468C
:101570002B689B01EBD5FEF7F5FE001B0228F7D97F
:10158000B8E603B0F0BD00BF003802401B498B68CD
:1015900003F00C03042B2CD0082B2CD1486847F601
:1015A000C0724B6800F03F0013F4800F4B6892FA52
:1015B000A2F247F6C071B2FA82F201EA030121FAFF
:1015C00002F114BF0E4A0F4AB2FBF0F00B4A00FBC7
:1015D00001F34FF44030526890FAA0F002F4403228
:1015E000B0FA80F022FA00F001304000B3FBF0F0D6
:1015F0007047034870470348704700BF00380240F7
:1016000040787D010024F400504A136803F00F0372
:101610008B422DE9F04104460D460AD32168880724
:1016200014D54B48836823F0F002A368134383600A
:101630000CE0136823F00F030B431360136803F0EF
:101640000F039942EAD00120BDE8F081C90706D412
:101650003E4A136803F00F039D4242D34BE0626899
:101660003B4B012A196802D111F4003F06E0022A1F
:1016700002D111F0007F01E011F0020FE3D0996870
:1016800041F28838324F21F003010A439A60FEF795
:1016900069FE63680646012B0CD1BB6803F00C039E
:1016A000042BD5D0FEF75EFE801B4045F5D9032004
:1016B000BDE8F081022B0FD1BB6803F00C03082BAF
:1016C000C6D0FEF74FFE801B4045F5D9EFE7FEF789
:1016D00049FE801B4045EAD8BB6813F00C0FF6D1D9
:1016E000B6E7136823F00F032B431360136803F06E
:1016F0000F039D42A7D121684A0706D51448836885
:1017000023F4E052E368134383600B0707D5104AC4
:101710002169936823F4604343EAC1039360FFF7B0
:1017200035FF0B4BF0229B6892FAA2F2B2FA82F2DA
:1017300003F0F003D340074AD35CD840064B18604F
:101740000020FEF7E7FD0020BDE8F081003C0240EC
:10175000003802408E7200081C000020014B1868FF
:10176000704700BF1C000020084B4FF4E0529B68FC
:1017700092FAA2F2B2FA82F203F4E053D340044A9E
:10178000D35C044A1068D840704700BF003802405C
:101790009E7200081C000020084B4FF460429B68BA
:1017A00092FAA2F2B2FA82F203F46043D340044AFE
:1017B000D35C044A1068D840704700BF003802402C
:1017C0009E7200081C00002003682DE9F74F13F0FB
:1017D000010604460BD0B64A916821F400019160DD
:1017E000466B91683143B6FA86F67609916013F438
:1017F000002512D0AE49E56BD1F88C20B5F5801FDD
:1018000022F4401208BF012642EA050216BFB5FACB
:1018100085F500256D09C1F88C20D80211D5A448A2
:10182000216CD0F88C20B1F5800F22F4400242EAFE
:101830000102C0F88C2003D0002908BF012500E078
:10184000012613F0807F18BF012699065DD5984BBD
:10185000984F1A6C42F080521A641B6C03F080534C
:101860000193019B3B6843F480733B60FEF77AFD74
:1018700080463B68DA0507D4FEF774FDC8EB00002C
:101880006428F6D9032040E3894F3B6F13F440737B
:101890000FD1226B02F44073B3F5407F844B2BD100
:1018A000996821F4F81022F0704121F4407101434D
:1018B00025E0226B02F440729342EAD03B6F3A6F0C
:1018C00023F4407342F480323A673A6F22F4803254
:1018D0003A673B673B6FDB07DBD5FEF743FD41F221
:1018E000883980463B6F9807D3D4FEF73BFDC8EBA1
:1018F00000004845F6D9C5E7996821F4F8119960C8
:10190000C2F30B02196F0A431A672368D9060CD574
:10191000674AD2F88C1021F08071C2F88C10D2F88E
:101920008C00A16B0143C2F88C105A0408D56048A2
:10193000D0F8902022F44031626E0A43C0F8902023
:101940001F0408D55A48D0F8902022F44021A26EF6
:101950000A43C0F89020D80308D55548D0F8902005
:1019600022F44011E26E0A43C0F89020990308D592
:101970004F48D0F8902022F44001226F0A43C0F86B
:1019800090205A0608D54A48D0F8902022F003014A
:10199000626C0A43C0F890201F0608D54448D0F86E
:1019A000902022F00C01A26C0A43C0F89020D805C8
:1019B00008D53F48D0F8902022F03001E26C0A436D
:1019C000C0F89020990508D53948D0F8902022F029
:1019D000C001226D0A43C0F890205A0508D534484A
:1019E000D0F8902022F44071626D0A43C0F8902034
:1019F0001F0508D52E48D0F8902022F44061A26D32
:101A00000A43C0F89020D80408D52948D0F890207F
:101A100022F44051E26D0A43C0F89020990408D5A1
:101A20002348D0F8902022F44041226E0A43C0F8A7
:101A300090205A0208D51E48D0F8902022F08061EC
:101A4000A26F0A43C0F890209F020CD51848E16F9E
:101A5000D0F89020B1F1006F22F0006208BF01259C
:101A60000A43C0F8902013F0080F18BF012558034F
:101A700008D50F48D0F8902022F04071626F0A43D9
:101A8000C0F89020190209D50948D0F8902022F01A
:101A90008051D4F880200A43C0F89020012E0BD04A
:101AA000B3F1007F08D0012D40F08C8123E100BF0D
:101AB0000038024000700040C84E336823F0806355
:101AC0003360FEF74FFC07463368DFF810E31A0176
:101AD00005D5FEF747FCC01B6428F5D9D2E6276878
:101AE000FB073CD5636BD3BBDEF884004FF4403872
:101AF00098FAA8F94FF07066B9FA89F9DEF88420EF
:101B000096FAA6FC47F6C07ABCFA8CFC9AFAAAFAB6
:101B1000BAFA8AFA98FAA8F8B8FA88F896FAA6F6FD
:101B20004FF0E043B6FA86F693FAA3F3B3FA83FBD9
:101B30006168A36800F4403001FA0AF102F07062B3
:101B400003FA0BF320FA09F022FA0CF20B4300FA25
:101B500008F1194302FA06F30B43CEF884303E0332
:101B600003D5E36BB3F5801F05D0F80249D5236C8C
:101B7000B3F5800F45D1DFF864E24FF44038DEF86A
:101B8000840098FAA8F94FF0E046B9FA89F9DEF82E
:101B9000842096FAA6FC47F6C07BBCFA8CFC9BFA24
:101BA000ABFBBBFA8BFB98FAA8F84FF07063B8FA5E
:101BB00088F893FAA3F3B3FA83FA96FAA6F6636861
:101BC00000F4403002F0E042B6FA86F603FA0BF178
:101BD000E36820FA09F022FA0CF203FA0AF30B4345
:101BE00000FA08F1194302FA06F30B43CEF88430E9
:101BF000DEF88C30626A23F01F03013A1343CEF8FB
:101C00008C30F9013CD5DFF8D4E14FF07068DEF894
:101C1000840098FAA8F94FF0E046B9FA89F9DEF89D
:101C2000842096FAA6FC47F6C07BBCFA8CFC9BFA93
:101C3000ABFB4FF44033BBFA8BFB93FAA3F3B3FA3D
:101C400083FA98FAA8F8B8FA88F896FAA6F66368BC
:101C500000F0706002F0E042B6FA86F603FA0BF18B
:101C6000236920FA09F022FA0CF203FA0AF30B4373
:101C700000FA08F1194302FA06F30B43CEF8843058
:101C8000BA0126D547F6C07E9EFAAEFE4FF440302C
:101C9000BEFA8EFE90FAA0F04FF07062B0FA80F7B4
:101CA00092FAA2F24FF0E043B2FA82F693FAA3F36B
:101CB000B3FA83F120696368E268B84003FA0EF36F
:101CC000B24003431A43A3688B401343434AC2F80C
:101CD0008430424E336843F080633360FEF742FB4A
:101CE000074633681B013FF5DEAEFEF73BFBC01B2A
:101CF0006428F6D9C6E5394D2B6823F080532B6054
:101D0000FEF730FB06462B689F005DD425682E0346
:101D100060D4E80264D4A90200F1AD802A0745D559
:101D20002E4F4FF07065D7F8882095FAA5FC4FF438
:101D30004036BCFA8CFCD7F8880096FAA6F847F62D
:101D4000C079B8FA88F899FAA9F9B9FA89F996FA2E
:101D5000A6F6B6FA86F695FAA5F54FF0E04EB5FA76
:101D600085F59EFAAEFE6369BEFA8EFE00F4403041
:101D700002F0706203FA09F1E36920FA08F022FA2E
:101D80000CF203FA0EFE02FA05F341EA0E0E00FA17
:101D900006F14EEA01010B43C7F88830D7F88C30C2
:101DA00023F44032E36A1343C7F88C300B4C2368AA
:101DB00043F080532360FEF7D5FA054623689B0065
:101DC00040F19C800020A0E0FEF7CCFA801B642844
:101DD00099D957E5E36B33B19BE700BF0038024068
:101DE000236C002B97D14A4F4FF4403CD7F8880022
:101DF0009CFAACF94FF0E046B9FA89F9D7F8882097
:101E000096FAA6FE47F6C07ABEFA8EFE9AFAAAFAAB
:101E1000BAFA8AFA9CFAACFC4FF07068BCFA8CFCF7
:101E200098FAA8F8B8FA88F896FAA6F6A16900F424
:101E30004030636902F0E04201FA08F820FA09F044
:101E400003FA0AF322FA0EF2B6FA86F600FA0CF159
:101E500043EA0803194302FA06F30B43C7F8883034
:101E6000D7F88C30A26A23F4F853013A43EA0223EC
:101E7000C7F88C304FE7E36FB3F1006F7FF44EAFDC
:101E8000234F4FF0706CD7F888009CFAACF94FF0F4
:101E9000E046B9FA89F9D7F8882096FAA6FE47F6FF
:101EA000C07ABEFA8EFE9AFAAAFA4FF44038BAFA0D
:101EB0008AFA98FAA8F8B8FA88F89CFAACFCBCFA46
:101EC0008CFC96FAA6F6216A00F07060636902F055
:101ED000E04201FA08F820FA09F003FA0AF3B6FA28
:101EE00086F600FA0CF122FA0EF243EA08031943CF
:101EF00002FA06F30B43C7F888300FE7FEF732FA11
:101F0000401B64287FF65AAFBCE403B0BDE8F08FF5
:101F100000380240036859689A6830B502F04105FC
:101F200085B00446012D03D14D0601D5C36C05E0F3
:101F3000950705D5080603D5236D2046984756E03A
:101F400012F4B07F53D08D0651D5500616D594F8B3
:101F50005D00002503280AD0206E40F004002066B2
:101F60000095D868009098680090009806E0019568
:101F7000DA6801929B680193019B38E095060CD5C5
:101F8000206E40F0010020660020029098680290C8
:101F9000186820F0400018600298D00508D5226E1D
:101FA00042F008022266002203929A680392039A82
:101FB000226EE2B15A6822F0E0025A60012284F8EF
:101FC0005D208A0710D05A68A06D22F003025A6083
:101FD00018B1084B0365FEF79FFD606D38B1054BE6
:101FE0000365FEF799FD02E0204601F0AFFF05B062
:101FF00030BD00BFF91F000808B5806B0023A0F8B2
:102000004630C38701F0A2FF08BD036A10B5046A19
:1020100023F00A0324F0010419430462846924F0C4
:10202000F00444EA02128261016210BD036A23F0E7
:10203000100310B503628469036A24F4704423F02A
:10204000A00344EA023243EA01118261016210BD39
:102050000268022380F83930136843F001031360EB
:10206000012380F8393000207047022341F2111219
:1020700080F839300368196A0A4042B9196A40F297
:1020800044420A401AB91A6822F001021A60012378
:1020900080F8393000207047036851B1042914D109
:1020A0001A6A22F010021A621A6A42F010021A62C8
:1020B0001FE01A6A22F001021A621A6A42F0010253
:1020C0001A62DA6842F0020216E01A6A22F001028D
:1020D0001A621A6A42F001021A621A6A22F01002A7
:1020E0001A621A6A42F010021A62DA6842F00202B8
:1020F000DA60DA6842F00402DA6000201A6842F01E
:1021000001021A6070477047704770477047704708
:1021100003681A69910710B5044614D5DA68920766
:1021200011D56FF002021A6101229B6902769907AC
:1021300002D0FFF7EAFF04E0FFF7E6FF2046FFF7D3
:10214000E5FF0023237623681A69520716D5DA685B
:10215000500713D56FF0040220461A6102229B69D2
:10216000227613F4407F02D0FFF7CFFF04E0FFF7A1
:10217000CBFF2046FFF7CAFF0023237623681A69A6
:10218000110715D5DA68120712D56FF0080220463C
:102190001A610422DB6922769B0702D0FFF7B5FFA4
:1021A00004E0FFF7B1FF2046FFF7B0FF00232376DE
:1021B00023681A69D00616D5DA68D10613D56FF0F0
:1021C000100220461A610822DB69227613F4407F50
:1021D00002D0FFF79AFF04E0FFF796FF2046FFF7D3
:1021E00095FF0023237623681A69D20708D5DA6899
:1021F000D00705D56FF0010220461A61FFF783FF73
:1022000023681A69110608D5DA68120605D56FF039
:10221000800220461A6100F086FB23681A69D00507
:1022200008D5DA68110605D56FF0800220461A61DC
:1022300000F079FB23681A69520608D5DA6850065F
:1022400005D56FF0400220461A61FFF760FF236852
:102250001A6991060AD5DA68920607D56FF020024E
:1022600020461A61BDE8104000F05CBB10BD0000C4
:102270002E4A0368904212D0B0F1804F0FD0A2F5E1
:102280007C4290420BD002F58062904207D002F56A
:102290008062904203D002F57842904218D14A6899
:1022A00023F070031343214A904237D0B0F1804F9E
:1022B00034D01F4A904231D002F5806290422DD036
:1022C00002F58062904229D002F57842904225D0F2
:1022D000184A904222D002F5806290421ED002F548
:1022E000806290421AD0A2F59832904216D002F540
:1022F0008062904212D002F5806290420ED003605C
:102300008B68C3620B688362084B98420BD003F55D
:102310008063984207D001234361704723F44073E0
:10232000CA681343EBE70B690363F4E7000001405D
:10233000000400400040014010B5044680B190F810
:1023400039300BB903F056FF02232068211D84F8B1
:102350003930FFF78DFF0123002084F8393010BD9C
:10236000012010BD10B50446A0B190F8393003F03B
:10237000FF021BB980F8382003F050FF02232068C9
:10238000211D84F83930FFF773FF0123002084F802
:10239000393010BD012010BDF8B50C4605460028A7
:1023A00043D090F8393003F0FF021BB980F8382091
:1023B00003F0C0FE2946022351F8040B85F839309A
:1023C000836823F4803323F007038360FFF750FF13
:1023D00028682368876881691F43A26921F44073D4
:1023E0002169066A23F00303090143EA0222A36874
:1023F0001343E26941EA0221E26823F47C430A4381
:10240000216A23F0FC0342EA01326169134326F09A
:10241000AA0242EA0112616887600A4383610123CC
:102420000262002085F83930F8BD0120F8BD0000B7
:10243000036A23F0010370B50362036A426884698A
:102440000D6824F4803424F073042C4323F0020537
:102450008B682B430C4DA84209D005F58065A84236
:1024600005D042604A6884614263036270BDCD68F2
:1024700023F008034E6922F440722B438D693543E3
:1024800023F004032A43ECE700000140036A23F031
:10249000100330B50362036A4268846923F02003A5
:1024A0000D6824F0807424F4E64444EA05248D6821
:1024B00043EA05130E4DA84209D005F58065A842F0
:1024C00005D042604A6884618263036230BDCD6892
:1024D00023F0800322F4406243EA05134D6942EA87
:1024E00085028D6923F0400342EA8502E9E700BFD7
:1024F00000000140036A23F4807330B50362036A6D
:102500004268C46923F400730D6824F4803424F015
:1025100073042C438D6843EA05230E4DA84209D06D
:1025200005F58065A84205D042604A68C461C2636F
:10253000036230BDCD6823F4006322F4405243EAC5
:1025400005234D6942EA05128D6923F4806342EA4E
:102550000512E9E700000140036A23F4805330B517
:102560000362046A4268C36924F400540D6823F0CE
:10257000807323F4E64343EA05238D6844EA053477
:10258000094DA84209D005F58065A84205D04260F2
:10259000C3614B680364046230BD22F480424D691C
:1025A00042EA8512F3E700BF0000014010B58468DD
:1025B00024F47F4421430A4342EA0323836010BD8D
:1025C00090F83830012B10B504464FF0020000F0AF
:1025D000828084F839000123206884F838308268CA
:1025E0003D4B134083600B68402B57D014D8102B01
:1025F0005FD007D8002B68D1836823F0700343F0C5
:10260000070361E0202B5AD0302B5ED1836823F082
:10261000700343F0370357E0702B25D00ED8502BB2
:1026200030D0602B51D1CA684968FFF7FFFC22689F
:10263000936823F0700343F067032DE0B3F5805FE8
:102640000CD0B3F5005F40D1CB684A688968FFF7CA
:10265000ADFF2268936843F480431DE0836823F450
:10266000803323F007032FE0CB684A688968FFF7BF
:102670009DFF2268936823F4803323F0770343F0AF
:10268000770309E0CA684968FFF7BFFC22689368CE
:1026900023F0700343F05703936016E0CA6849685B
:1026A000FFF7B3FC2268936823F0700343F04703FD
:1026B000F2E7836823F0700343F0170304E08368B4
:1026C00023F0700343F0270383600123002084F884
:1026D000393084F8380010BD8800FEFF01238A409D
:1026E0008B4010B5046A24EA03030362036A42EADA
:1026F0000301016210BD000010B50446012200680C
:10270000FFF7ECFF2368084A934203D002F580628A
:10271000934203D15A6C42F400425A641A68002072
:1027200042F001021A6010BD00000140036A23F468
:10273000803330B50362036A4268446D23F400338A
:102740000D6824F4803424F070042C438D6843EA2F
:102750000543094DA84203D005F58065A84204D180
:1027600022F480324D6942EA052242604A6844659B
:102770008265036230BD00BF00000140036A23F49C
:10278000801330B50362026A4468436D22F400127C
:102790000D6823F0807323F4E04343EA05238D683A
:1027A00042EA0552084DA84203D005F58065A842CB
:1027B00004D124F480244D6944EA852444604365AF
:1027C0004B68C365026230BD0000014038B590F827
:1027D000383004460D460220012B7BD00123082A05
:1027E00084F8390084F838303CD013D84AB3042A2E
:1027F0006AD12068FFF74AFE236829699A6942F482
:1028000000629A619A6922F480629A619A6942EA46
:10281000012225E0102A36D0142A44D00C2A53D1A4
:102820002068FFF799FE23682969DA6942F400629B
:10283000DA61DA6922F48062DA61DA6942EA012255
:102840001FE02068FFF7F4FD23689A6942F0080250
:102850009A619A6922F004029A612A6999690A4385
:102860009A6131E02068FFF745FE2368DA6942F09B
:102870000802DA61DA6922F00402DA612A69D969A8
:102880000A43DA6120E02068FFF750FF23685A6DA1
:1028900042F008025A655A6D22F004025A652A690C
:1028A000596D0A430FE02068FFF768FF2368096944
:1028B0005A6D42F400625A655A6D22F480625A657C
:1028C0005A6D42EA01225A650123002084F839300A
:1028D00084F8380038BD000090F83830012B30B54E
:1028E0001CD002680E4C5368A242956803D004F5D0
:1028F0008064A24203D123F470034C6823430C6824
:1029000023F070038968234325F08004536021433A
:102910000023916080F83830184630BD022030BD69
:1029200000000140704770472DE9F041069D0446C4
:102930000F46164698462168CA6937EA02030CBF5B
:1029400001220022B2421DD16B1CF5D09DB9236833
:1029500003201A6822F4D0721A609A6822F00102E9
:102960009A60202384F8693084F86A30002384F860
:102970006830BDE8F081FDF7F5FCC8EB000085424A
:10298000D9D8E4E70020BDE8F0812DE9F3411F46E6
:1029900090F8693004460D46202B90464BD1002913
:1029A00047D0002A45D090F86830012B43D001234E
:1029B00080F868300023C366212380F86930FDF772
:1029C000D1FC0646A4F85080A4F85280B4F85220F6
:1029D00092B202B3B4F85230002200978021013B3A
:1029E00020469BB2A4F852303346FFF79DFF08B152
:1029F000032021E0A3682268B3F5805F07D1236933
:102A00002BB935F8023BC3F308039362DEE72B785A
:102A100001359362DAE70097334640212046FFF7FD
:102A200083FF0028E4D1202384F8680084F869300B
:102A300002E0012000E0022002B0BDE8F0810000C9
:102A400038B504460568C3692269A168286811433E
:102A500062690A4342EA0301884A0240A0690A43C4
:102A60002A606A6822F44051E2680A43216A6A6077
:102A70000143AA6822F430620A43AA60804A954260
:102A800007D102F594327F49D2F8902002F0030278
:102A900009E07D4A95420BD102F5FA327B49D2F822
:102AA000902002F00C02B3F5004F8A5C73D0B6E0C0
:102AB000774A95420DD102F5F832D2F8902002F013
:102AC0003002102A00F086805DD9202A78D0302A82
:102AD0000EE0704A95420DD102F5F632D2F8902000
:102AE00002F0C002402A75D04DD9802A68D0C02A91
:102AF0007CD087E0684A95420FD102F5F432D2F8D3
:102B0000902002F44072B2F5807F63D03BD9B2F5D9
:102B1000007F55D0B2F5407FEAE7604A954212D176
:102B200002F59232D2F8902002F44062B2F5806F42
:102B300050D002D8002A3DD064E0B2F5006F3FD0FB
:102B4000B2F5406FD4E7564A95420FD102F5E03214
:102B5000D2F8902002F44052B2F5805F3AD012D9F8
:102B6000B2F5005F2CD0B2F5405FC1E74D4A954207
:102B700048D102F5DE32D2F8902002F44042B2F59C
:102B8000804F27D001D87AB13CE0B2F5004F17D082
:102B9000B2F5404FACE7082A37D8DFE802F0080E5C
:102BA00014361E3636362A00B3F5004F40D1FEF7F4
:102BB000DBFD14E0B3F5004F3DD1FEF7EDFD0EE077
:102BC000B3F5004F3AD16068420802F1F47303F59F
:102BD000904312E0B3F5004F39D1FEF7D7FC63689C
:102BE0005A0802EB4000B0FBF3F308E0B3F5004FE6
:102BF00037D16068430803F58033B3FBF0F39BB231
:102C0000002004E0B3F5004F35D101200023C3F3C9
:102C1000420123F00F0322680B43D36038BD082A1A
:102C200029D8DFE802F005080B28142828281E0000
:102C3000FEF79AFD0DE0FEF7AFFD0AE061684A0875
:102C400002F5740303F51053B3FBF1F30FE0FEF745
:102C50009DFC636800EB5300B0FBF3F080B2E860CA
:102C600007E06268530803F50043B3FBF2F39BB23D
:102C7000EB60002038BD012038BD00BFF369FFEFD5
:102C8000001001400C6D000800440040106D000869
:102C900000480040004C004000500040001401403B
:102CA00000780040007C0040436ADA0710B506D582
:102CB0000468626822F40031826A0A4362609C07F9
:102CC00006D50468626822F48031C26A0A436260F1
:102CD000590706D50468626822F48021026B0A4312
:102CE00062601A0706D50468626822F40041426BEC
:102CF0000A436260DC0606D50468A26822F48051AB
:102D0000826B0A43A260990606D50468A26822F481
:102D10000051C26B0A43A2605A0610D50168046CC8
:102D20004A68B4F5801F22F4801242EA04024A6025
:102D300005D14A6822F4C004426C22434A601B0653
:102D400006D501684B6823F40022836C13434B6063
:102D500010BD73B500260446C666FDF703FB236865
:102D600005461B681A0704D423681B685B071AD53D
:102D70000DE06FF07E4332464FF40011009303469E
:102D80002046FFF7D1FD0028EED0032013E06FF0BE
:102D90007E4300224FF48001204600932B46FFF72C
:102DA000C3FD0028F1D12023002084F8693084F885
:102DB000680084F86A3002B070BD10B5044660B394
:102DC00090F8693003F0FF021BB980F8682003F027
:102DD000A3FA22682423204684F86930136823F07C
:102DE00001031360FFF72CFE012816D0636A13B1AC
:102DF0002046FFF759FF236820465A6822F4904284
:102E00005A609A6822F02A029A601A6842F0010217
:102E1000BDE810401A60FFF79CBF012010BD000004
:102E20000C4B1B68013B042B13D8DFE803F00305B0
:102E3000080B0E00FA220AE04FF4967207E040F207
:102E4000451204E04FF4AF7201E04FF4FA72024B06
:102E50001A607047B80000208C0100200128224A27
:102E600070B508BF3C23214D214C08BF2B60214B7E
:102E70001B68B3F5617F0DDD2668B6F5617F0ADD5D
:102E80001D49096839B91D49096821B91C49896872
:102E9000314410E006D12168B1F5617F02DC1849A8
:102EA000096808E02168B1F5617F06DBB3F5617F51
:102EB00015DC134B5B685B1A10E080B9B3F5617FDA
:102EC0000DDC104B1968104B1B680B440F49096847
:102ED0005B1A0F4909685B1AC3EBC30313601068E0
:102EE0002B6890FBF3F070BD8009002010000020DB
:102EF000A800002044010020C4000020AC090020EC
:102F0000000000204C010020B012002044120020DC
:102F100084090020124B1A6800235362114A126878
:102F20005362114A12685362104A1360104A1360C8
:102F3000104A1360104A1360104A1360104A13605D
:102F4000104A1360104A1360104A1360104A13604D
:102F5000104A1360104A1360104A1360704700BF94
:102F6000E81F0020B4120020FC120020A809002055
:102F7000B0090020F0120020B012002044120020FE
:102F8000BC00002014010020840900204C01002016
:102F900078090020B8090020FC00002094090020D6
:102FA000054B1A6800235362044A1360044A1360F5
:102FB000044A1360704700BFFC120020A8090020DB
:102FC000B0090020F01200200023094810B519466E
:102FD000084C44F82310002240F823100133B3F5C5
:102FE000FA7FF6D1044B1A60044B1A6010BD00BF83
:102FF000C0090020A8010020A41100209009002091
:103000001D4BDFF8B8C01B681C481D4A1D49F0B5B0
:10301000DFF8ACE01C4F1D4E1D4D1E4CFBB913607C
:103020001D4ACCF8003013601C4ACEF800303B60DB
:1030300033602B60236003600B601360184B1B68C8
:103040001BB9184A1360184A13600022174B18491D
:103050001A6004230B6017490A60174A0AE000232C
:10306000CCF80030CEF800303B6033602B6023603A
:1030700003600B601360F0BD9001002090090020F8
:10308000700100201800002078010020A00000201E
:10309000AC090020C4000020B4090020A0110020C9
:1030A000AC1100209C090020BC0900203801002040
:1030B0001400002030010020340100203C010020D9
:1030C0006801002010B50446FDF7A2F84FF47A73AA
:1030D00082B221460248BDE81040FFF756BC00BF4F
:1030E000241A0020254B264A1B6813B50193254B53
:1030F000254C1B68254920460093254B12681B6808
:1031000003F0AAF92046FFF7DDFF224B224A2046B2
:103110001B681268214903F09FF92046FFF7D2FF90
:103120001F4B204A20461B6812681F4903F094F980
:103130002046FFF7C7FF1D4B1D4A20461B6812683B
:103140001C4903F089F92046FFF7BCFF1A4B1B49C5
:1031500020461A6803F080F92046FFF7B3FF184BAA
:10316000184A20461B681268174903F075F9204673
:1031700002B0BDE81040FFF7A5BF00BFB4000020BB
:10318000AC000020A800002014190020506D000899
:10319000440100204C01002084090020A06D00089B
:1031A00044120020B0120020E26D0008BC0900208B
:1031B0009C0900200F6E0008A0110020416E00083D
:1031C0001400002038010020726E0008F8B5314963
:1031D00000243148314F03F063F92F48FFF772FFA5
:1031E00000253E1916F8252001352D492A4803F0FF
:1031F00033F92948FFF766FF052DF3D1294901343A
:10320000254803F04DF92448FFF75CFF042CE7D173
:10321000254900242048254F03F042F91E48FFF7B6
:1032200051FF00253E19725D05351D491A4803F00E
:1032300013F91948FFF746FF142DF4D11949013449
:10324000154803F02DF91448FFF73CFF052CE8D191
:10325000174900251048174E03F022F90E48FFF7D2
:1032600031FF0024A3190E490B4814345A5903F0B6
:10327000F3F80948FFF726FF642CF3D10949043518
:10328000054803F00DF90448FFF71CFF142DE8D1A1
:10329000F8BD00BF9D6F000814190020C800002071
:1032A000D86E0008B26F0008B86F00085401002003
:1032B000CB6F0008841F0020F8B52648FFF702FFF7
:1032C000254C264B0021264A1A6000221868A518B2
:1032D000013250F8046B042A6E541860F6D10431A0
:1032E0001429F2D100221F4D0021AC18186850F8A3
:1032F000046B6654013118600529F7D10532142A90
:10330000F2D10020184F0024C6191A68134D114637
:1033100051F804EB46F824E001341960052CF4D18F
:1033200014306428EFD10968104B196002F10803CA
:103330002B600F4B9168196002F10C03D2682B606F
:103340000C4B1A60FFF742FF0B48BDE8F840FFF74F
:10335000B9BE00BFDF6F0008C8000020E0000020F9
:103360000000040854010020841F0020EC0000200D
:10337000F00000204801002001700008F0B52E4F39
:1033800087B004460D4601AE002D0FCF0FC63B6837
:1033900001A92A4A33604FEA84030BDC1A44525DC8
:1033A000012A14D0681C1A190244254850F822201A
:1033B00003920CE0681ED618365C012E05D01E194B
:1033C00030441F4E56F820000290032DE6DD002CFD
:1033D0001C480DDC234403445B5D012B16D00134F3
:1033E000174B04EB84042C4453F8243005930DE070
:1033F000621E02EB82028618765D012E1FBF5219F3
:103400000F4E56F822200492032CE3DD0122002304
:1034100006A851F8224000EB830050F8140C8442B7
:10342000B8BF13460132052AF2D106AA02EB830384
:1034300053F8140C07B0F0BDE06C0008C800002081
:1034400038130020540100202DE9F04F404BADF51A
:103450004B7D7F24009203F1640243F8044C143343
:1034600043F8144C43F8104C43F80C4C43F8084C08
:103470009342F2D10129374C0AD1374B374A1B68A6
:10348000126803EB83031344002244F8232005E071
:1034900001284FF000030CBF23612366304B012746
:1034A000304A4FF0140A1B680DF5CC7B116803EB12
:1034B000830303EB01090025A8460AFB0543002608
:1034C00053F826107F290ED1314628460193FFF785
:1034D00055FF7F28019B1FBF02AA4BF8286042F8C6
:1034E000285008F101080136052EE9D10135052DD6
:1034F000E3D1002398450BD002AA5BF8230052F8D1
:103500002310013301EB8101014444F82170F1E7FC
:10351000009B13B954F8293000E023697F2B13D1A5
:103520000137C92FC7D1104B012210491A603A4602
:103530000F4802F091FFFFF749FE0D480DF54B7D56
:10354000BDE8F04FFFF7BEBD0DF54B7DBDE8F08F38
:103550003C13002038130020F4120020F812002041
:103560003801002014000020180000200A70000814
:10357000141900201C4B002203F1140103F8012C44
:10358000043303F8042C03F8032C03F8022C8B42B9
:10359000F4D1164B002203F1140103F8012C05337A
:1035A00003F8052C03F8042C03F8032C03F8022C71
:1035B0009942F2D10E4B002203F1640043F8042C2F
:1035C000143343F8142C002143F8102C43F80C2C2E
:1035D00043F8082C8342F1D1064B1960064B196061
:1035E000064B1960704700BFC9000020550100203C
:1035F000881F0020EC000020F0000020480100207F
:10360000084B1A68032A0BD8DFE802F00204060808
:10361000012204E0002202E0032200E002221A60FC
:10362000704700BFA011002070B5484C01264848E3
:103630002368026803EB8301464D114445F821607D
:103640004549464E096803291FBF454D2B60454D2E
:103650002A603568032D4CD8DFE805F002102331CD
:10366000062946D8DFE801F0041533454545060034
:10367000013A0CE03C4B1B68D21A08E0062938D806
:10368000DFE801F00425073737370B00013202600D
:103690003AE0013B2360022320E0334B1B681A44CD
:1036A000F5E7062925D8DFE801F0041B16242424B9
:1036B0000600013B1BE02C4A12689B1A17E0062902
:1036C00017D8DFE801F004080D16161611000133B3
:1036D0002360032302E0013A00230260336013E019
:1036E000013201230260F9E71F4A12681344236084
:1036F0000AE0032908D1FFF783FF194B1B682360F9
:10370000184B1B68036070BD2268036802EB8201DE
:103710001648194450F8211031B9154B1B689BB954
:103720000122144B1A6070BD042A01D8042B0BD956
:103730000120114908601149114802F08DFE10481E
:10374000BDE87040FFF7BEBC70BD00BF380100206F
:1037500014000020841F0020BC090020A0110020BC
:103760003001002034010020B80000203813002070
:10377000B409002070010020180000202A70000801
:1037800014190020002101222DE9F04F084689B0CC
:10379000FFF75AFE6C4B0DF1100A6C4F6C4E4FF058
:1037A0007F0E4FF06C0C029703960FCB8AE80F0048
:1037B00000230422674819461D461C463B603260C0
:1037C0008E00771807EB02080197634F57F828809F
:1037D000B8F1000F00F09B80002ACDF810E0CDF882
:1037E00014E0CDF818E0CDF81CE010DC5B4F07EBDF
:1037F000060919F80290B9F1010F1BD00E4402F12D
:103800000109554F4E4457F82660059612E0534F74
:1038100002F1FF3907EB060B1BF809B0BBF1010FF2
:1038200006D0019F4F44B9464B4F57F82970049773
:10383000032ADBDD00290FDC01EB8106484F3E4403
:10384000B65C012E1AD04E1C434F06EB860616447A
:1038500057F82660079611E04E1E414F06EB86068C
:1038600007EB060919F80290B9F1010F1FBFB6184E
:10387000394F57F8266006960329DDDD4FF0000921
:1038800008F1FF385AF82960464508BF4B4609F150
:103890000109B9F1040FF5D1022C1CD0032C28D05A
:1038A000012C0BD0022B04D0032B05D0BBBB66240C
:1038B00017E080F800C040E0722426E0022B05D01B
:1038C000032B05D0012B35D166241BE072240EE0BA
:1038D00080F800C034E0012B05D0022B06D063BB7A
:1038E000722404701BE080F800C023E0662404709A
:1038F00023E0012B05D0032B06D00BBB80F800C0C2
:103900000DE07224047015E06624047018E0154B75
:1039100073221D600F4B5A5509B0BDE8F08F013A74
:1039200000240135029E013046F82510039E46F81A
:10393000252045E701320124F3E701390224F0E7AD
:1039400001310324EDE700BFF46C0008941A002055
:103950009C1300206020002038130020C8000020A5
:1039600054010020840100200122034B1A66034BFE
:103970001A68034B1A607047841F0020A0110020B2
:1039800048010020044B1A68044B1A60044B1A6863
:10399000044B1A60704700BF38010020EC00002083
:1039A00014000020F00000200023114AF0B413603E
:1039B000104B114D1B68114E114F002B13DD55F8A4
:1039C000231056F8234001EB8100204457F82000D3
:1039D00038B90C4B19600C4B1C600123F0BC136010
:1039E0007047013BE9E70948F0BCFFF76BBB00BF3C
:1039F000B011002084010020941A00209C130020A4
:103A0000841F0020F4120020F81200206E700008BD
:103A100010B51A4C01224FF480612046FDF7D2FB0D
:103A2000204601224FF40061FDF7CCFB2046012225
:103A30004FF48051FDF7C6FB0122A4F580641048C5
:103A40001146FDF7BFFB204601224FF48071FDF7C0
:103A5000B9FB204601224FF40071FDF7B3FB04F5DA
:103A60004064012220461146FDF7ACFB20460122AE
:103A70000221BDE81040FDF7A5BB00BF00080240D1
:103A8000000C024010B51A4C00224FF48061204611
:103A9000FDF798FB204600224FF40061FDF792FBF2
:103AA00020460022A4F580644FF48051FDF78AFB84
:103AB000002201210F48FDF785FB204600224FF42C
:103AC0008071FDF77FFB204604F5406400224FF42F
:103AD0000071FDF777FB204600220121FDF772FB04
:103AE000204600220221BDE81040FDF76BBB00BF5D
:103AF00000080240000C0240184B194A1B6812686B
:103B000003EB83011748F0B51144174C06680020F9
:103B100054F82110A646154F032E0AD8DFE806F008
:103B200002040608013A04E0013202E0013B00E031
:103B30000133002A11DB042B0FD803EB8305154456
:103B400057F82540012C08D15EF8255001398D42E7
:103B500003D1013029461028DED1F0BD3801002004
:103B600014000020A011002038130020841F002022
:103B70002DE9F043DFF8989187B04FF00008574ED9
:103B8000574D01ACC9F800800FCD0FC42B6801AAB6
:103B9000544D2360544B55491C6864B92B689800F8
:103BA0000144095D012918D00344611C0B4456F8F7
:103BB0002330039311E02868631E4FEA800E01EB67
:103BC0000E0C1CF803C0BCF1010F1FBF70441B1882
:103BD00056F823300293032CE0D92D6844496DB97F
:103BE00005EB85030B441B5D012B14D06B1C03EB11
:103BF0008303234456F8233005930CE06B1E03EB3C
:103C00008303C818005D01281EBF1B1956F8233016
:103C10000493032DE4D90120002106AB52F8207053
:103C200003EB810E5EF8143C9F42B8BF01460130A1
:103C30000528F2D105EB850306AA234402EB810295
:103C400056F8233052F8142C9A4207D3294B0022FD
:103C50001968294B1868FFF7F7FB91E7274B1B689A
:103C6000032B18D8DFE803F00207110C02390229F0
:103C700011D8234B0DE0013903290CD8214B08E062
:103C80000139022907D8204B03E00139032902D862
:103C90001E4B5856F0B91E4EFFF72EFF3060C8B1CC
:103CA00023462A461B491C4802F0D6FB1A48FFF758
:103CB00009FA32681949184802F0CEFB1648FFF796
:103CC00001FA326840F2AD2306205343144A1360D0
:103CD000144A136007B0BDE8F08300BF381300201A
:103CE000E06C00083801002014000020C80000200B
:103CF00054010020B409002090010020A0110020F0
:103D0000206D0008236D00081D6D0008276D000858
:103D1000B8000020A470000814190020D370000817
:103D2000DC0000200C010020202870B540F0FB8052
:103D30007D4D2B68042B00F2F680DFE813F00500C0
:103D4000350064009400C5000126784B0024022150
:103D50001E60774B224677481E60774B1C60774B7E
:103D60001C60774B1C60FDF72DFA324631467148D6
:103D7000FDF728FA22464FF400717248FDF722FA47
:103D800022464FF480716F48FDF71CFA22464FF42B
:103D900080516D48FDF716FA22464FF400616A48DB
:103DA000FDF710FA2E6070BD0024614B02216148BE
:103DB0001C6022465D4B1C605F4B1C605F4B1C60AF
:103DC0005F4B1C60FDF7FEF9224601215948FDF7C3
:103DD000F9F901224FF400715A48FDF7F3F9224630
:103DE0004FF480715748FDF7EDF922464FF48051AA
:103DF0005548FDF7E7F922464FF400615248FDF7B8
:103E0000E1F902235EE00024484B012602211C60F8
:103E10002246474B47481E60474B1E60474B1C607D
:103E2000474B1C60FDF7CEF9224631464148FDF76D
:103E3000C9F922464FF400714248FDF7C3F93246F2
:103E40004FF480713F48FDF7BDF922464FF4805191
:103E50003D48FDF7B7F922464FF400613A48FDF7B7
:103E6000B1F903232EE00024304B012602211C600F
:103E700022462F4B2F481E602F4B1C602F4B1E607D
:103E80002F4B1C60FDF79EF9224631462948FDF76D
:103E900099F922464FF400712A48FDF793F922461A
:103EA0004FF480712748FDF78DF932464FF4805169
:103EB0002548FDF787F922464FF400612248FDF7B7
:103EC00081F904232B6070BD0024184B01260221C8
:103ED0001C602246164B17481E60174B1C60174B80
:103EE0001C60174B1E60FDF76DF9224631461148E4
:103EF000FDF768F922464FF400711248FDF762F9A8
:103F000022464FF480710F48FDF75CF922464FF4CA
:103F100080510D48FDF756F932464FF400610A48CA
:103F2000FDF750F92C6070BD1801002080010020C1
:103F300018000020001002409C010020A001002079
:103F4000A401002000040240000802407047000065
:103F5000054C08B522680549054802F07DFA044879
:103F6000FFF7B0F8F6E700BFA0090020E6700008F0
:103F7000141900202DE9F0474F480224FFF7A2F85A
:103F8000FCF71CFF00214D480522012380E81E009C
:103F90004B49FCF7DDFF78B14A48FFF793F8FFF78C
:103FA00037FD4FF47A70FCF7E3F9FFF76BFD4FF440
:103FB0007A70FCF7DDF9EFE7434C0546434BDFF839
:103FC000248126462360002708EB07032168002090
:103FD0005A5D0023FCF73CFFA8B93368013704336E
:103FE000042F3360F0D113E02B6801370433052F21
:103FF0002B6018D018F80720002321680020FCF758
:1040000027FF0028F0D04522314B1A60FFF7A0FFB0
:104010000435142DD7D10646DFF8CC902A4D002761
:1040200009EB0608E6E70536142EF8D10546DFF859
:10403000BCA0DFF89480002605EB0A09002359F89C
:10404000262021680220FCF703FF1F4F03460028AB
:10405000D9D1D8F8001001360431052EC8F8001067
:10406000ECD11435642DE6D11A4A02201268FCF70F
:10407000EFFE10B93B6804333B60174B0220216808
:104080001A680023104DFCF7E3FE10B92B680433C7
:104090002B60124B022021681A680B4DD317FCF7D6
:1040A000D7FE10B92B6804332B600D48FFF70AF8D0
:1040B000BDE8F047FCF794BEF070000890110020B6
:1040C0000001002012710008E00000200000040838
:1040D000A0090020EC000020F00000204801002092
:1040E00001700008C800002054010020841F002037
:1040F00008B50022054B06491A6010220548FCF756
:10410000EFF908B1FFF724FF08BD00BF6C010020E4
:10411000441F0020DC1900202DE9F8430D461F46FE
:10412000164622BBFFF7E4FF5C4A1368DFF86C9188
:10413000002BFAD05A4C012210215A48D4F80080A2
:10414000FDF740F8FFF7D4FFD9F80030002BFBD083
:104150002468002210215348FDF734F8C8EB04040A
:10416000514B1C602FB1FFF7C3FF4C4A3DE0002BC1
:1041700054D1FFF7BDFF494A1368484F002BFBD0CD
:104180004A4C012204214748D4F80080FDF71AF870
:10419000FFF7AEFF3B68002BFCD02468002204210F
:1041A0004048FDF70FF8C8EB0404414B1C60FFF7D3
:1041B0009FFF3B68002BFCD03E4C01220821394870
:1041C000D4F80080FCF7FEFFFFF792FF3B68002B5E
:1041D000FCD02468002208213248FCF7F3FFC8EB2A
:1041E0000404354B1C60CEB9BDE713682B4F002B80
:1041F000FBD0324C012202212A482668FCF7E2FF5C
:10420000FFF776FF3B68002BFCD0246800220221D8
:104210002448FCF7D7FFA41B294B1C60012D3BD180
:1042200028484FF4FA74244A0368116803F1640CB7
:10423000DFF8A0E01E4A4EF82310234F12689CFBC3
:10424000F4F604FB16C447F823205EF8246057F800
:1042500024400A2E09DD891B40F2E2460029B8BF3E
:104260004942B142C4BF19490D600A2C0ADD121B34
:1042700040F2E241002AB8BF52428A42C2BF012145
:10428000134A116001334FF4FA7193FBF1F201FB11
:1042900012330360BDE8F883BDE8F8836C010020A9
:1042A000A4000020000C0240AC000020F800002018
:1042B000A8000020100100204401002094010020EB
:1042C000B4000020A4110020C0090020AC09002087
:1042D000C4000020A801002008B506281DD8DFE88A
:1042E00000F00407160B1C1C110000231A4601E005
:1042F0000023012219460DE0124B1B685A6A124B2B
:104300001A600AE00F4B1B685A6A0F4B1A600122B1
:10431000002311461846FFF7FFFE0C4B0C491B68A3
:104320005A6A0C4B1A600C4B1B685B6A0B600B499A
:104330000968521A0A490A600A4A12689B1A0A4A0C
:10434000136008BDFC120020AC120020E81F002002
:104350004C01002084090020B4120020B01200207B
:10436000BC00002044120020140100202DE9F04779
:104370008B4D8C4C2B68226803EB830313448A4AD1
:1043800052F82330012B00F008814FF00508DFF8C8
:104390003892DFF838A20023844F854E1A4619461A
:1043A0001846FFF7B9FED9F80020DAF80030B8F166
:1043B000010839681A447F4B7F481B68006803EB8B
:1043C000010C3168DFF808E201447C48DEF800E0C7
:1043D0000368C9F800209E44C7F800C03160C0F8E7
:1043E00000E0D8D1052092FBF0F29CFBF0F391FBAA
:1043F000F0F19EFBF0F0DFF8DCE1DEF800E0BEF16A
:10440000030F00F2C380DFE80EF0022F5F902468F4
:10441000A4B1B2F5FA7F02DAB3F5FA7F0EDBD31A54
:1044200040F2067203F28333934207D82A68644B42
:1044300003EB82030122234403F8012C2B68032B96
:1044400005D9B1F5617FC0F2A180013B35E0B0F53F
:10445000617F05DB5B4803EB8302024401201055BA
:10446000002B00F09380ECE72468032C12D8B2F5FF
:10447000FA7F02DAB3F5FA7F0CDBD31A40F2067248
:1044800003F28333934205D82A684D4B03EB820332
:1044900001221A552B681BB9B1F5617F0DDA75E061
:1044A000B0F5617F06DB5A1E464802EB82020244E9
:1044B00001201055032B69D8EEE7424A03EB830332
:1044C000134401221A5561E02D68B5B1B2F5FA7FA7
:1044D00002DAB3F5FA7F10DBD31A40F2067203F268
:1044E0008333934209D86B1E364A4FF0010E03EB1B
:1044F00083031344226803F802E0226842B9B1F54D
:10450000617F43DB2E4B03EB85050123AB543DE07C
:10451000B0F5617F06DB2A4B012003EB85031344D2
:1045200003F8010C032A31D8E9E72D68032D15D8CB
:10453000B2F5FA7F02DAB3F5FA7F0FDBD31A40F255
:10454000067203F28333934208D81E4A05EB8503B3
:104550004FF0010E1344226803F802E02368032B96
:104560000AD9B1F5617F11DB154A02EB85050122FD
:104570002B4403F8012C09E0B0F5617FA1BF104A7C
:10458000012002EB8502D054002BEAD100230E4A11
:1045900013600A4A3B6033601360BDE8F08700BFD8
:1045A0003801002014000020841F0020C0000020DB
:1045B00004010020B4000020440100202801002054
:1045C000C800002054010020E4000020AC000020BE
:1045D000A8000020A01100200A4B1B68012B10B579
:1045E000094C02D10323236010BD084B1B68062B26
:1045F00001D0FFF7BBFEFFF7BBFA2060BDE810401B
:10460000FFF712B870010020BC0900209C090020AF
:1046100008B50122044B05481A60FBF7E1FF08B119
:10462000FFF796FC08BD00BF6C010020DC190020DC
:1046300008B5FFF7EDFF074B074A196B1160596B7F
:10464000064A1160996B064A1160DA6B054B1A60D5
:1046500008BD00BF441F0020A4000020100100205E
:10466000F80000209401002000284FF000024FF0D5
:104670006003B8BF404210B50C46B8BFB1FA81F430
:1046800088B0B8BF640901A90193012C0392059277
:1046900004BFC0F52670013002900848FEF796F876
:1046A000014608B1FFF754FC0448FEF725F8022143
:1046B000E2B20348FCF786FD08B010BD30210020AF
:1046C0000000024000284FF060034FF00802B8BF1E
:1046D000404210B50C46B8BFB1FA81F488B0B8BFFB
:1046E000640901930023012C01A9039308BFC0F5BD
:1046F0002670059308BF013002900848FEF766F85F
:1047000008B1FFF725FC08210448FDF7F5FF082153
:10471000E2B20348FCF756FD08B010BD302100207E
:104720000000024038B5154B1A68154B1A60154B3E
:104730001A68154B1A60154B1C681D46022C0AD0CE
:10474000062C11D0012C14D121460020FFF78CFF3C
:104750002146C82005E00121C820FFF785FF01217F
:104760000020FFF7AFFF04E0FEF71AFC0848FDF752
:104770006FFC2A68074B1A6038BD00BF840900200F
:10478000B01200204C01002044120020BC0900207F
:10479000FC1200209C09002010B51D4C2368224605
:1047A0008BB91C4B1B68B3F5ED7F30D9FEF70CFCC1
:1047B00001232360184B1A68184B1A60184B1A68AB
:1047C000184B1A6010BD012B0FD1124B1B68B3F5AB
:1047D000997F04D8144B1B68B3F5997F17D902232E
:1047E000BDE810401360FFF7F7BE022B0FD1094B55
:1047F0001B68B3F5CD7F04D20B4B1B68B3F5CD7F9F
:1048000005D30023BDE810401360FFF78BBF10BD38
:104810003C010020BC00002084090020B0120020D0
:104820004C010020441200201401002038B51B4C1C
:10483000236825468BB91A4B1B68B3F5ED7F2CD93D
:10484000FEF7C2FB01232360164B1A68164B1A6051
:10485000164B1A68164B1A6038BD012B0DD1154B3B
:104860001B68B3F5997F04D80D4B1B68B3F5997F8E
:1048700013D9FFF7B1FE02230EE0022B0DD10D4B31
:104880001B68B3F5CD7F04D2054B1B68B3F5CD7F14
:1048900003D3FFF747FF00232B6038BD68010020DA
:1048A0001401002084090020B01200204C010020D7
:1048B00044120020BC00002070B51E4C2368B3F5E4
:1048C0007A6F35DA1C4D2B68B3F57A6F30DA012038
:1048D000FEF7C4FA22682B6818499B1A80EAE07236
:1048E000174CA2EBE072174D082A174AC9BF0F26D2
:1048F00006260E600226DCBF0E600A2609681660D6
:10490000124E126893FBF1F390FBF2F23068012132
:104910002B60184422601044FFF7A6FE2868336815
:1049200001211B1A2068BDE87040181AFFF7CABEA3
:1049300070BD00BFB411002088090020B000002025
:104940008801002074010020980100208C010020C3
:10495000404B2DE9F74F1B683F4AA3F5AB71106838
:10496000814203D93D4A1268914201D8C8221CE015
:104970009908A3F5E473984201D39A4206D2814282
:1049800001D3914206D2FEF74BFA10E0814201D2E8
:1049900091420CD3324B1B68B3F57A7F04DC314B68
:1049A0001B68B3F57A7FE1DD00222F4B1A602F4C94
:1049B0002368B3F57A7F08D200222D490A602D4979
:1049C0000A602D490A602D490A602D490868C51AF8
:1049D000B5F57A7F3ADDDFF8B890DFF8A080D9F836
:1049E0000000D8F80030DFF8ACB0DFF88CA0C01AB7
:1049F000DBF80020DAF800301D4ED31A214A184F98
:104A0000534350433268019193FBF5F33B609B1A8B
:104A10001D4A90FBF5F01360164A124D136828608A
:104A2000C31A1A4800920360FFF746FF0199009AE3
:104A30000B682360DBF80030CAF80030D9F800308A
:104A4000C8F800303B6833602B68136003B0BDE8E2
:104A5000F08F00BFDC0000207C010020A8110020A6
:104A6000B4110020880900208C010020F0120020E1
:104A70007C0900201C010020A8090020B0090020AA
:104A8000AC12002076EC030024010020400100203D
:104A90004C0100208409002038B5094D0020FEF7A4
:104AA000DDF9084C2B68012120601844FFF7DCFD7C
:104AB000286823680121C01ABDE83840FFF702BE0C
:104AC0008C01002088010020F8B500234B4E1A46C7
:104AD00019461846FFF720FB494B1A681C46B2F5E9
:104AE000FA7F03DC3368B3F5FA7F29DD40F64755DA
:104AF00000231A4619461846FFF70EFBFFF7CCFFB6
:104B00003368AB4218DD01210020FFF7ADFD012124
:104B100000203C4DFFF7D6FDC820FBF729FC3A4F9B
:104B2000FEF7F8F9002182202E46FFF79DFD0121B6
:104B30008220FFF7C7FD17E02368AB42D8DDE2E72C
:104B4000314DFEF7E7F92F4C0020FFF7C5FBFFF7CB
:104B5000A3FF2B68C72BD6D82368C72BF4D9D2E77D
:104B60003368B3F5F27F1AD80120FFF7B5FB3C6834
:104B70002B6823440524A3F58033B3FBF4F404F13C
:104B80008603B3F5867FEBD804F182000021FFF79E
:104B90006BFD0121C4F18200FFF794FDE0E70121E4
:104BA0000020FFF761FD01210020FFF78BFDFEF7DC
:104BB000B1F9164B1B68012B1BD16420FBF7D8FB06
:104BC0000021C820FFF750FD0021C820FFF77AFD23
:104BD0000F4B19684FF6BF734A6A9A42FCD1094AD3
:104BE000012100201360FFF73FFD01210020FFF7A6
:104BF00069FD9620BDE8F840FBF7BABBB400002081
:104C0000AC0000204C01002084090020700100202D
:104C1000B412002038B52C4C236833BB2B4B1A68D8
:104C20001D46012A03D1FFF7A1FBFEF7E9FCFFF7C0
:104C30004BFF274B00221968264B1868FEF704FC2F
:104C4000FEF768F9FEF7C0F92B68012B02D10422A8
:104C5000214B23E00121C820FFF706FD0121C820D8
:104C6000FFF730FD0123236038BD012B18D11B4B0A
:104C70001B688B2B03D81A4B1B688B2B22D9022362
:104C80002360FEF775FF174B1860FEF7CDFC164B3F
:104C90001A68164B1A60164B1A68164B1A6038BD04
:104CA000022B0FD10D4B1B68B3F5BE7F04D80C4B04
:104CB0001B68B3F5BE7F05D300232360BDE83840F1
:104CC000FFF730BD38BD00BF780100207001002023
:104CD000B4090020900100209C090020BC000020A5
:104CE00014010020BC09002084090020B01200201B
:104CF0004C0100204412002070B515460446FEF712
:104D000063F90022244B012D244D4FF001011A605C
:104D100040F2AD23286803FB04F4214E08BF04F5DC
:104D2000CD74FFF7A1FC286801211E4DFFF7CAFCD6
:104D3000FEF7F0F80620FFF7CFFAFFF7ADFE336875
:104D40009C4202D92B689C42F4D8174B0024174D83
:104D50001A68174B174E1B681748D11A2960174954
:104D60000A60174A17491360326801F075FB124850
:104D7000FEF7A8F92A6814490F48346001F06CFB6B
:104D80000D48FEF79FF9114B1C60114B1C60BDE8EC
:104D90007040FEF777BE00BF9C0900208C01002008
:104DA000BC00002014010020840900208C09002090
:104DB0004C0100200801002014190020B01200202E
:104DC000441200204D71000886710008E8000020A0
:104DD000900900202DE9F74F6239364C364F0646D0
:104DE000C9B20025BB46CC40142904F0010488BF99
:104DF000012384F0010498BF23460093B5424DDAA5
:104E000001210020FFF730FC0121C820FFF75AFCE8
:104E10000520FFF761FA3B68B3F5F57FF8D3274C1F
:104E20000121DFF8B0A0C8202268DFF8AC90CAF8F2
:104E30000020DFF8A880D9F80020C8F80020FFF78C
:104E400013FC0121C820FFF73DFC009B4BB9012E4C
:104E500001DD002D05DD0122194B1A6003B0BDE80C
:104E6000F08F184901200191FFF736FAFFF714FE81
:104E700001990A68B2F5CD7F04D2DBF80020B2F5C3
:104E8000CD7FEFD3236800210F4A0135CAF80030E7
:104E9000D9F800301160C8F80030AFE70A4B0B4971
:104EA0001A680B4801F0D8FA094803B0BDE8F04F82
:104EB000FEF708B9EFFB1000140100208409002060
:104EC000E8000020BC0000208C090020867100084A
:104ED00014190020B01200204C01002044120020C0
:104EE0002DE9F74F6239364C364F0646C9B20025D8
:104EF000BB46CC40142904F0010488BF012384F090
:104F0000010498BF23460093B5424DDA0121C82021
:104F1000FFF7AAFB01210020FFF7D4FB0520FFF7D4
:104F2000DBF93B68B3F5F57FF8D3274C0121DFF8B7
:104F3000B0A0C8202268DFF8AC90CAF80020DFF8E3
:104F4000A880D9F80020C8F80020FFF78DFB0121C8
:104F5000C820FFF7B7FB009B4BB9012E01DD002DE8
:104F600005DD0122194B1A6003B0BDE8F08F184926
:104F700001200191FFF7B0F9FFF78EFDDBF800206B
:104F8000B2F5CD7F04D201990A68B2F5CD7FEFD397
:104F9000236800210F4A0135CAF80030D9F80030E3
:104FA0001160C8F80030AFE70A4B0B491A680B488C
:104FB00001F052FA094803B0BDE8F04FFEF782B89D
:104FC000EFFB1000BC00002084090020E800002056
:104FD000140100208C09002086710008141900209B
:104FE000B01200204C0100204412002038B50121ED
:104FF0000020FFF739FB012100200C4CFFF762FB7A
:105000000B4DFDF787FFFDF7DFFF0A4B00220A4932
:1050100028461A60226801F01FFA2846FEF752F867
:10502000FEF730FD0123236038BD00BF18000020CB
:105030001419002020010020AC710008F8B5344B91
:105040001A68012A1A460ED1324B334A1B6812687D
:105050009B1A324A1360324B324A1B6812689B1A01
:10506000314A1360F8BD314B1B68002B4FD1304BD8
:10507000304F1C681E46012C02D03B68012B46D1E4
:10508000244B3D681968244B012D1960244B196885
:10509000244B19604FF0010313604FF000031F4AC7
:1050A0001360214A13600ED12A4602212248FCF7E0
:1050B00089F82A4629462048FCF784F82A464FF406
:1050C00000711E4811E0012C17D122464FF4806177
:1050D0001B48FCF777F822464FF400611848FCF7AC
:1050E00071F822464FF480511548FCF76BF84FF4E5
:1050F000A573144A1360144A1360002333603B60A5
:10510000124B1B68012B02D1FFF770FFFEE7F8BDC1
:10511000900900208409002078090020FC0000206C
:105120004C010020B809002094090020A0000020B4
:10513000C4000020AC09002000100240000402401E
:105140000008024050010020A40900202001002096
:105150002DE9F84F354FDFF8FC80D7F800E0D8F89C
:105160000000334D334EC0EB0E03DFF8ECA029688E
:105170003268CAF80030DFF8E4908B1A2E4CC9F878
:10518000003023685BB9B0EB9E0F02D2B2EB910FF7
:1051900049D301232360BDE8F84FFFF71DBA012B67
:1051A00041D1FFF74BFF254BDFF89CB01B68012B6B
:1051B0001AD1234B1B68B3F5A57F04D2214B1B6882
:1051C000B3F5A57F10D3DAF80030B3F52B7F04D9FF
:1051D000D9F80030B3F52B7F03D80123CBF800308A
:1051E0000BE0FDF7F1FE08E0D8F800203B689A429A
:1051F000F3D232682B689A42EFD2DBF80030012BF1
:1052000011D10023104A23601360FDF7DDFEFEF785
:1052100039FC0E48FCF729FF0D4BC8221A60BDE887
:10522000F84FFFF77FBABDE8F88F00BFDC00002021
:105230000C01002014010020A00000209009002093
:10524000FC000020940900202C010020FC1200200A
:105250008C010020BC0000207C010020A81100204F
:1052600008B5FFF7EBFE2A4B1B68012B294B1A6888
:105270002DD1BAB9284A29491268096802EB4202BD
:10528000B1EB920F08D2264A26491268096802EB50
:105290004202B1EB920F3AD301221A60BDE80840F6
:1052A000FFF79AB9012A32D11C4A11681A4A1268CA
:1052B000914205D21B4A1168194A1268914226D3BD
:1052C00000221A60FDF780FEFEF7DCFB1BE052B9FE
:1052D000154A1268B2F5F07FDED2144A1268B2F5B0
:1052E000F07F14D3D8E7012A11D10F4A1268B2F522
:1052F0002B7F04D80D4A1268B2F52B7F07D9002204
:105300001A60FDF761FEBDE80840FFF70BBA08BD63
:1053100090090020A000002050010020FC00002087
:10532000A409002094090020BC00002014010020E2
:105330002DE9F047524B4FF000084FF00109DFF81C
:1053400058A1504D0646C3F800804A46CAF800905E
:105350004946C5F8008007784B4816F8014FFBF71F
:1053600031FF424649464948FBF72CFF42464FF47D
:1053700080714748FBF726FF42464FF400714448CE
:10538000FBF720FF424602214048FBF71BFFFDF7D9
:105390001BFEFDF7BFFD3F48FCF75AFE4FF47A7045
:1053A000FAF7E6FF732F64D0623F142F59D8DFE875
:1053B00007F01B1F2327582F33373B3F0B43474B27
:1053C0004F530E5811162B002146012004E02146B0
:1053D000012006E021460220FFF7FCFC41E02146C7
:1053E0000220FFF77DFD3CE02A682146012036E0DF
:1053F0002A682146022032E02A68214603202EE056
:105400002A68214604202AE02A682146052026E051
:105410002A682146062022E02A68214607201EE04D
:105420002A68214608201AE02A682146092016E049
:105430002A6821460A2012E02A6821460B200EE045
:105440002A6821460C200AE02A6821460D2006E041
:105450002A6821460E2002E02A6821460F20FFF725
:105460004BFC16F8013F00222746CAF800201C46D4
:1054700098E70848FCF7F9FDBDE8F047FFF7B6BD2F
:105480008C090020E8000020000C024000100240BF
:1054900000040240FC1200200C00002001225048B1
:1054A000F8B511464F4CFBF78DFE002201214E4806
:1054B000FBF788FE00224FF480714C48FBF782FE18
:1054C00000224FF400714948FBF77CFE00220221C4
:1054D0004548FBF777FE4FF47A70FAF749FF444BE3
:1054E0001B6823B9FEF746F8FEF740FF06E0FEF71B
:1054F0003FFB404B20601860FDF792FCFDF764FD18
:105500003D4DFDF707FD3D4EFDF77AFD3C4B00227A
:1055100019683C4B1868FDF797FFFEF785F80121E5
:10552000C820FFF7A1F80121C820FFF7CBF8364FBC
:10553000206818B93B6893B9022011E0022801D114
:10554000336802E0012803D12B6843B9052007E046
:10555000062804D1FEF7C0FEFFF7FAF902E00120A9
:10556000FEF7BAFE23684BB13268002A06DC2A68CF
:10557000002A03DC254A1268002A02DDFFF78CFAB4
:1055800009E0042B03D0224B1B68012B03D1BDE89B
:10559000F840FFF72BBD2368062BC9D801A252F8AB
:1055A00023F000BFC7550008D3550008CD550008AB
:1055B000D95500083155000831550008C15500087B
:1055C000FFF7C6FDB3E7FFF74BFEB0E7FFF7E4F8E0
:1055D000ADE7FFF72BF9AAE7FFF71CFBA7E700BF32
:1055E000000C02409C090020001002400004024010
:1055F000AC110020BC090020680100203C01002003
:10560000B4090020900100209009002078010020BA
:1056100018000020F8B5264B1A681D460AB9FDF798
:10562000A9FF244CFEF7AEF8234EFEF7BDF927463E
:105630003368CBB100232360FFF730FFFEF794F906
:10564000FEF7A0F9FEF796FC1C4B1B68012B08BF68
:105650002B6001233B60FFF721FFFEF78BFCFEF779
:1056600091F8FEF7A1F9E3E7FEF7D2F9144B012216
:105670001C461A606420FAF77BFE2368012BF9D0E0
:1056800000230C4D01242B60FFF708FF2C60FFF76F
:1056900005FFFEF7BDF94FF4FA70FAF769FEFEF761
:1056A000F1F9224602210748BDE8F840FBF78ABD20
:1056B000AC11002090010020B011002070010020EA
:1056C00018000020001002402DE9F04FBDB06E24FC
:1056D000FDF720FC404809AEFCF7BAFC0121C820C8
:1056E0003746FEF7C1FF0121C820FEF7EBFF01217D
:1056F0002046FEF7B9FF002501212046DFF8EC80A7
:10570000FEF7E0FF0520FAF733FE0A2D33D0032021
:10571000FEF7E2FD314BD8F80010D3F800A044F6B4
:105720002063C1EB0A019942EFD92D4BDFF8CCC0C1
:10573000D3F80090DFF8C8B02A4BDCF80020D3F88B
:1057400000E0DBF80000C2EB0902274BC0EB0E00C3
:10575000CCF800905A435843244BCBF800E0C3F8F0
:1057600000A0B2FBF1F2B0FBF1F10A4452104DF887
:1057700025200135C9E757F8043F00225DF82210C3
:1057800001320A2A0B44F9D193FBF2F33B60002368
:105790001A464DF8232001330A2BFAD10A3440F27D
:1057A00062239C42A3D16E25FFF720FC1048FDF731
:1057B00089FC2A4656F8043F0E490A350E4800F087
:1057C0004BFE0D48FDF77EFCA542F2D102483DB0EC
:1057D000BDE8F04FFCF749BCFC120020AC120020E1
:1057E000840900204C01002076EC0300F012002018
:1057F000CC710008F371000814190020A8090020DA
:10580000B00900202DE9F84FFDF784FB4148FCF773
:105810001FFC02250121C82000243F4EDFF814811F
:10582000FEF722FF0121C820FEF74CFF0620FEF7FD
:1058300053FDFFF731F9D6F800E040F6B422964563
:1058400003D8364B1B6893422FD9DFF8ECC00023F6
:105850003348DCF800200168DFF8E0A0DFF8E090D2
:105860005AF823703A4459F8237001333944B3F598
:10587000FA7FF5D192FBF3F291FBF3F32949036030
:105880002948CCF8002000F0E7FD2748FDF71AFC76
:10589000FFF71AF9FDF73EFB013DC7D1FFF7A6FB65
:1058A0001C48BDE8F84FFCF7E0BBDFF898B0D8F82B
:1058B0000010DBF80020891AB1F57A7FB6D90A2CDE
:1058C000DFF88490DFF884A015DDD9F800200024EB
:1058D00016489B1ADAF80020C2EB0E0243434243FB
:1058E0001148B3FBF1F3B2FBF1F2114900F0B4FD42
:1058F0000D48FDF7E7FB0F4B01341B68CBF8003078
:10590000054B1B68CAF80030044B1B68C9F800300F
:105910008CE700BFFC120020840900204C0100200D
:10592000F4000020077200081419002076EC030030
:1059300043720008AC12002098090020A801002042
:10594000C0090020F0120020B0090020A8090020A2
:105950002D4B1A6C42F0805210B51A64B4B01B6C17
:10596000022407A803F080530093009B274B1A687A
:1059700042F440421A601B68079403F440430D94BC
:1059800011940193019B012312940A9310230B930A
:1059900000230E9308230F93D8231093FBF75AFC90
:1059A00008B1FEF7D5FAFBF71DFC0028F9D10F234B
:1059B0000490072102A802934FF4A0530394059387
:1059C0004FF480530693FBF71FFE0028E9D14023D4
:1059D000249013A81393FBF7F7FE04460028E0D1A8
:1059E000FBF7BCFE4FF47A73B0FBF3F0FAF75EFFFF
:1059F0000420FAF771FF224621464FF0FF30FAF7F4
:105A000011FF34B010BD00BF0038024000700040EC
:105A100080B5ACB00024FAF791FC0126FFF798FF9F
:105A20006E4B02216E481A6B4FF002094FF00308CB
:105A30006C4D42F001024FF480371A631A6B02F08A
:105A400001020092009A1A6B42F004021A631A6B68
:105A500002F004020192019A1A6B42F002021A63E8
:105A60001A6B02F002020292029A1A6B42F01002C2
:105A70001A631A6B02F010020392039A1A6B42F037
:105A800008021A6300221B6B03F008030493049BB3
:105A9000FBF798FB002208215148FBF793FB0122FA
:105AA00002215148FBF78EFB012202214E48FBF7F1
:105AB00089FB002201214C48FBF784FB00224FF4B4
:105AC00000714A48FBF77EFB00224FF48071474883
:105AD000FBF778FB002201214548FBF773FB00220E
