:020000040800F2
:1000000000000520C10200086D6200086F62000850
:100010007162000873620008756200080000000049
:1000200000000000000000000000000077620008EF
:1000300079620008000000007B6200087D62000811
:100040001103000811030008110300081103000840
:100050001103000811030008110300081103000830
:100060001103000811030008110300081103000820
:100070001103000811030008110300081103000810
:100080001103000811030008110300081103000800
:10009000110300081103000811030008936200080F
:1000A000110300081103000811030008B1620008E1
:1000B0001103000811030008BD62000811030008C5
:1000C000110300081103000811030008A5620008CD
:1000D00011030008110300081103000811030008B0
:1000E0008B620008110300081103000811030008C7
:1000F0001103000811030008110300081103000890
:10010000110300081103000811030008110300087F
:10011000110300081103000811030008110300086F
:100120009962000811030008110300081103000878
:10013000110300081103000811030008110300084F
:10014000110300081103000811030008110300083F
:10015000110300081103000811030008110300082F
:10016000110300081103000811030008110300081F
:10017000110300081103000811030008000000002B
:1001800011030008110300081103000811030008FF
:1001900011030008110300081103000811030008EF
:1001A00011030008110300081103000811030008DF
:1001B00011030008110300081103000811030008CF
:0801C0001103000811030008FF
:1001D00010B5054C237833B9044B13B10448AFF381
:1001E00000800123237010BD80000020000000006B
:1001F000E06B000808B5034B1BB103490348AFF39C
:10020000008008BD0000000084000020E06B0008B2
:10021000034613F8012B002AFBD1181A0138704746
:1002200001F0FF01102A2BDB10F0070F08D010F8A7
:10023000013B013A8B422DD010F0070F42B3F6D1AB
:10024000F0B441EA012141EA014122F007047FF0C4
:1002500000070023F0E80256083C85EA010586EA1B
:10026000010685FA47F5A3FA87F586FA47F6A5FA57
:1002700087F68EB9EED1F0BC01F0FF0102F0070263
:1002800032B110F8013B013A83EA010313B1F8D10E
:100290000020704701387047002D06BF35460338EF
:1002A000073815F0010F07D1013015F4807F02BF28
:1002B000013015F4C03F0130F0BC0138704700BF79
:1002C000DFF834D0002103E00C4B5B58435004317D
:1002D0000B480C4B42189A42F6D30B4A02E000231B
:1002E00042F8043B094B9A42F9D305F0EDFF06F0C2
:1002F00011F805F00DFB704700000520DC720008C6
:1003000000000020800000208000002064210020E8
:10031000FEE70000084B10B5044618684FF47A73E6
:10032000B0FBF3F000F0C2FA002221464FF0FF309C
:1003300000F078FA002010BD1800002008B5032056
:1003400000F05EFA0020FFF7E5FF05F0E7FD002072
:1003500008BD0000024A136801331360704700BFF4
:10036000D0110020014B1868704700BFD011002049
:1003700013B50190FFF7F6FF0446FFF7F3FF019B6B
:10038000001B9842F9D302B010BD000010B504461E
:10039000002800F09E80036C23B9436480F83C3051
:1003A00005F0ECFD236CDB0600F18E80236C23F45A
:1003B000885323F0020343F002032364464B5A6838
:1003C00022F440325A60596862680A435A602368CE
:1003D00021695A68A06A22F480725A605A6842EA17
:1003E00001225A605A6822F040725A60A268596825
:1003F0000A435A609A6822F400629A60E268996837
:100400000A439A60354A90420ED0996821F0706193
:1004100099609A6802439A609A6822F040529A6002
:10042000E26A99680A4306E09A6822F070629A606C
:100430009A6822F040529A609A68A16922F00202FA
:100440009A609A6842EA41029A60226A9AB15A68AE
:1004500042F400625A605A6822F460425A604FF4D3
:10046000604292FAA2F2B2FA82F1626A5868013AE4
:100470008A40024302E05A6822F400625A60002077
:10048000DA6A22F47002DA62E269D96A013A41EA70
:100490000252216BDA629A6822F400729A609A68BA
:1004A00042EA412261699A609A6822F480629A6005
:1004B0009A6842EA81229A606064236C23F0030305
:1004C00043F00103236400E00120002384F83C3062
:1004D00010BD012010BD00BF002301400100000F2E
:1004E00037B5134600220446019290F83C20012AB9
:1004F00064D00122056880F83C20AA68D20703D5A1
:10050000AA68D00713D44EE0AA6842F00102AA609C
:100510002C4A10682C4AB0FBF2F000EB400001902E
:10052000019A002AECD0019A013A0192F8E7206C76
:1005300020F4E06020F0010040F4807020646A68DC
:10054000520505D5206C20F4405040F480502064C2
:10055000226C12F4805202D0626C22F006026264B5
:100560000022A06B84F83C20184AC263184A026437
:10057000184AC2646FF022022A606A6842F0806200
:100580006A60AA6842F48072AA600A4605F14C01CA
:1005900000F040FA104B5B6813F01F0F236804D083
:1005A0000E4A934201D0002009E0986810F04050B4
:1005B000F9D19A6842F080429A6000E0022003B0CC
:1005C00030BD00BF1800002040420F003B0600086D
:1005D0009D060008A90600080023014000200140F4
:1005E00090F83C30012B10B5044624D0012380F84C
:1005F0003C3003689A6822F001029A609A68D20738
:1006000014D49A68806B22F480729A6000F041FAE8
:100610002268536823F080635360236C23F488536B
:1006200023F0010343F00103236400E000200023D2
:1006300084F83C3010BD022010BD836B1A6C12F0A0
:10064000500F10B524D11A6C42F400721A641A6863
:10065000916811F0405F17D19969A9B9D16A11F475
:10066000700F02D0916849050ED4516821F0200125
:1006700051601A6C22F480721A641A6CD20403D48A
:100680001A6C42F001021A64184604F0D5F810BD45
:100690009B6BBDE81040DB6C1847704708B5806B5A
:1006A000FFF7FBFF08BD704708B5806B402303646C
:1006B000436C43F004034364FFF7F5FF08BD0000FB
:1006C0000023F7B5019390F83C30012B70D00D68F2
:1006D00001230468092D80F83C30AEB28F6817D929
:1006E00006EB4602D4F80CE0A2F11E0307229A4062
:1006F0002EEA0202E2603D4A954203D1E36843EAF2
:10070000076303E0E26807FA03F31343E3600EE0D4
:1007100005EB45034FF0070E22690EFA03FE07FAB8
:1007200003F322EA0E0222612269134323614B681C
:10073000062B4FEA83020DD81344676B591F1F2302
:100740008B4006FA01F127EA03036363626B1143EE
:1007500061631DE00C2B0ED81344216BA3F123021F
:100760001F23934006FA02F221EA03032363236B5B
:100770001A4322630CE013441F22E76A413B9A406C
:1007800027EA0202E26206FA03F2E16A0A43E2623F
:10079000174B9C4204D0002380F83C30184623E0DD
:1007A000122D07D1134A536843F480035360F2E7D4
:1007B000022019E00D4B9D4201D0112DEBD10D49C6
:1007C0009D424A6842F400024A60E4D10A4B0B4A57
:1007D0001B68B3FBF2F20A2353430193019B002BE6
:1007E000D9D0019B013BF8E703B0F0BD1200001027
:1007F00000200140002301401800002040420F006B
:10080000074A0002D36800F4E06023F4E0631B04AD
:100810001B0C43F0BF6343F400330343D3607047C2
:1008200000ED00E0194BDB68C3F3022330B5C3F1E0
:1008300007041D1D042C28BF0424062D4FF00105BC
:100840008CBF033B002305FA04F4002804F1FF34B5
:1008500004EA010404FA03F405FA03F303F1FF3395
:1008600002EA030242EA04024FEA021205DA00F049
:100870000F00D2B2064B1A5430BD00F16040D2B224
:1008800000F5614080F8002330BD00BF00ED00E0BE
:1008900014ED00E04209012300F01F0003FA00F00C
:1008A000014B43F82200704700E100E00138B0F14D
:1008B000807F0AD2064BF021064A5860002082F859
:1008C0002310072298601A6070470120704700BF0C
:1008D00010E000E000ED00E0044B04281A680CBFB3
:1008E00042F0040222F004021A60704710E000E0B7
:1008F000704708B5FFF7FCFF08BD0000036818212A
:10090000DAB223F47F73103A23F00303B2FBF1F25F
:100910000449032A895C88BF0433C1658365806DFF
:10092000704700BF1C6C000870B50446FFF71AFD45
:100930000546002C64D00023226884F8343002235A
:1009400084F83530136823F00103136021680B68C5
:10095000D80708D5FFF706FD401B0528F6D9202348
:100960000320636551E00B68294A65681A40A36853
:10097000A0691D43E3681D4323691D4363692B433D
:10098000E56903432B43256A2B431343626A042A18
:1009900001BF256BE66A35432B43042A0B604B6984
:1009A00023F0070343EA02031CD1A26A134320B9D0
:1009B000012A0BD013D3022A10E0B0F5005F0AD150
:1009C000032A0FD8DFE802F01E0B1E02E26AB2F122
:1009D000C07F07D116E0022A14D9032A02D1E26AA5
:1009E000D2010FD44B612046FFF788FFE26D3F2311
:1009F0009340836000200123606584F8353070BD2A
:100A0000012070BD40230120636584F8350070BD6E
:100A10003F8010F070B590F83440012C37D001249D
:100A2000866D002580F8344090F83540012C4FF059
:100A3000020428D180F8354004684565256825F40E
:100A40008025256063608368402B02D1A260E1604D
:100A500001E0A160E260C26D3F239340B360236870
:100A600043F016032360636943F080036361036C02
:100A70001BB1236843F0080323602368002043F080
:100A80000103236070BD80F83450204670BD022001
:100A900070BD70B50446856DFFF764FC064694F89A
:100AA0003530022B06D0802301206365002384F8B3
:100AB000343070BD23681A6822F016021A605A6931
:100AC00022F080025A61226C0AB9A26C1AB11A682B
:100AD00022F008021A601A6822F001021A602368E4
:100AE000186810F001000DD0FFF73CFC801B0528B2
:100AF000F5D9202303206365002384F8350084F8AA
:100B0000343070BDE26D3F239340AB60012384F825
:100B1000340084F8353070BD90F83530022B03D0A6
:100B200080234365012070470268052380F8353033
:100B30000020136823F00103136070470023F7B50A
:100B400001930446594B856D1F680823C26D2E68BA
:100B500093401E420CD001680868400708D5086819
:100B600020F004000860AB60636D43F0010363652F
:100B70004F4B93401E4208D021684969090604D5AD
:100B8000AB60636D43F0020363654A4B93401E42C2
:100B900008D021680968880704D5AB60636D43F00D
:100BA00004036365102303FA02F2164217D0236888
:100BB0001968090713D5AA601A68500304D51B6881
:100BC000190308D5A36C07E01A68D20503D41A6884
:100BD00022F008021A60236C0BB120469847E16DA1
:100BE00020228A4016423BD023681868C60637D5B3
:100BF000AA6094F83520052A1A6819D122F0160245
:100C00001A605A6922F080025A61226C0AB9A26CF9
:100C10001AB11A6822F008021A603F238B40AB60B9
:100C2000002384F83430012384F83530236D37E015
:100C3000500304D51B6819030ED4636C0DE01A68C9
:100C400012F4807208D1196821F010011960012393
:100C500084F8342084F83530E36B0BB12046984794
:100C6000636D03B3636DDA0719D50523226884F831
:100C70003530136823F0010313604FF41653B7FBAC
:100C8000F3F7019B01339F42019302D31368DB0703
:100C9000F7D4002384F83430012384F83530E36C32
:100CA0000BB12046984703B0F0BD00BF18000020EC
:100CB0000100800004008000094910B50C6924F48B
:100CC00040740C610C6944F440740C610C6944F08C
:100CD00001040C61C0E90023BFF34F8F10BD00BFBA
:100CE000003C0240084B1A6922F440721A611A69EA
:100CF00042F400721A611A6942F001021A6101603D
:100D0000BFF34F8F704700BF003C0240084B1A6989
:100D100022F440721A611A6942F480721A611A69E7
:100D200042F001021A610180BFF34F8F704700BF8C
:100D3000003C0240074B1A6922F440721A611A699A
:100D40001A611A6942F001021A610170BFF34F8FF4
:100D5000704700BF003C0240164BDA68920704D58A
:100D600015498A6942F020028A61DB68DB0604D5F6
:100D7000114A936943F0100393610E4BDA689006B1
:100D800004D50D498A6942F008028A61DB68590678
:100D900004D5094A936943F004039361054BDA686B
:100DA000120604D504498A6942F002028A61F222DD
:100DB000DA607047003C0240D4110020064B1A69EB
:100DC000002A06DA054A00205A6002F188325A6089
:100DD00070470120704700BF003C02402301674577
:100DE000034A0020136943F000431361704700BFBA
:100DF000003C02400022144B70B504469A61134D2A
:100E0000FFF7B0FA0646EB68104ADB030AD5621C0E
:100E1000F9D00CB9032070BDFFF7A4FA801B8442FF
:100E2000F1D2F7E7D06810F0F20003D0FFF794FF9B
:100E3000012070BDD36813F0010302D00123D360F9
:100E400070BD184670BD00BFD4110020003C0240A8
:100E50002DE9F0411C4C984607460D46237D164669
:100E6000012B2DD001234CF250302375FFF7C2FF28
:100E700010BB032F17D8DFE807F002070C11F1B2FF
:100E80002846FFF757FF0EE0B1B22846FFF73EFFB6
:100E900009E031462846FFF725FF04E03246434685
:100EA0002846FFF709FF4CF25030FFF7A3FF074A2F
:100EB000136923F00103136100232375BDE8F0815A
:100EC0000220BDE8F08100BFD4110020003C0240A8
:100ED000084B1A6922F440721A611A6942F004023E
:100EE0001A611A6942F4803242EA00201861BFF3A5
:100EF0004F8F7047003C024051B1012906D00229B2
:100F00000CBF4FF400714FF4407101E04FF4807159
:100F10000E4B1A6922F440721A611A691143196161
:100F200078211A6922F0F8021A6191FAA1F11A697E
:100F3000B1FA81F142F002028840104318611A6947
:100F400042F480321A61BFF34F8F7047003C024079
:100F50002DE9F843234E05468846337D012B3ED0CC
:100F600001234CF250303375FFF744FF044688BB31
:100F70004FF0FF33C8F800302B68012B0DD1287BD0
:100F8000FFF7A6FF4CF25030FFF734FF164A044635
:100F9000136923F0040313611CE06F68DFF84890C5
:100FA000AA686B6813449F4214D2297B3846FFF726
:100FB000A3FF4CF25030FFF71DFFD9F8103023F09B
:100FC0007A03C9F8103018B1C8F80070044601E07F
:100FD0000137E5E7002320463375BDE8F88302209A
:100FE000BDE8F883D4110020003C02402DE9F04F09
:100FF0000B6885B06F4E01930023DFF8C0C1B64681
:10100000DFF8BC810122019C9A4032EA040440F0DE
:10101000C9804C6824F01009B9F1020F14D14FEACD
:10102000D30A03F0070B0F2500EB8A0A4FEA8B0B5C
:10103000DAF8207005FA0BF527EA05050F6907FABB
:101040000BF72F43CAF820704FEA430A03250768BD
:1010500004F0030B05FA0AF509F1FF390BFA0AFB54
:10106000ED43B9F1010F07EA05074BEA07070760EF
:1010700012D8876805EA0709CF6807FA0AF747EA2E
:101080000907C4F30019876009FA03F9476827EADA
:10109000020749EA07074760C7683D408F6807FABB
:1010A0000AF73D43C560E5007CD5DCF8445023F0E9
:1010B000030703F0030A4FF00F0945F4804507F1D9
:1010C00080474FEA8A0ACCF8445007F59C37DCF891
:1010D000445005F480450395039D09FA0AF5D7F8B5
:1010E00008B02BEA0509344DA84224D005F58065E7
:1010F000A84222D005F58065A84220D005F580657C
:10110000A8421ED005F58065A8421CD040451CD0E1
:1011100005F50065A8421AD005F58065A84218D0EB
:1011200005F58065A84216D005F58065A84214BF74
:101130000A25092510E000250EE001250CE0022516
:101140000AE0032508E0042506E0052504E006255D
:1011500002E0072500E0082505FA0AF514F4803FAF
:1011600045EA0905BD606FEA020735680CBF3D40DE
:10117000154314F4003FCEF80050DEF804500CBFC5
:101180003D40154314F4801F7560B5680CBF3D40A9
:101190001543A402CEF80850DEF80C5054BF3D4071
:1011A0001543F5600133102B7FF42CAF05B0BDE87B
:1011B000F08F00BF003C01400000024000380240B8
:1011C0000014024002B909048161704708B5044B5C
:1011D0005969014202D0586102F04CFE08BD00BFBF
:1011E000003C0140194B1A6C42F0805273B51A64EE
:1011F0001B6C174C03F0805325460193019B236819
:1012000043F480332360FFF7ADF806466B68104C5B
:10121000DA0307D4FFF7A6F8801BB0F57A7FF5D97B
:10122000032011E0236843F400332360FFF79AF8AA
:10123000054663689B0306D4FFF794F8401BB0F59E
:101240007A7FF6D9ECE7002002B070BD003802408A
:10125000007000400368F7B50446D80703D423683C
:10126000990752D4A5E0964B9A6802F00C02042A22
:1012700007D09A6802F00C02082A0BD15B685A0268
:1012800008D58F4B1B689B03E9D56368002BE6D11B
:10129000012076E163688A4DB3F5803F13D05BB9D6
:1012A0002B6823F480332B602B6823F480232B607E
:1012B000FFF758F8064624E0B3F5A02F2B6806D1B7
:1012C00043F480232B602B6843F4803305E023F440
:1012D00080332B602B6823F480232B60FFF742F8C8
:1012E000774D06462B689F03B9D4FFF73BF8801B68
:1012F0006428F7D9032044E1FFF734F8801B642801
:10130000F8D82B689803F7D4A9E76D4B9A6812F0C8
:101310000C0F07D09A6802F00C02082A17D15B68FC
:10132000590214D4664B1A68920702D5E268012A62
:10133000AED11A68F82191FAA1F12069B1FA81F1D0
:1013400022F0F80200FA01F10A431A6031E0E36882
:101350005B4DF3B12B6843F001032B60FFF702F8FC
:1013600006462B6856489B0705D4FEF7FBFF801BFB
:101370000228F6D9BEE70368F82292FAA2F22169A0
:10138000B2FA82F223F0F80301FA02F21343036087
:101390000FE02B6823F001032B60FEF7E3FF064606
:1013A0002B689F0705D5FEF7DDFF801B0228F7D9C4
:1013B000A0E723681E0703D423685D0749D522E010
:1013C00063693F4D7BB16B6F43F001036B67FEF7C1
:1013D000C9FF06466B6F9807EED4FEF7C3FF801B6C
:1013E0000228F7D986E76B6F23F001036B67FEF7DE
:1013F000B9FF06466B6F9907DED5FEF7B3FF801B7A
:101400000228F7D976E72E4B2E4D1A6C42F0805207
:101410001A641B6C03F080530193019B2B6843F407
:1014200080732B60FEF79EFF06462B68DA0514D505
:10143000A368234D012B16D12B6F43F001032B67BB
:1014400041F28835FEF78EFF1D4E0746336F9B072E
:1014500026D5A269002A37D179E0FEF783FF801BE9
:101460006428E2D946E76BB92B6F41F2883723F045
:1014700001032B672B6F23F004032B67FEF772FF2A
:10148000064619E0052B2B6F03D143F004032B67AD
:10149000D2E723F001032B672B6F23F00403CEE781
:1014A000FEF760FFC01BA842D0D923E7FEF75AFF22
:1014B000801BB8423FF61EAF2B6F9807F6D4C8E7E3
:1014C00000380240007000402F4DAB6803F00C0361
:1014D000082B3FF4DDAE2B68022A23F080732B60CB
:1014E00043D1FEF73FFF07462B68274E990130D4C2
:1014F00047F6C07292FAA2F24FF44033B2FA82F089
:1015000093FAA3F34FF07062B3FA83F592FAA2F262
:10151000E369B2FA82F1276A626A1F43824047F0A8
:10152000005343EA0200A36A5A08013A02FA05F39B
:10153000E26A03438A4013437360336843F0807365
:101540003360FEF70FFF044633689A0107D5002089
:1015500017E0FEF707FFC01B0228C5D9CAE6FEF751
:1015600001FF001B0228EFD9C4E6FEF7FBFE04468C
:101570002B689B01EBD5FEF7F5FE001B0228F7D97F
:10158000B8E603B0F0BD00BF003802401B498B68CD
:1015900003F00C03042B2CD0082B2CD1486847F601
:1015A000C0724B6800F03F0013F4800F4B6892FA52
:1015B000A2F247F6C071B2FA82F201EA030121FAFF
:1015C00002F114BF0E4A0F4AB2FBF0F00B4A00FBC7
:1015D00001F34FF44030526890FAA0F002F4403228
:1015E000B0FA80F022FA00F001304000B3FBF0F0D6
:1015F0007047034870470348704700BF00380240F7
:1016000040787D010024F400504A136803F00F0372
:101610008B422DE9F04104460D460AD32168880724
:1016200014D54B48836823F0F002A368134383600A
:101630000CE0136823F00F030B431360136803F0EF
:101640000F039942EAD00120BDE8F081C90706D412
:101650003E4A136803F00F039D4242D34BE0626899
:101660003B4B012A196802D111F4003F06E0022A1F
:1016700002D111F0007F01E011F0020FE3D0996870
:1016800041F28838324F21F003010A439A60FEF795
:1016900069FE63680646012B0CD1BB6803F00C039E
:1016A000042BD5D0FEF75EFE801B4045F5D9032004
:1016B000BDE8F081022B0FD1BB6803F00C03082BAF
:1016C000C6D0FEF74FFE801B4045F5D9EFE7FEF789
:1016D00049FE801B4045EAD8BB6813F00C0FF6D1D9
:1016E000B6E7136823F00F032B431360136803F06E
:1016F0000F039D42A7D121684A0706D51448836885
:1017000023F4E052E368134383600B0707D5104AC4
:101710002169936823F4604343EAC1039360FFF7B0
:1017200035FF0B4BF0229B6892FAA2F2B2FA82F2DA
:1017300003F0F003D340074AD35CD840064B18604F
:101740000020FEF7E7FD0020BDE8F081003C0240EC
:10175000003802408472000818000020014B18680D
:10176000704700BF18000020084B4FF4E0529B6800
:1017700092FAA2F2B2FA82F203F4E053D340044A9E
:10178000D35C044A1068D840704700BF003802405C
:101790009472000818000020084B4FF460429B68C8
:1017A00092FAA2F2B2FA82F203F46043D340044AFE
:1017B000D35C044A1068D840704700BF003802402C
:1017C000947200081800002003682DE9F74F13F009
:1017D000010604460BD0B64A916821F400019160DD
:1017E000466B91683143B6FA86F67609916013F438
:1017F000002512D0AE49E56BD1F88C20B5F5801FDD
:1018000022F4401208BF012642EA050216BFB5FACB
:1018100085F500256D09C1F88C20D80211D5A448A2
:10182000216CD0F88C20B1F5800F22F4400242EAFE
:101830000102C0F88C2003D0002908BF012500E078
:10184000012613F0807F18BF012699065DD5984BBD
:10185000984F1A6C42F080521A641B6C03F080534C
:101860000193019B3B6843F480733B60FEF77AFD74
:1018700080463B68DA0507D4FEF774FDC8EB00002C
:101880006428F6D9032040E3894F3B6F13F440737B
:101890000FD1226B02F44073B3F5407F844B2BD100
:1018A000996821F4F81022F0704121F4407101434D
:1018B00025E0226B02F440729342EAD03B6F3A6F0C
:1018C00023F4407342F480323A673A6F22F4803254
:1018D0003A673B673B6FDB07DBD5FEF743FD41F221
:1018E000883980463B6F9807D3D4FEF73BFDC8EBA1
:1018F00000004845F6D9C5E7996821F4F8119960C8
:10190000C2F30B02196F0A431A672368D9060CD574
:10191000674AD2F88C1021F08071C2F88C10D2F88E
:101920008C00A16B0143C2F88C105A0408D56048A2
:10193000D0F8902022F44031626E0A43C0F8902023
:101940001F0408D55A48D0F8902022F44021A26EF6
:101950000A43C0F89020D80308D55548D0F8902005
:1019600022F44011E26E0A43C0F89020990308D592
:101970004F48D0F8902022F44001226F0A43C0F86B
:1019800090205A0608D54A48D0F8902022F003014A
:10199000626C0A43C0F890201F0608D54448D0F86E
:1019A000902022F00C01A26C0A43C0F89020D805C8
:1019B00008D53F48D0F8902022F03001E26C0A436D
:1019C000C0F89020990508D53948D0F8902022F029
:1019D000C001226D0A43C0F890205A0508D534484A
:1019E000D0F8902022F44071626D0A43C0F8902034
:1019F0001F0508D52E48D0F8902022F44061A26D32
:101A00000A43C0F89020D80408D52948D0F890207F
:101A100022F44051E26D0A43C0F89020990408D5A1
:101A20002348D0F8902022F44041226E0A43C0F8A7
:101A300090205A0208D51E48D0F8902022F08061EC
:101A4000A26F0A43C0F890209F020CD51848E16F9E
:101A5000D0F89020B1F1006F22F0006208BF01259C
:101A60000A43C0F8902013F0080F18BF012558034F
:101A700008D50F48D0F8902022F04071626F0A43D9
:101A8000C0F89020190209D50948D0F8902022F01A
:101A90008051D4F880200A43C0F89020012E0BD04A
:101AA000B3F1007F08D0012D40F08C8123E100BF0D
:101AB0000038024000700040C84E336823F0806355
:101AC0003360FEF74FFC07463368DFF810E31A0176
:101AD00005D5FEF747FCC01B6428F5D9D2E6276878
:101AE000FB073CD5636BD3BBDEF884004FF4403872
:101AF00098FAA8F94FF07066B9FA89F9DEF88420EF
:101B000096FAA6FC47F6C07ABCFA8CFC9AFAAAFAB6
:101B1000BAFA8AFA98FAA8F8B8FA88F896FAA6F6FD
:101B20004FF0E043B6FA86F693FAA3F3B3FA83FBD9
:101B30006168A36800F4403001FA0AF102F07062B3
:101B400003FA0BF320FA09F022FA0CF20B4300FA25
:101B500008F1194302FA06F30B43CEF884303E0332
:101B600003D5E36BB3F5801F05D0F80249D5236C8C
:101B7000B3F5800F45D1DFF864E24FF44038DEF86A
:101B8000840098FAA8F94FF0E046B9FA89F9DEF82E
:101B9000842096FAA6FC47F6C07BBCFA8CFC9BFA24
:101BA000ABFBBBFA8BFB98FAA8F84FF07063B8FA5E
:101BB00088F893FAA3F3B3FA83FA96FAA6F6636861
:101BC00000F4403002F0E042B6FA86F603FA0BF178
:101BD000E36820FA09F022FA0CF203FA0AF30B4345
:101BE00000FA08F1194302FA06F30B43CEF88430E9
:101BF000DEF88C30626A23F01F03013A1343CEF8FB
:101C00008C30F9013CD5DFF8D4E14FF07068DEF894
:101C1000840098FAA8F94FF0E046B9FA89F9DEF89D
:101C2000842096FAA6FC47F6C07BBCFA8CFC9BFA93
:101C3000ABFB4FF44033BBFA8BFB93FAA3F3B3FA3D
:101C400083FA98FAA8F8B8FA88F896FAA6F66368BC
:101C500000F0706002F0E042B6FA86F603FA0BF18B
:101C6000236920FA09F022FA0CF203FA0AF30B4373
:101C700000FA08F1194302FA06F30B43CEF8843058
:101C8000BA0126D547F6C07E9EFAAEFE4FF440302C
:101C9000BEFA8EFE90FAA0F04FF07062B0FA80F7B4
:101CA00092FAA2F24FF0E043B2FA82F693FAA3F36B
:101CB000B3FA83F120696368E268B84003FA0EF36F
:101CC000B24003431A43A3688B401343434AC2F80C
:101CD0008430424E336843F080633360FEF742FB4A
:101CE000074633681B013FF5DEAEFEF73BFBC01B2A
:101CF0006428F6D9C6E5394D2B6823F080532B6054
:101D0000FEF730FB06462B689F005DD425682E0346
:101D100060D4E80264D4A90200F1AD802A0745D559
:101D20002E4F4FF07065D7F8882095FAA5FC4FF438
:101D30004036BCFA8CFCD7F8880096FAA6F847F62D
:101D4000C079B8FA88F899FAA9F9B9FA89F996FA2E
:101D5000A6F6B6FA86F695FAA5F54FF0E04EB5FA76
:101D600085F59EFAAEFE6369BEFA8EFE00F4403041
:101D700002F0706203FA09F1E36920FA08F022FA2E
:101D80000CF203FA0EFE02FA05F341EA0E0E00FA17
:101D900006F14EEA01010B43C7F88830D7F88C30C2
:101DA00023F44032E36A1343C7F88C300B4C2368AA
:101DB00043F080532360FEF7D5FA054623689B0065
:101DC00040F19C800020A0E0FEF7CCFA801B642844
:101DD00099D957E5E36B33B19BE700BF0038024068
:101DE000236C002B97D14A4F4FF4403CD7F8880022
:101DF0009CFAACF94FF0E046B9FA89F9D7F8882097
:101E000096FAA6FE47F6C07ABEFA8EFE9AFAAAFAAB
:101E1000BAFA8AFA9CFAACFC4FF07068BCFA8CFCF7
:101E200098FAA8F8B8FA88F896FAA6F6A16900F424
:101E30004030636902F0E04201FA08F820FA09F044
:101E400003FA0AF322FA0EF2B6FA86F600FA0CF159
:101E500043EA0803194302FA06F30B43C7F8883034
:101E6000D7F88C30A26A23F4F853013A43EA0223EC
:101E7000C7F88C304FE7E36FB3F1006F7FF44EAFDC
:101E8000234F4FF0706CD7F888009CFAACF94FF0F4
:101E9000E046B9FA89F9D7F8882096FAA6FE47F6FF
:101EA000C07ABEFA8EFE9AFAAAFA4FF44038BAFA0D
:101EB0008AFA98FAA8F8B8FA88F89CFAACFCBCFA46
:101EC0008CFC96FAA6F6216A00F07060636902F055
:101ED000E04201FA08F820FA09F003FA0AF3B6FA28
:101EE00086F600FA0CF122FA0EF243EA08031943CF
:101EF00002FA06F30B43C7F888300FE7FEF732FA11
:101F0000401B64287FF65AAFBCE403B0BDE8F08FF5
:101F100000380240036859689A6830B502F04105FC
:101F200085B00446012D03D14D0601D5C36C05E0F3
:101F3000950705D5080603D5236D2046984756E03A
:101F400012F4B07F53D08D0651D5500616D594F8B3
:101F50005D00002503280AD0206E40F004002066B2
:101F60000095D868009098680090009806E0019568
:101F7000DA6801929B680193019B38E095060CD5C5
:101F8000206E40F0010020660020029098680290C8
:101F9000186820F0400018600298D00508D5226E1D
:101FA00042F008022266002203929A680392039A82
:101FB000226EE2B15A6822F0E0025A60012284F8EF
:101FC0005D208A0710D05A68A06D22F003025A6083
:101FD00018B1084B0365FEF79FFD606D38B1054BE6
:101FE0000365FEF799FD02E0204602F055F805B0C2
:101FF00030BD00BFF91F000808B5806B0023A0F8B2
:102000004630C38702F048F808BD036A10B5046A79
:1020100023F00A0324F0010419430462846924F0C4
:10202000F00444EA02128261016210BD036A23F0E7
:10203000100310B503628469036A24F4704423F02A
:10204000A00344EA023243EA01118261016210BD39
:102050000268022380F83930136843F001031360EB
:10206000012380F8393000207047022341F2111219
:1020700080F839300368196A0A4042B9196A40F297
:1020800044420A401AB91A6822F001021A60012378
:1020900080F8393000207047036851B1042914D109
:1020A0001A6A22F010021A621A6A42F010021A62C8
:1020B0001FE01A6A22F001021A621A6A42F0010253
:1020C0001A62DA6842F0020216E01A6A22F001028D
:1020D0001A621A6A42F001021A621A6A22F01002A7
:1020E0001A621A6A42F010021A62DA6842F00202B8
:1020F000DA60DA6842F00402DA6000201A6842F01E
:1021000001021A6070477047704770477047704708
:1021100003681A69910710B5044614D5DA68920766
:1021200011D56FF002021A6101229B6902769907AC
:1021300002D0FFF7EAFF04E0FFF7E6FF2046FFF7D3
:10214000E5FF0023237623681A69520716D5DA685B
:10215000500713D56FF0040220461A6102229B69D2
:10216000227613F4407F02D0FFF7CFFF04E0FFF7A1
:10217000CBFF2046FFF7CAFF0023237623681A69A6
:10218000110715D5DA68120712D56FF0080220463C
:102190001A610422DB6922769B0702D0FFF7B5FFA4
:1021A00004E0FFF7B1FF2046FFF7B0FF00232376DE
:1021B00023681A69D00616D5DA68D10613D56FF0F0
:1021C000100220461A610822DB69227613F4407F50
:1021D00002D0FFF79AFF04E0FFF796FF2046FFF7D3
:1021E00095FF0023237623681A69D20708D5DA6899
:1021F000D00705D56FF0010220461A61FFF783FF73
:1022000023681A69110608D5DA68120605D56FF039
:10221000800220461A6100F086FB23681A69D00507
:1022200008D5DA68110605D56FF0800220461A61DC
:1022300000F079FB23681A69520608D5DA6850065F
:1022400005D56FF0400220461A61FFF760FF236852
:102250001A6991060AD5DA68920607D56FF020024E
:1022600020461A61BDE8104000F05CBB10BD0000C4
:102270002E4A0368904212D0B0F1804F0FD0A2F5E1
:102280007C4290420BD002F58062904207D002F56A
:102290008062904203D002F57842904218D14A6899
:1022A00023F070031343214A904237D0B0F1804F9E
:1022B00034D01F4A904231D002F5806290422DD036
:1022C00002F58062904229D002F57842904225D0F2
:1022D000184A904222D002F5806290421ED002F548
:1022E000806290421AD0A2F59832904216D002F540
:1022F0008062904212D002F5806290420ED003605C
:102300008B68C3620B688362084B98420BD003F55D
:102310008063984207D001234361704723F44073E0
:10232000CA681343EBE70B690363F4E7000001405D
:10233000000400400040014010B5044680B190F810
:1023400039300BB903F0DAFE02232068211D84F82E
:102350003930FFF78DFF0123002084F8393010BD9C
:10236000012010BD10B50446A0B190F8393003F03B
:10237000FF021BB980F8382003F0D4FE0223206846
:10238000211D84F83930FFF773FF0123002084F802
:10239000393010BD012010BDF8B50C4605460028A7
:1023A00043D090F8393003F0FF021BB980F8382091
:1023B00003F044FE2946022351F8040B85F8393016
:1023C000836823F4803323F007038360FFF750FF13
:1023D00028682368876881691F43A26921F44073D4
:1023E0002169066A23F00303090143EA0222A36874
:1023F0001343E26941EA0221E26823F47C430A4381
:10240000216A23F0FC0342EA01326169134326F09A
:10241000AA0242EA0112616887600A4383610123CC
:102420000262002085F83930F8BD0120F8BD0000B7
:10243000036A23F0010370B50362036A426884698A
:102440000D6824F4803424F073042C4323F0020537
:102450008B682B430C4DA84209D005F58065A84236
:1024600005D042604A6884614263036270BDCD68F2
:1024700023F008034E6922F440722B438D693543E3
:1024800023F004032A43ECE700000140036A23F031
:10249000100330B50362036A4268846923F02003A5
:1024A0000D6824F0807424F4E64444EA05248D6821
:1024B00043EA05130E4DA84209D005F58065A842F0
:1024C00005D042604A6884618263036230BDCD6892
:1024D00023F0800322F4406243EA05134D6942EA87
:1024E00085028D6923F0400342EA8502E9E700BFD7
:1024F00000000140036A23F4807330B50362036A6D
:102500004268C46923F400730D6824F4803424F015
:1025100073042C438D6843EA05230E4DA84209D06D
:1025200005F58065A84205D042604A68C461C2636F
:10253000036230BDCD6823F4006322F4405243EAC5
:1025400005234D6942EA05128D6923F4806342EA4E
:102550000512E9E700000140036A23F4805330B517
:102560000362046A4268C36924F400540D6823F0CE
:10257000807323F4E64343EA05238D6844EA053477
:10258000094DA84209D005F58065A84205D04260F2
:10259000C3614B680364046230BD22F480424D691C
:1025A00042EA8512F3E700BF0000014010B58468DD
:1025B00024F47F4421430A4342EA0323836010BD8D
:1025C00090F83830012B10B504464FF0020000F0AF
:1025D000828084F839000123206884F838308268CA
:1025E0003D4B134083600B68402B57D014D8102B01
:1025F0005FD007D8002B68D1836823F0700343F0C5
:10260000070361E0202B5AD0302B5ED1836823F082
:10261000700343F0370357E0702B25D00ED8502BB2
:1026200030D0602B51D1CA684968FFF7FFFC22689F
:10263000936823F0700343F067032DE0B3F5805FE8
:102640000CD0B3F5005F40D1CB684A688968FFF7CA
:10265000ADFF2268936843F480431DE0836823F450
:10266000803323F007032FE0CB684A688968FFF7BF
:102670009DFF2268936823F4803323F0770343F0AF
:10268000770309E0CA684968FFF7BFFC22689368CE
:1026900023F0700343F05703936016E0CA6849685B
:1026A000FFF7B3FC2268936823F0700343F04703FD
:1026B000F2E7836823F0700343F0170304E08368B4
:1026C00023F0700343F0270383600123002084F884
:1026D000393084F8380010BD8800FEFF01238A409D
:1026E0008B4010B5046A24EA03030362036A42EADA
:1026F0000301016210BD000010B50446012200680C
:10270000FFF7ECFF2368084A934203D002F580628A
:10271000934203D15A6C42F400425A641A68002072
:1027200042F001021A6010BD00000140036A23F468
:10273000803330B50362036A4268446D23F400338A
:102740000D6824F4803424F070042C438D6843EA2F
:102750000543094DA84203D005F58065A84204D180
:1027600022F480324D6942EA052242604A6844659B
:102770008265036230BD00BF00000140036A23F49C
:10278000801330B50362026A4468436D22F400127C
:102790000D6823F0807323F4E04343EA05238D683A
:1027A00042EA0552084DA84203D005F58065A842CB
:1027B00004D124F480244D6944EA852444604365AF
:1027C0004B68C365026230BD0000014038B590F827
:1027D000383004460D460220012B7BD00123082A05
:1027E00084F8390084F838303CD013D84AB3042A2E
:1027F0006AD12068FFF74AFE236829699A6942F482
:1028000000629A619A6922F480629A619A6942EA46
:10281000012225E0102A36D0142A44D00C2A53D1A4
:102820002068FFF799FE23682969DA6942F400629B
:10283000DA61DA6922F48062DA61DA6942EA012255
:102840001FE02068FFF7F4FD23689A6942F0080250
:102850009A619A6922F004029A612A6999690A4385
:102860009A6131E02068FFF745FE2368DA6942F09B
:102870000802DA61DA6922F00402DA612A69D969A8
:102880000A43DA6120E02068FFF750FF23685A6DA1
:1028900042F008025A655A6D22F004025A652A690C
:1028A000596D0A430FE02068FFF768FF2368096944
:1028B0005A6D42F400625A655A6D22F480625A657C
:1028C0005A6D42EA01225A650123002084F839300A
:1028D00084F8380038BD000090F83830012B30B54E
:1028E0001CD002680E4C5368A242956803D004F5D0
:1028F0008064A24203D123F470034C6823430C6824
:1029000023F070038968234325F08004536021433A
:102910000023916080F83830184630BD022030BD69
:1029200000000140704770472DE9F041069D0446C4
:102930000F46164698462168CA6937EA02030CBF5B
:1029400001220022B2421DD16B1CF5D09DB9236833
:1029500003201A6822F4D0721A609A6822F00102E9
:102960009A60202384F8693084F86A30002384F860
:102970006830BDE8F081FDF7F5FCC8EB000085424A
:10298000D9D8E4E70020BDE8F0812DE9F3411F46E6
:1029900090F8693004460D46202B90464BD1002913
:1029A00047D0002A45D090F86830012B43D001234E
:1029B00080F868300023C366212380F86930FDF772
:1029C000D1FC0646A4F85080A4F85280B4F85220F6
:1029D00092B202B3B4F85230002200978021013B3A
:1029E00020469BB2A4F852303346FFF79DFF08B152
:1029F000032021E0A3682268B3F5805F07D1236933
:102A00002BB935F8023BC3F308039362DEE72B785A
:102A100001359362DAE70097334640212046FFF7FD
:102A200083FF0028E4D1202384F8680084F869300B
:102A300002E0012000E0022002B0BDE8F0810000C9
:102A400038B504460568C3692269A168286811433E
:102A500062690A4342EA0301884A0240A0690A43C4
:102A60002A606A6822F44051E2680A43216A6A6077
:102A70000143AA6822F430620A43AA60804A954260
:102A800007D102F594327F49D2F8902002F0030278
:102A900009E07D4A95420BD102F5FA327B49D2F822
:102AA000902002F00C02B3F5004F8A5C73D0B6E0C0
:102AB000774A95420DD102F5F832D2F8902002F013
:102AC0003002102A00F086805DD9202A78D0302A82
:102AD0000EE0704A95420DD102F5F632D2F8902000
:102AE00002F0C002402A75D04DD9802A68D0C02A91
:102AF0007CD087E0684A95420FD102F5F432D2F8D3
:102B0000902002F44072B2F5807F63D03BD9B2F5D9
:102B1000007F55D0B2F5407FEAE7604A954212D176
:102B200002F59232D2F8902002F44062B2F5806F42
:102B300050D002D8002A3DD064E0B2F5006F3FD0FB
:102B4000B2F5406FD4E7564A95420FD102F5E03214
:102B5000D2F8902002F44052B2F5805F3AD012D9F8
:102B6000B2F5005F2CD0B2F5405FC1E74D4A954207
:102B700048D102F5DE32D2F8902002F44042B2F59C
:102B8000804F27D001D87AB13CE0B2F5004F17D082
:102B9000B2F5404FACE7082A37D8DFE802F0080E5C
:102BA00014361E3636362A00B3F5004F40D1FEF7F4
:102BB000DBFD14E0B3F5004F3DD1FEF7EDFD0EE077
:102BC000B3F5004F3AD16068420802F1F47303F59F
:102BD000904312E0B3F5004F39D1FEF7D7FC63689C
:102BE0005A0802EB4000B0FBF3F308E0B3F5004FE6
:102BF00037D16068430803F58033B3FBF0F39BB231
:102C0000002004E0B3F5004F35D101200023C3F3C9
:102C1000420123F00F0322680B43D36038BD082A1A
:102C200029D8DFE802F005080B28142828281E0000
:102C3000FEF79AFD0DE0FEF7AFFD0AE061684A0875
:102C400002F5740303F51053B3FBF1F30FE0FEF745
:102C50009DFC636800EB5300B0FBF3F080B2E860CA
:102C600007E06268530803F50043B3FBF2F39BB23D
:102C7000EB60002038BD012038BD00BFF369FFEFD5
:102C800000100140246C000800440040286C00083B
:102C900000480040004C004000500040001401403B
:102CA00000780040007C0040436ADA0710B506D582
:102CB0000468626822F40031826A0A4362609C07F9
:102CC00006D50468626822F48031C26A0A436260F1
:102CD000590706D50468626822F48021026B0A4312
:102CE00062601A0706D50468626822F40041426BEC
:102CF0000A436260DC0606D50468A26822F48051AB
:102D0000826B0A43A260990606D50468A26822F481
:102D10000051C26B0A43A2605A0610D50168046CC8
:102D20004A68B4F5801F22F4801242EA04024A6025
:102D300005D14A6822F4C004426C22434A601B0653
:102D400006D501684B6823F40022836C13434B6063
:102D500010BD73B500260446C666FDF703FB236865
:102D600005461B681A0704D423681B685B071AD53D
:102D70000DE06FF07E4332464FF40011009303469E
:102D80002046FFF7D1FD0028EED0032013E06FF0BE
:102D90007E4300224FF48001204600932B46FFF72C
:102DA000C3FD0028F1D12023002084F8693084F885
:102DB000680084F86A3002B070BD10B5044660B394
:102DC00090F8693003F0FF021BB980F8682003F027
:102DD00027FA22682423204684F86930136823F0F8
:102DE00001031360FFF72CFE012816D0636A13B1AC
:102DF0002046FFF759FF236820465A6822F4904284
:102E00005A609A6822F02A029A601A6842F0010217
:102E1000BDE810401A60FFF79CBF012010BD000004
:102E2000024B1868031F584258417047F8000020B1
:102E3000012810D12A4B18682A4B1B6818442A4BCA
:102E40001B68C01A294B1B68C01A0A235843642305
:102E500090FBF3F07047264B26491A68B2F5617F64
:102E60000DDD0868B0F5617F0ADD234B1B683BB9B7
:102E7000224B1B6823B9224B9B68034406E007D111
:102E80000B68B3F5617F03DC1D4B1B68D31A1CE094
:102E90000868B0F5617F06DBB2F5617F14DC184B82
:102EA0005B681B1A11E0B2F5617F0DDC0C4B0E4A1A
:102EB00018680C4B1B68034410680C4A1B1A1068F6
:102EC000181A0623434300E00023462093FBF0F04A
:102ED00000F1B103B3F5B17F88BF0020704700BF98
:102EE000C00B00205C120020F0110020F000002038
:102EF00048110020BC0B0020A8070020BC070020C0
:102F000000000020124B1A6800235362114A126815
:102F10005362114A12685362104A1360104A1360D8
:102F2000104A1360104A1360104A1360104A13606D
:102F3000104A1360104A1360104A1360104A13605D
:102F4000104A1360104A1360104A1360704700BFA4
:102F5000D81F002060120020AC120020340C00208A
:102F6000D80C00209C1200205C120020F0110020E0
:102F7000C40700201C040020F0000020C00B00202B
:102F8000F4000020F00A0020C40B00203C0D0020BB
:102F900000230A480A491A4630B50A4D0A4C45F83A
:102FA000232044F8232040F8232041F82320013334
:102FB000C82BF4D1054B00221A6030BD2C04002030
:102FC000C8070020540D0020FC000020380D002010
:102FD000214BDFF8BCC01B6820482149214A2DE95C
:102FE000F043DFF8B090DFF8B080DFF8B0E01E4FBC
:102FF0001E4E1F4D1F4CEBB913601F4A03600B6040
:103000001E48136004221E4903600A601D481E49C1
:10301000C9F80030C8F80030CCF80030CEF80030E5
:103020003B6033602B60236003600B60174B1A60BA
:10303000BDE8F0830023C9F80030C8F80030CCF8B0
:103040000030CEF800303B6033602B6023600360BB
:103050000B601360BDE8F083C8100020E010002072
:10306000F8000020340D0020BC070020A807002035
:10307000AC0700200C000020541100205811002043
:1030800010000020D41000204C0D0020500D002016
:103090004C070020EC0A002020040020400D0020F6
:1030A00010B50446FDF7B4F84FF47A7382B22146A6
:1030B0000248BDE81040FFF768BC00BFD4190020EB
:1030C00070B51C48FFF7ECFF1B4C1C4B00211C4A41
:1030D0001A6000221868A518013250F8046B042AFF
:1030E0006E541860F6D104311429F2D10022154D26
:1030F0000021AC18186850F8046B66540131186050
:103100000529F7D10532142AF2D100220E4D0021F3
:103110005419186850F8046B44F8216001311860A4
:103120000529F6D11432642AF1D10848BDE870406F
:10313000FFF7B6BF356C0008E4100020DC1000205B
:1031400000000408F40A0020741F0020576C0008D7
:10315000254B264A1B6813B50193254B254C1B684C
:10316000254920460093254B12681B6803F000F99F
:103170002046FFF795FF224B224A20461B68126823
:10318000214903F0F5F82046FFF78AFF1F4B204A3C
:1031900020461B6812681F4903F0EAF82046FFF733
:1031A0007FFF1D4B1D4A20461B6812681C4903F017
:1031B000DFF82046FFF774FF1A4B1B4920461A68B8
:1031C00003F0D6F82046FFF76BFF184B184A20464D
:1031D0001B681268174903F0CBF8204602B0BDE81F
:1031E0001040FFF75DBF00BFB00700205007002070
:1031F000BC0B0020C4180020856C0008481100207A
:10320000C00B0020F0000020D56C0008F011002059
:103210005C120020176D0008340D0020F80000201B
:10322000446D0008D4100020766D000810000020C6
:1032300054110020A76D00081D491E4A0B68106834
:103240001D4A42F823001D4A10681D4A42F8230017
:103250001C4A10681C4A42F823001C4A10681C4A89
:1032600042F823001B4A10681B4A42F823001B4AFD
:1032700010681B4A42F823001A4A10681A4A42F89A
:1032800023001A4A10681A4A42F82300194A1068A3
:10329000194A42F82300194A1068194A42F82300D3
:1032A0000133142093FBF0F200FB12330B607047E4
:1032B000CC0B0020E80A002058070020100B00204B
:1032C000F8100020EC0000201C0B0020440D002012
:1032D000880C0020F800002074100020340D00201D
:1032E000E40C0020F0000020380C0020C00B00206F
:1032F000E40B00205C1200209C000020F011002054
:103300006C0B0020F8B5314900253148314E03F0EF
:1033100053F82F48FFF7C4FE0024A3192E492C4868
:1033200014345A5903F024F82948FFF7B9FE642CE5
:10333000F3D12A490435264803F03EF82448FFF724
:10334000AFFE142DE8D1264900242148254F03F073
:1033500033F81F48FFF7A4FE00253E1916F8252074
:1033600001351D491A4803F003F81948FFF798FE84
:10337000052DF3D119490134154803F01DF81448FF
:10338000FFF78EFE042CE7D1174900241048174F91
:1033900003F012F80E48FFF783FE00253E19725D18
:1033A00005350D490A4802F0E3FF0948FFF778FEAA
:1033B000142DF4D109490134054802F0FDFF0448F9
:1033C000FFF76EFE052CE8D1F8BD00BFD26E0008F5
:1033D000C4180020E81200200D6E0008E76E0008F7
:1033E000ED6E0008E4100020026F0008F40A0020CF
:1033F000F0B52E4F87B004460D4601AE002D0FCF1D
:103400000FC63B6801A92A4A33604FEA84030BDCEC
:103410001A44525D012A14D0681C1A190244254826
:1034200050F8222003920CE0681ED618365C012E5C
:1034300005D01E1930441F4E56F820000290032D6F
:10344000E6DD002C1C480DDC234403445B5D012BAE
:1034500016D00134174B04EB84042C4453F8243069
:1034600005930DE0621E02EB82028618765D012E46
:103470001FBF52190F4E56F822200492032CE3DD91
:103480000122002306A851F8224000EB830050F8E7
:10349000140C8442B8BF13460132052AF2D106AAA1
:1034A00002EB830353F8140C07B0F0BDF86B00086F
:1034B000E4100020E8120020F40A00202DE9F04F6B
:1034C000404BADF54B7D7F24009203F1640243F83D
:1034D000044C143343F8144C43F8104C43F80C4C90
:1034E00043F8084C9342F2D10129374C0AD1374BAB
:1034F000374A1B68126803EB83031344002244F825
:10350000232005E001284FF000030CBF2361E36294
:10351000304B0127304A4FF0140A1B680DF5CC7B65
:10352000116803EB830303EB01090025A8460AFB9E
:103530000543002653F826107F290ED13146284630
:103540000193FFF755FF7F28019B1FBF02AA4BF88D
:10355000286042F8285008F101080136052EE9D10B
:103560000135052DE3D1002398450BD002AA5BF865
:10357000230052F82310013301EB8101014444F888
:103580002170F1E7009B13B954F8293000E023695A
:103590007F2B13D10137C92FC7D1104B01221049FE
:1035A0001A603A460F4802F0E3FEFFF7ABFE0D4803
:1035B0000DF54B7DBDE8F04FFFF772BD0DF54B7D6E
:1035C000BDE8F08FEC120020E8120020A0120020CD
:1035D000A412002054110020100000200C00002034
:1035E000156F0008C4180020184B002203F11401C5
:1035F00003F8012C043303F8042C03F8032C03F81C
:10360000022C8B42F4D1124B002203F1140103F877
:10361000012C053303F8052C03F8042C03F8032CC4
:1036200003F8022C9942F2D10A4B002203F1640103
:1036300043F8042C143343F8142C43F8102C43F8AB
:103640000C2C43F8082C8B42F2D17047E510002077
:10365000F50A0020781F0020084B1A68032A0BD8AF
:10366000DFE802F002040608012204E0002202E082
:10367000032200E002221A60704700BFD41000202D
:10368000F0B5504D0124504E85B02A68336802EBE6
:1036900082014E484E4F194440F8214039684D4C44
:1036A00003291FBF4C4802604C4803602068032870
:1036B0003DD8DFE800F0020C1B26032937D8DFE8ED
:1036C00001F0020F2604013B08E001212DE003294F
:1036D0002DD8DFE801F0021C05090133336037E023
:1036E000013A02232A6019E000211EE003291ED8B6
:1036F000DFE801F002161105013A2A6028E00321F3
:1037000013E0032913D8DFE801F002060B0F0132A2
:1037100003232A6002E0013B33600023236017E0AB
:10372000013333600123F9E70221216001E003291D
:103730000ED12B492B4802F01BFE2A48FFF7B0FCA4
:10374000254B1B682B60254B1B68336005B0F0BD13
:103750002A68336802EB82012348194450F821108B
:1037600071B9224B1B6823B9FFF776FF0122204B6A
:103770001A6033682A681F491A4802F0F9FD1BE0F5
:10378000042A01D8042B09D901201B4908601B49D0
:10379000144802F0EDFD1348FFF782FC184B19495D
:1037A0001A683B6801320F4802932368019333681B
:1037B00000932B6802F0DCFD0A4805B0BDE8F0403C
:1037C000FFF76EBC5411002010000020741F002071
:1037D000340D0020D41000204C0D0020500D00208E
:1037E000B36F0008C4180020E81200205811002010
:1037F000E0100020DE6F00080C000020356F00088C
:10380000CC0B00206B6F0008002101222DE9F04F46
:10381000084689B0FFF752FE804B0DF1100B804F28
:10382000804C4FF07F0E4FF06C0C4FF06608029703
:1038300003940FCB8BE80F00002304227A4819462B
:103840001E461D463B6022604FEA8109774F09EB17
:1038500001040194144457F82440002C00F0A68081
:10386000002ACDF810E0CDF814E0CDF818E0CDF83E
:103870001CE012DC4FEA81096D4F07EB090A1AF8C8
:1038800002A0BAF1010F1AD0894402F1010A674F70
:10389000D14457F82970059711E0654F02F1FF3ABE
:1038A000B94419F80A90B9F1010F06D0019F5744A5
:1038B000BA465E4F57F82A700497032ADADD0029CA
:1038C00012DC01EB81095B4FB94419F80290B9F1A0
:1038D000010F1CD001F10109544F09EB89099144F2
:1038E00057F82970079712E001F1FF39514F09EBA2
:1038F000890907EB090A1AF802A0BAF1010F1FBFE4
:103900004A4F914457F8297006970329D9DD4FF0A3
:103910000009013C5BF82970A74208BF4B4609F13A
:103920000109B9F1040FF5D1022D21D0032D2ED0BC
:10393000012D0ED0022B06D0032B07D0002B58D11F
:1039400080F8008055E080F800C060E072240470C8
:1039500060E0022B06D0032B07D0012B54D180F856
:10396000008051E07224047051E080F800C051E002
:10397000012B06D0022B07D0002B48D172240470F3
:1039800037E080F800C03FE080F800803FE0012B86
:1039900006D0032B07D0002B3CD180F800C028E0D4
:1039A0007224047030E080F8008033E073231E4AF4
:1039B000214D22482E609355FFF772FB1A48FFF7FE
:1039C0006FFB2B689C420ED8039B029A53F824305D
:1039D00052F8242001341A491A4802F0C9FC194847
:1039E000FFF75EFBEDE7184809B0BDE8F04FFFF7C1
:1039F00057BB013A00250136029C013044F82610DD
:103A0000039C44F826201FE701320125F3E7013922
:103A10000225F0E701310325EDE700BF0C6C00083B
:103A2000441A00204C13002050200020E8120020EF
:103A3000E4100020F40A0020C007002014700008E1
:103A400023700008C4180020EA6E0008044B1A68AE
:103A5000044B1A60044B1A68044B1A60704700BF8D
:103A6000541100200C0B002010000020180B002027
:103A70000023114AF0B41360104B114D1B68114E16
:103A8000114F002B13DD55F8231056F8234001EB9E
:103A90008100204457F8200038B90C4B19600C4BBA
:103AA0001C600123F0BC13607047013BE9E7094843
:103AB000F0BCFFF7F5BA00BFD8100020C007002007
:103AC000441A00204C130020741F0020A012002074
:103AD000A41200202F700008002266204FF0720C04
:103AE000114613462DE9F047434F1446434D4FF01E
:103AF0006C0E4FF075084FF0740917F8016F662EC1
:103B00000CD1013421B105F803C000210133F4E7E1
:103B1000012A69D105F803E0013365E05CB3013C9B
:103B20000E2C26D8DFE804F0080A0C0E101214162A
:103B3000181A1C1E2022240062201AE0632018E0BC
:103B4000642016E0652014E0762012E0672010E083
:103B500068200EE069200CE06A200AE06B2008E093
:103B60006D2006E06E2004E06F2002E0702000E08F
:103B70007120E85401336C2E0DD1012A05D0A9B370
:103B800005F803C00122013314E005F80390002278
:103B900001330024B1E7722E0ED129B10029F8D0EB
:103BA00005F80380013305E0012A21D105F803E07F
:103BB00001331DE00021ECE7732EEAD10F4809B173
:103BC000722202E0012A01D16C22C2540344732202
:103BD0000B485A70FFF764FA0848FFF761FA094882
:103BE000BDE8F047FFF75CBA0A4686E70122D0E756
:103BF0000A460121CDE700BF4F200020F41100202C
:103C000059700008EA6E000838B5194C01224FF4CB
:103C10008061184D2046FDF7D5FA204601224FF469
:103C20000061FDF7CFFA204601224FF48051FDF7E5
:103C3000C9FA0122104804F500641146FDF7C2FAE2
:103C4000012220461146FDF7BDFA284601224FF415
:103C50008071FDF7B7FA284601224FF40071FDF795
:103C6000B1FA204601220221BDE83840FDF7AABA88
:103C70000008024000040240000C024038B5194C14
:103C800000224FF48061184D2046FDF79BFA204634
:103C900000224FF40061FDF795FA2046002204F55A
:103CA00000644FF48051FDF78DFA002201210F4886
:103CB000FDF788FA204600220121FDF783FA284605
:103CC00000224FF48071FDF77DFA284600224FF460
:103CD0000071FDF777FA204600220221BDE8384046
:103CE000FDF770BA0008024000040240000C0240D8
:103CF0002DE9F041DFF8748186B0554D554CDFF861
:103D000070E101AFBEE80F000FC7DEF80030D8F851
:103D100000203B6001AF504962B92B689800014414
:103D2000895C012918D00344511C0B4454F82330FA
:103D3000039311E02868531E4FEA800E01EB0E0C2E
:103D40001CF803C0BCF1010F1FBF70441B1854F8CE
:103D500023300293032AE0D92968404869B901EB6E
:103D6000810303449B5C012B17D04B1C03EB8303A3
:103D7000134454F8233005930FE04B1E03EB8303E9
:103D800000EB030E1EF802E0BEF1010F1EBF9B18F0
:103D900054F8233004930329E1D94FF0010E002396
:103DA00006A857F82E6000EB830C5CF8140C8642D2
:103DB000B8BF73460EF1010EBEF1050FF0D101EB55
:103DC00081010A4406A901EB830154F8222051F82D
:103DD000141C914207D3224B00221968214B18680A
:103DE000FFF76CFB8BE7204A106803282BD8DFE82D
:103DF00000F0020A1E14032B21D0042B0BD0022B3F
:103E000008BF032020E0032B05D0042B1CD0012B7E
:103E100008BF032010E0022016E0022B05D0032B80
:103E200012D0013B584258410EE018460CE0022BDC
:103E300005D0042B05D0012B18BF002004E0012081
:103E400002E0032000E0002006B0BDE8F08100BFE2
:103E500054110020E8120020E4100020F40A002091
:103E600058110020C8100020D4100020100000209D
:103E7000F86B0008202870B540F0FB807D4D2B6862
:103E8000042B00F2F680DFE813F005003500640033
:103E90009400C5000126784B002402211E60774B58
:103EA000224677481E60774B1C60774B1C60774B2F
:103EB0001C60FDF787F9324631467148FDF782F9FB
:103EC00022464FF400717248FDF77CF922464FF408
:103ED00080716F48FDF776F922464FF480516D48A6
:103EE000FDF770F922464FF400616A48FDF76AF960
:103EF0002E6070BD0024614B022161481C60224687
:103F00005D4B1C605F4B1C605F4B1C605F4B1C601B
:103F1000FDF758F9224601215948FDF753F90122CE
:103F20004FF400715A48FDF74DF922464FF4807165
:103F30005748FDF747F922464FF480515548FDF7A1
:103F400041F922464FF400615248FDF73BF9022344
:103F50005EE00024484B012602211C602246474BAC
:103F600047481E60474B1E60474B1C60474B1C6018
:103F7000FDF728F9224631464148FDF723F922464C
:103F80004FF400714248FDF71DF932464FF480713D
:103F90003F48FDF717F922464FF480513D48FDF7A1
:103FA00011F922464FF400613A48FDF70BF903235B
:103FB0002EE00024304B012602211C6022462F4BAC
:103FC0002F481E602F4B1C602F4B1E602F4B1C6018
:103FD000FDF7F8F8224631462948FDF7F3F8224666
:103FE0004FF400712A48FDF7EDF822464FF4807136
:103FF0002748FDF7E7F832464FF480512548FDF792
:10400000E1F822464FF400612248FDF7DBF8042373
:104010002B6070BD0024184B012602211C60224633
:10402000164B17481E60174B1C60174B1C60174B34
:104030001E60FDF7C7F8224631461148FDF7C2F869
:1040400022464FF400711248FDF7BCF822464FF4A7
:1040500080710F48FDF7B6F822464FF480510D48A5
:10406000FDF7B0F832464FF400610A48FDF7AAF8B0
:104070002C6070BD24040020C80B00200C00002020
:1040800000100240D0100020B4070020DC0C0020FB
:10409000000402400008024070470000054C08B5CB
:1040A00022680549054802F063F90448FEF7F8FF65
:1040B000F6E700BF5407002065700008C418002010
:1040C0002DE9F84338480224FEF7EAFFFCF776FEB4
:1040D000002136480522012380E81E003449FCF700
:1040E00037FF30B13348FEF7DBFF6420FCF740F9BF
:1040F000F8E7314D0646314BDFF8CC802C462B607B
:10410000002708EB0703296800209A5D0023FCF7CD
:104110009FFEA8B9236801370433042F2360F0D130
:1041200013E03B6801360433052E3B6018D018F8C5
:104130000620002329680020FCF78AFE0028F0D022
:1041400045221F4B1A60FFF7A9FF0436142ED7D162
:104150000446DFF87890184F002609EB0408E6E7DC
:104160000534142CF8D10446DFF86490124F002671
:1041700004EB0908002358F8262029681846FCF7A4
:1041800067FE0028DCD13B6801360433052E3B6016
:10419000F0D11434642CEAD10A48FEF781FFBDE85F
:1041A000F843FCF71DBE00BF6F700008D00B002065
:1041B000C410002091700008DC10002000000408EA
:1041C00054070020576C0008E4100020F40A002077
:1041D000741F002008B50022054B06491A602022F2
:1041E0000548FCF77DF908B1FFF758FF08BD00BF8F
:1041F00060110020F41E00208C1900202DE9F74FDB
:104200008B461D461746E2B9FFF7E4FF664A13687E
:10421000654E002BFBD0654C012210216448D4F878
:104220000080FCF7CFFFFFF7D5FF3368002BFCD0F1
:10423000002210215E482668FCF7C4FF002D3DD106
:1042400004E0002B40F0A480A8462E46FFF7C2FFF2
:10425000554A1368544D002BFBD0DFF8849101229E
:1042600004215348D9F80040FCF7ACFFFFF7B2FF38
:104270002B68002BFCD0002204214D48D9F800A067
:10428000FCF7A0FFFFF7A6FF2B68002BFCD0494BE3
:10429000012208214648D3F800900193FCF792FFD1
:1042A000FFF798FF019B2A68002AFCD00022082112
:1042B0003F481D68FCF786FF17BB03E00024A246B9
:1042C000A1462546FFF786FF374A1368002BFCD02E
:1042D000394B0122022136481F680193FCF772FF17
:1042E000FFF778FF019B304A1268002AFBD01B6859
:1042F000002202212E480193FCF764FF019B01E09C
:1043000000273B462D4ADF1BC8EB06062C4BC4EBAF
:104310000A04C9EB05051660BBF1010F1C60294AB0
:10432000294B17601D603CD1284AC821284F1368CB
:10433000284E03F1320E47F8235046F823409EFBE7
:10434000F1F001FB10E157F8210056F821100A287E
:104350000ADD2D1A40F21450002DB8BF6D4285427F
:10436000C4BF1D48C0F800B00A2909DD641A002C3A
:10437000B8BF6442B4F5966FC2BF01201749086008
:104380000133C82093FBF0F100FB1133136008E008
:104390000024A246A146A046254626462746234697
:1043A000B0E703B0BDE8F08F6011002028040020C2
:1043B000000C0240140B0020B8070020500700201A
:1043C000BC0B0020B007002048110020380D002051
:1043D000540D0020FC000020BC070020A80700208E
:1043E000CC1000204FF42E723C4B51431B6840F21E
:1043F0009F1202FB03113A4B1A683A4B1B68134495
:104400000822A1EB530391FBF2F18B424FF0000322
:104410004FF00102194670B50446334E334D18462D
:1044200017D2FFF7EBFE326840F698039A4203DC9E
:104430002F4A12689A4201DD002000E00120FEF7B9
:10444000F7FC28602B6803F1B402C3F1B203A26049
:1044500016E0FFF7D3FE326840F6C4139A4203DC3D
:10446000234A12689A4201DD002000E00120FEF795
:10447000DFFC63682860296822685B1A0A44A2602E
:10448000E3604FF47A721B4C256895FBF2F302FB54
:104490001355FDB92B462A461749184801F068FF05
:1044A0001648FEF7FDFD164B164A1B6812681649A2
:1044B000124801F05DFF1148FEF7F2FD134B144A5C
:1044C0001B68126813490D4801F052FF0B48FEF7B4
:1044D000E7FD256023680133236070BDE00B0020F9
:1044E000C40700201C04002048110020080B0020F5
:1044F000BC0B0020E00C002062710008C4180020F2
:10450000581200209C1200208E710008D80C002048
:10451000340C0020AD71000808B5032816D8DFE878
:1045200000F002050C1000231A4601E000230122CE
:1045300019461846FFF762FE08E0012200231146E3
:10454000F7E70D4B1B685A6A0C4B1A600C4B0D4970
:104550001B685A6A0C4B1A600C4B1B685B6A0B6039
:104560000B490968521A0B490A600B4A12689B1AD8
:104570000A4A136008BD00BFAC1200205812002088
:10458000D81F0020C00B0020F00000206012002087
:104590005C120020C4070020F01100201C04002041
:1045A0002DE9F0478E4D8F4C2B68226803EB830377
:1045B00013448D4A52F82330012B00F00F81002361
:1045C0008A4A8B4F4FF00A0813608A4E8A4ADFF8F6
:1045D00044923B60336013600023DFF810A21A4658
:1045E00019461846FFF70AFE3A68D9F80030B8F1C4
:1045F000010831681A44814B81481B6800680B44EC
:10460000DAF80010DFF8F0C101447E483A60D0F8D3
:1046100000E0DCF8000033608644CAF80010CCF8F3
:1046200000E0D9D10A20724E92FBF0F293FBF0F336
:104630003260704E91FBF0F13360734ECAF8001097
:1046400036689EFBF0F0CCF80000032E00F2C68026
:10465000DFE806F0023062942468A4B1B2F5FA7F74
:1046600002DAB3F5FA7F0EDBD31A40F2CE7203F210
:10467000E733934207D82A68644B03EB8203012295
:10468000234403F8012C2B68032B04D9B1F5617F77
:104690000EDABDE8F087B0F5617F05DB5C4803EB1F
:1046A0008302024401201055002B00F09780EDE7B3
:1046B000013B29E02468032C12D8B2F5FA7F02DA14
:1046C000B3F5FA7F0CDBD31A40F2CE7203F2E73374
:1046D000934205D82A684D4B03EB820301221A55F9
:1046E0002B6823B9B1F5617F0EDABDE8F087B0F52C
:1046F000617F06DB5A1E464802EB8202024401201B
:104700001055032B6AD8EDE7414A03EB83031344AA
:1047100001221A55BDE8F0872D68A5B1B2F5FA7FE0
:1047200002DAB3F5FA7F0EDBD31A40F2CE7203F24F
:10473000E733934207D86B1E354E226803EB8303A1
:10474000334401269E54226822B9B1F5617F0EDA06
:10475000BDE8F087B0F5617F06DB2C4B012003EB51
:104760008503134403F8010C032A37D8EDE7274BE0
:1047700003EB85050123AB54BDE8F0872D68032DBD
:1047800013D8B2F5FA7F02DAB3F5FA7F0DDBD31A4C
:1047900040F2CE7203F2E733934206D81C4E05EB8B
:1047A00085032268334401269E542368032B04D9D1
:1047B000B1F5617F0BDABDE8F087B0F5617FA1BF8D
:1047C000124A012002EB8502D0543BB1F0E70F4AB8
:1047D00002EB850501222B4403F8012CBDE8F0878C
:1047E0005411002010000020741F0020440D0020F0
:1047F000E80A0020100B0020EC000020B007002089
:1048000048110020BC0B0020D4100020E410002030
:10481000F40A00205007002008B50122044B054887
:104820001A60FBF7DDFE08B1FFF738FC08BD00BFDA
:10483000601100208C19002008B5FFF7EDFF074B31
:10484000074A196F1160596F064A1160996F064A3D
:104850001160DA6F054B1A6008BD00BFF41E00201E
:1048600028040020140B0020CC100020B8070020E2
:1048700001294FF000024FF0600308BFC0F5267019
:1048800010B508BF013088B00C46029001A90A4853
:10489000019303920592FDF799FF014608B1FFF7D6
:1048A000FDFB0548FDF728FF0221E2B20348FCF7B3
:1048B00089FC08B010BD00BF242100200000024088
:1048C00001294FF060034FF0080208BFC0F52670C1
:1048D00010B588B008BF01300C4601930023029048
:1048E00001A9094803930593FDF770FF08B1FFF78D
:1048F000D5FB08210448FDF7FFFE0821E2B203487A
:10490000FCF760FC08B010BD24210020000002402C
:10491000464A1368012B464B70B5196846D139BB1E
:10492000444A45491268096802EB4202B1EB920F12
:1049300008D2424A42491268096802EB4202B1EBCE
:10494000920F71D301221A603E4B1B68934203D130
:1049500003223D4B1A6007E0FFF722FEFFF7C8F97C
:10496000394B1860FEF78CFEBDE87040FEF764BC62
:10497000012959D1304908682E490968884205D271
:104980002F4908682D49096888424DD32F490026D0
:1049900008682F491E6008602E49166008682E4975
:1049A0000860FEF7F5FAFFF769F924E051B92B4AE0
:1049B0001268B2F5FA7FC5D2294A1268B2F5FA7FB9
:1049C00032D3BFE701292FD124490968B1F52E7FE1
:1049D00004D223490968B1F52E7F25D31B4900264F
:1049E00008681B491E6008601A49166008681A4961
:1049F0000860FEF7CDFA144B1D681C46012D08D047
:104A0000022D0ED10121B420FFF732FF01213046E3
:104A100005E029463046FFF72BFF2946B220FFF775
:104A20004FFF22680F4B1A6070BD00BFAC0700201B
:104A3000400D0020B4200020C40B0020A81200204C
:104A40003C0D0020E0100020340D0020F00000207C
:104A50005C120020C00B0020F0110020C4070020D1
:104A60001C040020F8000020F0B54FF42E7485B02F
:104A7000012A054604FB00F44FF010024FF000013C
:104A8000684608BF04F29F1401F06AFCFEF73AFA88
:104A90001E23A81F0121174F5843174E00F5E17040
:104AA00000900190FFF7E4FE01210198FFF708FF55
:104AB0000320FFF731FD29466846FFF793FC0121EB
:104AC0000298FFF7D5FE01210398FFF7F9FE3B6836
:104AD000A34202D233689C42EAD8084B1A68084BBA
:104AE0001A60084B1A68084B1A600022074B1A60BC
:104AF00005B0F0BDC40700201C040020F000002019
:104B00005C120020C00B0020F0110020E00B002000
:104B1000F8B53A4D2C682F46FCB9394E3368B3F5D9
:104B2000EB7F69D3FEF734FA0121B420FFF7A0FE32
:104B30000121B220FFF7C4FE012334602B60314B0A
:104B40001A68314B1A60314B1A68314B1A60314B7D
:104B50001C60BDE8F840FEF76FBB012C1BD12D4B4C
:104B60001B68B3F59D7F04D8254B1B68B3F59D7F6B
:104B700042D9294B294C1B68012B02D10323236006
:104B800006E0FFF70DFDFFF7B3F82060FEF778FDB4
:104B900002233B60F8BD022C2ED11E4B1B68B3F5DF
:104BA000D27F04D2164B1B68B3F5D27F24D30026E4
:104BB0003E60FEF741FB134B1A68134B1A60134B10
:104BC0001A68134B1A60154B1D681C46012D08D03E
:104BD000022D0ED10121B420FFF74AFE01213046FB
:104BE00005E029463046FFF743FE2946B220FFF78D
:104BF00067FE22680A4B1A60F8BD00BF200400203F
:104C00001C040020F00000205C120020C00B0020DB
:104C1000F0110020C4070020E0100020340D002017
:104C2000F8000020F8B5394D2C682F46FCB9384EF5
:104C30003368B3F5F17F67D3FEF7AAF90121B420F9
:104C4000FFF716FE0121B220FFF73AFE0123346080
:104C50002B60304B1A68304B1A60304B1A68304B5F
:104C60001A60304B1C60BDE8F840FEF7E5BA012C35
:104C70001BD1274B1B68B3F59D7F04D8294B1B68BC
:104C8000B3F59D7F40D9284B284C1B68012B02D1DE
:104C90000323236006E0FFF783FCFFF729F8206079
:104CA000FEF7EEFC02233B60F8BD022C2CD1184B22
:104CB0001B68B3F5D27F04D21A4B1B68B3F5D27FC1
:104CC00022D3144B00261A68134B3E601A60134B14
:104CD0001A68134B1A60154B1D681C46012D08D02D
:104CE000022D0ED10121B420FFF7C2FD0121304673
:104CF00005E029463046FFF7BBFD2946B220FFF705
:104D0000DFFD22680A4B1A60F8BD00BFEC0A0020E4
:104D1000C4070020F00000205C120020C00B00201F
:104D2000F01100201C040020E0100020340D0020B1
:104D3000F800002010B5084C0020FEF779F801219A
:104D40002060B430FFF794FD20680121C0F1B2006B
:104D5000BDE81040FFF7B4BD080B00202DE9F74F68
:104D60002A4E054600240091B346AC424BDA01219D
:104D70000020FFF77DFD0121B220FFF7A1FD4520B6
:104D8000FFF7CAFB3368B3F5EB7FF8D3DFF88CA0ED
:104D90000121DFF88C90B420DAF80020DFF884805D
:104DA000C9F800201A4FD8F800203A60FFF760FDDC
:104DB0000121B220FFF784FD009BA3F16202032AC8
:104DC00007D8012D01DD002C03DD0122114B1A60F3
:104DD00019E0114901200191FFF79EFBFFF7AAFF9F
:104DE00001990A68B2F5D27F04D2DBF80020B2F54F
:104DF000D27FEFD3DAF800300134C9F80030D8F8A8
:104E000000303B60B1E703B0BDE8F08F1C04002028
:104E1000F0110020E00B0020C4070020F00000206B
:104E20005C120020C00B00202DE9F74F2A4E0546EA
:104E300000240091B346AC424BDA0121B420FFF7C5
:104E400017FD01210020FFF73BFD4520FFF764FB24
:104E50003368B3F5F17FF8D3DFF88CA00121DFF8D8
:104E60008C90B420DAF80020DFF88480C9F80020A4
:104E70001A4FD8F800203A60FFF7FAFC0121B2205F
:104E8000FFF71EFD009BA3F16202032A07D8012D44
:104E900001DD002C03DD0122114B1A6019E01149DC
:104EA00001200191FFF738FBFFF744FFDBF80020FA
:104EB000B2F5D27F04D201990A68B2F5D27FEFD35E
:104EC000DAF800300134C9F80030D8F800303B601F
:104ED000B1E703B0BDE8F08FC4070020F011002057
:104EE000E00B00201C040020F00000205C120020D9
:104EF000C00B00202DE9F8430023A74CA74D1A460C
:104F000019461846A64FFFF779F92368A54EB3F561
:104F1000FA7F04DC2B68B3F5FA7F40F3AE803B6880
:104F2000B3F5617F66DB3268B2F5617F3BDBDFF8AA
:104F30009092DFF8748200231A4619461846FFF74C
:104F40005DF93368D9F80800012118443B681B1A41
:104F50001E2093FBF0F0C8F80000B430FFF788FC87
:104F6000D8F800000121C0F1B200FFF7A9FC2A68BF
:104F700040F623639A4212DD23682A689B1A002BAD
:104F8000B8BF5B42B3F5967F40F396800121B42011
:104F9000FFF76EFC0021B220FFF792FC52E022687E
:104FA0009A42C8DDE8E7B3F5617F23D0DFF81082CD
:104FB0007D4E00231A4619461846FFF71FF9D8F808
:104FC00000003B6801211B1A1E2093FBF0F03060AB
:104FD000B430FFF74DFC30680121C0F1B200FFF79B
:104FE0006FFC2A6840F623639A42C5DC22689A4225
:104FF000DFDDC1E73368B3F5617FBDDDDFF8C08178
:10500000694F00231A4619461846FFF7F7F830682B
:10501000D8F8043001211B1A1E2093FBF0F03860F1
:10502000B430FFF725FC38680121C0F1B200FFF76A
:1050300047FC2A6840F623639A429DDC22689A4224
:10504000DFDD99E70022012311461046FFF7D6F86D
:1050500023682A689B1A002BB8BF5B42B3F5967F82
:10506000F0DC01210020FFF703FC01210020FFF705
:1050700027FCFA20FBF77CF91EE04B4CFDF742FFC2
:105080004A4D0020FFF748FA30683B6801211B1A9F
:105090001E2093FBF0F02060B430FFF7E9FB20689E
:1050A0000121C0F1B200FFF70BFC2B687C2B03D869
:1050B0003F4B1B687C2BE4D901210020FFF7D8FB74
:1050C000012100203A4DFFF7FBFBC820FBF750F908
:1050D00000220123374F11461046FFF78FF82E4666
:1050E000FDF710FF0021B420FFF7C2FB0121B22021
:1050F000FFF7E6FB0020FFF70FFA3B682B4A5C6ADC
:105100002D4B2C601B685B6A136023440524A3F5B8
:105110008033B3FBF4F404F18603B3F5867F09D83A
:10512000002104F16400FFF7A3FB0121C4F16E002C
:10513000FFF7C6FB3368B3F5F27FDBD9012100200E
:10514000FFF796FB01210020FFF7BAFBFDF7DAFE1F
:105150001A4B1B68012B0CD001210020FFF788FBA4
:1051600000200121FFF7ACFB6420BDE8F843FBF70A
:10517000FFB80021B420FFF77BFB0021B220FFF72E
:105180009FFB0C4B19684FF6E2734A6A9A42FCD1B6
:10519000074A1360E0E700BF50070020B007002077
:1051A00048110020BC0B0020080B0020F00000205C
:1051B000C00B002060120020D81F0020E01000204B
:1051C0000000002070B5384D2C682B46ECB9FFF775
:1051D00091FE364B22461968354B1868FEF76EF97A
:1051E000FDF790FEFDF7D4FE324B1B68012B01D179
:1051F000042256E00121B420FFF73AFB0121B2203E
:10520000FFF75EFB01232B6070BD012C1CD12A4AE5
:105210002A4C116815468B2902D822688B2A42D95C
:1052200002221A60FEF764FD254B1860FEF728FA8B
:10523000244B1A68244B1A60244B1A68244B1A60BA
:1052400000232B60236070BD022C2CD11A4A1268F7
:10525000B2F5D57F04D2194A1268B2F5D47F22D9AB
:1052600000261E60174B1A68174B1A60174B1A68F6
:10527000174B1A60124B1D681C46012D08D0022DD9
:105280000ED10121B420FFF7F3FA0121304605E0E9
:1052900029463046FFF7ECFA2946B220FFF710FB0B
:1052A00022680C4B1A6070BD4C070020581100207A
:1052B000C8100020E0100020C40700201C040020BB
:1052C000340D0020F00000205C120020C00B0020F4
:1052D000F0110020F800002070B501210020FFF738
:1052E000C7FA134D01210020124EFFF7E9FA0024FE
:1052F000FDF708FE104B30462A6810491C6001F08B
:1053000037F83046FDF7CCFE224601210C48FBF76A
:1053100059FF22464FF480710A48FBF753FF0122E0
:1053200002210948FBF74EFF01232B6070BD00BF2F
:105330000C000020C41800204C110020C771000888
:10534000000C02400004024000100240F8B5364B49
:105350001A68012A1A460ED1344B354A1B68126866
:105360009B1A344A1360344B344A1B6812689B1AE8
:10537000334A1360F8BD334B1B68002B53D1324BBB
:10538000324F1C681E46012C02D03B68012B4AD1CB
:10539000264B3D681968264B012D1960264B19686C
:1053A000264B19604FF0010313604FF00003214AB0
:1053B0001360234A136012D12A4602212448FBF7C6
:1053C00001FF2A4629462248FBF7FCFE2A464FF4F5
:1053D00000712048FBF7F6FE4FF4C37315E0012C73
:1053E00017D122464FF480611B48FBF7EBFE2246A3
:1053F0004FF400611848FBF7E5FE22464FF4805158
:105400001548FBF7DFFE4FF4CD73144A1360144ABE
:105410001360002333603B60124B1B68012B02D1E9
:10542000FFF75AFFFEE7F8BDAC070020F0000020B0
:10543000F4000020C40B0020C00B0020F00A002064
:105440003C0D0020F8000020A8070020BC07002029
:10545000001002400004024000080240B420002076
:10546000A81200204C1100202DE9F0474FF0000851
:105470004FF00109DFF850A106464E4D4A46CAF8E2
:1054800000904946C5F8008007784B4816F8014F50
:10549000FBF798FE424649464848FBF793FE4246D2
:1054A0004FF480714648FBF78DFE42464FF4007181
:1054B0004348FBF787FE424602214048FBF782FE45
:1054C000FDF766FDFDF71EFD3E48FCF7C1FD4FF4FC
:1054D0007A70FAF74DFF732F64D0623F142F59D8BA
:1054E000DFE807F01B1F2327582F33373B3F0B43C1
:1054F000474B4F530E5811162B002146012004E054
:105500002146012006E021460220FFF727FC41E06A
:1055100021460220FFF788FC3CE02A682146012052
:1055200036E02A682146022032E02A68214603201C
:105530002EE02A68214604202AE02A682146052018
:1055400026E02A682146062022E02A682146072014
:105550001EE02A68214608201AE02A682146092010
:1055600016E02A6821460A2012E02A6821460B200C
:105570000EE02A6821460C200AE02A6821460D2008
:1055800006E02A6821460E2002E02A6821460F2004
:10559000FFF76AFA16F8013F00222746CAF80020F2
:1055A0001C4698E70748FCF760FDBDE8F047FFF7A9
:1055B00093BE00BFE00B0020000C02400010024030
:1055C00000040240AC1200201400002001223F48D9
:1055D00070B51146FBF7F6FD002201213C48FBF7B0
:1055E000F1FD00224FF480713A48FBF7EBFD0022F9
:1055F0004FF400713748FBF7E5FD002202213448E3
:10560000FBF7E0FD4FF47A70FAF7B2FE324B1B68FD
:105610000BB9FDF7E9FFFEF7C3FFFDF7B9FCFDF796
:1056200071FC2E4B1A681C46012A04BF2C4BDA620F
:10563000FDF7CEFC2B4B002220682B4C1968FDF7A0
:105640003DFF2546FEF71CF80121B420FFF710F9B5
:105650000121B220FFF734F9244E23681BB93368C7
:105660000BB9022000E00120FEF756FF2B685BB16A
:105670001F4B1B68002B07DC1E4B1B68002B03DC39
:105680001D4B1B68002B01DDFFF754FBFDF7C8FB2A
:1056900018B91A4B1B68012B03D1BDE87040FFF706
:1056A0001BBEFFF753FE2B68032BD6D8DFE803F0B1
:1056B0000208050BFFF72CF9CEE7FFF7B3FACBE7AB
:1056C000FFF726FAC8E7FFF77DFDC5E7000C0240AB
:1056D000001002400004024050110020C8100020B9
:1056E000741F002058110020F8000020AC07002093
:1056F000EC0A0020200400204C0700200C000020B1
:105700002DE9F74FFDF7FEFB4248FCF7A1FC4FF0F7
:10571000000A0121B420DFF82891FFF7A9F8012140
:10572000B220FFF7CDF80320FEF7F6FE3A4B1B68D8
:10573000B3F52E6F04D9D9F80020B2F52E6F61D8D9
:10574000DFF80881354FD8F800103A68891A42F21C
:1057500010729142E7D9324EBAF1050F314D3468DB
:105760002A68A3EB0404D9F800302F48A3EB020306
:1057700000FB04F400FB03F0B0FBF1F3B4FBF1F425
:1057800001932EDDDFF8C0B0019ADFF8B8A0DBF896
:1057900000302648D31ADAF80020A21A43434243C5
:1057A0002348B3FBF1F3B2FBF1F2224900F0E0FD34
:1057B0001F48FDF775FC019B22461F491C4800F05D
:1057C000D7FD1B48FDF76CFCDAF80020DBF8003051
:1057D0004FF0000A1949164800F0CAFD1448FDF7B9
:1057E0005FFCD8F800300AF1010A019A3B600A4BCD
:1057F0001B683360124B1B682B60124B1C60124BF2
:105800001A6090E7FFF768FD024803B0BDE8F04F6B
:10581000FCF72BBCAC120020F00000209C120020F2
:10582000340C0020D80C002076EC030040420F001E
:10583000C4180020E7710008627100082672000891
:10584000C00B0020480D00205C11002058120020E1
:105850002D4B1A6C42F0805210B51A64B4B01B6C18
:1058600002242A4A07A803F080530093009B136880
:1058700023F4404343F4804313601368079403F414
:1058800040430D9411940193019B012312940A93B8
:1058900010230B9300230E9308230F936C23109374
:1058A000FBF7D8FC08B1FEF7F9FBFBF79BFC0028DF
:1058B000F9D10F230490072102A802934FF48053DB
:1058C000039405930693FBF79FFE0028EBD140233A
:1058D000249013A81393FBF777FF04460028E2D126
:1058E000FBF73CFF4FF47A73B0FBF3F0FAF7DEFFFF
:1058F0000420FAF7F1FF224621464FF0FF30FAF775
:1059000091FF34B010BD00BF00380240007000406D
:1059100080B5ACB00024FAF711FD0126FFF798FF1F
:105920006E4B02216E481A6B4FF002094FF00308CC
:105930006C4D42F001024FF480371A631A6B02F08B
:1059400001020092009A1A6B42F004021A631A6B69
:1059500002F004020192019A1A6B42F002021A63E9
:105960001A6B02F002020292029A1A6B42F01002C3
:105970001A631A6B02F010020392039A1A6B42F038
:1059800008021A6300221B6B03F008030493049BB4
:10599000FBF718FC002208215148FBF713FC0122F9
:1059A00002215148FBF70EFC012202214E48FBF771
:1059B00009FC002201214C48FBF704FC00224FF4B3
:1059C00000714A48FBF7FEFB00224FF48071474804
:1059D000FBF7F8FB002201214548FBF7F3FB00220F
:1059E0004FF480514348FBF7EDFB00224FF4006178
:1059F0004048FBF7E7FB00224FF480613D48FBF78E
:105A0000E1FB00224FF400513848FBF7DBFB0A238F
:105A100023A933482393249625942694FBF7E6FA8A
:105A2000202323A930482393334B25942493FBF759
:105A3000DDFA224602212820FAF7F4FE2820FAF7A0
:105A400029FF224631461720FAF7ECFE1720FAF715
:105A500021FF1E2323A92648239324962594CDF8BD
:105A60009890FBF7C3FA4FF40C5323A91F482393D4
:105A7000249625942694FBF7B9FA4FF4E05323A912
:105A80001C482393249625942694FBF7AFFA23A968
:105A900017482396249625942694FBF7A7FA1248D4
:105AA00023A9CDF88C80249625942694FBF79EFAA2
:105AB000124B2846AC602E61AE612C626C62EC62C7
:105AC000AC62EC602E636C6185E888000427EF61AE
:105AD000FAF75CFCA0B1FEF7E1FA00BF0038024023
