:020000040800F2
:1000000000000520F90E00084537000847370008B2
:10001000493700084B3700084D3700080000000042
:100020000000000000000000000000004F37000842
:10003000513700080000000053370008553700080A
:10004000490F0008490F0008490F0008490F000830
:10005000490F0008490F0008490F0008490F000820
:10006000490F0008490F0008490F0008490F000810
:10007000490F0008490F0008490F0008490F000800
:10008000490F0008490F0008490F0008490F0008F0
:10009000490F0008490F0008490F0008490F0008E0
:1000A000490F0008490F0008490F0008490F0008D0
:1000B000490F0008490F0008490F0008490F0008C0
:1000C000490F0008490F0008490F0008490F0008B0
:1000D000490F0008490F0008490F0008490F0008A0
:1000E000490F0008490F0008490F0008490F000890
:1000F000490F0008490F0008490F0008490F000880
:10010000490F0008490F0008490F0008490F00086F
:10011000490F0008490F0008490F0008490F00085F
:10012000490F0008490F0008490F0008490F00084F
:10013000490F0008490F0008490F0008490F00083F
:10014000490F0008490F0008490F0008490F00082F
:10015000490F0008490F0008490F0008490F00081F
:10016000490F0008490F0008490F0008490F00080F
:10017000490F0008490F0008490F0008000000005F
:10018000490F0008490F0008490F0008490F0008EF
:10019000490F0008490F0008490F0008490F0008DF
:1001A000490F0008490F0008490F0008490F0008CF
:1001B000490F0008490F0008490F0008490F0008BF
:0801C000490F0008490F000877
:1001D00010B5054C237833B9044B13B10448AFF381
:1001E00000800123237010BD4005002000000000A6
:1001F000A465000808B5034B1BB103490348AFF3DE
:10020000008008BD0000000044050020A46500082F
:10021000034613F8012B002AFBD1181A0138704746
:1002200001F0FF01102A2BDB10F0070F08D010F8A7
:10023000013B013A8B422DD010F0070F42B3F6D1AB
:10024000F0B441EA012141EA014122F007047FF0C4
:1002500000070023F0E80256083C85EA010586EA1B
:10026000010685FA47F5A3FA87F586FA47F6A5FA57
:1002700087F68EB9EED1F0BC01F0FF0102F0070263
:1002800032B110F8013B013A83EA010313B1F8D10E
:100290000020704701387047002D06BF35460338EF
:1002A000073815F0010F07D1013015F4807F02BF28
:1002B000013015F4C03F0130F0BC0138704700BF79
:1002C00081F0004102E000BF83F0004330B54FEA07
:1002D00041044FEA430594EA050F08BF90EA020F74
:1002E0001FBF54EA000C55EA020C7FEA645C7FEA07
:1002F000655C00F0E2804FEA5454D4EB5555B8BF2A
:100300006D420CDD2C4480EA020281EA030382EA9A
:10031000000083EA010180EA020281EA0303362D2C
:1003200088BF30BD11F0004F4FEA01314FF4801CFF
:100330004CEA113102D0404261EB410113F0004F11
:100340004FEA03334CEA133302D0524263EB4303C8
:1003500094EA050F00F0A780A4F10104D5F1200E66
:100360000DDB02FA0EFC22FA05F2801841F10001C1
:1003700003FA0EF2801843FA05F359410EE0A5F195
:1003800020050EF1200E012A03FA0EFC28BF4CF0C6
:10039000020C43FA05F3C01851EBE37101F000457C
:1003A00007D54FF0000EDCF1000C7EEB00006EEB89
:1003B0000101B1F5801F1BD3B1F5001F0CD3490813
:1003C0005FEA30004FEA3C0C04F101044FEA44526A
:1003D00012F5800F80F09A80BCF1004F08BF5FEAF1
:1003E000500C50F1000041EB045141EA050130BDD1
:1003F0005FEA4C0C404141EB010111F4801FA4F174
:100400000104E9D191F0000F04BF01460020B1FAC8
:1004100081F308BF2033A3F10B03B3F120020CDA00
:100420000C3208DD02F1140CC2F10C0201FA0CF0DE
:1004300021FA02F10CE002F11402D8BFC2F1200C43
:1004400001FA02F120FA0CFCDCBF41EA0C019040F9
:10045000E41AA2BF01EB0451294330BD6FEA040442
:100460001F3C1CDA0C340EDC04F11404C4F120022D
:1004700020FA04F001FA02F340EA030021FA04F33F
:1004800045EA030130BDC4F10C04C4F1200220FA96
:1004900002F001FA04F340EA0300294630BD21FAD4
:1004A00004F0294630BD94F0000F83F4801306BF9A
:1004B00081F480110134013D4EE77FEA645C18BF8E
:1004C0007FEA655C29D094EA050F08BF90EA020F25
:1004D00005D054EA000C04BF1946104630BD91EA1D
:1004E000030F1EBF0021002030BD5FEA545C05D120
:1004F0004000494128BF41F0004130BD14F580045F
:100500003CBF01F5801130BD01F0004545F0FE41D2
:1005100041F470014FF0000030BD7FEA645C1ABF07
:10052000194610467FEA655C1CBF0B46024650EA3E
:10053000013406BF52EA033591EA030F41F400216A
:1005400030BD00BF90F0000F04BF0021704730B5F0
:100550004FF4806404F132044FF000054FF00001C5
:1005600050E700BF90F0000F04BF0021704730B586
:100570004FF4806404F1320410F0004548BF40425B
:100580004FF000013EE700BF42004FEAE2014FEAB0
:1005900031014FEA02701FBF12F07F4393F07F4F8B
:1005A00081F06051704792F0000F14BF93F07F4FBD
:1005B000704730B54FF4607401F0004521F0004100
:1005C00020E700BF50EA010208BF704730B54FF086
:1005D00000050AE050EA010208BF704730B511F08B
:1005E000004502D5404261EB41014FF4806404F1C3
:1005F00032045FEA915C3FF4DCAE4FF003025FEA45
:10060000DC0C18BF03325FEADC0C18BF033202EBCC
:10061000DC02C2F1200300FA03FC20FA02F001FA26
:1006200003FE40EA0E0021FA02F11444C1E600BFC5
:1006300070B54FF0FF0C4CF4E06C1CEA11541DBF78
:100640001CEA135594EA0C0F95EA0C0F00F0DEF843
:100650002C4481EA030621EA4C5123EA4C5350EA28
:10066000013518BF52EA033541F4801143F4801379
:1006700038D0A0FB02CE4FF00005E1FB02E506F00A
:100680000042E0FB03E54FF00006E1FB03569CF05F
:10069000000F18BF4EF0010EA4F1FF04B6F5007F65
:1006A00064F5407404D25FEA4E0E6D4146EB0606D7
:1006B00042EAC62141EA55514FEAC52040EA5E5060
:1006C0004FEACE2EB4F1FD0C88BFBCF5E06F1ED80A
:1006D000BEF1004F08BF5FEA500E50F1000041EB41
:1006E000045170BD06F0004646EA010140EA0200EE
:1006F00081EA0301B4EB5C04C2BFD4EB0C0541EA10
:10070000045170BD41F480114FF0000E013C00F324
:10071000AB8014F1360FDEBF002001F0004170BD48
:10072000C4F10004203C35DA0C341BDC04F1140461
:10073000C4F1200500FA05F320FA04F001FA05F2ED
:1007400040EA020001F0004221F0004110EBD370BA
:1007500021FA04F642EB06015EEA430E08BF20EAE6
:10076000D37070BDC4F10C04C4F1200500FA04F389
:1007700020FA05F001FA04F240EA020001F000411B
:1007800010EBD37041F100015EEA430E08BF20EA8E
:10079000D37070BDC4F1200500FA05F24EEA020ED6
:1007A00020FA04F301FA05F243EA020321FA04F005
:1007B00001F0004121FA04F220EA020000EBD370BC
:1007C0005EEA430E08BF20EAD37070BD94F0000FBC
:1007D0000FD101F00046400041EB010111F4801FF0
:1007E00008BF013CF7D041EA060195F0000F18BFA1
:1007F000704703F00046520043EB030313F4801FDD
:1008000008BF013DF7D043EA0603704794EA0C0F96
:100810000CEA135518BF95EA0C0F0CD050EA4106AC
:1008200018BF52EA4306D1D181EA030101F0004129
:100830004FF0000070BD50EA410606BF1046194651
:1008400052EA430619D094EA0C0F02D150EA01365D
:1008500013D195EA0C0F05D152EA03361CBF10469E
:1008600019460AD181EA030101F0004141F0FE413D
:1008700041F470014FF0000070BD41F0FE4141F4C1
:10088000780170BD70B54FF0FF0C4CF4E06C1CEAC1
:1008900011541DBF1CEA135594EA0C0F95EA0C0F76
:1008A00000F0A7F8A4EB050481EA030E52EA033531
:1008B0004FEA013100F088804FEA03334FF0805552
:1008C00045EA131343EA12634FEA022245EA11157F
:1008D00045EA10654FEA00260EF000419D4208BF30
:1008E000964244F1FD0404F5407402D25B084FEADD
:1008F0003202B61A65EB03055B084FEA32024FF489
:1009000080104FF4002CB6EB020E75EB030E22BFE5
:10091000B61A754640EA0C005B084FEA3202B6EBA5
:10092000020E75EB030E22BFB61A754640EA5C0054
:100930005B084FEA3202B6EB020E75EB030E22BFE4
:10094000B61A754640EA9C005B084FEA3202B6EBE5
:10095000020E75EB030E22BFB61A754640EADC00A4
:1009600055EA060E18D04FEA051545EA16754FEA06
:1009700006164FEAC30343EA52734FEAC2025FEA24
:100980001C1CC0D111F4801F0BD141EA00014FF0B3
:1009900000004FF0004CB6E711F4801F04BF014384
:1009A0000020B4F1FD0C88BFBCF5E06F3FF6AFAEA0
:1009B000B5EB030C04BFB6EB020C5FEA500C50F130
:1009C000000041EB045170BD0EF0004E4EEA1131B3
:1009D00014EB5C04C2BFD4EB0C0541EA045170BDBA
:1009E00041F480114FF0000E013C90E645EA060EFE
:1009F0008DE60CEA135594EA0C0F08BF95EA0C0F2C
:100A00003FF43BAF94EA0C0F0AD150EA01347FF473
:100A100034AF95EA0C0F7FF425AF104619462CE74A
:100A200095EA0C0F06D152EA03353FF4FDAE1046AD
:100A3000194622E750EA410618BF52EA43067FF4FE
:100A4000C5AE50EA41047FF40DAF52EA43057FF48E
:100A5000EBAE12E74FF0FF3C06E000BF4FF0010C99
:100A600002E000BF4FF0010C4DF804CD4FEA410CFD
:100A70007FEA6C5C4FEA430C18BF7FEA6C5C1BD0CA
:100A800001B050EA410C0CBF52EA430C91EA030F4B
:100A900002BF90EA020F0020704710F1000F91EAA8
:100AA000030F58BF994208BF90422CBFD8176FEA76
:100AB000E37040F0010070474FEA410C7FEA6C5C44
:100AC00002D150EA013C07D14FEA430C7FEA6C5C4B
:100AD000D6D152EA033CD3D05DF8040B704700BF77
:100AE0008446104662468C461946634600E000BFC5
:100AF00001B5FFF7B7FF002848BF10F1000F01BD97
:100B00004DF808EDFFF7F4FF0CBF012000205DF861
:100B100008FB00BF4DF808EDFFF7EAFF34BF0120E6
:100B200000205DF808FB00BF4DF808EDFFF7E0FF7F
:100B300094BF012000205DF808FB00BF4DF808EDD0
:100B4000FFF7CEFF94BF012000205DF808FB00BF37
:100B50004DF808EDFFF7C4FF34BF012000205DF819
:100B600008FB00BF4FEA410C7FEA6C5C02D150EAFF
:100B7000013C0AD14FEA430C7FEA6C5C02D152EA95
:100B8000033C02D14FF0000070474FF00100704766
:100B90004FEA410212F5001215D211D56FF47873A5
:100BA000B3EB625212D94FEAC12343F0004343EA48
:100BB000505311F0004F23FA02F018BF4042704723
:100BC0004FF00000704750EA013005D111F00040AD
:100BD00008BF6FF0004070474FF00000704700BF43
:100BE00053B94AB9002908BF00281CBF4FF0FF3194
:100BF0004FF0FF3000F07EB9ADF1080C6DE904CE86
:100C000000F006F8DDF804E0DDE9022304B07047E7
:100C10002DE9F0478C460E460446089D002B50D126
:100C20008A4217466CD9B2FA82FEBEF1000F0BD091
:100C3000CEF1200420FA04F401FA0EF644EA060C80
:100C400002FA0EF700FA0EF44FEA1749220CBCFB29
:100C5000F9F01FFA87F809FB10C642EA064600FBC6
:100C600008F3B34209D9F61900F1FF3280F022816E
:100C7000B34240F21F8102383E44F61AA2B2B6FBDC
:100C8000F9F309FB136642EA064403FB08F8A045A2
:100C900009D9E41903F1FF3280F00A81A04540F23E
:100CA0000781023B3C44C8EB040443EA00400021B6
:100CB000002D62D024FA0EF400232C606B60BDE896
:100CC000F0878B4207D9002D55D0002185E84100DF
:100CD0000846BDE8F087B3FA83F1002940F0908020
:100CE000B34202D3824200F2F880841A66EB030614
:100CF0000120B446002D40D085E81010BDE8F087F3
:100D000012B90127B7FBF2F7B7FA87FEBEF1000F61
:100D100035D1F31B4FEA17481FFA87FC0121B3FBBB
:100D2000F8F0220C08FB103642EA06460CFB00F3F2
:100D3000B34207D9F61900F1FF3202D2B34200F2F2
:100D4000CE801046F61AA2B2B6FBF8F308FB136683
:100D500042EA06440CFB03FCA44507D9E41903F15D
:100D6000FF3202D2A44500F2B5801346CCEB040456
:100D700043EA00409CE729462846BDE8F087CEF1CB
:100D8000200106FA0EF307FA0EF720FA01F94FEAEE
:100D90001748CE4049EA0309B6FBF8FA4FEA19446E
:100DA00008FB1A661FFA87FC44EA06430AFB0CF2AA
:100DB0009A4200FA0EF40AD9DB190AF1FF3180F0E9
:100DC00087809A4240F28480AAF1020A3B449B1A2F
:100DD0001FFA89F9B3FBF8F108FB113349EA034321
:100DE00001FB0CF69E4207D9DB1901F1FF326BD2F1
:100DF0009E4269D902393B449B1B41EA0A418EE776
:100E0000C1F1200E22FA0EF48B40234320FA0EF794
:100E100006FA01F44FEA134C26FA0EF63C43B6FBF1
:100E2000FCF9270C0CFB19661FFA83F847EA064603
:100E300009FB08F7B74202FA01F200FA01FA08D9F1
:100E4000F61809F1FF3041D2B7423FD9A9F10209A2
:100E50001E44F61BA0B2B6FBFCF40CFB146640EA81
:100E6000064704FB08F8B84507D9FF1804F1FF301E
:100E700028D2B84526D9023C1F4444EA0940C8EBB1
:100E80000707A0FB02894F4544464E4614D329D09C
:100E900065B3BAEB040367EB060707FA0EFECB4017
:100EA000CF404EEA030385E888000021BDE8F087C3
:100EB0001346F8E61046E0E6B8EB020469EB0306D9
:100EC0000138E5E70446D8E7114695E78146C0E7D3
:100ED0008A467CE7023B3C4448E708460AE702387A
:100EE0003E442FE7C245E7D33E46D1E72946BDE859
:100EF000F08700BF704700BFDFF834D0002103E067
:100F00000C4B5B58435004310B480C4B42189A422F
:100F1000F6D30B4A02E0002342F8043B094B9A4205
:100F2000F9D302F01FFC02F043FC02F07FF8704797
:100F3000000005207C67000800000020400500201C
:100F400040050020A8070020FEE70000084B10B570
:100F5000044618684FF47A73B0FBF3F000F08AFA95
:100F6000002221464FF0FF3000F04CFA002010BD67
:100F70000000002008B5032000F032FA0020FFF73F
:100F8000E5FF02F095FA002008BD0000024A136850
:100F900001331360704700BF94050020014B1868AF
:100FA000704700BF9405002010B50446002800F0EB
:100FB0009E80036C23B9436480F83C3002F0A8FAA9
:100FC000236CDB0600F18E80236C23F4885323F01E
:100FD000020343F002032364464B5A6822F4403272
:100FE0005A60596862680A435A60236821695A68DE
:100FF000A06A22F480725A605A6842EA01225A605A
:101000005A6822F040725A60A26859680A435A60CE
:101010009A6822F400629A60E26899680A439A60CA
:10102000354A90420ED0996821F0706199609A68B3
:1010300002439A609A6822F040529A60E26A996884
:101040000A4306E09A6822F070629A609A6822F079
:1010500040529A609A68A16922F002029A609A68E6
:1010600042EA41029A60226A9AB15A6842F40062E6
:101070005A605A6822F460425A604FF4604292FA11
:10108000A2F2B2FA82F1626A5868013A8A400243D7
:1010900002E05A6822F400625A600020DA6A22F400
:1010A0007002DA62E269D96A013A41EA0252216BBE
:1010B000DA629A6822F400729A609A6842EA4122DF
:1010C00061699A609A6822F480629A609A6842EA3A
:1010D00081229A606064236C23F0030343F00103D0
:1010E000236400E00120002384F83C3010BD01207F
:1010F00010BD00BF002301400100000F002382B09B
:10110000019390F83C30012B4DD0012380F83C3006
:1011100003689A68D10703D59A68D20712D437E0DA
:101120009A68224942F001029A60214A1268B2FB91
:10113000F1F202EB42020192019A002AECD0019AEC
:10114000013AF8E7026C22F4E06222F0010242F474
:10115000807202645A68510505D5026C22F440522F
:1011600042F480520264026C12F4805202D0426C4B
:1011700022F006024264002280F83C206FF0220236
:101180001A600C4A5268D20604D00B4A934201D02E
:10119000002009E0986810F04050F9D19A6842F0B8
:1011A00080429A6000E0022002B0704740420F0087
:1011B00000000020002301400020014090F83C3056
:1011C000012B17D0012380F83C3003689A6822F085
:1011D00001029A609B68DB0707D4036C23F48853F1
:1011E00023F0010343F001030364002380F83C3043
:1011F000184670470220704703689A6870B5560514
:1012000004460D460BD59B68D80508D5236C0120F4
:1012100043F020032364002384F83C3070BDFFF7C3
:10122000BDFE064623681A68920711D4691CFAD0DD
:1012300045B9236C032043F004032364002384F89E
:101240003C3070BDFFF7AAFE801B8542EAD2F0E772
:101250006FF012021A60226C42F4007222649A68E3
:1012600012F0405F01D0002070BDA269002AFAD1BF
:10127000DA6A12F4700F02D09B685B05F3D4236C1A
:1012800023F480732364206C10F48050EBD1236C22
:1012900043F00103236470BD0368D86C70470000FD
:1012A0000023F7B5019390F83C30012B70D00D6806
:1012B00001230468092D80F83C30AEB28F6817D93D
:1012C00006EB4602D4F80CE0A2F11E0307229A4076
:1012D0002EEA0202E2603D4A954203D1E36843EA06
:1012E000076303E0E26807FA03F31343E3600EE0E9
:1012F00005EB45034FF0070E22690EFA03FE07FACD
:1013000003F322EA0E0222612269134323614B6830
:10131000062B4FEA83020DD81344676B591F1F2316
:101320008B4006FA01F127EA03036363626B114302
:1013300061631DE00C2B0ED81344216BA3F1230233
:101340001F23934006FA02F221EA03032363236B6F
:101350001A4322630CE013441F22E76A413B9A4080
:1013600027EA0202E26206FA03F2E16A0A43E26253
:10137000174B9C4204D0002380F83C30184623E0F1
:10138000122D07D1134A536843F480035360F2E7E8
:10139000022019E00D4B9D4201D0112DEBD10D49DA
:1013A0009D424A6842F400024A60E4D10A4B0B4A6B
:1013B0001B68B3FBF2F20A2353430193019B002BFA
:1013C000D9D0019B013BF8E703B0F0BD120000103B
:1013D00000200140002301400000002040420F0097
:1013E000074A0002D36800F4E06023F4E0631B04C2
:1013F0001B0C43F0BF6343F400330343D3607047D7
:1014000000ED00E0194BDB68C3F3022330B5C3F1F4
:1014100007041D1D042C28BF0424062D4FF00105D0
:101420008CBF033B002305FA04F4002804F1FF34C9
:1014300004EA010404FA03F405FA03F303F1FF33A9
:1014400002EA030242EA04024FEA021205DA00F05D
:101450000F00D2B2064B1A5430BD00F16040D2B238
:1014600000F5614080F8002330BD00BF00ED00E0D2
:1014700014ED00E00138B0F1807F0AD2064BF02174
:10148000064A5860002082F82310072298601A60EC
:1014900070470120704700BF10E000E000ED00E061
:1014A000044B04281A680CBF42F0040222F0040224
:1014B0001A60704710E000E0704708B5FFF7FCFFC6
:1014C00008BD00002DE9F04F0B6885B06F4E019309
:1014D0000023DFF8C0C1B646DFF8BC810122019CC1
:1014E0009A4032EA040440F0C9804C6824F01009A4
:1014F000B9F1020F14D14FEAD30A03F0070B0F25FD
:1015000000EB8A0A4FEA8B0BDAF8207005FA0BF52C
:1015100027EA05050F6907FA0BF72F43CAF8207071
:101520004FEA430A0325076804F0030B05FA0AF59E
:1015300009F1FF390BFA0AFBED43B9F1010F07EA94
:1015400005074BEA0707076012D8876805EA07090D
:10155000CF6807FA0AF747EA0907C4F3001987605A
:1015600009FA03F9476827EA020749EA07074760CB
:10157000C7683D408F6807FA0AF73D43C560E5003C
:101580007CD5DCF8445023F0030703F0030A4FF046
:101590000F0945F4804507F180474FEA8A0ACCF8E5
:1015A000445007F59C37DCF8445005F4804503951A
:1015B000039D09FA0AF5D7F808B02BEA0509344D5E
:1015C000A84224D005F58065A84222D005F58065A3
:1015D000A84220D005F58065A8421ED005F580659B
:1015E000A8421CD040451CD005F50065A8421AD081
:1015F00005F58065A84218D005F58065A84216D08B
:1016000005F58065A84214BF0A25092510E00025CC
:101610000EE001250CE002250AE0032508E0042580
:1016200006E0052504E0062502E0072500E0082580
:1016300005FA0AF514F4803F45EA0905BD606FEA32
:10164000020735680CBF3D40154314F4003FCEF847
:101650000050DEF804500CBF3D40154314F4801FC9
:101660007560B5680CBF3D401543A402CEF8085024
:10167000DEF80C5054BF3D401543F5600133102B8C
:101680007FF42CAF05B0BDE8F08F00BF003C0140F7
:1016900000000240003802400014024002B9090470
:1016A0008161704743695940416170470368F7B5EC
:1016B0000446D80703D42368990752D4A5E0964B73
:1016C0009A6802F00C02042A07D09A6802F00C0211
:1016D000082A0BD15B685A0208D58F4B1B689B0305
:1016E000E9D56368002BE6D1012076E163688A4D75
:1016F000B3F5803F13D05BB92B6823F480332B60A4
:101700002B6823F480232B60FFF748FC064624E077
:10171000B3F5A02F2B6806D143F480232B602B68F0
:1017200043F4803305E023F480332B602B6823F4EB
:1017300080232B60FFF732FC774D06462B689F0312
:10174000B9D4FFF72BFC801B6428F7D9032044E1B0
:10175000FFF724FC801B6428F8D82B689803F7D483
:10176000A9E76D4B9A6812F00C0F07D09A6802F047
:101770000C02082A17D15B68590214D4664B1A6808
:10178000920702D5E268012AAED11A68F82191FACF
:10179000A1F12069B1FA81F122F0F80200FA01F119
:1017A0000A431A6031E0E3685B4DF3B12B6843F004
:1017B00001032B60FFF7F2FB06462B6856489B0798
:1017C00005D4FFF7EBFB801B0228F6D9BEE70368C0
:1017D000F82292FAA2F22169B2FA82F223F0F80317
:1017E00001FA02F2134303600FE02B6823F00103B8
:1017F0002B60FFF7D3FB06462B689F0705D5FFF745
:10180000CDFB801B0228F7D9A0E723681E0703D46D
:1018100023685D0749D522E063693F4D7BB16B6F5B
:1018200043F001036B67FFF7B9FB06466B6F980740
:10183000EED4FFF7B3FB801B0228F7D986E76B6F66
:1018400023F001036B67FFF7A9FB06466B6F99074F
:10185000DED5FFF7A3FB801B0228F7D976E72E4BD6
:101860002E4D1A6C42F080521A641B6C03F08053A8
:101870000193019B2B6843F480732B60FFF78EFB71
:1018800006462B68DA0514D5A368234D012B16D123
:101890002B6F43F001032B6741F28835FFF77EFB86
:1018A0001D4E0746336F9B0726D5A269002A37D104
:1018B00079E0FFF773FB801B6428E2D946E76BB938
:1018C0002B6F41F2883723F001032B672B6F23F036
:1018D00004032B67FFF762FB064619E0052B2B6F0D
:1018E00003D143F004032B67D2E723F001032B67F6
:1018F0002B6F23F00403CEE7FFF750FBC01BA84279
:10190000D0D923E7FFF74AFB801BB8423FF61EAF52
:101910002B6F9807F6D4C8E70038024000700040EB
:101920002F4DAB6803F00C03082B3FF4DDAE2B68A2
:10193000022A23F080732B6043D1FFF72FFB074669
:101940002B68274E990130D447F6C07292FAA2F262
:101950004FF44033B2FA82F093FAA3F34FF070627F
:10196000B3FA83F592FAA2F2E369B2FA82F1276A36
:10197000626A1F43824047F0005343EA0200A36AB1
:101980005A08013A02FA05F3E26A03438A40134314
:101990007360336843F080733360FFF7FFFA0446E7
:1019A00033689A0107D5002017E0FFF7F7FAC01B4C
:1019B0000228C5D9CAE6FFF7F1FA001B0228EFD9C1
:1019C000C4E6FFF7EBFA04462B689B01EBD5FFF763
:1019D000E5FA001B0228F7D9B8E603B0F0BD00BF56
:1019E000003802401B498B6803F00C03042B2CD0F9
:1019F000082B2CD1486847F6C0724B6800F03F00B6
:101A000013F4800F4B6892FAA2F247F6C071B2FA53
:101A100082F201EA030121FA02F114BF0E4A0F4AD1
:101A2000B2FBF0F00B4A00FB01F34FF44030526878
:101A300090FAA0F002F44032B0FA80F022FA00F0FE
:101A400001304000B3FBF0F0704703487047034893
:101A5000704700BF0038024040787D010024F40048
:101A6000504A136803F00F038B422DE9F0410446FE
:101A70000D460AD32168880714D54B48836823F0A4
:101A8000F002A368134383600CE0136823F00F0394
:101A90000B431360136803F00F039942EAD001204F
:101AA000BDE8F081C90706D43E4A136803F00F036E
:101AB0009D4242D34BE062683B4B012A196802D138
:101AC00011F4003F06E0022A02D111F0007F01E08C
:101AD00011F0020FE3D0996841F28838324F21F0BB
:101AE00003010A439A60FFF759FA63680646012B1F
:101AF0000CD1BB6803F00C03042BD5D0FFF74EFAD2
:101B0000801B4045F5D90320BDE8F081022B0FD1A1
:101B1000BB6803F00C03082BC6D0FFF73FFA801B0D
:101B20004045F5D9EFE7FFF739FA801B4045EAD881
:101B3000BB6813F00C0FF6D1B6E7136823F00F0360
:101B40002B431360136803F00F039D42A7D1216854
:101B50004A0706D51448836823F4E052E368134328
:101B600083600B0707D5104A2169936823F460430B
:101B700043EAC1039360FFF735FF0B4BF0229B68EC
:101B800092FAA2F2B2FA82F203F0F003D340074ACB
:101B9000D35CD840064B18600020FFF7D7F900202F
:101BA000BDE8F081003C024000380240E8650008D2
:101BB00000000020014B1868704700BF00000020A3
:101BC000084B4FF4E0529B6892FAA2F2B2FA82F20A
:101BD00003F4E053D340044AD35C044A1068D8406D
:101BE000704700BF00380240F86500080000002080
:101BF000084B4FF460429B6892FAA2F2B2FA82F26A
:101C000003F46043D340044AD35C044A1068D840CC
:101C1000704700BF00380240F8650008000000204F
:101C200003682DE9F74F13F0010604460BD0B64ABE
:101C3000916821F400019160466B91683143B6FAD6
:101C400086F67609916013F4002512D0AE49E56B53
:101C5000D1F88C20B5F5801F22F4401208BF012670
:101C600042EA050216BFB5FA85F500256D09C1F8EF
:101C70008C20D80211D5A448216CD0F88C20B1F565
:101C8000800F22F4400242EA0102C0F88C2003D007
:101C9000002908BF012500E0012613F0807F18BF4E
:101CA000012699065DD5984B984F1A6C42F08052E8
:101CB0001A641B6C03F080530193019B3B6843F44F
:101CC00080733B60FFF76AF980463B68DA0507D40A
:101CD000FFF764F9C8EB00006428F6D9032040E35D
:101CE000894F3B6F13F440730FD1226B02F44073A2
:101CF000B3F5407F844B2BD1996821F4F81022F082
:101D0000704121F44071014325E0226B02F44072DE
:101D10009342EAD03B6F3A6F23F4407342F480322F
:101D20003A673A6F22F480323A673B673B6FDB07D2
:101D3000DBD5FFF733F941F2883980463B6F9807CE
:101D4000D3D4FFF72BF9C8EB00004845F6D9C5E717
:101D5000996821F4F8119960C2F30B02196F0A43D4
:101D60001A672368D9060CD5674AD2F88C1021F07F
:101D70008071C2F88C10D2F88C00A16B0143C2F8BC
:101D80008C105A0408D56048D0F8902022F44031D5
:101D9000626E0A43C0F890201F0408D55A48D0F854
:101DA000902022F44021A26E0A43C0F89020D8036C
:101DB00008D55548D0F8902022F44011E26E0A432D
:101DC000C0F89020990308D54F48D0F8902022F40D
:101DD0004001226F0A43C0F890205A0608D54A48AD
:101DE000D0F8902022F00301626C0A43C0F89020E2
:101DF0001F0608D54448D0F8902022F00C01A26CB0
:101E00000A43C0F89020D80508D53F48D0F8902064
:101E100022F03001E26C0A43C0F89020990508D501
:101E20003948D0F8902022F0C001226D0A43C0F852
:101E300090205A0508D53448D0F8902022F44071FB
:101E4000626D0A43C0F890201F0508D52E48D0F8CF
:101E5000902022F44061A26D0A43C0F89020D8047B
:101E600008D52948D0F8902022F44051E26D0A4369
:101E7000C0F89020990408D52348D0F8902022F487
:101E80004041226E0A43C0F890205A0208D51E48ED
:101E9000D0F8902022F08061A26F0A43C0F8902011
:101EA0009F020CD51848E16FD0F89020B1F1006F77
:101EB00022F0006208BF01250A43C0F8902013F009
:101EC000080F18BF0125580308D50F48D0F89020F7
:101ED00022F04071626F0A43C0F89020190209D5C0
:101EE0000948D0F8902022F08051D4F880200A438D
:101EF000C0F89020012E0BD0B3F1007F08D0012D47
:101F000040F08C8123E100BF0038024000700040A7
:101F1000C84E336823F080633360FFF73FF807460D
:101F20003368DFF810E31A0105D5FFF737F8C01B57
:101F30006428F5D9D2E62768FB073CD5636BD3BB91
:101F4000DEF884004FF4403898FAA8F94FF0706634
:101F5000B9FA89F9DEF8842096FAA6FC47F6C07A29
:101F6000BCFA8CFC9AFAAAFABAFA8AFA98FAA8F891
:101F7000B8FA88F896FAA6F64FF0E043B6FA86F675
:101F800093FAA3F3B3FA83FB6168A36800F44030CB
:101F900001FA0AF102F0706203FA0BF320FA09F079
:101FA00022FA0CF20B4300FA08F1194302FA06F385
:101FB0000B43CEF884303E0303D5E36BB3F5801FAB
:101FC00005D0F80249D5236CB3F5800F45D1DFF871
:101FD00064E24FF44038DEF8840098FAA8F94FF034
:101FE000E046B9FA89F9DEF8842096FAA6FC47F6AD
:101FF000C07BBCFA8CFC9BFAABFBBBFA8BFB98FA60
:10200000A8F84FF07063B8FA88F893FAA3F3B3FA1C
:1020100083FA96FAA6F6636800F4403002F0E042D4
:10202000B6FA86F603FA0BF1E36820FA09F022FA11
:102030000CF203FA0AF30B4300FA08F1194302FA0F
:1020400006F30B43CEF88430DEF88C30626A23F05E
:102050001F03013A1343CEF88C30F9013CD5DFF869
:10206000D4E14FF07068DEF8840098FAA8F94FF0D8
:10207000E046B9FA89F9DEF8842096FAA6FC47F61C
:10208000C07BBCFA8CFC9BFAABFB4FF44033BBFA31
:102090008BFB93FAA3F3B3FA83FA98FAA8F8B8FA89
:1020A00088F896FAA6F6636800F0706002F0E042E5
:1020B000B6FA86F603FA0BF1236920FA09F022FA40
:1020C0000CF203FA0AF30B4300FA08F1194302FA7F
:1020D00006F30B43CEF88430BA0126D547F6C07E0E
:1020E0009EFAAEFE4FF44030BEFA8EFE90FAA0F09B
:1020F0004FF07062B0FA80F792FAA2F24FF0E0432C
:10210000B2FA82F693FAA3F3B3FA83F12069636813
:10211000E268B84003FA0EF3B24003431A43A368DF
:102120008B401343434AC2F88430424E336843F035
:1021300080633360FEF732FF074633681B013FF5CB
:10214000DEAEFEF72BFFC01B6428F6D9C6E5394D7D
:102150002B6823F080532B60FEF720FF06462B6888
:102160009F005DD425682E0360D4E80264D4A902E0
:1021700000F1AD802A0745D52E4F4FF07065D7F896
:10218000882095FAA5FC4FF44036BCFA8CFCD7F8B1
:10219000880096FAA6F847F6C079B8FA88F899FA4E
:1021A000A9F9B9FA89F996FAA6F6B6FA86F695FA71
:1021B000A5F54FF0E04EB5FA85F59EFAAEFE6369DF
:1021C000BEFA8EFE00F4403002F0706203FA09F1AC
:1021D000E36920FA08F022FA0CF203FA0EFE02FA82
:1021E00005F341EA0E0E00FA06F14EEA01010B4337
:1021F000C7F88830D7F88C3023F44032E36A1343B1
:10220000C7F88C300B4C236843F080532360FEF7F3
:10221000C5FE054623689B0040F19C800020A0E09D
:10222000FEF7BCFE801B642899D957E5E36B33B1F8
:102230009BE700BF00380240236C002B97D14A4F28
:102240004FF4403CD7F888009CFAACF94FF0E046D8
:10225000B9FA89F9D7F8882096FAA6FE47F6C07A27
:10226000BEFA8EFE9AFAAAFABAFA8AFA9CFAACFC7C
:102270004FF07068BCFA8CFC98FAA8F8B8FA88F8A5
:1022800096FAA6F6A16900F44030636902F0E042D4
:1022900001FA08F820FA09F003FA0AF322FA0EF21A
:1022A000B6FA86F600FA0CF143EA0803194302FA7B
:1022B00006F30B43C7F88830D7F88C30A26A23F4B2
:1022C000F853013A43EA0223C7F88C304FE7E36F33
:1022D000B3F1006F7FF44EAF234F4FF0706CD7F81F
:1022E00088009CFAACF94FF0E046B9FA89F9D7F8C2
:1022F000882096FAA6FE47F6C07ABEFA8EFE9AFAB3
:10230000AAFA4FF44038BAFA8AFA98FAA8F8B8FA52
:1023100088F89CFAACFCBCFA8CFC96FAA6F6216A0A
:1023200000F07060636902F0E04201FA08F820FAF8
:1023300009F003FA0AF3B6FA86F600FA0CF122FA6B
:102340000EF243EA0803194302FA06F30B43C7F8F7
:1023500088300FE7FEF722FE401B64287FF65AAF55
:10236000BCE403B0BDE8F08F0038024070B504460D
:1023700000284FD00023836290F85D3003F0FF0205
:102380001BB980F85C2001F0EDF802232168E268B7
:1023900084F85D300B68B2F5E06F23F040030B600A
:1023A0004FF0000303D91846B2F5706F01E04FF407
:1023B000805018BFA362236B2BB9B2F5E06F8CBFBE
:1023C000022301232363A5686668A3692E43256958
:1023D0002E4365692E43E5692E43256A2E43A56A7F
:1023E0002E4303F400751B0C35430D60656A2A43C8
:1023F000656B154303F0040245EA02030343002022
:102400004B60CB6923F40063CB610123206684F821
:102410005D3070BD012070BD2E4A0368904212D01D
:10242000B0F1804F0FD0A2F57C4290420BD002F564
:102430008062904207D002F58062904203D002F59C
:102440007842904218D14A6823F070031343214A1E
:10245000904237D0B0F1804F34D01F4A904231D0F3
:1024600002F5806290422DD002F58062904229D020
:1024700002F57842904225D0184A904222D002F5C7
:10248000806290421ED002F5806290421AD0A2F57E
:102490009832904216D002F58062904212D002F536
:1024A000806290420ED003608B68C3620B688362C7
:1024B000084B98420BD003F58063984207D0012364
:1024C0004361704723F44073CA681343EBE70B6919
:1024D0000363F4E7000001400004004000400140B5
:1024E00010B50446A0B190F8393003F0FF021BB9D3
:1024F00080F8382001F082F802232068211D84F83A
:102500003930FFF789FF0123002084F8393010BDEE
:10251000012010BD10B50446A0B190F8393003F089
:10252000FF021BB980F8382001F042F8022320682E
:10253000211D84F83930FFF76FFF0123002084F854
:10254000393010BD012010BD036A23F0010370B5BE
:102550000362036A426884690D6824F4803424F0BD
:1025600073042C4323F002058B682B430C4DA842C7
:1025700009D005F58065A84205D042604A688461AB
:102580004263036270BDCD6823F008034E6922F4F4
:1025900040722B438D69354323F004032A43ECE753
:1025A00000000140036A23F0100330B50362036AA0
:1025B0004268846923F020030D6824F0807424F4B9
:1025C000E64444EA05248D6843EA05130E4DA8420B
:1025D00009D005F58065A84205D042604A6884614B
:1025E0008263036230BDCD6823F0800322F4406231
:1025F00043EA05134D6942EA85028D6923F04003E1
:1026000042EA8502E9E700BF00000140036A23F4C3
:10261000807330B50362036A4268C46923F40073AF
:102620000D6824F4803424F073042C438D6843EA4D
:1026300005230E4DA84209D005F58065A84205D0B6
:1026400042604A68C461C263036230BDCD6823F44E
:10265000006322F4405243EA05234D6942EA051221
:102660008D6923F4806342EA0512E9E70000014026
:10267000036A23F4805330B50362046A4268C36975
:1026800024F400540D6823F0807323F4E64343EAF6
:1026900005238D6844EA0534094DA84209D005F5A3
:1026A0008065A84205D04260C3614B680364046240
:1026B00030BD22F480424D6942EA8512F3E700BF43
:1026C0000000014070B5046A1A4E24F00104B042C3
:1026D00004628469056A1AD0B0F1804F17D0A6F55C
:1026E0007C46B04213D006F58066B0420FD006F5A6
:1026F0008066B0420BD006F57846B04207D006F5AA
:102700007056B04203D0A6F59436B0420FD124F0F3
:10271000030422431B0122F0F00225F00A0501F018
:102720000A01DBB20D431A438261056270BD44F0B9
:102730000102EFE700000140F8B590F83830054697
:102740000C460220012B7FD0012385F8390085F843
:10275000383072B9CB68286806C9FFF7B3FF2B6819
:102760009A6922F00C029A61A26899690A439A61F7
:1027700064E0042A8E682B68E06891E802401FD16B
:102780001A6A0003090122F0100280B201F0A001D0
:102790001A629C691F6A24F4407444EA0E2222F4EF
:1027A0007042104327F0A0021143986119629A69A0
:1027B00022F440629A619A6942EA06269E613DE0EF
:1027C000082A1A6A1CD122F48072000109021A62D6
:1027D000C0B2DC6901F420611F6A24F003044EEAF0
:1027E000040222F0F002104327F420621143D86162
:1027F0001962DA6922F00C02DA61DA6916431CE028
:1028000022F48052000309031A6280B2DC6901F4E9
:1028100020411F6A24F4407444EA0E2222F47042DC
:10282000104327F420421143D8611962DA6922F477
:102830004062DA61DA6942EA0626DE61012300209D
:1028400085F8393085F83800F8BD01238A408B407F
:1028500010B5046A24EA03030362036A42EA03012F
:10286000016210BD10B5044601220068FFF7EDFFBC
:102870002368084A934203D002F58062934203D151
:102880005A6C42F400425A641A68002042F0010275
:102890001A6010BD00000140036A23F4803330B594
:1028A0000362036A4268446D23F400330D6824F424
:1028B000803424F070042C438D6843EA0543094DAD
:1028C000A84203D005F58065A84204D122F48032E5
:1028D0004D6942EA052242604A68446582650362A6
:1028E00030BD00BF00000140036A23F4801330B5FF
:1028F0000362026A4468436D22F400120D6823F0FB
:10290000807323F4E04343EA05238D6842EA0552CD
:10291000084DA84203D005F58065A84204D124F4EF
:1029200080244D6944EA8524446043654B68C3654F
:10293000026230BD0000014038B590F838300446DE
:102940000D460220012B7BD00123082A84F8390090
:1029500084F838303CD013D84AB3042A6AD12068AE
:10296000FFF720FE236829699A6942F400629A61A0
:102970009A6922F480629A619A6942EA012225E00A
:10298000102A36D0142A44D00C2A53D12068FFF7DD
:102990006FFE23682969DA6942F40062DA61DA6954
:1029A00022F48062DA61DA6942EA01221FE02068DB
:1029B000FFF7CAFD23689A6942F008029A619A6992
:1029C00022F004029A612A6999690A439A6131E006
:1029D0002068FFF71BFE2368DA6942F00802DA611B
:1029E000DA6922F00402DA612A69D9690A43DA61F4
:1029F00020E02068FFF750FF23685A6D42F008027C
:102A00005A655A6D22F004025A652A69596D0A43C3
:102A10000FE02068FFF768FF236809695A6D42F4E8
:102A200000625A655A6D22F480625A655A6D42EA14
:102A300001225A650123002084F8393084F83800D7
:102A400038BD000090F83830012B30B51CD002683A
:102A50000E4C5368A242956803D004F58064A242EC
:102A600003D123F470034C6823430C6823F07003F4
:102A70008968234325F0800453602143002391603B
:102A800080F83830184630BD022030BD00000140CB
:102A90002DE9F041069D04460F46164698462168EA
:102AA000CA6937EA02030CBF01220022B2421DD1DB
:102AB0006B1CF5D09DB9236803201A6822F4D072EC
:102AC0001A609A6822F001029A60202384F8693023
:102AD00084F86A30002384F86830BDE8F081FEF79E
:102AE0005DFAC8EB00008542D9D8E4E70020BDE8D4
:102AF000F0812DE9F3411F4690F8693004460D46F8
:102B0000202B90464BD1002947D0002A45D090F881
:102B10006830012B43D0012380F868300023C3665E
:102B2000212380F86930FEF739FA0646A4F8508070
:102B3000A4F85280B4F8522092B202B3B4F85230E2
:102B4000002200978021013B20469BB2A4F852301E
:102B50003346FFF79DFF08B1032021E0A3682268F8
:102B6000B3F5805F07D123692BB935F8023BC3F376
:102B700008039362DEE72B7801359362DAE700976A
:102B8000334640212046FFF783FF0028E4D120236D
:102B900084F8680084F8693002E0012000E0022037
:102BA00002B0BDE8F081000038B504460568C3698D
:102BB0002269A1682868114362690A4342EA030155
:102BC000884A0240A0690A432A606A6822F4405198
:102BD000E2680A43216A6A600143AA6822F430620B
:102BE0000A43AA60804A954207D102F594327F4990
:102BF000D2F8902002F0030209E07D4A95420BD101
:102C000002F5FA327B49D2F8902002F00C02B3F5BB
:102C1000004F8A5C73D0B6E0774A95420DD102F539
:102C2000F832D2F8902002F03002102A00F08680AC
:102C30005DD9202A78D0302A0EE0704A95420DD115
:102C400002F5F632D2F8902002F0C002402A75D088
:102C50004DD9802A68D0C02A7CD087E0684A954246
:102C60000FD102F5F432D2F8902002F44072B2F59E
:102C7000807F63D03BD9B2F5007F55D0B2F5407F5D
:102C8000EAE7604A954212D102F59232D2F89020DA
:102C900002F44062B2F5806F50D002D8002A3DD0D5
:102CA00064E0B2F5006F3FD0B2F5406FD4E7564A0A
:102CB00095420FD102F5E032D2F8902002F4405252
:102CC000B2F5805F3AD012D9B2F5005F2CD0B2F5E0
:102CD000405FC1E74D4A954248D102F5DE32D2F855
:102CE000902002F44042B2F5804F27D001D87AB14B
:102CF0003CE0B2F5004F17D0B2F5404FACE7082AE0
:102D000037D8DFE802F0080E14361E3636362A00B1
:102D1000B3F5004F40D1FEF753FF14E0B3F5004F79
:102D20003DD1FEF765FF0EE0B3F5004F3AD1606884
:102D3000420802F1F47303F5904312E0B3F5004F3B
:102D400039D1FEF74FFE63685A0802EB4000B0FB32
:102D5000F3F308E0B3F5004F37D16068430803F59B
:102D60008033B3FBF0F39BB2002004E0B3F5004FD7
:102D700035D101200023C3F3420123F00F03226861
:102D80000B43D36038BD082A29D8DFE802F00508D4
:102D90000B28142828281E00FEF712FF0DE0FEF76E
:102DA00027FF0AE061684A0802F5740303F510532F
:102DB000B3FBF1F30FE0FEF715FE636800EB530081
:102DC000B0FBF3F080B2E86007E06268530803F5F7
:102DD0000043B3FBF2F39BB2EB60002038BD01204F
:102DE00038BD00BFF369FFEF00100140C065000867
:102DF00000440040C465000800480040004C00400A
:102E0000005000400014014000780040007C004069
:102E1000436ADA0710B506D50468626822F4003107
:102E2000826A0A4362609C0706D50468626822F4DD
:102E30008031C26A0A436260590706D50468626835
:102E400022F48021026B0A4362601A0706D50468E7
:102E5000626822F40041426B0A436260DC0606D5D8
:102E60000468A26822F48051826B0A43A26099062A
:102E700006D50468A26822F40051C26B0A43A2601E
:102E80005A0610D50168046C4A68B4F5801F22F414
:102E9000801242EA04024A6005D14A6822F4C00462
:102EA000426C22434A601B0606D501684B6823F436
:102EB0000022836C13434B6010BD73B5002604469B
:102EC000C666FEF76BF8236805461B681A0704D42C
:102ED00023681B685B071AD50DE06FF07E4332460E
:102EE0004FF40011009303462046FFF7D1FD002860
:102EF000EED0032013E06FF07E4300224FF48001F8
:102F0000204600932B46FFF7C3FD0028F1D1202374
:102F1000002084F8693084F8680084F86A3002B0D0
:102F200070BD10B5044660B390F8693003F0FF023D
:102F30001BB980F8682000F0DFFB226824232046BC
:102F400084F86930136823F001031360FFF72CFE47
:102F5000012816D0636A13B12046FFF759FF236892
:102F600020465A6822F490425A609A6822F02A0257
:102F70009A601A6842F00102BDE810401A60FFF73B
:102F80009CBF012010BD0000264B1A6C42F08052FD
:102F900010B51A64B4B01B6C234A07A803F0805321
:102FA0000093009B136823F4404343F48043136071
:102FB000136803F440430193019B02230793012309
:102FC0000A9310230B9300230D93FEF76FFB01462A
:102FD00000B1FEE70F23039004900590069002A82D
:102FE0000293FEF73DFD00B1FEE74023249013A8B5
:102FF0001393FEF715FE044600B1FEE7FEF7DAFD77
:103000004FF47A73B0FBF3F0FEF734FA0420FEF7C6
:1030100047FA224621464FF0FF30FEF7F3F934B06D
:1030200010BD00BF0038024000700040F0B597B0FE
:103030000024FDF79FFF0126FFF7A6FF934B062113
:1030400093481A6B934D42F004021A631A6B02F014
:1030500004020092009A1A6B42F001021A631A6B82
:1030600002F001020192019A1A6B42F002021A6305
:103070001A6B02F002020292029A1A6B42F01002DC
:103080001A631A6B02F010020392039A1A6B42F051
:1030900008021A6300221B6B03F008030493049BCD
:1030A000FEF7FCFA002210217B48FEF7F7FA002217
:1030B0004FF4E0417948FEF7F1FA00223C217848CC
:1030C000FEF7ECFA062309A9714809930A960B94B6
:1030D0000C94FEF7F7F9102309A96F4809930A9693
:1030E0000B940C94FEF7EEF94FF4E04309A96B48FA
:1030F00009930A960B940C94FEF7E4F94FF40043FD
:1031000009A9674809930A940B94FEF7DBF9402359
:1031100009A95F4809930A940B94FEF7D3F93C235D
:103120005F4809A90A9609930B940C94FEF7CAF913
:103130005C4B2846AC602E61AE612C62EC62EC60A8
:103140002C636C6185E81800574BAB620223EB617E
:10315000FDF72AFF00B1FEE708270B9009A92846D2
:1031600009970A96FEF79CF800B1FEE74F4B4FF423
:1031700082724F49986018615861D861186258622C
:103180009862186318465F6383E806004FF4407244
:10319000DA604FF400729A610722DA62FFF7E6F80C
:1031A00000B1FEE7434C444B6060A060E0602061EA
:1031B000606120462360FFF7ADF900B1FEE705909E
:1031C00005A9069007902046FFF73CFC024600B197
:1031D000FEE7099009A90B900C9020460A96FFF78C
:1031E000ABFA00B1FEE7042209A92046FFF7A4FAD2
:1031F00000B1FEE73A4609A92046FFF79DFA00B163
:10320000FEE70C2209A92046FFF796FA00B1FEE777
:103210002A4B4FF080421A6040F62E525860986058
:1032200018611846DA60FFF75BF900B1FEE700238A
:1032300005A9224805930793FFF704FC024600B155
:10324000FEE760260A900B9009A90D901B4809968D
:10325000FFF772FB00B1FEE7042209A91748FFF748
:103260006BFB00B1FEE70C2209A91448FFF764FBD1
:1032700000B1FEE740F25273082209A90F480A93F1
:10328000FFF75AFB0546D8B1FEE700BF0038024001
:103290000008024010060020000002400004024026
:1032A000000C0240002001400100000F0407002034
:1032B00000300140C80600200000014068070020DF
:1032C000704C714800F0CEF9704B2046A560E56067
:1032D000256184E82800FFF703F900B1FEE70590B7
:1032E00005A907902046FFF7ADFB024600B1FEE7B7
:1032F0000A9009A90B900D9020460996FFF71CFB38
:1033000000B1FEE7042209A92046FFF715FB00B132
:10331000FEE7082209A92046FFF70EFB00B1FEE7F1
:103320000C2209A95748FFF707FB054600B1FEE745
:10333000574C544800F096F9564B2046A560E5607E
:10334000256184E82800FFF7CBF800B1FEE705907F
:1033500005A907902046FFF775FB024600B1FEE77E
:1033600060230A900B9009A90D9020460993FFF75E
:10337000E3FA054600B1FEE720460C2600F072F99C
:103380004548464A4FF416538560C560056146615D
:103390008561C5610562456280E80C00FFF7C1FDEB
:1033A000044600B1FEE701463748FFF75BFA042107
:1033B00035482546FFF756FA08213348FFF752FAF9
:1033C00031463148FFF74EFA4FF480513448FEF74A
:1033D00069F94FF400513248FEF764F94FF4804127
:1033E0002F48FEF75FF904212E48FEF75BF9022112
:1033F0002C48FEF757F9082305A92B48059301230C
:10340000069300230793FDF74BFF00B1FEE7264824
:10341000FDF774FE64212448FDF7EEFE18B922483A
:10342000FDF73AFF05462048FDF7C8FE0F2305A922
:103430001D4805930223069300230793FDF730FFF1
:1034400000B1FEE71848FDF759FE64211648FDF764
:10345000D3FE18B91448FDF71FFF04461248FDF7C4
:10346000ADFE23462A46114909A800F0C7F909A86C
:10347000FCF7CEFE4FF47A7382B209A90648FFF733
:1034800038FBA1E7D40500206807002000040040B5
:103490009805002000080040580600200010014058
:1034A000000402400008024010060020D165000818
:1034B00008B50320FDF794FF00226FF00B001146C2
:1034C000FDF7A0FF00226FF00A001146FDF79AFFFA
:1034D00000226FF009001146FDF794FF00226FF003
:1034E00004001146FDF78EFF00226FF00300114625
:1034F000FDF788FF00226FF001001146FDF782FF03
:1035000000224FF0FF301146BDE80840FDF77ABFBA
:103510000268114B9A4230B587B01BD103F58C334A
:103520000324002501A95A6C0C4842F480725A64A5
:103530005B6C029403F4807303950093009B31232A
:103540000193FDF7BFFF01A905480194029403957B
:10355000FDF7B8FF07B030BD002001400008024071
:10356000000402407FB502680F4B9A4218D103F560
:10357000843301A90D485A6C42F480525A645B6C42
:1035800003F480530093009BE023019302230293F2
:10359000002303930323049305230593FDF792FF70
:1035A00007B05DF804FB00BF00300140000002409E
:1035B0007FB502680F4B9A4218D103F59C3301A9DD
:1035C0000D485A6C42F001025A645B6C03F001032F
:1035D0000093009B4FF4D4430193022302930023F2
:1035E0000393049301230593FDF76CFF07B05DF887
:1035F00004FB00BF0000014000100240036884B0DB
:10360000B3F1804F0BD103F50E331A6C42F0010277
:103610001A641B6C03F001030193019B1AE00E4A2C
:1036200093420AD10D4B1A6C42F002021A641B6CD1
:1036300003F002030293029B0CE0094A934209D172
:10364000064B1A6C42F004021A641B6C03F004036C
:103650000393039B04B0704700040040003802400D
:10366000000800400368B3F1804F30B587B00BD13C
:103670000F2301A91A480193022302930023039305
:1036800004930123059326E0164A934215D10224A0
:1036900000254FF4407301A9134801930294039548
:1036A00004950594FDF70EFF30230294039501A9BC
:1036B0000193049505940D480DE00D4A93420CD1F9
:1036C0004FF48053002201A90A4801930223039278
:1036D000029304920593FDF7F5FE07B030BD00BFDD
:1036E00000000240000400400008024000040240C4
:1036F00000080040000C02407FB502680F4B9A4260
:1037000019D103F5943301A90D485A6C42F0100207
:103710005A645B6C03F010030093009B4FF4C0638A
:1037200001930223029301230393032304930723AA
:103730000593FDF7C7FE07B05DF804FB00100140DC
:10374000000002407047FEE7FEE7FEE7FEE7704735
:103750007047704708B5FDF719FCBDE80840FDF754
:10376000ACBE00000F490020D1F8883043F470034C
:10377000C1F888300C4B1A6842F001021A60986058
:103780001A6822F0847222F480321A60074A5A6062
:103790001A6822F480221A60D8604FF000638B60B0
:1037A000704700BF00ED00E00038024010300024F8
:1037B00070B50E4B0E4CE41AA41000251E46A5420F
:1037C00004D056F8253098470135F8E702F0EAFEB4
:1037D000084C094BE41AA41000251E46A54204D04B
:1037E00056F8253098470135F8E770BD7467000832
:1037F0007467000878670008746700080EB400B5A5
:103800009CB04FF402711DABADF8141002900690FD
:103810006FF000410A48049107914FF6FF7153F889
:10382000042BADF816100068019302A900F00CF803
:10383000029B00221A701CB05DF804EB03B07047C5
:10384000F4000020000000002DE9F04FBDB08B46D1
:1038500005921F46824601F0EBFD03680D93184662
:10386000FCF7D6FCBBF80C300890190615D5DBF830
:10387000103093B94021504601F0E6FDCBF800002E
:10388000CBF8100030B90C23CAF800304FF0FF30ED
:1038900000F095BF4023CBF814309FED997B8DED60
:1038A000067B00232CAC1F94219320930493119347
:1038B00010930A93059D2B4613F8012B1AB1252A64
:1038C00001D01D46F7E7059BEE1A17D084E84800A3
:1038D000219B33442193209B0133072B209301DC50
:1038E000083408E01FAA5946504602F0C1FA0028E1
:1038F00040F02C862CAC0A9B33440A932B78002B87
:1039000000F01D8600226B1C8DF85F2011464FF0E1
:10391000FF39099215460A205E1C1B780596029312
:10392000029B203B582B00F26382DFE813F05C001F
:10393000610261026B006102610261026102610267
:1039400061026E005900610279007C006102A300EF
:10395000A600A600A600A600A600A600A600A60037
:10396000A6006102610261026102610261026102FC
:10397000610261026102D6000B0161020B0161026A
:10398000610261026102B9006102610252016102D9
:1039900061026102610261029901610261026600D5
:1039A00061026102610261026102610261026102FF
:1039B00061026102CD0061000B010B010B01BC0033
:1039C000610061026102BF006102340154016F01B4
:1039D000CA006102800161029B0161026102B301C0
:1039E00001222B2102E009B901222021059B93E746
:1039F000002A77D08DF85F1074E00AB18DF85F105F
:103A0000414B4BE145F00105F0E73E680996002E79
:103A100007F1040301DB1F46E8E7764209961F46DB
:103A200045F00405E2E7059E059B367802962A2EAE
:103A300003F1010302D04FF000090AE0D7F800902B
:103A400005933E1DB9F1000F3746CFDA4FF0FF392D
:103A5000CCE70593029B303B092B08D800FB0939C2
:103A6000059B1E4616F8013B02933346F1E749EAEF
:103A7000E97955E745F08005B8E700230993029BF3
:103A8000099E303B00FB06330993059B1E4616F842
:103A9000013B0293029B0596303B092BEFD93FE790
:103AA00045F00805A2E745F040059FE7059B1B7818
:103AB0006C2B03D1059B0133059302E045F0100503
:103AC00094E745F0200591E73B1D039300263B68F2
:103AD0008DF888308DF85F6099E10AB18DF85F103C
:103AE00045F01005AA0611D5073727F0070707F19B
:103AF00008030393D7E9006717E000BFAFF3008026
:103B000000000000000000002066000815F0100F03
:103B100007F1040302D003933E6805E03E68039377
:103B200015F0400F18BF36B2F717002E77F10003DB
:103B300080F2DE8076424FF02D0367EB47078DF869
:103B40005F30D5E00AB18DF85F10073727F007071F
:103B500007F10803039397ED007B8DED067B069B31
:103B60001293079B23F0004313934FF0FF32AB4BAC
:103B7000DDE91201FCF7F6FF002840F0F1844FF078
:103B8000FF32A64BDDE91201FCF7CEFF002840F022
:103B9000E78400F0FDBD0AB18DF85F1015F0200F2D
:103BA00007F1040307D00A993A68CE170846314650
:103BB000C2E900010BE0E90606D46A0604D53A68BA
:103BC000BDF82810118002E03A680A9911601F467A
:103BD00070E645F0100515F0200309D0073727F0EF
:103BE000070707F10803D7E90067039300237BE089
:103BF0003A1D15F01001039205D115F0400302D0D3
:103C00003E880027F2E73E6800276DE03B1D0393E6
:103C1000302378228DF86030814B3E681193002765
:103C200045F002058DF86120022302925CE0002637
:103C30003B1DB1450393D7F800808DF85F600ADB28
:103C40004A4631464046FCF7EBFA002800F0EA808D
:103C5000C8EB0009E7E04046FCF7DAFA8146E2E00B
:103C600045F01005AE0608D5073727F0070707F11E
:103C700008030393D7E900670AE03B1D15F0100F16
:103C8000039303D1680601D53E8800E03E68002713
:103C9000012329E00AB18DF85F10614B1193A90649
:103CA00008D5073727F0070707F108030393D7E97B
:103CB00000670AE03B1D15F0100F039303D16A065D
:103CC00001D53E8800E03E680027EB070BD556EA99
:103CD000070308D030238DF860309DF808308DF848
:103CE000613045F00205022300228DF85F2000E0DC
:103CF0000123B9F1000FC0F25C8556EA070225F0F6
:103D0000800103D1B9F1000F5FD006E00D46012B11
:103D100025D0022B46D0294607E00D46012B22D0A4
:103D2000022B3DD02946002600270DF1B008F208ED
:103D300042EA4772F80806F0070307461646303392
:103D400056EA070208F8013DF1D1E80748D5302BC3
:103D500046D0302308F8013C08F1FF3840E0002F3E
:103D600008BF0A2E05D20DF1F008303608F8416D73
:103D700029E00DF1B008304639460A220023FCF74D
:103D80002FFF303208F8012D0023304639460A2231
:103D9000FCF726FF06460F4656EA0703EBD112E072
:103DA000002600270DF1B00806F00F03119AD35C2E
:103DB00008F8013D330943EA07733A091E461746DE
:103DC00056EA0703F0D129460AE03BB9EA0705D5D0
:103DD0000DF1F008302308F8413D01E00DF1B00885
:103DE0004E460DF1B009C8EB09090D4600271BE04E
:103DF0000AB18DF85F10029B002B00F0A0839DF8A4
:103E000008308DF8883000268DF85F6003974FF0FA
:103E1000010937460DF1880806E000BFFFFFEF7F7C
:103E200031660008064637464E453346B8BF4B4616
:103E30000B939DF85F3013B10B9B01330B9315F07F
:103E4000020314931EBF0B9B02330B9315F08403E4
:103E5000159339D1099B0B9A9B1A002B0C9333DDD8
:103E60000C9B102BA64B236018DD10236360219B55
:103E700010332193209B0133072B209301DC08345E
:103E800008E01FAA5946504601F0F2FF002840F012
:103E90005D832CAC0C9B103B0C93E1E70C9B6360A7
:103EA0000C9A219B13442193209B0133072B2093D1
:103EB00001DC083408E01FAA5946504601F0D8FF3B
:103EC000002840F043832CAC9DF85F30BBB10DF16E
:103ED0005F03236001236360219B01332193209BB7
:103EE0000133072B209301DC083408E01FAA594650
:103EF000504601F0BDFF002840F028832CAC149BF5
:103F0000B3B118AB236002236360219B023321937A
:103F1000209B0133072B209301DC083408E01FAA03
:103F20005946504601F0A4FF002840F00F832CAC06
:103F3000159B802B35D1099B0B9A9B1A002B30DDEA
:103F4000704A2260102B18DD10226260219A103214
:103F50002192209A0132072A209201DC08340AE0DB
:103F60001FAA594650460C9301F082FF002840F0EA
:103F7000ED820C9B2CAC103BE2E7219A636013446A
:103F80002193209B0133072B209301DC083408E0A8
:103F90001FAA5946504601F06BFF002840F0D68218
:103FA0002CACC9EB0606002E2EDD564B2360102EDE
:103FB00016DD10236360219B10332193209B013376
:103FC000072B209301DC083408E01FAA594650460D
:103FD00001F04EFF002840F0B9822CAC103EE4E71F
:103FE000209B2198666001330644072B219620937D
:103FF00001DC083408E01FAA5946504601F038FF9A
:10400000002840F0A3822CACEB0514D4219B84E85B
:1040100000034B442193209B0133072B209340F353
:1040200044821FAA5946504601F022FF002840F062
:104030008D822CAC3AE2029B652B40F3AD810022CD
:104040000023DDE90601FCF75BFD00285ED02E4B66
:10405000236001236360219B01332193209B013363
:10406000072B209301DC083408E01FAA594650466C
:1040700001F0FEFE002840F069822CAC199B049AE6
:10408000934202DBEE0740F111820D9B2360089BF7
:104090006360089A219B13442193209B0133072BD3
:1040A000209301DC083408E01FAA5946504601F06D
:1040B000DFFE002840F04A822CAC049B5E1E002EDE
:1040C00040F3F4810F4F4FF01008102E40F3598148
:1040D000219B10332193209B0133072B84E880011F
:1040E000209301DC083408E01FAA5946504601F02D
:1040F000BFFE002840F02A822CAC103EE5E700BF4E
:10410000446600080066000842660008199B002B00
:104110007CDC9F4B236001236360219B013321934F
:10412000209B0133072B209301DC083408E01FAAF1
:104130005946504601F09CFE002840F007822CAC06
:10414000199B23B9049B13B9E80740F1AF810D9B7C
:104150002360089B6360089A219B13442193209B52
:104160000133072B209302DC04F1080308E01FAAA7
:104170005946504601F07CFE002840F0E7812CAB08
:10418000199E7642002E30DD824F1024102E16DD4F
:10419000219A1F6010322192209A5C600132072A16
:1041A000209201DC083308E01FAA5946504601F06E
:1041B0005FFE002840F0CA812CAB103EE6E7754A4E
:1041C00083E84400219A1644209A21960132072A56
:1041D000209201DC083308E01FAA5946504601F03E
:1041E00047FE002840F0B2812CAB049A5A60049933
:1041F000219AC3F800800A442192209A0132072AAA
:1042000020923FF70EAF03F108044FE1049BBB423D
:10421000A8BF3B46002B1E4615DD6360219BC4F8FA
:10422000008033442193209B0133072B209301DC32
:10423000083408E01FAA5946504601F019FE00282C
:1042400040F084812CAC002EACBFBE1B3E46002E3D
:1042500030DD4FF010094F4B2360102E16DD219BEF
:10426000C4F8049010332193209B0133072B209333
:1042700001DC083408E01FAA5946504601F0F8FD59
:10428000002840F063812CAC103EE4E7219B66607F
:104290001E44209B21960133072B209301DC083418
:1042A00008E01FAA5946504601F0E2FD002840F000
:1042B0004D812CAC199B049A9342474401DBE907DA
:1042C00017D50D9B2360089B6360089A219B1344BC
:1042D0002193209B0133072B209301DC083408E055
:1042E0001FAA5946504601F0C3FD002840F02E8118
:1042F0002CAC049B049A08EB0306199BF61BD31AFB
:104300009E42A8BF1E46002E14DD219B2760334429
:104310002193209B66600133072B209301DC083436
:1043200008E01FAA5946504601F0A2FD002840F0BF
:104330000D812CAC199B049A002EA2EB0303ACBF99
:104340009E1B1E46002E40F3B180124F4FF0100806
:10435000102E16DD219B10332193209B0133072B58
:1043600084E88001209301DC083408E01FAA594644
:10437000504601F07DFD002840F0E8802CAC103E56
:10438000E6E7044B84E84800219B1E44219642E660
:104390004266000800660008049B012B01DCEA0766
:1043A00073D501236360219BC4F8008001332193FE
:1043B000209B0133072B209301DC083408E01FAA5F
:1043C0005946504601F054FD002840F0BF802CAC07
:1043D0000D9B2360089B6360089A219B13442193E3
:1043E000209B0133072B209301DC083408E01FAA2F
:1043F0005946504601F03CFD002840F0A7802CAC07
:1044000000230022DDE90601FCF77AFB049B5E1E17
:10441000B8B908F1010384E84800219B049A013BE4
:1044200013442193209B0133072B209334DD1FAAD3
:104430005946504601F01CFD002840F087802CAC06
:104440002BE0002E29DDA74F4FF01008102E15DDB0
:10445000219B10332193209B0133072B84E880019B
:10446000209301DC083407E01FAA5946504601F0AA
:10447000FFFC00286AD12CAC103EE7E7994B84E89A
:104480004800219B1E442196CCE701236360219BB9
:10449000C4F800800133C4E708341BAB2360109BD1
:1044A0006360109A219B1344B4E508346B070BD466
:1044B0000A9B099A0B998A42ACBF9B185B180A9316
:1044C000219B002B35D02EE0099B0B9A9D1A002DC5
:1044D000EEDD1026844B2360102D13DD219B6660DA
:1044E00010332193209B0133072B209301DC0834E8
:1044F00006E01FAA5946504601F0BAFC30BB2CAC6E
:10450000103DE7E7219B65601D44209B2195013309
:10451000072B2093CCDD1FAA5946504601F0A8FC7A
:104520000028C5D012E01FAA5946504601F0A0FC51
:1045300060B900232093039F2CACFFF7BBB9219BEC
:1045400023B11FAA5946504601F092FCBBF80C302B
:1045500013F0400F0A9B18BF4FF0FF3318462EE1AF
:10456000DDE9062310461946FCF7FCFA60B15F4B03
:104570005F4A029925F080054729CCBF90469846AE
:104580004FF0030900264EE4B9F1FF3F0AD0029B29
:1045900023F02003472B07D1B9F1000F08BF4FF0DC
:1045A000010901E04FF0060945F480730C93079B65
:1045B000002B07DA069B0E93079B03F100430F9332
:1045C0002D2304E09DED067B8DED0E7B00230B93E8
:1045D000029B23F02007462F04D0452F05D109F177
:1045E000010603E04E46032101E04E4602211DABC9
:1045F00001931AAB0093324619AB9DED0E0B50465A
:1046000000F076F9472F804602D1EB0740F1CD80CC
:1046100008EB0603462F049311D198F80030302B95
:1046200009D100220023DDE90E01FCF769FA10B977
:10463000C6F101061996049A199B1A4404920022A5
:104640000023DDE90E01FCF75BFA08B9302202E035
:10465000049B1D9307E01D9B0499994203D9591CA3
:104660001D911A70F7E71D9B472FC8EB03030493B6
:1046700008D1199BDF1C01DB994568DA029B023BDC
:10468000029302E0029B652B4ADC199B9DF80820EF
:104690008DF86C20013B002B1993BABF5B422D2291
:1046A0002B22092B8DF86D2024DD0DF17B020A20D1
:1046B00093FBF0F100FB11333033092902F8013D7F
:1046C0000B46F5DC303302F8013C511E0DF16E0350
:1046D0000DF17B0081421A4613D211F8012B03F829
:1046E000012BF7E70066000844660008186600081A
:1046F0001C660008302213448DF86E208DF86F3050
:104700001CAA1BABD31A049A1093012A03EB0209CB
:1047100002DC15F0010732D0089B002799442EE0F7
:10472000029B662B13D1199B002B07DDB9F1000FFB
:1047300001D1EE0721D5089A134406E0B9F1000F24
:1047400001D1ED0714D5089B01334B4415E0199BAB
:10475000049A934203DBE8070DD5089A06E0049A11
:104760000899002B0A4405DCC3F10103134402E05D
:10477000012302E0134667220292199F99460B9B80
:1047800013B12D238DF85F300C9D0026FFF74CBB35
:1047900000220023DDE90601FCF7BCF910B12D234E
:1047A0008DF85F30074B084AE3E61D9B1B1A049304
:1047B0005FE756EA07027FF4AAAAFFF7AFBA3DB057
:1047C000BDE8F08F10660008146600082DE9F74F69
:1047D00003690C699C42804600F38380013C01F12F
:1047E00014074FEA840E00F1140657F8245006EB24
:1047F0000E030193013556F82430B3FBF5F507EBB2
:104800000E09002D39D04FF0000A3846B446D34681
:1048100050F8042B93B205FB03A34FEA134A9BB253
:10482000C3EB0B03120CBCF800B005FB02A213FA99
:104830008BF34FEA124A1FFA82FBDCF80020CBEB25
:10484000124202EB23429BB243EA024381454FEA04
:10485000224B4CF8043BDBD256F80E306BB9019B6F
:10486000043B9E421A4602D3C8F8104005E0126885
:10487000043B002AF8D1013CF3E7404601F01FFA5F
:1048800000282CDB013530464FF0000E57F8041B92
:10489000D0F800C08AB2C2EB0E03090C13FA8CF3F5
:1048A000C1EB1C4202EB23429BB243EA0243B945EF
:1048B0004FEA224E40F8043BE8D256F8242006EB9B
:1048C000840362B9043B9E421A4602D3C8F81040E2
:1048D00005E01268043B002AF8D1013CF3E72846C2
:1048E00000E0002003B0BDE8F08F000000000000F1
:1048F0002DE9F04F59EC108B97B0456A069182462E
:1049000009921093209CCDE9008945B9102000F050
:1049100093FDCAF82400456085600560C560DAF83B
:104920002430196859B15A684A60012393408B605A
:10493000504600F0EBFFDAF8243000221A60019BA9
:104940009F4A002BBFBF01232360019B23F000433C
:10495000B8BF0193019FA4BF0023236027F0004349
:104960001B0D1B0593421DD1109A42F20F73136069
:10497000009B43B9934A944BC7F31300002814BF1C
:104980001846104600E09048219B002B00F04A8515
:10499000C37813B100F1080300E0C31C219A13602F
:1049A00000F040BDDDE900450022002320462946F5
:1049B000FCF7A6F8804658B1109A01231360219B9A
:1049C000002B00F0228581481860013800F02ABDD4
:1049D00014AA15A945EC104B504601F0EBF9C7F3AA
:1049E0000A5602905EB1C5F3130343F07F5120468F
:1049F00041F44011A6F2FF36CDF844801DE0159B2E
:104A0000149E1E4406F23243202B0ADD009A06F261
:104A10001240C3F1400322FA00F007FA03F31843EF
:104A200004E0C3F12000009B03FA00F0FBF78AFDCD
:104A30000123A1F1F871013E11930022644BFBF7B1
:104A400043FC59A3D3E90023FBF7F2FD58A3D3E9B4
:104A50000023FBF73BFC044630460D46FBF782FD86
:104A600055A3D3E90023FBF7E3FD02460B4620469E
:104A70002946FBF72BFC04460D46FCF789F800227B
:104A80008346002320462946FCF744F858B158468F
:104A9000FBF768FD02460B4620462946FCF730F836
:104AA00008B90BF1FF3BBBF1160F0DD8494901EBDB
:104AB000CB01DDE90023D1E90001FCF749F830B171
:104AC0000BF1FF3B002300E001230D9300E00D906C
:104AD000149B9E1B731E059343BFC3F10009002363
:104AE00005934FF00009BBF1000F07DB059BCDF8E4
:104AF00030B05B4405930023079306E0CBF100033D
:104B000007930023CBEB09090C93069B092B27D8AD
:104B1000052BC4BF043B0693069BA3F10203CCBF45
:104B200000250125032B20D8DFE803F0060E020440
:104B3000012302E0012308E000230893099B002BD6
:104B40001CDD039398461EE000230893099B5B44F9
:104B500003F1010803934346012BB8BF012312E080
:104B6000012500230693089501E0012308934FF0E7
:104B7000FF33039398460022122303E0012303939B
:104B800098461A460992DAF824400022626004210D
:104B900001F114029A421FD8626801326260490032
:104BA000F6E700BFAFF3008061436F63A787D23F92
:104BB000B3C8608B288AC63FFB799F501344D33F0C
:104BC0000000F07F546600085D6600084366000838
:104BD0000000F83F706600086168504600F061FE12
:104BE000DAF8243020601B680493B8F10E0F00F24D
:104BF0005D81002D00F05A819DED007BBBF1000F1F
:104C00008DED0E7B31DDA04A0BF00F0302EBC303E9
:104C100093ED007B4FEA2B14E2068DED0A7B0CD559
:104C20009A4BDDE90E01D3E90823FBF72BFE04F0D4
:104C30000F04CDE90001032600E00226934D6CB17C
:104C4000E30708D5DDE90A01D5E90023FBF7F0FC0D
:104C5000CDE90A01013664100835F0E7DDE90A23E1
:104C6000DDE90001FBF70EFE20E0CBF1000404B308
:104C7000854B864D04F00F0203EBC203D3E90023FA
:104C8000DDE90E01FBF7D4FCCDE90001241100237E
:104C9000022654B1E70705D5D5E90023FBF7C8FC88
:104CA0000136012364100835F3E71BB1CDE900019B
:104CB00000E002260D9BEBB1DDE900450022744BBC
:104CC00020462946FBF726FFA0B1B8F1000F11D00E
:104CD000039B002B40F3E6800BF1FF330A93002285
:104CE0006C4B20462946FBF7A3FC0136CDE90001B9
:104CF000039F02E0CDF828B047463046FBF732FC70
:104D0000DDE90023FBF794FC0022634BFBF7DEFA9E
:104D10000446A1F15075CFB90022604BDDE90001D6
:104D2000FBF7D2FA22462B46CDE90001FBF710FF34
:104D3000002840F04182224605F10043DDE90001F0
:104D4000FBF7E8FE002840F02E82ABE0089A4E4BBD
:104D5000791E002A4AD003EBC103D3E900230020C7
:104D60004F49FBF78FFD22462B46FBF7ADFA049C1B
:104D700005460E46DDE90001FBF70AFF1290FBF73E
:104D8000F1FB02460B46DDE90001FBF79DFA129BA1
:104D9000303304F8013B2A463346CDE90001FBF7E6
:104DA000B9FE002840F02183DDE9002300203849C6
:104DB000FBF78AFA2A463346FBF7ACFE002840F0A0
:104DC000D280049BE31ABB426CDA0022314B2846A6
:104DD0003146FBF72DFC002205460E462D4BDDE942
:104DE0000001FBF725FCCDE90001C3E703EBC1019E
:104DF00022462B46D1E90001FBF71AFC049BCDE9C2
:104E00001201DC191D46DDE90001FBF7C1FE064673
:104E1000FBF7A8FB303602460B46DDE90001FBF745
:104E200053FA05F8016BAC42CDE900014FF00002E6
:104E300023D11B4BDDE91201FBF748FA02460B4672
:104E4000DDE90001FBF784FE002840F08C80DDE9FD
:104E5000122300201249FBF737FA02460B46DDE920
:104E60000001FBF757FEE8B114F8013C302B04F1C8
:104E7000FF3240F0BA821446F6E7064BFBF7D8FB48
:104E8000CDE90001BFE700BF706600083867000881
:104E90000000F03F0000244000001C4000001440CF
:104EA0000000E03FDDE90E348DE81800159B002B73
:104EB0007CDBBBF10E0F79DC8F4B03EBCB03D3E92B
:104EC0000067099B002B14DAB8F1000F11DC40F0E9
:104ED0006C810022894B30463946FBF7A9FBDDE99E
:104EE0000023FBF72BFE45464646002840F05F8135
:104EF00066E1049C32463B46DDE90001FBF7C2FC5B
:104F0000FBF746FE0546FBF72DFB32463B46FBF71B
:104F10008FFB0B460246DDE90001FBF7D5F905F1F1
:104F2000300E04F801EB049BC3EB040EF045CDE911
:104F300000012ED102460B46FBF7C8F98046894690
:104F400002460B4630463946FBF7E4FD78B9424647
:104F50004B4630463946FBF7D3FD002800F0478228
:104F6000E90704D443E2DDF828B000E01C4614F859
:104F7000012C392A04F1FF3307D1049A9A42F5D162
:104F8000049930220BF1010B0A701A7801321A7061
:104F90002DE200225A4BFBF74BFB00220023CDE908
:104FA0000001FBF7ADFD0028A4D020E2089A002AFA
:104FB0002DD0069A012A0ADC119A12B103F233436A
:104FC00002E0149BC3F13603079D4C4615E0079B96
:104FD00008F1FF35AB42BFBF079B0795EA1A0C9B50
:104FE000B7BF9B185D1B0C930025B8F1000FB9BF2C
:104FF000C8EB090400234C464346059A01211A4494
:1050000050469944059200F020FD064602E0079DB7
:10501000089E4C465CB1059B002B08DDA342059A17
:10502000A8BF2346C3EB0909E41AD31A0593079BCB
:10503000002B1DDD089BABB185B131462A46504699
:1050400000F09EFD029A01460646504600F006FD1D
:1050500002990746504600F059FC0297079B5A1BDD
:1050600006D000E0079A0299504600F089FD0290B0
:105070000121504600F0E9FC0C9B05465BB31A4643
:105080000146504600F07CFD069B012B054618DCCE
:10509000009B83B9019BC3F3130373B9019B23F0F6
:1050A00000473F0D3F054FB1059B013309F1010951
:1050B0000593012702E0002700E0009F0C9B73B1DD
:1050C00000E000272B6905EB8303186900F070FCF2
:1050D000C0F1200004E0069B012BD9DD0C9F0120CC
:1050E000059B184410F01F000ED0C0F12003042BC4
:1050F00008DDC0F11C0008E07066000800001440E4
:105100000000244006D018461C30059B034481440F
:1051100004440593B9F1000F05DD4A460299504653
:1051200000F07CFD0290059B002B05DD29461A4608
:10513000504600F073FD05460D9BEBB129460298E1
:1051400000F0BDFD002817DA00230A22029950461C
:1051500000F0F3FB089B02900BF1FF3B002B00F0EB
:105160005881002331460A22504600F0E6FB039B9B
:10517000002B064637DC33E0B8F1000F2ADC069B33
:10518000022B27DDCDF80C80039B83B9294605222D
:10519000504600F0D2FB01460546029800F08FFD14
:1051A00000280DDC03E03D4600E000252E46099B6B
:1051B000049C6FEA030B0AE0DDF828B03D463E464A
:1051C000049B049A5C1C312313700BF1010BB04655
:1051D0000026F7E0089BCDF80C8023B9049CB1E0D1
:1051E000069B022BD0DC002C05DD314622465046C2
:1051F00000F014FD06469FB17168504600F051FB67
:10520000326902320446920006F10C010C3000F0C3
:105210003BFB01222146504600F000FD804600E0A5
:10522000B046009BDDF8109003F00103059329467A
:105230000298FFF7CBFA3146044600F13007029896
:1052400000F03DFD424600902946504600F053FDD7
:10525000C36802463BB901460790029800F02FFD53
:10526000079A034600E0012311465046079300F0D9
:105270004DFB079B4BB9069A3AB9059A2AB9392FC3
:1052800028D0009B002B1ADC1BE0009A002A04DBCC
:105290001AD1069AC2B9059AB2B9002B11DD0122C2
:1052A0000299504600F0BAFC2946029000F007FD32
:1052B000002802DC05D1FA0703D5392F0AD004F102
:1052C000310709F101040CE0002B09F101040BDDA9
:1052D000392F05D1392389F8003009F1010954E04B
:1052E000013789F800706DE0049B039A04F8017C93
:1052F000E31A9342A1463AD000230A22029950466B
:1053000000F01BFB464502904FF000034FF00A02ED
:105310003146504604D100F010FB0646804686E731
:1053200000F00BFB4146064600230A22504600F0DF
:1053300004FB80467BE700230A220299504600F0D6
:10534000FCFA029029460298FFF740FA00F1300774
:1053500004F8017B049B039AE31A9342EBDB049B62
:10536000012AACBF9B180133B046994600260122A2
:105370000299504600F052FC2946029000F09FFC32
:10538000002802DC15D1FB0713D54C4614F8013C6C
:10539000392B04F1FF3209D1049B934204D10BF164
:1053A000010B3123049A02E01446EFE70133137036
:1053B00008E04C4614F8013C302B04F1FF3201D1D7
:1053C0001446F7E72946504600F0A0FAB8F1000F5E
:1053D0000DD02EB1464503D03146504600F096FA26
:1053E0004146504600F092FA01E0DDF828B00299FB
:1053F000504600F08BFA0023109A23700BF1010342
:105400001360219B1BB11C6001E008480AE004986E
:1054100008E0039B002B3FF7E1AE069B022B7FF7D2
:10542000DDAEB1E617B0BDE8F08F00BF4266000800
:1054300000487047F8000020024B0146186800F051
:1054400003B800BFF40000202DE9F04F01F10B0478
:10545000162C85B0814603D934F0070401D502E04B
:1054600010248C4203D20C23C9F80030EAE14846EC
:1054700000F015FAB4F5FC7F9E4D17D204F1080236
:105480002A44A2F1080156688E424FEAD40302D1A1
:10549000D668B24208D07368F268B16823F003039B
:1054A000CA60334491602FE002333DE0630A1AD0B2
:1054B000042B02D8A309383318E0142B01D85B332E
:1054C00014E0542B02D8230B6E330FE0B3F5AA7F00
:1054D00002D8E30B773309E040F25452934204D8E8
:1054E000A30C7C3302E03F2300E07E235A1C05EB33
:1054F000C202A2F1080056680CE00029F16808DB3E
:10550000B368D9608B60B3185A6842F001025A60E0
:10551000A3E10E46864206D0726822F00302111BF8
:105520000F29EADD013B0133724A2E6902F10807B7
:10553000BE42394679D0706820F00300C4EB000EFB
:10554000BEF10F0F0DDD331944F001047460536197
:1055500013614EF00102DF609F605A6043F80EE075
:105560007BE1BEF1000F5761176105DB30444368F2
:1055700043F00103436070E1B0F5007F15D2C0082D
:105580004FEAA00E012707FA0EFE576801304EEAD7
:105590000707576002EBC00752F830E0C6F808E092
:1055A000083FF76042F830603DE0420A042A02D822
:1055B0008209383215E0142A01D85B3211E0542AEE
:1055C00002D8020B6E320CE0B2F5AA7F02D8C20BF1
:1055D000773206E040F25457BA429ABF820C7C32CE
:1055E0007E22571C05EBC20E55F83770DFF804C158
:1055F000BE450DD10120921000FA02F2DCF8040041
:105600001043CCF80400724609E0BF68BE4504D0E0
:105610007A6822F003029042F7D3FA68BE46F2603D
:10562000C6F808E09660CEF80C6001209A1000FAE7
:1056300002F2686882425FD8024206D123F0030377
:105640005200024203F10403FAD005EBC308C2463C
:105650009C46DAF80C6056452CD07068F76820F04C
:105660000300C4EB000EBEF10F0F11DD331944F03F
:105670000104746056F8082FD760BA604EF001023A
:105680006B612B61D96099605A6043F80EE00BE0C2
:10569000BEF1000F0CDB33185A6842F001025A6069
:1056A00056F8083FDF60BB60484600F0F9F8D8E0E4
:1056B0003E46D0E70CF1010C1CF0030F0AF1080A7A
:1056C000C7D1980704D16B6823EA02036B6005E039
:1056D00058F80809804503F1FF33F2D0686852009A
:1056E000824209D842B163460242AED1043352002D
:1056F000FAE700BF30010020D5F808B0DBF80460FD
:1057000026F00306B44203D8331B0F2B00F39C8012
:10571000564A574912680868019102F11008554A23
:105720000392013018BF02F1FF31A0441EBF88442C
:10573000514201EA08080BEB060341464846029332
:1057400000F086FB421C07466FD0029B039A8342FF
:1057500001D9AB4569D1DFF828A1DFF828C1DAF813
:105760000000BB424044CAF8000008D113EA0C0F05
:1057700005D1AB68464446F001065E6049E00199F8
:10578000D1F800E0BEF1FF3F15BFFB1A384B1B18E4
:105790001F6018BFCAF8003017F007031CBFC3F121
:1057A0000803FF18B8441A4408EA0C08C8EB0208BA
:1057B0004146484600F04CFB431C04BF38464FF0BE
:1057C0000008DAF80030AF60C21B4244434442F0A4
:1057D0000102AB45CAF800307A601AD00F2E02D809
:1057E00001237B6021E0DBF804300C3E26F0070645
:1057F00003F001033343CBF804300BEB060305221F
:105800000F2E5A609A6004D90BF10801484600F047
:1058100031FC194ADAF8003011688B4288BF1360F6
:10582000164A11688B4288BF1360AB685A6822F031
:1058300003029442A2EB040301D80F2B04DC484678
:1058400000F02EF800260CE0AE6844F0010234446B
:1058500043F001037260AC606360484600F020F8DA
:105860000836304605B0BDE8F08F00BF6405002063
:105870003C05002080000000600500205C05002041
:10588000680500207F00000010B5431E0A449142C5
:1058900004D011F8014B03F8014FF8E710BD704731
:1058A000704770B5456A04460E463DB91020FFF7B3
:1058B000C3FD6062456085600560C560656AEB6830
:1058C00043B1636ADB6853F8260078B1026843F895
:1058D000262017E021220421204600F048FB636ABD
:1058E000E860DB68002BECD1002070BD012101FADB
:1058F00006F56A1D9200204600F039FB0028F3D01F
:105900004660856000230361C36070BD70B5446A62
:1059100006460D463CB91020FFF78EFD70624460CC
:1059200084600460C4603DB1736A6A68DB6853F8E0
:105930002210296043F8225070BD2DE9F0410D6915
:105940001F4606460C4601F1140E0023DEF8000047
:1059500081B202FB01710F0C000C02FB007089B2D6
:10596000013301EB00419D424FEA10474EF8041B02
:10597000ECDCD7B1A3689D4212DB6168304601318F
:10598000FFF78FFF2269023204F10C01804692007A
:105990000C30FFF779FF21463046FFF7B7FF44464A
:1059A00004EB850301355F6125612046BDE8F08188
:1059B000030C1B0413B90004102300E0002310F0B3
:1059C0007F4F04BF0002083310F0704F04BF000186
:1059D000043310F0404F04BF80000233002803DB83
:1059E000420003D5581C7047184670472020704766
:1059F000036813F007020BD0D90722D49A074BBFD4
:105A00005B089B08036003604CBF012002207047C5
:105A100099B209B91B0C102213F0FF0F04BF1B0A27
:105A20000832190704BF1B090432990704BF9B08F9
:105A30000232D90702D45B0805D001320360104658
:105A40007047002070472020704710B50C46012198
:105A5000FFF727FF01224461026110BD2DE9F74FD6
:105A600014460A6923699A42B8BF0B468846BCBFF0
:105A7000A0461C46D8F81070D4F81090D8F808301A
:105A8000D8F8041007EB09069E42C8BF0131FFF7A2
:105A900008FF00F1140505EB860C2B460022634538
:105AA00002D243F8042BFAE704F1140208F11401BE
:105AB00002EB890301EB87070093009B019293425D
:105AC00057D9B2F800B0BBF1000F23D08946AE46DB
:105AD0004FF0000859F8044BBEF800A0A3B20BFB2E
